{"contracts/test/GasBLS.sol":{"GasBLS":{"abi":[{"inputs":[{"internalType":"bytes","name":"domain","type":"bytes"},{"internalType":"bytes","name":"message","type":"bytes"}],"name":"_hashToFieldGasCost","outputs":[{"internalType":"uint256","name":"operationGasCost","type":"uint256"}],"stateMutability":"nonpayable","type":"function"},{"inputs":[{"internalType":"bytes","name":"domain","type":"bytes"},{"internalType":"bytes","name":"message","type":"bytes"}],"name":"_hashToPointGasCost","outputs":[{"internalType":"uint256","name":"operationGasCost","type":"uint256"}],"stateMutability":"nonpayable","type":"function"},{"inputs":[{"internalType":"uint256[2]","name":"e","type":"uint256[2]"}],"name":"_isNonResidueFP2GasCost","outputs":[{"internalType":"uint256","name":"operationGasCost","type":"uint256"}],"stateMutability":"nonpayable","type":"function"},{"inputs":[{"internalType":"uint256","name":"e","type":"uint256"}],"name":"_isNonResidueFPGasCost","outputs":[{"internalType":"uint256","name":"operationGasCost","type":"uint256"}],"stateMutability":"nonpayable","type":"function"},{"inputs":[{"internalType":"uint256","name":"point","type":"uint256"}],"name":"_isOnCurveG1CompressedGasCost","outputs":[{"internalType":"uint256","name":"operationGasCost","type":"uint256"}],"stateMutability":"nonpayable","type":"function"},{"inputs":[{"internalType":"uint256[2]","name":"point","type":"uint256[2]"}],"name":"_isOnCurveG1GasCost","outputs":[{"internalType":"uint256","name":"operationGasCost","type":"uint256"}],"stateMutability":"nonpayable","type":"function"},{"inputs":[{"internalType":"uint256[2]","name":"point","type":"uint256[2]"}],"name":"_isOnCurveG2CompressedGasCost","outputs":[{"internalType":"uint256","name":"operationGasCost","type":"uint256"}],"stateMutability":"nonpayable","type":"function"},{"inputs":[{"internalType":"uint256[4]","name":"point","type":"uint256[4]"}],"name":"_isOnCurveG2GasCost","outputs":[{"internalType":"uint256","name":"operationGasCost","type":"uint256"}],"stateMutability":"nonpayable","type":"function"},{"inputs":[{"internalType":"uint256","name":"e","type":"uint256"}],"name":"_mapToPointFTGasCost","outputs":[{"internalType":"uint256","name":"operationGasCost","type":"uint256"}],"stateMutability":"nonpayable","type":"function"},{"inputs":[{"internalType":"bytes32","name":"e","type":"bytes32"}],"name":"_mapToPointTIGasCost","outputs":[{"internalType":"uint256","name":"operationGasCost","type":"uint256"}],"stateMutability":"nonpayable","type":"function"},{"inputs":[{"internalType":"uint256","name":"xx","type":"uint256"}],"name":"_sqrt","outputs":[{"internalType":"uint256","name":"operationGasCost","type":"uint256"}],"stateMutability":"view","type":"function"},{"inputs":[{"internalType":"uint256","name":"xx","type":"uint256"}],"name":"_sqrtFaster","outputs":[{"internalType":"uint256","name":"operationGasCost","type":"uint256"}],"stateMutability":"view","type":"function"},{"inputs":[{"internalType":"uint256[2]","name":"signature","type":"uint256[2]"},{"internalType":"uint256[4][]","name":"pubkeys","type":"uint256[4][]"},{"internalType":"uint256[2][]","name":"messages","type":"uint256[2][]"}],"name":"_verifyMultipleGasCost","outputs":[{"internalType":"uint256","name":"operationGasCost","type":"uint256"}],"stateMutability":"nonpayable","type":"function"},{"inputs":[{"internalType":"uint256[2]","name":"signature","type":"uint256[2]"},{"internalType":"uint256[4]","name":"pubkey","type":"uint256[4]"},{"internalType":"uint256[2]","name":"message","type":"uint256[2]"}],"name":"_verifySingleGasCost","outputs":[{"internalType":"uint256","name":"operationGasCost","type":"uint256"}],"stateMutability":"nonpayable","type":"function"}],"evm":{"bytecode":{"linkReferences":{},"object":"608060405234801561001057600080fd5b506145b7806100206000396000f3fe608060405234801561001057600080fd5b50600436106100ea5760003560e01c8063850870e61161008c578063c8c352c211610066578063c8c352c2146102cf578063d13200cc146102ff578063f470857b1461032f578063ffef569c1461035f576100ea565b8063850870e61461023f5780638911b0d81461026f5780638fb3a9831461029f576100ea565b80633e563d10116100c85780633e563d101461017f5780634ce25ff0146101af5780634f09448a146101df5780636a263f021461020f576100ea565b8063101800c2146100ef57806310bf819a1461011f578063222673511461014f575b600080fd5b61010960048036038101906101049190613916565b61038f565b604051610116919061395c565b60405180910390f35b61013960048036038101906101349190613916565b6103e8565b604051610146919061395c565b60405180910390f35b61016960048036038101906101649190613abd565b610441565b604051610176919061395c565b60405180910390f35b61019960048036038101906101949190613b57565b610465565b6040516101a6919061395c565b60405180910390f35b6101c960048036038101906101c49190613bd7565b61056e565b6040516101d6919061395c565b60405180910390f35b6101f960048036038101906101f49190613916565b610590565b604051610206919061395c565b60405180910390f35b61022960048036038101906102249190613bd7565b6105e9565b604051610236919061395c565b60405180910390f35b61025960048036038101906102549190613bd7565b61060c565b604051610266919061395c565b60405180910390f35b61028960048036038101906102849190613abd565b61062e565b604051610296919061395c565b60405180910390f35b6102b960048036038101906102b49190613cb5565b610652565b6040516102c6919061395c565b60405180910390f35b6102e960048036038101906102e49190613d80565b6107e9565b6040516102f6919061395c565b60405180910390f35b61031960048036038101906103149190613dad565b61080b565b604051610326919061395c565b60405180910390f35b61034960048036038101906103449190613bd7565b610864565b604051610356919061395c565b60405180910390f35b61037960048036038101906103749190613bd7565b610886565b604051610386919061395c565b60405180910390f35b60005a90506103d4826002806020026040519081016040528092919082600260200280828437600081840152601f19601f8201169050808301925050505050506108a9565b505a816103e19190613e09565b9050919050565b60005a905061042d826002806020026040519081016040528092919082600260200280828437600081840152601f19601f820116905080830192505050505050610adc565b505a8161043a9190613e09565b9050919050565b60005a90506104508383610ca0565b505a8161045d9190613e09565b905092915050565b60005a905061051a846002806020026040519081016040528092919082600260200280828437600081840152601f19601f820116905080830192505050505050846004806020026040519081016040528092919082600460200280828437600081840152601f19601f820116905080830192505050505050846002806020026040519081016040528092919082600260200280828437600081840152601f19601f820116905080830192505050505050610e31565b610559576040517f08c379a000000000000000000000000000000000000000000000000000000000815260040161055090613ec0565b60405180910390fd5b5a816105659190613e09565b90509392505050565b60005a905061057c82611058565b505a816105899190613e09565b9050919050565b60005a90506105d5826002806020026040519081016040528092919082600260200280828437600081840152601f19601f8201169050808301925050505050506117a4565b505a816105e29190613e09565b9050919050565b60005a90506105f782611851565b50505a816106059190613e09565b9050919050565b60005a905061061a8261193f565b505a816106279190613e09565b9050919050565b60005a905061063d8383611a3a565b505a8161064a9190613e09565b905092915050565b60005a9050610793866002806020026040519081016040528092919082600260200280828437600081840152601f19601f8201169050808301925050505050508686808060200260200160405190810160405280939291908181526020016000905b8282101561070b578484839050608002016004806020026040519081016040528092919082600460200280828437600081840152601f19601f820116905080830192505050505050815260200190600101906106b4565b50505050508585808060200260200160405190810160405280939291908181526020016000905b82821015610789578484839050604002016002806020026040519081016040528092919082600260200280828437600081840152601f19601f82011690508083019250505050505081526020019060010190610732565b5050505050611be6565b6107d2576040517f08c379a00000000000000000000000000000000000000000000000000000000081526004016107c990613ec0565b60405180910390fd5b5a816107de9190613e09565b905095945050505050565b60005a90506107f782612183565b505a816108049190613e09565b9050919050565b60005a9050610850826004806020026040519081016040528092919082600460200280828437600081840152601f19601f820116905080830192505050505050612304565b505a8161085d9190613e09565b9050919050565b60005a905061087282612558565b505a8161087f9190613e09565b9050919050565b60005a905061089482612623565b50505a816108a29190613e09565b9050919050565b600080600083015160208401517f30644e72e131a029b85045b68181585d97816a916871ca8d3c208c16d87cfd478283097f30644e72e131a029b85045b68181585d97816a916871ca8d3c208c16d87cfd4782830981828301017f30644e72e131a029b85045b68181585d97816a916871ca8d3c208c16d87cfd4782838401087f30644e72e131a029b85045b68181585d97816a916871ca8d3c208c16d87cfd4786827f30644e72e131a029b85045b68181585d97816a916871ca8d3c208c16d87cfd470386010993507f30644e72e131a029b85045b68181585d97816a916871ca8d3c208c16d87cfd4785847f30644e72e131a029b85045b68181585d97816a916871ca8d3c208c16d87cfd470384010992507f2b149d40ceb8aaae81be18991be06ac3b5b4c5e559dbefa33267e6dc24a138e5840195507e9713b03af0fed4cd2cafadeed8fdf4a74fa084e52d1852e4a2bd0685c315d2830194507f30644e72e131a029b85045b68181585d97816a916871ca8d3c208c16d87cfd47808687097f30644e72e131a029b85045b68181585d97816a916871ca8d3c208c16d87cfd4788890908955060405160208152602080820152602060408201528660608201527f183227397098d014dc2822db40c0ac2ecbc0b548b438e5469e10460b6c3e7ea360808201527f30644e72e131a029b85045b68181585d97816a916871ca8d3c208c16d87cfd4760a082015260208160c08360056107d05a03fa9750805160011498505050505050505050919050565b6000807f30644e72e131a029b85045b68181585d97816a916871ca8d3c208c16d87cfd4780610b0e57610b0d613ee0565b5b7f30644e72e131a029b85045b68181585d97816a916871ca8d3c208c16d87cfd4780610b3d57610b3c613ee0565b5b84600160028110610b5157610b50613f0f565b5b602002015185600160028110610b6a57610b69613f0f565b5b6020020151097f30644e72e131a029b85045b68181585d97816a916871ca8d3c208c16d87cfd4780610b9f57610b9e613ee0565b5b85600060028110610bb357610bb2613f0f565b5b602002015186600060028110610bcc57610bcb613f0f565b5b602002015109089050600060405160208152602080820152602060408201528260608201527f183227397098d014dc2822db40c0ac2ecbc0b548b438e5469e10460b6c3e7ea360808201527f30644e72e131a029b85045b68181585d97816a916871ca8d3c208c16d87cfd4760a082015260208160c08360056107d05a03fa9150805160011493505080610c95576040517f08c379a0000000000000000000000000000000000000000000000000000000008152600401610c8c90613fb0565b60405180910390fd5b821592505050919050565b610ca8613875565b6000610cb4848461266c565b90506000806000806018850177ffffffffffffffffffffffffffffffffffffffffffffffff815116935060308601905077ffffffffffffffffffffffffffffffffffffffffffffffff81511694507f30644e72e131a029b85045b68181585d97816a916871ca8d3c208c16d87cfd47857f30644e72e131a029b85045b68181585d97816a916871ca8d3c208c16d87cfd477801000000000000000000000000000000000000000000000000870908925060488601905077ffffffffffffffffffffffffffffffffffffffffffffffff815116935060608601905077ffffffffffffffffffffffffffffffffffffffffffffffff81511694507f30644e72e131a029b85045b68181585d97816a916871ca8d3c208c16d87cfd47857f30644e72e131a029b85045b68181585d97816a916871ca8d3c208c16d87cfd4778010000000000000000000000000000000000000000000000008709089150506040518060400160405280838152602001828152509550505050505092915050565b60008060405180610180016040528086600060028110610e5457610e53613f0f565b5b6020020151815260200186600160028110610e7257610e71613f0f565b5b602002015181526020017f198e9393920d483a7260bfb731fb5d25f1aa493335a9e71297e485b7aef312c281526020017f1800deef121f1e76426a00665e5c4479674322d4f75edadd46debd5cd992f6ed81526020017f275dc4a288d1afb3cbb1ac09187524c7db36395df7be3b99e673b13a075a65ec81526020017f1d9befcd05a5323e6da4d435f3b617cdb3af83285c2df711ef39c01571827f9d815260200184600060028110610f2857610f27613f0f565b5b6020020151815260200184600160028110610f4657610f45613f0f565b5b6020020151815260200185600160048110610f6457610f63613f0f565b5b6020020151815260200185600060048110610f8257610f81613f0f565b5b6020020151815260200185600360048110610fa057610f9f613f0f565b5b6020020151815260200185600260048110610fbe57610fbd613f0f565b5b60200201518152509050610fd0613897565b60006020826101808560086107d05a03fa90508060008103610fee57fe5b508061102f576040517f08c379a000000000000000000000000000000000000000000000000000000000815260040161102690613ff6565b60405180910390fd5b60008260006001811061104557611044613f0f565b5b6020020151141593505050509392505050565b611060613875565b7f30644e72e131a029b85045b68181585d97816a916871ca8d3c208c16d87cfd4782106110c2576040517f08c379a00000000000000000000000000000000000000000000000000000000081526004016110b990614088565b60405180910390fd5b600082905060006110d282612558565b905060007f30644e72e131a029b85045b68181585d97816a916871ca8d3c208c16d87cfd478061110557611104613ee0565b5b83840990507f30644e72e131a029b85045b68181585d97816a916871ca8d3c208c16d87cfd478061113957611138613ee0565b5b60048208905060007f30644e72e131a029b85045b68181585d97816a916871ca8d3c208c16d87cfd47806111705761116f613ee0565b5b77b3c4d79d41a91759a9e4c7e359b6b89eaec68e62effffffd8509905060007f30644e72e131a029b85045b68181585d97816a916871ca8d3c208c16d87cfd47806111be576111bd613ee0565b5b83830990506111cc816129c1565b90507f30644e72e131a029b85045b68181585d97816a916871ca8d3c208c16d87cfd47806111fd576111fc613ee0565b5b82830991507f30644e72e131a029b85045b68181585d97816a916871ca8d3c208c16d87cfd478061123157611230613ee0565b5b81830991507f30644e72e131a029b85045b68181585d97816a916871ca8d3c208c16d87cfd478061126557611264613ee0565b5b82860991507f30644e72e131a029b85045b68181585d97816a916871ca8d3c208c16d87cfd478061129957611298613ee0565b5b827f30644e72e131a029b85045b68181585d97816a916871ca8d3c208c16d87cfd476112c59190613e09565b7759e26bcea0d48bacd4f263f1acdb5c4f5763473177fffffe0894507f30644e72e131a029b85045b68181585d97816a916871ca8d3c208c16d87cfd47806113105761130f613ee0565b5b85860991507f30644e72e131a029b85045b68181585d97816a916871ca8d3c208c16d87cfd478061134457611343613ee0565b5b85830991507f30644e72e131a029b85045b68181585d97816a916871ca8d3c208c16d87cfd478061137857611377613ee0565b5b600383089150600061138983612623565b809250819450505080156113ee5784156113cc57827f30644e72e131a029b85045b68181585d97816a916871ca8d3c208c16d87cfd476113c99190613e09565b92505b604051806040016040528087815260200184815250965050505050505061179f565b7f30644e72e131a029b85045b68181585d97816a916871ca8d3c208c16d87cfd478061141d5761141c613ee0565b5b600187087f30644e72e131a029b85045b68181585d97816a916871ca8d3c208c16d87cfd4761144c9190613e09565b95507f30644e72e131a029b85045b68181585d97816a916871ca8d3c208c16d87cfd478061147d5761147c613ee0565b5b86870992507f30644e72e131a029b85045b68181585d97816a916871ca8d3c208c16d87cfd47806114b1576114b0613ee0565b5b86840992507f30644e72e131a029b85045b68181585d97816a916871ca8d3c208c16d87cfd47806114e5576114e4613ee0565b5b6003840892506114f483612623565b8092508194505050801561155957841561153757827f30644e72e131a029b85045b68181585d97816a916871ca8d3c208c16d87cfd476115349190613e09565b92505b604051806040016040528087815260200184815250965050505050505061179f565b7f30644e72e131a029b85045b68181585d97816a916871ca8d3c208c16d87cfd478061158857611587613ee0565b5b84850995507f30644e72e131a029b85045b68181585d97816a916871ca8d3c208c16d87cfd47806115bc576115bb613ee0565b5b86870995507f30644e72e131a029b85045b68181585d97816a916871ca8d3c208c16d87cfd47806115f0576115ef613ee0565b5b82870995507f30644e72e131a029b85045b68181585d97816a916871ca8d3c208c16d87cfd478061162457611623613ee0565b5b82870995507f30644e72e131a029b85045b68181585d97816a916871ca8d3c208c16d87cfd478061165857611657613ee0565b5b6001870895507f30644e72e131a029b85045b68181585d97816a916871ca8d3c208c16d87cfd478061168d5761168c613ee0565b5b86870992507f30644e72e131a029b85045b68181585d97816a916871ca8d3c208c16d87cfd47806116c1576116c0613ee0565b5b86840992507f30644e72e131a029b85045b68181585d97816a916871ca8d3c208c16d87cfd47806116f5576116f4613ee0565b5b60038408925061170483612623565b80925081945050508061174c576040517f08c379a00000000000000000000000000000000000000000000000000000000081526004016117439061411a565b60405180910390fd5b841561178157827f30644e72e131a029b85045b68181585d97816a916871ca8d3c208c16d87cfd4761177e9190613e09565b92505b60405180604001604052808781526020018481525096505050505050505b919050565b6000815160208301517f30644e72e131a029b85045b68181585d97816a916871ca8d3c208c16d87cfd478283097f30644e72e131a029b85045b68181585d97816a916871ca8d3c208c16d87cfd4783820990507f30644e72e131a029b85045b68181585d97816a916871ca8d3c208c16d87cfd476003820890507f30644e72e131a029b85045b68181585d97816a916871ca8d3c208c16d87cfd4782830991508082149350505050919050565b600080600060405160208152602080820152602060408201528460608201527f0c19139cb84c680a6e14116da060561765e05aa45a1c72a34f082305b61f3f5260808201527f30644e72e131a029b85045b68181585d97816a916871ca8d3c208c16d87cfd4760a082015260208160c08360056107d05a03fa9150805193507f30644e72e131a029b85045b68181585d97816a916871ca8d3c208c16d87cfd47848509851492505080611939576040517f08c379a000000000000000000000000000000000000000000000000000000000815260040161193090614186565b60405180910390fd5b50915091565b600080827f30644e72e131a029b85045b68181585d97816a916871ca8d3c208c16d87cfd478182097f30644e72e131a029b85045b68181585d97816a916871ca8d3c208c16d87cfd4782820990507f30644e72e131a029b85045b68181585d97816a916871ca8d3c208c16d87cfd4760038208905060405160208152602080820152602060408201528160608201527f183227397098d014dc2822db40c0ac2ecbc0b548b438e5469e10460b6c3e7ea360808201527f30644e72e131a029b85045b68181585d97816a916871ca8d3c208c16d87cfd4760a082015260208160c08360056107d05a03fa93508051600114945050505050919050565b611a42613875565b6000611a4e8484610ca0565b90506000611a7382600060028110611a6957611a68613f0f565b5b6020020151611058565b90506000611a9883600160028110611a8e57611a8d613f0f565b5b6020020151611058565b9050611aa26138b9565b82600060028110611ab657611ab5613f0f565b5b602002015181600060048110611acf57611ace613f0f565b5b60200201818152505082600160028110611aec57611aeb613f0f565b5b602002015181600160048110611b0557611b04613f0f565b5b60200201818152505081600060028110611b2257611b21613f0f565b5b602002015181600260048110611b3b57611b3a613f0f565b5b60200201818152505081600160028110611b5857611b57613f0f565b5b602002015181600360048110611b7157611b70613f0f565b5b602002018181525050600060408460808460066107d05a03fa90508060008103611b9757fe5b5080611bd8576040517f08c379a0000000000000000000000000000000000000000000000000000000008152600401611bcf90613ff6565b60405180910390fd5b839550505050505092915050565b6000808351905060008111611c30576040517f08c379a0000000000000000000000000000000000000000000000000000000008152600401611c2790614218565b60405180910390fd5b82518114611c73576040517f08c379a0000000000000000000000000000000000000000000000000000000008152600401611c6a906142aa565b60405180910390fd5b60006006600183611c8491906142ca565b611c8e91906142fe565b905060008167ffffffffffffffff811115611cac57611cab613992565b5b604051908082528060200260200182016040528015611cda5781602001602082028036833780820191505090505b50905086600060028110611cf157611cf0613f0f565b5b602002015181600081518110611d0a57611d09613f0f565b5b60200260200101818152505086600160028110611d2a57611d29613f0f565b5b602002015181600181518110611d4357611d42613f0f565b5b6020026020010181815250507f198e9393920d483a7260bfb731fb5d25f1aa493335a9e71297e485b7aef312c281600281518110611d8457611d83613f0f565b5b6020026020010181815250507f1800deef121f1e76426a00665e5c4479674322d4f75edadd46debd5cd992f6ed81600381518110611dc557611dc4613f0f565b5b6020026020010181815250507f275dc4a288d1afb3cbb1ac09187524c7db36395df7be3b99e673b13a075a65ec81600481518110611e0657611e05613f0f565b5b6020026020010181815250507f1d9befcd05a5323e6da4d435f3b617cdb3af83285c2df711ef39c01571827f9d81600581518110611e4757611e46613f0f565b5b60200260200101818152505060005b838110156120ec57858181518110611e7157611e70613f0f565b5b6020026020010151600060028110611e8c57611e8b613f0f565b5b60200201518260068084611ea091906142fe565b611eaa91906142ca565b81518110611ebb57611eba613f0f565b5b602002602001018181525050858181518110611eda57611ed9613f0f565b5b6020026020010151600160028110611ef557611ef4613f0f565b5b6020020151826007600684611f0a91906142fe565b611f1491906142ca565b81518110611f2557611f24613f0f565b5b602002602001018181525050868181518110611f4457611f43613f0f565b5b6020026020010151600160048110611f5f57611f5e613f0f565b5b6020020151826008600684611f7491906142fe565b611f7e91906142ca565b81518110611f8f57611f8e613f0f565b5b602002602001018181525050868181518110611fae57611fad613f0f565b5b6020026020010151600060048110611fc957611fc8613f0f565b5b6020020151826009600684611fde91906142fe565b611fe891906142ca565b81518110611ff957611ff8613f0f565b5b60200260200101818152505086818151811061201857612017613f0f565b5b602002602001015160036004811061203357612032613f0f565b5b602002015182600a60068461204891906142fe565b61205291906142ca565b8151811061206357612062613f0f565b5b60200260200101818152505086818151811061208257612081613f0f565b5b602002602001015160026004811061209d5761209c613f0f565b5b602002015182600b6006846120b291906142fe565b6120bc91906142ca565b815181106120cd576120cc613f0f565b5b60200260200101818152505080806120e490614340565b915050611e56565b506120f5613897565b6000602082602086026020860160086107d05a03fa9050806000810361211757fe5b5080612158576040517f08c379a000000000000000000000000000000000000000000000000000000000815260040161214f90613ff6565b60405180910390fd5b60008260006001811061216e5761216d613f0f565b5b60200201511415955050505050509392505050565b61218b613875565b60007f30644e72e131a029b85045b68181585d97816a916871ca8d3c208c16d87cfd478360001c6121bc9190614388565b9050600080600090505b6001156122fc577f30644e72e131a029b85045b68181585d97816a916871ca8d3c208c16d87cfd47806121fc576121fb613ee0565b5b83840991507f30644e72e131a029b85045b68181585d97816a916871ca8d3c208c16d87cfd47806122305761222f613ee0565b5b83830991507f30644e72e131a029b85045b68181585d97816a916871ca8d3c208c16d87cfd478061226457612263613ee0565b5b60038308915061227382612623565b809250819350505080156122c257828460006002811061229657612295613f0f565b5b60200201818152505081846001600281106122b4576122b3613f0f565b5b6020020181815250506122fc565b7f30644e72e131a029b85045b68181585d97816a916871ca8d3c208c16d87cfd47806122f1576122f0613ee0565b5b6001840892506121c6565b505050919050565b6000815160208301517f30644e72e131a029b85045b68181585d97816a916871ca8d3c208c16d87cfd478283097f30644e72e131a029b85045b68181585d97816a916871ca8d3c208c16d87cfd4782830981828301017f30644e72e131a029b85045b68181585d97816a916871ca8d3c208c16d87cfd4782838401087f30644e72e131a029b85045b68181585d97816a916871ca8d3c208c16d87cfd4786827f30644e72e131a029b85045b68181585d97816a916871ca8d3c208c16d87cfd470386010993507f30644e72e131a029b85045b68181585d97816a916871ca8d3c208c16d87cfd4785847f30644e72e131a029b85045b68181585d97816a916871ca8d3c208c16d87cfd470384010992507f30644e72e131a029b85045b68181585d97816a916871ca8d3c208c16d87cfd477f2b149d40ceb8aaae81be18991be06ac3b5b4c5e559dbefa33267e6dc24a138e5850895507f30644e72e131a029b85045b68181585d97816a916871ca8d3c208c16d87cfd477e9713b03af0fed4cd2cafadeed8fdf4a74fa084e52d1852e4a2bd0685c315d28408945060408801519350606088015192507f30644e72e131a029b85045b68181585d97816a916871ca8d3c208c16d87cfd4780847f30644e72e131a029b85045b68181585d97816a916871ca8d3c208c16d87cfd470386087f30644e72e131a029b85045b68181585d97816a916871ca8d3c208c16d87cfd478587080991507f30644e72e131a029b85045b68181585d97816a916871ca8d3c208c16d87cfd47838560011b099250828514828714169650505050505050919050565b60008060405160208152602080820152602060408201528360608201527f183227397098d014dc2822db40c0ac2ecbc0b548b438e5469e10460b6c3e7ea360808201527f30644e72e131a029b85045b68181585d97816a916871ca8d3c208c16d87cfd4760a082015260208160c08360056107d05a03fa9150805160011492505080612619576040517f08c379a00000000000000000000000000000000000000000000000000000000081526004016126109061442b565b60405180910390fd5b8115915050919050565b60008061262f836129d3565b9150827f30644e72e131a029b85045b68181585d97816a916871ca8d3c208c16d87cfd478061266157612660613ee0565b5b838409149050915091565b606060008351905061010081106126b8576040517f08c379a00000000000000000000000000000000000000000000000000000000081526004016126af90614497565b60405180910390fd5b60008351905060006004604083856126d091906142ca565b6126da91906142ca565b6126e491906142ca565b67ffffffffffffffff8111156126fd576126fc613992565b5b6040519080825280601f01601f19166020018201604052801561272f5781602001600182028036833780820191505090505b5090506000606067ffffffffffffffff81111561274f5761274e613992565b5b6040519080825280601f01601f1916602001820160405280156127815781602001600182028036833780820191505090505b5090506060820160005b848110156127a957602081018801518183015260208101905061278b565b8482019150600082536001820191506060825360018201915060008253600182019150602089015182528582019150858253505060006002836040516127ef9190614528565b602060405180830381855afa15801561280c573d6000803e3d6000fd5b5050506040513d601f19601f8201168201806040525081019061282f9190614554565b9050600060228661284091906142ca565b9450848452816020850152600160408501536020890151604185015285604187018501536002846040516128749190614528565b602060405180830381855afa158015612891573d6000803e3d6000fd5b5050506040513d601f19601f820116820180604052508101906128b49190614554565b90508060208401528082188060208601526002604086015360208a015160418601528660418801860153506002846040516128ef9190614528565b602060405180830381855afa15801561290c573d6000803e3d6000fd5b5050506040513d601f19601f8201168201806040525081019061292f9190614554565b90508060408401528082188060208601526003604086015360208a0151604186015286604188018601535060028460405161296a9190614528565b602060405180830381855afa158015612987573d6000803e3d6000fd5b5050506040513d601f19601f820116820180604052508101906129aa9190614554565b905080606084015282965050505050505092915050565b60006129cc8261311b565b9050919050565b60007f30644e72e131a029b85045b68181585d97816a916871ca8d3c208c16d87cfd478083840991508083830981838209828283098385830984848309858484098684850997508684840987858409945087898a09985087898a09985087898a09985087898a09985087898a09985087878a09985087898a09985087898a09985087898a099850878a8a09985087898a09985087898a09985087898a09985087898a099850878a8a09985087898a09985087898a09985087898a09985087898a09985087898a09985087848a09985087898a09985087898a09985087898a09985087898a09985087898a09985087848a09985087898a09985087898a09985087898a099850878a8a09985087898a09985087898a09985087898a09985087898a09985087848a09985087898a09985087898a09985087898a09985087898a09985087898a099850878a8a09985087898a09985087898a09985087898a09985087898a09985087878a09985087898a09985087898a09985087898a09985087898a09985087898a09985087898a09985087898a09985087818a09985087898a09985087898a09985087898a09985087898a09985087898a09985087898a09985087898a09985087898a09985087898a09985087898a09985087868a09985087898a09985087898a09985087898a09985087898a09985087878a09985087898a09985087898a09985087898a09985087898a09985087848a09985087898a09985087898a09985087898a09985087898a09985087898a09985087898a09985087898a09985087868a09985087898a09985087898a09985087898a09985087898a09985087898a09985087898a099850878a8a09985087898a09985087898a09985087898a09985087898a09985087898a09985087898a09985087898a09985087828a09985087898a09985087898a09985087898a09985087898a09985087898a09985087818a09985087898a09985087898a09985087898a09985087868a09985087898a09985087898a09985087898a09985087898a09985087898a09985087898a09985087898a09985087898a09985087878a09985087898a09985087898a09985087898a09985087898a09985087898a09985087898a09985087898a09985087898a09985087898a09985087868a09985087898a09985087898a09985087898a09985087878a09985087898a09985087898a09985087898a09985087898a09985087898a09985087898a09985087898a09985087898a09985087828a09985087898a09985087898a09985087898a09985087898a09985087828a09985087898a09985087898a09985087898a09985087898a09985087898a09985087868a09985087898a09985087898a09985087898a09985087848a09985087898a09985087898a09985087898a09985087898a09985087898a09985087898a09985087898a09985087898a09985087898a09985087898a09985087828a09985087898a09985087898a09985087898a09985087898a09985087868a09985087898a09985087898a09985087898a09985087898a09985087898a09985087838a09985087898a09985087898a09985087898a09985087898a09985087898a09985087898a09985087898a09985087828a09985087898a09985087898a099850878a8a09985087898a09985087898a09985087898a09985087898a09985087898a09985087898a09985087898a09985087848a09985087898a09985087898a09985087898a09985087898a09985087898a09985087898a09985087848a09985087898a09985087898a09985087898a09985087898a09985087898a09985087868a09985087898a09985087898a099850878a8a09985087898a09985087898a09985087898a09985087898a09985087898a09985087898a09985087898a09985087818a09985087898a09985087898a09985087898a09985087898a09985087898a09985087898a09985087858a09985087898a09985087898a09985087898a09985087898a09985087898a099850878a8a09985087898a09985087898a09985087898a09985087898a09985087898a09985087898a099850878a8a09985087898a09985087898a09985087898a09985087898a09985087898a09985087878a09985087898a09985087898a09985087898a09985087898a09985087898a09985087898a09985087898a09985087898a09985087898a09985087828a09985087898a09985087898a09985087898a09985087878a09985087898a09985087898a09985087898a09985087878a09985087898a09985087898a09985087898a09985087898a09985087898a09985087898a09985087898a09985087898a09985087858a09985087898a09985087898a09985087898a09985087898a09985087838a09985087898a09985087898a09985087898a09985087898a09985087858a09985087898a09985087898a09985087898a09985087868a09985087898a09985087898a09985087898a09985087898a09985087898a09985087838a09985087898a0998505050505050505050919050565b60007f30644e72e131a029b85045b68181585d97816a916871ca8d3c208c16d87cfd478083840991508083830981838209828283098385830984848309858484098684850997508684840987858409945087898a09985087898a09985087898a09985087898a09985087898a09985087878a09985087898a09985087898a09985087898a099850878a8a09985087898a09985087898a09985087898a09985087898a099850878a8a09985087898a09985087898a09985087898a09985087898a09985087898a09985087848a09985087898a09985087898a09985087898a09985087898a09985087898a09985087848a09985087898a09985087898a09985087898a099850878a8a09985087898a09985087898a09985087898a09985087898a09985087848a09985087898a09985087898a09985087898a09985087898a09985087898a099850878a8a09985087898a09985087898a09985087898a09985087898a09985087878a09985087898a09985087898a09985087898a09985087898a09985087898a09985087898a09985087898a09985087818a09985087898a09985087898a09985087898a09985087898a09985087898a09985087898a09985087898a09985087898a09985087898a09985087898a09985087868a09985087898a09985087898a09985087898a09985087898a09985087878a09985087898a09985087898a09985087898a09985087898a09985087848a09985087898a09985087898a09985087898a09985087898a09985087898a09985087898a09985087898a09985087868a09985087898a09985087898a09985087898a09985087898a09985087898a09985087898a099850878a8a09985087898a09985087898a09985087898a09985087898a09985087898a09985087898a09985087898a09985087828a09985087898a09985087898a09985087898a09985087898a09985087898a09985087818a09985087898a09985087898a09985087898a09985087868a09985087898a09985087898a09985087898a09985087898a09985087898a09985087898a09985087898a09985087898a09985087878a09985087898a09985087898a09985087898a09985087898a09985087898a09985087898a09985087898a09985087898a09985087898a09985087868a09985087898a09985087898a09985087898a09985087878a09985087898a09985087898a09985087898a09985087898a09985087898a09985087898a09985087898a09985087898a09985087828a09985087898a09985087898a09985087898a09985087898a09985087828a09985087898a09985087898a09985087898a09985087898a09985087898a09985087868a09985087898a09985087898a09985087898a09985087848a09985087898a09985087898a09985087898a09985087898a09985087898a09985087898a09985087898a09985087898a09985087898a09985087898a09985087828a09985087898a09985087898a09985087898a09985087898a09985087868a09985087898a09985087898a09985087898a09985087898a09985087898a09985087838a09985087898a09985087898a09985087898a09985087898a09985087898a09985087898a09985087898a09985087828a09985087898a09985087898a099850878a8a09985087898a09985087898a09985087898a09985087898a09985087898a09985087898a09985087898a09985087848a09985087898a09985087898a09985087898a09985087898a09985087898a09985087898a09985087848a09985087898a09985087898a09985087898a09985087898a09985087898a09985087868a09985087898a09985087898a099850878a8a09985087898a09985087898a09985087898a09985087898a09985087898a09985087898a09985087898a09985087818a09985087898a09985087898a09985087898a09985087898a09985087898a09985087898a09985087858a09985087898a09985087898a09985087898a09985087898a09985087898a099850878a8a09985087898a09985087898a09985087898a09985087898a09985087898a09985087898a099850878a8a09985087898a09985087898a09985087898a09985087898a09985087898a09985087878a09985087898a09985087898a09985087898a09985087898a09985087898a09985087898a09985087898a09985087898a09985087898a09985087828a09985087898a09985087898a09985087898a09985087878a09985087898a09985087898a09985087898a09985087878a09985087898a09985087898a09985087898a09985087898a09985087898a09985087898a09985087898a09985087898a09985087858a09985087898a09985087898a09985087898a09985087898a09985087838a09985087898a09985087898a09985087898a09985087898a09985087858a09985087898a09985087898a09985087898a09985087868a09985087898a09985087898a099850878a8a09985087898a09985087898a09985087898a09985087898a09985087898a09985087898a09985087868a0998505050505050505050919050565b6040518060400160405280600290602082028036833780820191505090505090565b6040518060200160405280600190602082028036833780820191505090505090565b6040518060800160405280600490602082028036833780820191505090505090565b6000604051905090565b600080fd5b600080fd5b600080fd5b6000819050826020600202820111156139105761390f6138ef565b5b92915050565b60006040828403121561392c5761392b6138e5565b5b600061393a848285016138f4565b91505092915050565b6000819050919050565b61395681613943565b82525050565b6000602082019050613971600083018461394d565b92915050565b600080fd5b600080fd5b6000601f19601f8301169050919050565b7f4e487b7100000000000000000000000000000000000000000000000000000000600052604160045260246000fd5b6139ca82613981565b810181811067ffffffffffffffff821117156139e9576139e8613992565b5b80604052505050565b60006139fc6138db565b9050613a0882826139c1565b919050565b600067ffffffffffffffff821115613a2857613a27613992565b5b613a3182613981565b9050602081019050919050565b82818337600083830152505050565b6000613a60613a5b84613a0d565b6139f2565b905082815260208101848484011115613a7c57613a7b61397c565b5b613a87848285613a3e565b509392505050565b600082601f830112613aa457613aa3613977565b5b8135613ab4848260208601613a4d565b91505092915050565b60008060408385031215613ad457613ad36138e5565b5b600083013567ffffffffffffffff811115613af257613af16138ea565b5b613afe85828601613a8f565b925050602083013567ffffffffffffffff811115613b1f57613b1e6138ea565b5b613b2b85828601613a8f565b9150509250929050565b600081905082602060040282011115613b5157613b506138ef565b5b92915050565b60008060006101008486031215613b7157613b706138e5565b5b6000613b7f868287016138f4565b9350506040613b9086828701613b35565b92505060c0613ba1868287016138f4565b9150509250925092565b613bb481613943565b8114613bbf57600080fd5b50565b600081359050613bd181613bab565b92915050565b600060208284031215613bed57613bec6138e5565b5b6000613bfb84828501613bc2565b91505092915050565b600080fd5b60008083601f840112613c1f57613c1e613977565b5b8235905067ffffffffffffffff811115613c3c57613c3b613c04565b5b602083019150836080820283011115613c5857613c576138ef565b5b9250929050565b60008083601f840112613c7557613c74613977565b5b8235905067ffffffffffffffff811115613c9257613c91613c04565b5b602083019150836040820283011115613cae57613cad6138ef565b5b9250929050565b600080600080600060808688031215613cd157613cd06138e5565b5b6000613cdf888289016138f4565b955050604086013567ffffffffffffffff811115613d0057613cff6138ea565b5b613d0c88828901613c09565b9450945050606086013567ffffffffffffffff811115613d2f57613d2e6138ea565b5b613d3b88828901613c5f565b92509250509295509295909350565b6000819050919050565b613d5d81613d4a565b8114613d6857600080fd5b50565b600081359050613d7a81613d54565b92915050565b600060208284031215613d9657613d956138e5565b5b6000613da484828501613d6b565b91505092915050565b600060808284031215613dc357613dc26138e5565b5b6000613dd184828501613b35565b91505092915050565b7f4e487b7100000000000000000000000000000000000000000000000000000000600052601160045260246000fd5b6000613e1482613943565b9150613e1f83613943565b9250828203905081811115613e3757613e36613dda565b5b92915050565b600082825260208201905092915050565b7f424c53546573743a206578706563742073756363657366756c2076657269666960008201527f636174696f6e0000000000000000000000000000000000000000000000000000602082015250565b6000613eaa602683613e3d565b9150613eb582613e4e565b604082019050919050565b60006020820190508181036000830152613ed981613e9d565b9050919050565b7f4e487b7100000000000000000000000000000000000000000000000000000000600052601260045260246000fd5b7f4e487b7100000000000000000000000000000000000000000000000000000000600052603260045260246000fd5b7f424c533a2069734e6f6e52657369647565465032206d6f646578702063616c6c60008201527f206661696c656400000000000000000000000000000000000000000000000000602082015250565b6000613f9a602783613e3d565b9150613fa582613f3e565b604082019050919050565b60006020820190508181036000830152613fc981613f8d565b9050919050565b50565b6000613fe0600083613e3d565b9150613feb82613fd0565b600082019050919050565b6000602082019050818103600083015261400f81613fd3565b9050919050565b7f6d6170546f506f696e7446543a20696e76616c6964206669656c6420656c656d60008201527f656e740000000000000000000000000000000000000000000000000000000000602082015250565b6000614072602383613e3d565b915061407d82614016565b604082019050919050565b600060208201905081810360008301526140a181614065565b9050919050565b7f424c533a20626164206674206d617070696e6720696d706c656d656e7461746960008201527f6f6e000000000000000000000000000000000000000000000000000000000000602082015250565b6000614104602283613e3d565b915061410f826140a8565b604082019050919050565b60006020820190508181036000830152614133816140f7565b9050919050565b7f424c533a2073717274206d6f646578702063616c6c206661696c656400000000600082015250565b6000614170601c83613e3d565b915061417b8261413a565b602082019050919050565b6000602082019050818103600083015261419f81614163565b9050919050565b7f424c533a206e756d626572206f66207075626c6963206b6579206973207a657260008201527f6f00000000000000000000000000000000000000000000000000000000000000602082015250565b6000614202602183613e3d565b915061420d826141a6565b604082019050919050565b60006020820190508181036000830152614231816141f5565b9050919050565b7f424c533a206e756d626572206f66207075626c6963206b65797320616e64206d60008201527f65737361676573206d75737420626520657175616c0000000000000000000000602082015250565b6000614294603583613e3d565b915061429f82614238565b604082019050919050565b600060208201905081810360008301526142c381614287565b9050919050565b60006142d582613943565b91506142e083613943565b92508282019050808211156142f8576142f7613dda565b5b92915050565b600061430982613943565b915061431483613943565b925082820261432281613943565b9150828204841483151761433957614338613dda565b5b5092915050565b600061434b82613943565b91507fffffffffffffffffffffffffffffffffffffffffffffffffffffffffffffffff820361437d5761437c613dda565b5b600182019050919050565b600061439382613943565b915061439e83613943565b9250826143ae576143ad613ee0565b5b828206905092915050565b7f424c533a2069734e6f6e526573696475654650206d6f646578702063616c6c2060008201527f6661696c65640000000000000000000000000000000000000000000000000000602082015250565b6000614415602683613e3d565b9150614420826143b9565b604082019050919050565b6000602082019050818103600083015261444481614408565b9050919050565b7f424c533a20696e76616c696420646f6d61696e206c656e677468000000000000600082015250565b6000614481601a83613e3d565b915061448c8261444b565b602082019050919050565b600060208201905081810360008301526144b081614474565b9050919050565b600081519050919050565b600081905092915050565b60005b838110156144eb5780820151818401526020810190506144d0565b60008484015250505050565b6000614502826144b7565b61450c81856144c2565b935061451c8185602086016144cd565b80840191505092915050565b600061453482846144f7565b915081905092915050565b60008151905061454e81613d54565b92915050565b60006020828403121561456a576145696138e5565b5b60006145788482850161453f565b9150509291505056fea264697066735822122024fc2e40e3ea7859a22bc04781eaf2e4b2040ccebb654721480f1aeb2e8ec30f64736f6c63430008130033","opcodes":"PUSH1 0x80 PUSH1 0x40 MSTORE CALLVALUE DUP1 ISZERO PUSH2 0x10 JUMPI PUSH1 0x0 DUP1 REVERT JUMPDEST POP PUSH2 0x45B7 DUP1 PUSH2 0x20 PUSH1 0x0 CODECOPY PUSH1 0x0 RETURN INVALID PUSH1 0x80 PUSH1 0x40 MSTORE CALLVALUE DUP1 ISZERO PUSH2 0x10 JUMPI PUSH1 0x0 DUP1 REVERT JUMPDEST POP PUSH1 0x4 CALLDATASIZE LT PUSH2 0xEA JUMPI PUSH1 0x0 CALLDATALOAD PUSH1 0xE0 SHR DUP1 PUSH4 0x850870E6 GT PUSH2 0x8C JUMPI DUP1 PUSH4 0xC8C352C2 GT PUSH2 0x66 JUMPI DUP1 PUSH4 0xC8C352C2 EQ PUSH2 0x2CF JUMPI DUP1 PUSH4 0xD13200CC EQ PUSH2 0x2FF JUMPI DUP1 PUSH4 0xF470857B EQ PUSH2 0x32F JUMPI DUP1 PUSH4 0xFFEF569C EQ PUSH2 0x35F JUMPI PUSH2 0xEA JUMP JUMPDEST DUP1 PUSH4 0x850870E6 EQ PUSH2 0x23F JUMPI DUP1 PUSH4 0x8911B0D8 EQ PUSH2 0x26F JUMPI DUP1 PUSH4 0x8FB3A983 EQ PUSH2 0x29F JUMPI PUSH2 0xEA JUMP JUMPDEST DUP1 PUSH4 0x3E563D10 GT PUSH2 0xC8 JUMPI DUP1 PUSH4 0x3E563D10 EQ PUSH2 0x17F JUMPI DUP1 PUSH4 0x4CE25FF0 EQ PUSH2 0x1AF JUMPI DUP1 PUSH4 0x4F09448A EQ PUSH2 0x1DF JUMPI DUP1 PUSH4 0x6A263F02 EQ PUSH2 0x20F JUMPI PUSH2 0xEA JUMP JUMPDEST DUP1 PUSH4 0x101800C2 EQ PUSH2 0xEF JUMPI DUP1 PUSH4 0x10BF819A EQ PUSH2 0x11F JUMPI DUP1 PUSH4 0x22267351 EQ PUSH2 0x14F JUMPI JUMPDEST PUSH1 0x0 DUP1 REVERT JUMPDEST PUSH2 0x109 PUSH1 0x4 DUP1 CALLDATASIZE SUB DUP2 ADD SWAP1 PUSH2 0x104 SWAP2 SWAP1 PUSH2 0x3916 JUMP JUMPDEST PUSH2 0x38F JUMP JUMPDEST PUSH1 0x40 MLOAD PUSH2 0x116 SWAP2 SWAP1 PUSH2 0x395C JUMP JUMPDEST PUSH1 0x40 MLOAD DUP1 SWAP2 SUB SWAP1 RETURN JUMPDEST PUSH2 0x139 PUSH1 0x4 DUP1 CALLDATASIZE SUB DUP2 ADD SWAP1 PUSH2 0x134 SWAP2 SWAP1 PUSH2 0x3916 JUMP JUMPDEST PUSH2 0x3E8 JUMP JUMPDEST PUSH1 0x40 MLOAD PUSH2 0x146 SWAP2 SWAP1 PUSH2 0x395C JUMP JUMPDEST PUSH1 0x40 MLOAD DUP1 SWAP2 SUB SWAP1 RETURN JUMPDEST PUSH2 0x169 PUSH1 0x4 DUP1 CALLDATASIZE SUB DUP2 ADD SWAP1 PUSH2 0x164 SWAP2 SWAP1 PUSH2 0x3ABD JUMP JUMPDEST PUSH2 0x441 JUMP JUMPDEST PUSH1 0x40 MLOAD PUSH2 0x176 SWAP2 SWAP1 PUSH2 0x395C JUMP JUMPDEST PUSH1 0x40 MLOAD DUP1 SWAP2 SUB SWAP1 RETURN JUMPDEST PUSH2 0x199 PUSH1 0x4 DUP1 CALLDATASIZE SUB DUP2 ADD SWAP1 PUSH2 0x194 SWAP2 SWAP1 PUSH2 0x3B57 JUMP JUMPDEST PUSH2 0x465 JUMP JUMPDEST PUSH1 0x40 MLOAD PUSH2 0x1A6 SWAP2 SWAP1 PUSH2 0x395C JUMP JUMPDEST PUSH1 0x40 MLOAD DUP1 SWAP2 SUB SWAP1 RETURN JUMPDEST PUSH2 0x1C9 PUSH1 0x4 DUP1 CALLDATASIZE SUB DUP2 ADD SWAP1 PUSH2 0x1C4 SWAP2 SWAP1 PUSH2 0x3BD7 JUMP JUMPDEST PUSH2 0x56E JUMP JUMPDEST PUSH1 0x40 MLOAD PUSH2 0x1D6 SWAP2 SWAP1 PUSH2 0x395C JUMP JUMPDEST PUSH1 0x40 MLOAD DUP1 SWAP2 SUB SWAP1 RETURN JUMPDEST PUSH2 0x1F9 PUSH1 0x4 DUP1 CALLDATASIZE SUB DUP2 ADD SWAP1 PUSH2 0x1F4 SWAP2 SWAP1 PUSH2 0x3916 JUMP JUMPDEST PUSH2 0x590 JUMP JUMPDEST PUSH1 0x40 MLOAD PUSH2 0x206 SWAP2 SWAP1 PUSH2 0x395C JUMP JUMPDEST PUSH1 0x40 MLOAD DUP1 SWAP2 SUB SWAP1 RETURN JUMPDEST PUSH2 0x229 PUSH1 0x4 DUP1 CALLDATASIZE SUB DUP2 ADD SWAP1 PUSH2 0x224 SWAP2 SWAP1 PUSH2 0x3BD7 JUMP JUMPDEST PUSH2 0x5E9 JUMP JUMPDEST PUSH1 0x40 MLOAD PUSH2 0x236 SWAP2 SWAP1 PUSH2 0x395C JUMP JUMPDEST PUSH1 0x40 MLOAD DUP1 SWAP2 SUB SWAP1 RETURN JUMPDEST PUSH2 0x259 PUSH1 0x4 DUP1 CALLDATASIZE SUB DUP2 ADD SWAP1 PUSH2 0x254 SWAP2 SWAP1 PUSH2 0x3BD7 JUMP JUMPDEST PUSH2 0x60C JUMP JUMPDEST PUSH1 0x40 MLOAD PUSH2 0x266 SWAP2 SWAP1 PUSH2 0x395C JUMP JUMPDEST PUSH1 0x40 MLOAD DUP1 SWAP2 SUB SWAP1 RETURN JUMPDEST PUSH2 0x289 PUSH1 0x4 DUP1 CALLDATASIZE SUB DUP2 ADD SWAP1 PUSH2 0x284 SWAP2 SWAP1 PUSH2 0x3ABD JUMP JUMPDEST PUSH2 0x62E JUMP JUMPDEST PUSH1 0x40 MLOAD PUSH2 0x296 SWAP2 SWAP1 PUSH2 0x395C JUMP JUMPDEST PUSH1 0x40 MLOAD DUP1 SWAP2 SUB SWAP1 RETURN JUMPDEST PUSH2 0x2B9 PUSH1 0x4 DUP1 CALLDATASIZE SUB DUP2 ADD SWAP1 PUSH2 0x2B4 SWAP2 SWAP1 PUSH2 0x3CB5 JUMP JUMPDEST PUSH2 0x652 JUMP JUMPDEST PUSH1 0x40 MLOAD PUSH2 0x2C6 SWAP2 SWAP1 PUSH2 0x395C JUMP JUMPDEST PUSH1 0x40 MLOAD DUP1 SWAP2 SUB SWAP1 RETURN JUMPDEST PUSH2 0x2E9 PUSH1 0x4 DUP1 CALLDATASIZE SUB DUP2 ADD SWAP1 PUSH2 0x2E4 SWAP2 SWAP1 PUSH2 0x3D80 JUMP JUMPDEST PUSH2 0x7E9 JUMP JUMPDEST PUSH1 0x40 MLOAD PUSH2 0x2F6 SWAP2 SWAP1 PUSH2 0x395C JUMP JUMPDEST PUSH1 0x40 MLOAD DUP1 SWAP2 SUB SWAP1 RETURN JUMPDEST PUSH2 0x319 PUSH1 0x4 DUP1 CALLDATASIZE SUB DUP2 ADD SWAP1 PUSH2 0x314 SWAP2 SWAP1 PUSH2 0x3DAD JUMP JUMPDEST PUSH2 0x80B JUMP JUMPDEST PUSH1 0x40 MLOAD PUSH2 0x326 SWAP2 SWAP1 PUSH2 0x395C JUMP JUMPDEST PUSH1 0x40 MLOAD DUP1 SWAP2 SUB SWAP1 RETURN JUMPDEST PUSH2 0x349 PUSH1 0x4 DUP1 CALLDATASIZE SUB DUP2 ADD SWAP1 PUSH2 0x344 SWAP2 SWAP1 PUSH2 0x3BD7 JUMP JUMPDEST PUSH2 0x864 JUMP JUMPDEST PUSH1 0x40 MLOAD PUSH2 0x356 SWAP2 SWAP1 PUSH2 0x395C JUMP JUMPDEST PUSH1 0x40 MLOAD DUP1 SWAP2 SUB SWAP1 RETURN JUMPDEST PUSH2 0x379 PUSH1 0x4 DUP1 CALLDATASIZE SUB DUP2 ADD SWAP1 PUSH2 0x374 SWAP2 SWAP1 PUSH2 0x3BD7 JUMP JUMPDEST PUSH2 0x886 JUMP JUMPDEST PUSH1 0x40 MLOAD PUSH2 0x386 SWAP2 SWAP1 PUSH2 0x395C JUMP JUMPDEST PUSH1 0x40 MLOAD DUP1 SWAP2 SUB SWAP1 RETURN JUMPDEST PUSH1 0x0 GAS SWAP1 POP PUSH2 0x3D4 DUP3 PUSH1 0x2 DUP1 PUSH1 0x20 MUL PUSH1 0x40 MLOAD SWAP1 DUP2 ADD PUSH1 0x40 MSTORE DUP1 SWAP3 SWAP2 SWAP1 DUP3 PUSH1 0x2 PUSH1 0x20 MUL DUP1 DUP3 DUP5 CALLDATACOPY PUSH1 0x0 DUP2 DUP5 ADD MSTORE PUSH1 0x1F NOT PUSH1 0x1F DUP3 ADD AND SWAP1 POP DUP1 DUP4 ADD SWAP3 POP POP POP POP POP POP PUSH2 0x8A9 JUMP JUMPDEST POP GAS DUP2 PUSH2 0x3E1 SWAP2 SWAP1 PUSH2 0x3E09 JUMP JUMPDEST SWAP1 POP SWAP2 SWAP1 POP JUMP JUMPDEST PUSH1 0x0 GAS SWAP1 POP PUSH2 0x42D DUP3 PUSH1 0x2 DUP1 PUSH1 0x20 MUL PUSH1 0x40 MLOAD SWAP1 DUP2 ADD PUSH1 0x40 MSTORE DUP1 SWAP3 SWAP2 SWAP1 DUP3 PUSH1 0x2 PUSH1 0x20 MUL DUP1 DUP3 DUP5 CALLDATACOPY PUSH1 0x0 DUP2 DUP5 ADD MSTORE PUSH1 0x1F NOT PUSH1 0x1F DUP3 ADD AND SWAP1 POP DUP1 DUP4 ADD SWAP3 POP POP POP POP POP POP PUSH2 0xADC JUMP JUMPDEST POP GAS DUP2 PUSH2 0x43A SWAP2 SWAP1 PUSH2 0x3E09 JUMP JUMPDEST SWAP1 POP SWAP2 SWAP1 POP JUMP JUMPDEST PUSH1 0x0 GAS SWAP1 POP PUSH2 0x450 DUP4 DUP4 PUSH2 0xCA0 JUMP JUMPDEST POP GAS DUP2 PUSH2 0x45D SWAP2 SWAP1 PUSH2 0x3E09 JUMP JUMPDEST SWAP1 POP SWAP3 SWAP2 POP POP JUMP JUMPDEST PUSH1 0x0 GAS SWAP1 POP PUSH2 0x51A DUP5 PUSH1 0x2 DUP1 PUSH1 0x20 MUL PUSH1 0x40 MLOAD SWAP1 DUP2 ADD PUSH1 0x40 MSTORE DUP1 SWAP3 SWAP2 SWAP1 DUP3 PUSH1 0x2 PUSH1 0x20 MUL DUP1 DUP3 DUP5 CALLDATACOPY PUSH1 0x0 DUP2 DUP5 ADD MSTORE PUSH1 0x1F NOT PUSH1 0x1F DUP3 ADD AND SWAP1 POP DUP1 DUP4 ADD SWAP3 POP POP POP POP POP POP DUP5 PUSH1 0x4 DUP1 PUSH1 0x20 MUL PUSH1 0x40 MLOAD SWAP1 DUP2 ADD PUSH1 0x40 MSTORE DUP1 SWAP3 SWAP2 SWAP1 DUP3 PUSH1 0x4 PUSH1 0x20 MUL DUP1 DUP3 DUP5 CALLDATACOPY PUSH1 0x0 DUP2 DUP5 ADD MSTORE PUSH1 0x1F NOT PUSH1 0x1F DUP3 ADD AND SWAP1 POP DUP1 DUP4 ADD SWAP3 POP POP POP POP POP POP DUP5 PUSH1 0x2 DUP1 PUSH1 0x20 MUL PUSH1 0x40 MLOAD SWAP1 DUP2 ADD PUSH1 0x40 MSTORE DUP1 SWAP3 SWAP2 SWAP1 DUP3 PUSH1 0x2 PUSH1 0x20 MUL DUP1 DUP3 DUP5 CALLDATACOPY PUSH1 0x0 DUP2 DUP5 ADD MSTORE PUSH1 0x1F NOT PUSH1 0x1F DUP3 ADD AND SWAP1 POP DUP1 DUP4 ADD SWAP3 POP POP POP POP POP POP PUSH2 0xE31 JUMP JUMPDEST PUSH2 0x559 JUMPI PUSH1 0x40 MLOAD PUSH32 0x8C379A000000000000000000000000000000000000000000000000000000000 DUP2 MSTORE PUSH1 0x4 ADD PUSH2 0x550 SWAP1 PUSH2 0x3EC0 JUMP JUMPDEST PUSH1 0x40 MLOAD DUP1 SWAP2 SUB SWAP1 REVERT JUMPDEST GAS DUP2 PUSH2 0x565 SWAP2 SWAP1 PUSH2 0x3E09 JUMP JUMPDEST SWAP1 POP SWAP4 SWAP3 POP POP POP JUMP JUMPDEST PUSH1 0x0 GAS SWAP1 POP PUSH2 0x57C DUP3 PUSH2 0x1058 JUMP JUMPDEST POP GAS DUP2 PUSH2 0x589 SWAP2 SWAP1 PUSH2 0x3E09 JUMP JUMPDEST SWAP1 POP SWAP2 SWAP1 POP JUMP JUMPDEST PUSH1 0x0 GAS SWAP1 POP PUSH2 0x5D5 DUP3 PUSH1 0x2 DUP1 PUSH1 0x20 MUL PUSH1 0x40 MLOAD SWAP1 DUP2 ADD PUSH1 0x40 MSTORE DUP1 SWAP3 SWAP2 SWAP1 DUP3 PUSH1 0x2 PUSH1 0x20 MUL DUP1 DUP3 DUP5 CALLDATACOPY PUSH1 0x0 DUP2 DUP5 ADD MSTORE PUSH1 0x1F NOT PUSH1 0x1F DUP3 ADD AND SWAP1 POP DUP1 DUP4 ADD SWAP3 POP POP POP POP POP POP PUSH2 0x17A4 JUMP JUMPDEST POP GAS DUP2 PUSH2 0x5E2 SWAP2 SWAP1 PUSH2 0x3E09 JUMP JUMPDEST SWAP1 POP SWAP2 SWAP1 POP JUMP JUMPDEST PUSH1 0x0 GAS SWAP1 POP PUSH2 0x5F7 DUP3 PUSH2 0x1851 JUMP JUMPDEST POP POP GAS DUP2 PUSH2 0x605 SWAP2 SWAP1 PUSH2 0x3E09 JUMP JUMPDEST SWAP1 POP SWAP2 SWAP1 POP JUMP JUMPDEST PUSH1 0x0 GAS SWAP1 POP PUSH2 0x61A DUP3 PUSH2 0x193F JUMP JUMPDEST POP GAS DUP2 PUSH2 0x627 SWAP2 SWAP1 PUSH2 0x3E09 JUMP JUMPDEST SWAP1 POP SWAP2 SWAP1 POP JUMP JUMPDEST PUSH1 0x0 GAS SWAP1 POP PUSH2 0x63D DUP4 DUP4 PUSH2 0x1A3A JUMP JUMPDEST POP GAS DUP2 PUSH2 0x64A SWAP2 SWAP1 PUSH2 0x3E09 JUMP JUMPDEST SWAP1 POP SWAP3 SWAP2 POP POP JUMP JUMPDEST PUSH1 0x0 GAS SWAP1 POP PUSH2 0x793 DUP7 PUSH1 0x2 DUP1 PUSH1 0x20 MUL PUSH1 0x40 MLOAD SWAP1 DUP2 ADD PUSH1 0x40 MSTORE DUP1 SWAP3 SWAP2 SWAP1 DUP3 PUSH1 0x2 PUSH1 0x20 MUL DUP1 DUP3 DUP5 CALLDATACOPY PUSH1 0x0 DUP2 DUP5 ADD MSTORE PUSH1 0x1F NOT PUSH1 0x1F DUP3 ADD AND SWAP1 POP DUP1 DUP4 ADD SWAP3 POP POP POP POP POP POP DUP7 DUP7 DUP1 DUP1 PUSH1 0x20 MUL PUSH1 0x20 ADD PUSH1 0x40 MLOAD SWAP1 DUP2 ADD PUSH1 0x40 MSTORE DUP1 SWAP4 SWAP3 SWAP2 SWAP1 DUP2 DUP2 MSTORE PUSH1 0x20 ADD PUSH1 0x0 SWAP1 JUMPDEST DUP3 DUP3 LT ISZERO PUSH2 0x70B JUMPI DUP5 DUP5 DUP4 SWAP1 POP PUSH1 0x80 MUL ADD PUSH1 0x4 DUP1 PUSH1 0x20 MUL PUSH1 0x40 MLOAD SWAP1 DUP2 ADD PUSH1 0x40 MSTORE DUP1 SWAP3 SWAP2 SWAP1 DUP3 PUSH1 0x4 PUSH1 0x20 MUL DUP1 DUP3 DUP5 CALLDATACOPY PUSH1 0x0 DUP2 DUP5 ADD MSTORE PUSH1 0x1F NOT PUSH1 0x1F DUP3 ADD AND SWAP1 POP DUP1 DUP4 ADD SWAP3 POP POP POP POP POP POP DUP2 MSTORE PUSH1 0x20 ADD SWAP1 PUSH1 0x1 ADD SWAP1 PUSH2 0x6B4 JUMP JUMPDEST POP POP POP POP POP DUP6 DUP6 DUP1 DUP1 PUSH1 0x20 MUL PUSH1 0x20 ADD PUSH1 0x40 MLOAD SWAP1 DUP2 ADD PUSH1 0x40 MSTORE DUP1 SWAP4 SWAP3 SWAP2 SWAP1 DUP2 DUP2 MSTORE PUSH1 0x20 ADD PUSH1 0x0 SWAP1 JUMPDEST DUP3 DUP3 LT ISZERO PUSH2 0x789 JUMPI DUP5 DUP5 DUP4 SWAP1 POP PUSH1 0x40 MUL ADD PUSH1 0x2 DUP1 PUSH1 0x20 MUL PUSH1 0x40 MLOAD SWAP1 DUP2 ADD PUSH1 0x40 MSTORE DUP1 SWAP3 SWAP2 SWAP1 DUP3 PUSH1 0x2 PUSH1 0x20 MUL DUP1 DUP3 DUP5 CALLDATACOPY PUSH1 0x0 DUP2 DUP5 ADD MSTORE PUSH1 0x1F NOT PUSH1 0x1F DUP3 ADD AND SWAP1 POP DUP1 DUP4 ADD SWAP3 POP POP POP POP POP POP DUP2 MSTORE PUSH1 0x20 ADD SWAP1 PUSH1 0x1 ADD SWAP1 PUSH2 0x732 JUMP JUMPDEST POP POP POP POP POP PUSH2 0x1BE6 JUMP JUMPDEST PUSH2 0x7D2 JUMPI PUSH1 0x40 MLOAD PUSH32 0x8C379A000000000000000000000000000000000000000000000000000000000 DUP2 MSTORE PUSH1 0x4 ADD PUSH2 0x7C9 SWAP1 PUSH2 0x3EC0 JUMP JUMPDEST PUSH1 0x40 MLOAD DUP1 SWAP2 SUB SWAP1 REVERT JUMPDEST GAS DUP2 PUSH2 0x7DE SWAP2 SWAP1 PUSH2 0x3E09 JUMP JUMPDEST SWAP1 POP SWAP6 SWAP5 POP POP POP POP POP JUMP JUMPDEST PUSH1 0x0 GAS SWAP1 POP PUSH2 0x7F7 DUP3 PUSH2 0x2183 JUMP JUMPDEST POP GAS DUP2 PUSH2 0x804 SWAP2 SWAP1 PUSH2 0x3E09 JUMP JUMPDEST SWAP1 POP SWAP2 SWAP1 POP JUMP JUMPDEST PUSH1 0x0 GAS SWAP1 POP PUSH2 0x850 DUP3 PUSH1 0x4 DUP1 PUSH1 0x20 MUL PUSH1 0x40 MLOAD SWAP1 DUP2 ADD PUSH1 0x40 MSTORE DUP1 SWAP3 SWAP2 SWAP1 DUP3 PUSH1 0x4 PUSH1 0x20 MUL DUP1 DUP3 DUP5 CALLDATACOPY PUSH1 0x0 DUP2 DUP5 ADD MSTORE PUSH1 0x1F NOT PUSH1 0x1F DUP3 ADD AND SWAP1 POP DUP1 DUP4 ADD SWAP3 POP POP POP POP POP POP PUSH2 0x2304 JUMP JUMPDEST POP GAS DUP2 PUSH2 0x85D SWAP2 SWAP1 PUSH2 0x3E09 JUMP JUMPDEST SWAP1 POP SWAP2 SWAP1 POP JUMP JUMPDEST PUSH1 0x0 GAS SWAP1 POP PUSH2 0x872 DUP3 PUSH2 0x2558 JUMP JUMPDEST POP GAS DUP2 PUSH2 0x87F SWAP2 SWAP1 PUSH2 0x3E09 JUMP JUMPDEST SWAP1 POP SWAP2 SWAP1 POP JUMP JUMPDEST PUSH1 0x0 GAS SWAP1 POP PUSH2 0x894 DUP3 PUSH2 0x2623 JUMP JUMPDEST POP POP GAS DUP2 PUSH2 0x8A2 SWAP2 SWAP1 PUSH2 0x3E09 JUMP JUMPDEST SWAP1 POP SWAP2 SWAP1 POP JUMP JUMPDEST PUSH1 0x0 DUP1 PUSH1 0x0 DUP4 ADD MLOAD PUSH1 0x20 DUP5 ADD MLOAD PUSH32 0x30644E72E131A029B85045B68181585D97816A916871CA8D3C208C16D87CFD47 DUP3 DUP4 MULMOD PUSH32 0x30644E72E131A029B85045B68181585D97816A916871CA8D3C208C16D87CFD47 DUP3 DUP4 MULMOD DUP2 DUP3 DUP4 ADD ADD PUSH32 0x30644E72E131A029B85045B68181585D97816A916871CA8D3C208C16D87CFD47 DUP3 DUP4 DUP5 ADD ADDMOD PUSH32 0x30644E72E131A029B85045B68181585D97816A916871CA8D3C208C16D87CFD47 DUP7 DUP3 PUSH32 0x30644E72E131A029B85045B68181585D97816A916871CA8D3C208C16D87CFD47 SUB DUP7 ADD MULMOD SWAP4 POP PUSH32 0x30644E72E131A029B85045B68181585D97816A916871CA8D3C208C16D87CFD47 DUP6 DUP5 PUSH32 0x30644E72E131A029B85045B68181585D97816A916871CA8D3C208C16D87CFD47 SUB DUP5 ADD MULMOD SWAP3 POP PUSH32 0x2B149D40CEB8AAAE81BE18991BE06AC3B5B4C5E559DBEFA33267E6DC24A138E5 DUP5 ADD SWAP6 POP PUSH31 0x9713B03AF0FED4CD2CAFADEED8FDF4A74FA084E52D1852E4A2BD0685C315D2 DUP4 ADD SWAP5 POP PUSH32 0x30644E72E131A029B85045B68181585D97816A916871CA8D3C208C16D87CFD47 DUP1 DUP7 DUP8 MULMOD PUSH32 0x30644E72E131A029B85045B68181585D97816A916871CA8D3C208C16D87CFD47 DUP9 DUP10 MULMOD ADDMOD SWAP6 POP PUSH1 0x40 MLOAD PUSH1 0x20 DUP2 MSTORE PUSH1 0x20 DUP1 DUP3 ADD MSTORE PUSH1 0x20 PUSH1 0x40 DUP3 ADD MSTORE DUP7 PUSH1 0x60 DUP3 ADD MSTORE PUSH32 0x183227397098D014DC2822DB40C0AC2ECBC0B548B438E5469E10460B6C3E7EA3 PUSH1 0x80 DUP3 ADD MSTORE PUSH32 0x30644E72E131A029B85045B68181585D97816A916871CA8D3C208C16D87CFD47 PUSH1 0xA0 DUP3 ADD MSTORE PUSH1 0x20 DUP2 PUSH1 0xC0 DUP4 PUSH1 0x5 PUSH2 0x7D0 GAS SUB STATICCALL SWAP8 POP DUP1 MLOAD PUSH1 0x1 EQ SWAP9 POP POP POP POP POP POP POP POP POP SWAP2 SWAP1 POP JUMP JUMPDEST PUSH1 0x0 DUP1 PUSH32 0x30644E72E131A029B85045B68181585D97816A916871CA8D3C208C16D87CFD47 DUP1 PUSH2 0xB0E JUMPI PUSH2 0xB0D PUSH2 0x3EE0 JUMP JUMPDEST JUMPDEST PUSH32 0x30644E72E131A029B85045B68181585D97816A916871CA8D3C208C16D87CFD47 DUP1 PUSH2 0xB3D JUMPI PUSH2 0xB3C PUSH2 0x3EE0 JUMP JUMPDEST JUMPDEST DUP5 PUSH1 0x1 PUSH1 0x2 DUP2 LT PUSH2 0xB51 JUMPI PUSH2 0xB50 PUSH2 0x3F0F JUMP JUMPDEST JUMPDEST PUSH1 0x20 MUL ADD MLOAD DUP6 PUSH1 0x1 PUSH1 0x2 DUP2 LT PUSH2 0xB6A JUMPI PUSH2 0xB69 PUSH2 0x3F0F JUMP JUMPDEST JUMPDEST PUSH1 0x20 MUL ADD MLOAD MULMOD PUSH32 0x30644E72E131A029B85045B68181585D97816A916871CA8D3C208C16D87CFD47 DUP1 PUSH2 0xB9F JUMPI PUSH2 0xB9E PUSH2 0x3EE0 JUMP JUMPDEST JUMPDEST DUP6 PUSH1 0x0 PUSH1 0x2 DUP2 LT PUSH2 0xBB3 JUMPI PUSH2 0xBB2 PUSH2 0x3F0F JUMP JUMPDEST JUMPDEST PUSH1 0x20 MUL ADD MLOAD DUP7 PUSH1 0x0 PUSH1 0x2 DUP2 LT PUSH2 0xBCC JUMPI PUSH2 0xBCB PUSH2 0x3F0F JUMP JUMPDEST JUMPDEST PUSH1 0x20 MUL ADD MLOAD MULMOD ADDMOD SWAP1 POP PUSH1 0x0 PUSH1 0x40 MLOAD PUSH1 0x20 DUP2 MSTORE PUSH1 0x20 DUP1 DUP3 ADD MSTORE PUSH1 0x20 PUSH1 0x40 DUP3 ADD MSTORE DUP3 PUSH1 0x60 DUP3 ADD MSTORE PUSH32 0x183227397098D014DC2822DB40C0AC2ECBC0B548B438E5469E10460B6C3E7EA3 PUSH1 0x80 DUP3 ADD MSTORE PUSH32 0x30644E72E131A029B85045B68181585D97816A916871CA8D3C208C16D87CFD47 PUSH1 0xA0 DUP3 ADD MSTORE PUSH1 0x20 DUP2 PUSH1 0xC0 DUP4 PUSH1 0x5 PUSH2 0x7D0 GAS SUB STATICCALL SWAP2 POP DUP1 MLOAD PUSH1 0x1 EQ SWAP4 POP POP DUP1 PUSH2 0xC95 JUMPI PUSH1 0x40 MLOAD PUSH32 0x8C379A000000000000000000000000000000000000000000000000000000000 DUP2 MSTORE PUSH1 0x4 ADD PUSH2 0xC8C SWAP1 PUSH2 0x3FB0 JUMP JUMPDEST PUSH1 0x40 MLOAD DUP1 SWAP2 SUB SWAP1 REVERT JUMPDEST DUP3 ISZERO SWAP3 POP POP POP SWAP2 SWAP1 POP JUMP JUMPDEST PUSH2 0xCA8 PUSH2 0x3875 JUMP JUMPDEST PUSH1 0x0 PUSH2 0xCB4 DUP5 DUP5 PUSH2 0x266C JUMP JUMPDEST SWAP1 POP PUSH1 0x0 DUP1 PUSH1 0x0 DUP1 PUSH1 0x18 DUP6 ADD PUSH24 0xFFFFFFFFFFFFFFFFFFFFFFFFFFFFFFFFFFFFFFFFFFFFFFFF DUP2 MLOAD AND SWAP4 POP PUSH1 0x30 DUP7 ADD SWAP1 POP PUSH24 0xFFFFFFFFFFFFFFFFFFFFFFFFFFFFFFFFFFFFFFFFFFFFFFFF DUP2 MLOAD AND SWAP5 POP PUSH32 0x30644E72E131A029B85045B68181585D97816A916871CA8D3C208C16D87CFD47 DUP6 PUSH32 0x30644E72E131A029B85045B68181585D97816A916871CA8D3C208C16D87CFD47 PUSH25 0x1000000000000000000000000000000000000000000000000 DUP8 MULMOD ADDMOD SWAP3 POP PUSH1 0x48 DUP7 ADD SWAP1 POP PUSH24 0xFFFFFFFFFFFFFFFFFFFFFFFFFFFFFFFFFFFFFFFFFFFFFFFF DUP2 MLOAD AND SWAP4 POP PUSH1 0x60 DUP7 ADD SWAP1 POP PUSH24 0xFFFFFFFFFFFFFFFFFFFFFFFFFFFFFFFFFFFFFFFFFFFFFFFF DUP2 MLOAD AND SWAP5 POP PUSH32 0x30644E72E131A029B85045B68181585D97816A916871CA8D3C208C16D87CFD47 DUP6 PUSH32 0x30644E72E131A029B85045B68181585D97816A916871CA8D3C208C16D87CFD47 PUSH25 0x1000000000000000000000000000000000000000000000000 DUP8 MULMOD ADDMOD SWAP2 POP POP PUSH1 0x40 MLOAD DUP1 PUSH1 0x40 ADD PUSH1 0x40 MSTORE DUP1 DUP4 DUP2 MSTORE PUSH1 0x20 ADD DUP3 DUP2 MSTORE POP SWAP6 POP POP POP POP POP POP SWAP3 SWAP2 POP POP JUMP JUMPDEST PUSH1 0x0 DUP1 PUSH1 0x40 MLOAD DUP1 PUSH2 0x180 ADD PUSH1 0x40 MSTORE DUP1 DUP7 PUSH1 0x0 PUSH1 0x2 DUP2 LT PUSH2 0xE54 JUMPI PUSH2 0xE53 PUSH2 0x3F0F JUMP JUMPDEST JUMPDEST PUSH1 0x20 MUL ADD MLOAD DUP2 MSTORE PUSH1 0x20 ADD DUP7 PUSH1 0x1 PUSH1 0x2 DUP2 LT PUSH2 0xE72 JUMPI PUSH2 0xE71 PUSH2 0x3F0F JUMP JUMPDEST JUMPDEST PUSH1 0x20 MUL ADD MLOAD DUP2 MSTORE PUSH1 0x20 ADD PUSH32 0x198E9393920D483A7260BFB731FB5D25F1AA493335A9E71297E485B7AEF312C2 DUP2 MSTORE PUSH1 0x20 ADD PUSH32 0x1800DEEF121F1E76426A00665E5C4479674322D4F75EDADD46DEBD5CD992F6ED DUP2 MSTORE PUSH1 0x20 ADD PUSH32 0x275DC4A288D1AFB3CBB1AC09187524C7DB36395DF7BE3B99E673B13A075A65EC DUP2 MSTORE PUSH1 0x20 ADD PUSH32 0x1D9BEFCD05A5323E6DA4D435F3B617CDB3AF83285C2DF711EF39C01571827F9D DUP2 MSTORE PUSH1 0x20 ADD DUP5 PUSH1 0x0 PUSH1 0x2 DUP2 LT PUSH2 0xF28 JUMPI PUSH2 0xF27 PUSH2 0x3F0F JUMP JUMPDEST JUMPDEST PUSH1 0x20 MUL ADD MLOAD DUP2 MSTORE PUSH1 0x20 ADD DUP5 PUSH1 0x1 PUSH1 0x2 DUP2 LT PUSH2 0xF46 JUMPI PUSH2 0xF45 PUSH2 0x3F0F JUMP JUMPDEST JUMPDEST PUSH1 0x20 MUL ADD MLOAD DUP2 MSTORE PUSH1 0x20 ADD DUP6 PUSH1 0x1 PUSH1 0x4 DUP2 LT PUSH2 0xF64 JUMPI PUSH2 0xF63 PUSH2 0x3F0F JUMP JUMPDEST JUMPDEST PUSH1 0x20 MUL ADD MLOAD DUP2 MSTORE PUSH1 0x20 ADD DUP6 PUSH1 0x0 PUSH1 0x4 DUP2 LT PUSH2 0xF82 JUMPI PUSH2 0xF81 PUSH2 0x3F0F JUMP JUMPDEST JUMPDEST PUSH1 0x20 MUL ADD MLOAD DUP2 MSTORE PUSH1 0x20 ADD DUP6 PUSH1 0x3 PUSH1 0x4 DUP2 LT PUSH2 0xFA0 JUMPI PUSH2 0xF9F PUSH2 0x3F0F JUMP JUMPDEST JUMPDEST PUSH1 0x20 MUL ADD MLOAD DUP2 MSTORE PUSH1 0x20 ADD DUP6 PUSH1 0x2 PUSH1 0x4 DUP2 LT PUSH2 0xFBE JUMPI PUSH2 0xFBD PUSH2 0x3F0F JUMP JUMPDEST JUMPDEST PUSH1 0x20 MUL ADD MLOAD DUP2 MSTORE POP SWAP1 POP PUSH2 0xFD0 PUSH2 0x3897 JUMP JUMPDEST PUSH1 0x0 PUSH1 0x20 DUP3 PUSH2 0x180 DUP6 PUSH1 0x8 PUSH2 0x7D0 GAS SUB STATICCALL SWAP1 POP DUP1 PUSH1 0x0 DUP2 SUB PUSH2 0xFEE JUMPI INVALID JUMPDEST POP DUP1 PUSH2 0x102F JUMPI PUSH1 0x40 MLOAD PUSH32 0x8C379A000000000000000000000000000000000000000000000000000000000 DUP2 MSTORE PUSH1 0x4 ADD PUSH2 0x1026 SWAP1 PUSH2 0x3FF6 JUMP JUMPDEST PUSH1 0x40 MLOAD DUP1 SWAP2 SUB SWAP1 REVERT JUMPDEST PUSH1 0x0 DUP3 PUSH1 0x0 PUSH1 0x1 DUP2 LT PUSH2 0x1045 JUMPI PUSH2 0x1044 PUSH2 0x3F0F JUMP JUMPDEST JUMPDEST PUSH1 0x20 MUL ADD MLOAD EQ ISZERO SWAP4 POP POP POP POP SWAP4 SWAP3 POP POP POP JUMP JUMPDEST PUSH2 0x1060 PUSH2 0x3875 JUMP JUMPDEST PUSH32 0x30644E72E131A029B85045B68181585D97816A916871CA8D3C208C16D87CFD47 DUP3 LT PUSH2 0x10C2 JUMPI PUSH1 0x40 MLOAD PUSH32 0x8C379A000000000000000000000000000000000000000000000000000000000 DUP2 MSTORE PUSH1 0x4 ADD PUSH2 0x10B9 SWAP1 PUSH2 0x4088 JUMP JUMPDEST PUSH1 0x40 MLOAD DUP1 SWAP2 SUB SWAP1 REVERT JUMPDEST PUSH1 0x0 DUP3 SWAP1 POP PUSH1 0x0 PUSH2 0x10D2 DUP3 PUSH2 0x2558 JUMP JUMPDEST SWAP1 POP PUSH1 0x0 PUSH32 0x30644E72E131A029B85045B68181585D97816A916871CA8D3C208C16D87CFD47 DUP1 PUSH2 0x1105 JUMPI PUSH2 0x1104 PUSH2 0x3EE0 JUMP JUMPDEST JUMPDEST DUP4 DUP5 MULMOD SWAP1 POP PUSH32 0x30644E72E131A029B85045B68181585D97816A916871CA8D3C208C16D87CFD47 DUP1 PUSH2 0x1139 JUMPI PUSH2 0x1138 PUSH2 0x3EE0 JUMP JUMPDEST JUMPDEST PUSH1 0x4 DUP3 ADDMOD SWAP1 POP PUSH1 0x0 PUSH32 0x30644E72E131A029B85045B68181585D97816A916871CA8D3C208C16D87CFD47 DUP1 PUSH2 0x1170 JUMPI PUSH2 0x116F PUSH2 0x3EE0 JUMP JUMPDEST JUMPDEST PUSH24 0xB3C4D79D41A91759A9E4C7E359B6B89EAEC68E62EFFFFFFD DUP6 MULMOD SWAP1 POP PUSH1 0x0 PUSH32 0x30644E72E131A029B85045B68181585D97816A916871CA8D3C208C16D87CFD47 DUP1 PUSH2 0x11BE JUMPI PUSH2 0x11BD PUSH2 0x3EE0 JUMP JUMPDEST JUMPDEST DUP4 DUP4 MULMOD SWAP1 POP PUSH2 0x11CC DUP2 PUSH2 0x29C1 JUMP JUMPDEST SWAP1 POP PUSH32 0x30644E72E131A029B85045B68181585D97816A916871CA8D3C208C16D87CFD47 DUP1 PUSH2 0x11FD JUMPI PUSH2 0x11FC PUSH2 0x3EE0 JUMP JUMPDEST JUMPDEST DUP3 DUP4 MULMOD SWAP2 POP PUSH32 0x30644E72E131A029B85045B68181585D97816A916871CA8D3C208C16D87CFD47 DUP1 PUSH2 0x1231 JUMPI PUSH2 0x1230 PUSH2 0x3EE0 JUMP JUMPDEST JUMPDEST DUP2 DUP4 MULMOD SWAP2 POP PUSH32 0x30644E72E131A029B85045B68181585D97816A916871CA8D3C208C16D87CFD47 DUP1 PUSH2 0x1265 JUMPI PUSH2 0x1264 PUSH2 0x3EE0 JUMP JUMPDEST JUMPDEST DUP3 DUP7 MULMOD SWAP2 POP PUSH32 0x30644E72E131A029B85045B68181585D97816A916871CA8D3C208C16D87CFD47 DUP1 PUSH2 0x1299 JUMPI PUSH2 0x1298 PUSH2 0x3EE0 JUMP JUMPDEST JUMPDEST DUP3 PUSH32 0x30644E72E131A029B85045B68181585D97816A916871CA8D3C208C16D87CFD47 PUSH2 0x12C5 SWAP2 SWAP1 PUSH2 0x3E09 JUMP JUMPDEST PUSH24 0x59E26BCEA0D48BACD4F263F1ACDB5C4F5763473177FFFFFE ADDMOD SWAP5 POP PUSH32 0x30644E72E131A029B85045B68181585D97816A916871CA8D3C208C16D87CFD47 DUP1 PUSH2 0x1310 JUMPI PUSH2 0x130F PUSH2 0x3EE0 JUMP JUMPDEST JUMPDEST DUP6 DUP7 MULMOD SWAP2 POP PUSH32 0x30644E72E131A029B85045B68181585D97816A916871CA8D3C208C16D87CFD47 DUP1 PUSH2 0x1344 JUMPI PUSH2 0x1343 PUSH2 0x3EE0 JUMP JUMPDEST JUMPDEST DUP6 DUP4 MULMOD SWAP2 POP PUSH32 0x30644E72E131A029B85045B68181585D97816A916871CA8D3C208C16D87CFD47 DUP1 PUSH2 0x1378 JUMPI PUSH2 0x1377 PUSH2 0x3EE0 JUMP JUMPDEST JUMPDEST PUSH1 0x3 DUP4 ADDMOD SWAP2 POP PUSH1 0x0 PUSH2 0x1389 DUP4 PUSH2 0x2623 JUMP JUMPDEST DUP1 SWAP3 POP DUP2 SWAP5 POP POP POP DUP1 ISZERO PUSH2 0x13EE JUMPI DUP5 ISZERO PUSH2 0x13CC JUMPI DUP3 PUSH32 0x30644E72E131A029B85045B68181585D97816A916871CA8D3C208C16D87CFD47 PUSH2 0x13C9 SWAP2 SWAP1 PUSH2 0x3E09 JUMP JUMPDEST SWAP3 POP JUMPDEST PUSH1 0x40 MLOAD DUP1 PUSH1 0x40 ADD PUSH1 0x40 MSTORE DUP1 DUP8 DUP2 MSTORE PUSH1 0x20 ADD DUP5 DUP2 MSTORE POP SWAP7 POP POP POP POP POP POP POP PUSH2 0x179F JUMP JUMPDEST PUSH32 0x30644E72E131A029B85045B68181585D97816A916871CA8D3C208C16D87CFD47 DUP1 PUSH2 0x141D JUMPI PUSH2 0x141C PUSH2 0x3EE0 JUMP JUMPDEST JUMPDEST PUSH1 0x1 DUP8 ADDMOD PUSH32 0x30644E72E131A029B85045B68181585D97816A916871CA8D3C208C16D87CFD47 PUSH2 0x144C SWAP2 SWAP1 PUSH2 0x3E09 JUMP JUMPDEST SWAP6 POP PUSH32 0x30644E72E131A029B85045B68181585D97816A916871CA8D3C208C16D87CFD47 DUP1 PUSH2 0x147D JUMPI PUSH2 0x147C PUSH2 0x3EE0 JUMP JUMPDEST JUMPDEST DUP7 DUP8 MULMOD SWAP3 POP PUSH32 0x30644E72E131A029B85045B68181585D97816A916871CA8D3C208C16D87CFD47 DUP1 PUSH2 0x14B1 JUMPI PUSH2 0x14B0 PUSH2 0x3EE0 JUMP JUMPDEST JUMPDEST DUP7 DUP5 MULMOD SWAP3 POP PUSH32 0x30644E72E131A029B85045B68181585D97816A916871CA8D3C208C16D87CFD47 DUP1 PUSH2 0x14E5 JUMPI PUSH2 0x14E4 PUSH2 0x3EE0 JUMP JUMPDEST JUMPDEST PUSH1 0x3 DUP5 ADDMOD SWAP3 POP PUSH2 0x14F4 DUP4 PUSH2 0x2623 JUMP JUMPDEST DUP1 SWAP3 POP DUP2 SWAP5 POP POP POP DUP1 ISZERO PUSH2 0x1559 JUMPI DUP5 ISZERO PUSH2 0x1537 JUMPI DUP3 PUSH32 0x30644E72E131A029B85045B68181585D97816A916871CA8D3C208C16D87CFD47 PUSH2 0x1534 SWAP2 SWAP1 PUSH2 0x3E09 JUMP JUMPDEST SWAP3 POP JUMPDEST PUSH1 0x40 MLOAD DUP1 PUSH1 0x40 ADD PUSH1 0x40 MSTORE DUP1 DUP8 DUP2 MSTORE PUSH1 0x20 ADD DUP5 DUP2 MSTORE POP SWAP7 POP POP POP POP POP POP POP PUSH2 0x179F JUMP JUMPDEST PUSH32 0x30644E72E131A029B85045B68181585D97816A916871CA8D3C208C16D87CFD47 DUP1 PUSH2 0x1588 JUMPI PUSH2 0x1587 PUSH2 0x3EE0 JUMP JUMPDEST JUMPDEST DUP5 DUP6 MULMOD SWAP6 POP PUSH32 0x30644E72E131A029B85045B68181585D97816A916871CA8D3C208C16D87CFD47 DUP1 PUSH2 0x15BC JUMPI PUSH2 0x15BB PUSH2 0x3EE0 JUMP JUMPDEST JUMPDEST DUP7 DUP8 MULMOD SWAP6 POP PUSH32 0x30644E72E131A029B85045B68181585D97816A916871CA8D3C208C16D87CFD47 DUP1 PUSH2 0x15F0 JUMPI PUSH2 0x15EF PUSH2 0x3EE0 JUMP JUMPDEST JUMPDEST DUP3 DUP8 MULMOD SWAP6 POP PUSH32 0x30644E72E131A029B85045B68181585D97816A916871CA8D3C208C16D87CFD47 DUP1 PUSH2 0x1624 JUMPI PUSH2 0x1623 PUSH2 0x3EE0 JUMP JUMPDEST JUMPDEST DUP3 DUP8 MULMOD SWAP6 POP PUSH32 0x30644E72E131A029B85045B68181585D97816A916871CA8D3C208C16D87CFD47 DUP1 PUSH2 0x1658 JUMPI PUSH2 0x1657 PUSH2 0x3EE0 JUMP JUMPDEST JUMPDEST PUSH1 0x1 DUP8 ADDMOD SWAP6 POP PUSH32 0x30644E72E131A029B85045B68181585D97816A916871CA8D3C208C16D87CFD47 DUP1 PUSH2 0x168D JUMPI PUSH2 0x168C PUSH2 0x3EE0 JUMP JUMPDEST JUMPDEST DUP7 DUP8 MULMOD SWAP3 POP PUSH32 0x30644E72E131A029B85045B68181585D97816A916871CA8D3C208C16D87CFD47 DUP1 PUSH2 0x16C1 JUMPI PUSH2 0x16C0 PUSH2 0x3EE0 JUMP JUMPDEST JUMPDEST DUP7 DUP5 MULMOD SWAP3 POP PUSH32 0x30644E72E131A029B85045B68181585D97816A916871CA8D3C208C16D87CFD47 DUP1 PUSH2 0x16F5 JUMPI PUSH2 0x16F4 PUSH2 0x3EE0 JUMP JUMPDEST JUMPDEST PUSH1 0x3 DUP5 ADDMOD SWAP3 POP PUSH2 0x1704 DUP4 PUSH2 0x2623 JUMP JUMPDEST DUP1 SWAP3 POP DUP2 SWAP5 POP POP POP DUP1 PUSH2 0x174C JUMPI PUSH1 0x40 MLOAD PUSH32 0x8C379A000000000000000000000000000000000000000000000000000000000 DUP2 MSTORE PUSH1 0x4 ADD PUSH2 0x1743 SWAP1 PUSH2 0x411A JUMP JUMPDEST PUSH1 0x40 MLOAD DUP1 SWAP2 SUB SWAP1 REVERT JUMPDEST DUP5 ISZERO PUSH2 0x1781 JUMPI DUP3 PUSH32 0x30644E72E131A029B85045B68181585D97816A916871CA8D3C208C16D87CFD47 PUSH2 0x177E SWAP2 SWAP1 PUSH2 0x3E09 JUMP JUMPDEST SWAP3 POP JUMPDEST PUSH1 0x40 MLOAD DUP1 PUSH1 0x40 ADD PUSH1 0x40 MSTORE DUP1 DUP8 DUP2 MSTORE PUSH1 0x20 ADD DUP5 DUP2 MSTORE POP SWAP7 POP POP POP POP POP POP POP JUMPDEST SWAP2 SWAP1 POP JUMP JUMPDEST PUSH1 0x0 DUP2 MLOAD PUSH1 0x20 DUP4 ADD MLOAD PUSH32 0x30644E72E131A029B85045B68181585D97816A916871CA8D3C208C16D87CFD47 DUP3 DUP4 MULMOD PUSH32 0x30644E72E131A029B85045B68181585D97816A916871CA8D3C208C16D87CFD47 DUP4 DUP3 MULMOD SWAP1 POP PUSH32 0x30644E72E131A029B85045B68181585D97816A916871CA8D3C208C16D87CFD47 PUSH1 0x3 DUP3 ADDMOD SWAP1 POP PUSH32 0x30644E72E131A029B85045B68181585D97816A916871CA8D3C208C16D87CFD47 DUP3 DUP4 MULMOD SWAP2 POP DUP1 DUP3 EQ SWAP4 POP POP POP POP SWAP2 SWAP1 POP JUMP JUMPDEST PUSH1 0x0 DUP1 PUSH1 0x0 PUSH1 0x40 MLOAD PUSH1 0x20 DUP2 MSTORE PUSH1 0x20 DUP1 DUP3 ADD MSTORE PUSH1 0x20 PUSH1 0x40 DUP3 ADD MSTORE DUP5 PUSH1 0x60 DUP3 ADD MSTORE PUSH32 0xC19139CB84C680A6E14116DA060561765E05AA45A1C72A34F082305B61F3F52 PUSH1 0x80 DUP3 ADD MSTORE PUSH32 0x30644E72E131A029B85045B68181585D97816A916871CA8D3C208C16D87CFD47 PUSH1 0xA0 DUP3 ADD MSTORE PUSH1 0x20 DUP2 PUSH1 0xC0 DUP4 PUSH1 0x5 PUSH2 0x7D0 GAS SUB STATICCALL SWAP2 POP DUP1 MLOAD SWAP4 POP PUSH32 0x30644E72E131A029B85045B68181585D97816A916871CA8D3C208C16D87CFD47 DUP5 DUP6 MULMOD DUP6 EQ SWAP3 POP POP DUP1 PUSH2 0x1939 JUMPI PUSH1 0x40 MLOAD PUSH32 0x8C379A000000000000000000000000000000000000000000000000000000000 DUP2 MSTORE PUSH1 0x4 ADD PUSH2 0x1930 SWAP1 PUSH2 0x4186 JUMP JUMPDEST PUSH1 0x40 MLOAD DUP1 SWAP2 SUB SWAP1 REVERT JUMPDEST POP SWAP2 POP SWAP2 JUMP JUMPDEST PUSH1 0x0 DUP1 DUP3 PUSH32 0x30644E72E131A029B85045B68181585D97816A916871CA8D3C208C16D87CFD47 DUP2 DUP3 MULMOD PUSH32 0x30644E72E131A029B85045B68181585D97816A916871CA8D3C208C16D87CFD47 DUP3 DUP3 MULMOD SWAP1 POP PUSH32 0x30644E72E131A029B85045B68181585D97816A916871CA8D3C208C16D87CFD47 PUSH1 0x3 DUP3 ADDMOD SWAP1 POP PUSH1 0x40 MLOAD PUSH1 0x20 DUP2 MSTORE PUSH1 0x20 DUP1 DUP3 ADD MSTORE PUSH1 0x20 PUSH1 0x40 DUP3 ADD MSTORE DUP2 PUSH1 0x60 DUP3 ADD MSTORE PUSH32 0x183227397098D014DC2822DB40C0AC2ECBC0B548B438E5469E10460B6C3E7EA3 PUSH1 0x80 DUP3 ADD MSTORE PUSH32 0x30644E72E131A029B85045B68181585D97816A916871CA8D3C208C16D87CFD47 PUSH1 0xA0 DUP3 ADD MSTORE PUSH1 0x20 DUP2 PUSH1 0xC0 DUP4 PUSH1 0x5 PUSH2 0x7D0 GAS SUB STATICCALL SWAP4 POP DUP1 MLOAD PUSH1 0x1 EQ SWAP5 POP POP POP POP POP SWAP2 SWAP1 POP JUMP JUMPDEST PUSH2 0x1A42 PUSH2 0x3875 JUMP JUMPDEST PUSH1 0x0 PUSH2 0x1A4E DUP5 DUP5 PUSH2 0xCA0 JUMP JUMPDEST SWAP1 POP PUSH1 0x0 PUSH2 0x1A73 DUP3 PUSH1 0x0 PUSH1 0x2 DUP2 LT PUSH2 0x1A69 JUMPI PUSH2 0x1A68 PUSH2 0x3F0F JUMP JUMPDEST JUMPDEST PUSH1 0x20 MUL ADD MLOAD PUSH2 0x1058 JUMP JUMPDEST SWAP1 POP PUSH1 0x0 PUSH2 0x1A98 DUP4 PUSH1 0x1 PUSH1 0x2 DUP2 LT PUSH2 0x1A8E JUMPI PUSH2 0x1A8D PUSH2 0x3F0F JUMP JUMPDEST JUMPDEST PUSH1 0x20 MUL ADD MLOAD PUSH2 0x1058 JUMP JUMPDEST SWAP1 POP PUSH2 0x1AA2 PUSH2 0x38B9 JUMP JUMPDEST DUP3 PUSH1 0x0 PUSH1 0x2 DUP2 LT PUSH2 0x1AB6 JUMPI PUSH2 0x1AB5 PUSH2 0x3F0F JUMP JUMPDEST JUMPDEST PUSH1 0x20 MUL ADD MLOAD DUP2 PUSH1 0x0 PUSH1 0x4 DUP2 LT PUSH2 0x1ACF JUMPI PUSH2 0x1ACE PUSH2 0x3F0F JUMP JUMPDEST JUMPDEST PUSH1 0x20 MUL ADD DUP2 DUP2 MSTORE POP POP DUP3 PUSH1 0x1 PUSH1 0x2 DUP2 LT PUSH2 0x1AEC JUMPI PUSH2 0x1AEB PUSH2 0x3F0F JUMP JUMPDEST JUMPDEST PUSH1 0x20 MUL ADD MLOAD DUP2 PUSH1 0x1 PUSH1 0x4 DUP2 LT PUSH2 0x1B05 JUMPI PUSH2 0x1B04 PUSH2 0x3F0F JUMP JUMPDEST JUMPDEST PUSH1 0x20 MUL ADD DUP2 DUP2 MSTORE POP POP DUP2 PUSH1 0x0 PUSH1 0x2 DUP2 LT PUSH2 0x1B22 JUMPI PUSH2 0x1B21 PUSH2 0x3F0F JUMP JUMPDEST JUMPDEST PUSH1 0x20 MUL ADD MLOAD DUP2 PUSH1 0x2 PUSH1 0x4 DUP2 LT PUSH2 0x1B3B JUMPI PUSH2 0x1B3A PUSH2 0x3F0F JUMP JUMPDEST JUMPDEST PUSH1 0x20 MUL ADD DUP2 DUP2 MSTORE POP POP DUP2 PUSH1 0x1 PUSH1 0x2 DUP2 LT PUSH2 0x1B58 JUMPI PUSH2 0x1B57 PUSH2 0x3F0F JUMP JUMPDEST JUMPDEST PUSH1 0x20 MUL ADD MLOAD DUP2 PUSH1 0x3 PUSH1 0x4 DUP2 LT PUSH2 0x1B71 JUMPI PUSH2 0x1B70 PUSH2 0x3F0F JUMP JUMPDEST JUMPDEST PUSH1 0x20 MUL ADD DUP2 DUP2 MSTORE POP POP PUSH1 0x0 PUSH1 0x40 DUP5 PUSH1 0x80 DUP5 PUSH1 0x6 PUSH2 0x7D0 GAS SUB STATICCALL SWAP1 POP DUP1 PUSH1 0x0 DUP2 SUB PUSH2 0x1B97 JUMPI INVALID JUMPDEST POP DUP1 PUSH2 0x1BD8 JUMPI PUSH1 0x40 MLOAD PUSH32 0x8C379A000000000000000000000000000000000000000000000000000000000 DUP2 MSTORE PUSH1 0x4 ADD PUSH2 0x1BCF SWAP1 PUSH2 0x3FF6 JUMP JUMPDEST PUSH1 0x40 MLOAD DUP1 SWAP2 SUB SWAP1 REVERT JUMPDEST DUP4 SWAP6 POP POP POP POP POP POP SWAP3 SWAP2 POP POP JUMP JUMPDEST PUSH1 0x0 DUP1 DUP4 MLOAD SWAP1 POP PUSH1 0x0 DUP2 GT PUSH2 0x1C30 JUMPI PUSH1 0x40 MLOAD PUSH32 0x8C379A000000000000000000000000000000000000000000000000000000000 DUP2 MSTORE PUSH1 0x4 ADD PUSH2 0x1C27 SWAP1 PUSH2 0x4218 JUMP JUMPDEST PUSH1 0x40 MLOAD DUP1 SWAP2 SUB SWAP1 REVERT JUMPDEST DUP3 MLOAD DUP2 EQ PUSH2 0x1C73 JUMPI PUSH1 0x40 MLOAD PUSH32 0x8C379A000000000000000000000000000000000000000000000000000000000 DUP2 MSTORE PUSH1 0x4 ADD PUSH2 0x1C6A SWAP1 PUSH2 0x42AA JUMP JUMPDEST PUSH1 0x40 MLOAD DUP1 SWAP2 SUB SWAP1 REVERT JUMPDEST PUSH1 0x0 PUSH1 0x6 PUSH1 0x1 DUP4 PUSH2 0x1C84 SWAP2 SWAP1 PUSH2 0x42CA JUMP JUMPDEST PUSH2 0x1C8E SWAP2 SWAP1 PUSH2 0x42FE JUMP JUMPDEST SWAP1 POP PUSH1 0x0 DUP2 PUSH8 0xFFFFFFFFFFFFFFFF DUP2 GT ISZERO PUSH2 0x1CAC JUMPI PUSH2 0x1CAB PUSH2 0x3992 JUMP JUMPDEST JUMPDEST PUSH1 0x40 MLOAD SWAP1 DUP1 DUP3 MSTORE DUP1 PUSH1 0x20 MUL PUSH1 0x20 ADD DUP3 ADD PUSH1 0x40 MSTORE DUP1 ISZERO PUSH2 0x1CDA JUMPI DUP2 PUSH1 0x20 ADD PUSH1 0x20 DUP3 MUL DUP1 CALLDATASIZE DUP4 CALLDATACOPY DUP1 DUP3 ADD SWAP2 POP POP SWAP1 POP JUMPDEST POP SWAP1 POP DUP7 PUSH1 0x0 PUSH1 0x2 DUP2 LT PUSH2 0x1CF1 JUMPI PUSH2 0x1CF0 PUSH2 0x3F0F JUMP JUMPDEST JUMPDEST PUSH1 0x20 MUL ADD MLOAD DUP2 PUSH1 0x0 DUP2 MLOAD DUP2 LT PUSH2 0x1D0A JUMPI PUSH2 0x1D09 PUSH2 0x3F0F JUMP JUMPDEST JUMPDEST PUSH1 0x20 MUL PUSH1 0x20 ADD ADD DUP2 DUP2 MSTORE POP POP DUP7 PUSH1 0x1 PUSH1 0x2 DUP2 LT PUSH2 0x1D2A JUMPI PUSH2 0x1D29 PUSH2 0x3F0F JUMP JUMPDEST JUMPDEST PUSH1 0x20 MUL ADD MLOAD DUP2 PUSH1 0x1 DUP2 MLOAD DUP2 LT PUSH2 0x1D43 JUMPI PUSH2 0x1D42 PUSH2 0x3F0F JUMP JUMPDEST JUMPDEST PUSH1 0x20 MUL PUSH1 0x20 ADD ADD DUP2 DUP2 MSTORE POP POP PUSH32 0x198E9393920D483A7260BFB731FB5D25F1AA493335A9E71297E485B7AEF312C2 DUP2 PUSH1 0x2 DUP2 MLOAD DUP2 LT PUSH2 0x1D84 JUMPI PUSH2 0x1D83 PUSH2 0x3F0F JUMP JUMPDEST JUMPDEST PUSH1 0x20 MUL PUSH1 0x20 ADD ADD DUP2 DUP2 MSTORE POP POP PUSH32 0x1800DEEF121F1E76426A00665E5C4479674322D4F75EDADD46DEBD5CD992F6ED DUP2 PUSH1 0x3 DUP2 MLOAD DUP2 LT PUSH2 0x1DC5 JUMPI PUSH2 0x1DC4 PUSH2 0x3F0F JUMP JUMPDEST JUMPDEST PUSH1 0x20 MUL PUSH1 0x20 ADD ADD DUP2 DUP2 MSTORE POP POP PUSH32 0x275DC4A288D1AFB3CBB1AC09187524C7DB36395DF7BE3B99E673B13A075A65EC DUP2 PUSH1 0x4 DUP2 MLOAD DUP2 LT PUSH2 0x1E06 JUMPI PUSH2 0x1E05 PUSH2 0x3F0F JUMP JUMPDEST JUMPDEST PUSH1 0x20 MUL PUSH1 0x20 ADD ADD DUP2 DUP2 MSTORE POP POP PUSH32 0x1D9BEFCD05A5323E6DA4D435F3B617CDB3AF83285C2DF711EF39C01571827F9D DUP2 PUSH1 0x5 DUP2 MLOAD DUP2 LT PUSH2 0x1E47 JUMPI PUSH2 0x1E46 PUSH2 0x3F0F JUMP JUMPDEST JUMPDEST PUSH1 0x20 MUL PUSH1 0x20 ADD ADD DUP2 DUP2 MSTORE POP POP PUSH1 0x0 JUMPDEST DUP4 DUP2 LT ISZERO PUSH2 0x20EC JUMPI DUP6 DUP2 DUP2 MLOAD DUP2 LT PUSH2 0x1E71 JUMPI PUSH2 0x1E70 PUSH2 0x3F0F JUMP JUMPDEST JUMPDEST PUSH1 0x20 MUL PUSH1 0x20 ADD ADD MLOAD PUSH1 0x0 PUSH1 0x2 DUP2 LT PUSH2 0x1E8C JUMPI PUSH2 0x1E8B PUSH2 0x3F0F JUMP JUMPDEST JUMPDEST PUSH1 0x20 MUL ADD MLOAD DUP3 PUSH1 0x6 DUP1 DUP5 PUSH2 0x1EA0 SWAP2 SWAP1 PUSH2 0x42FE JUMP JUMPDEST PUSH2 0x1EAA SWAP2 SWAP1 PUSH2 0x42CA JUMP JUMPDEST DUP2 MLOAD DUP2 LT PUSH2 0x1EBB JUMPI PUSH2 0x1EBA PUSH2 0x3F0F JUMP JUMPDEST JUMPDEST PUSH1 0x20 MUL PUSH1 0x20 ADD ADD DUP2 DUP2 MSTORE POP POP DUP6 DUP2 DUP2 MLOAD DUP2 LT PUSH2 0x1EDA JUMPI PUSH2 0x1ED9 PUSH2 0x3F0F JUMP JUMPDEST JUMPDEST PUSH1 0x20 MUL PUSH1 0x20 ADD ADD MLOAD PUSH1 0x1 PUSH1 0x2 DUP2 LT PUSH2 0x1EF5 JUMPI PUSH2 0x1EF4 PUSH2 0x3F0F JUMP JUMPDEST JUMPDEST PUSH1 0x20 MUL ADD MLOAD DUP3 PUSH1 0x7 PUSH1 0x6 DUP5 PUSH2 0x1F0A SWAP2 SWAP1 PUSH2 0x42FE JUMP JUMPDEST PUSH2 0x1F14 SWAP2 SWAP1 PUSH2 0x42CA JUMP JUMPDEST DUP2 MLOAD DUP2 LT PUSH2 0x1F25 JUMPI PUSH2 0x1F24 PUSH2 0x3F0F JUMP JUMPDEST JUMPDEST PUSH1 0x20 MUL PUSH1 0x20 ADD ADD DUP2 DUP2 MSTORE POP POP DUP7 DUP2 DUP2 MLOAD DUP2 LT PUSH2 0x1F44 JUMPI PUSH2 0x1F43 PUSH2 0x3F0F JUMP JUMPDEST JUMPDEST PUSH1 0x20 MUL PUSH1 0x20 ADD ADD MLOAD PUSH1 0x1 PUSH1 0x4 DUP2 LT PUSH2 0x1F5F JUMPI PUSH2 0x1F5E PUSH2 0x3F0F JUMP JUMPDEST JUMPDEST PUSH1 0x20 MUL ADD MLOAD DUP3 PUSH1 0x8 PUSH1 0x6 DUP5 PUSH2 0x1F74 SWAP2 SWAP1 PUSH2 0x42FE JUMP JUMPDEST PUSH2 0x1F7E SWAP2 SWAP1 PUSH2 0x42CA JUMP JUMPDEST DUP2 MLOAD DUP2 LT PUSH2 0x1F8F JUMPI PUSH2 0x1F8E PUSH2 0x3F0F JUMP JUMPDEST JUMPDEST PUSH1 0x20 MUL PUSH1 0x20 ADD ADD DUP2 DUP2 MSTORE POP POP DUP7 DUP2 DUP2 MLOAD DUP2 LT PUSH2 0x1FAE JUMPI PUSH2 0x1FAD PUSH2 0x3F0F JUMP JUMPDEST JUMPDEST PUSH1 0x20 MUL PUSH1 0x20 ADD ADD MLOAD PUSH1 0x0 PUSH1 0x4 DUP2 LT PUSH2 0x1FC9 JUMPI PUSH2 0x1FC8 PUSH2 0x3F0F JUMP JUMPDEST JUMPDEST PUSH1 0x20 MUL ADD MLOAD DUP3 PUSH1 0x9 PUSH1 0x6 DUP5 PUSH2 0x1FDE SWAP2 SWAP1 PUSH2 0x42FE JUMP JUMPDEST PUSH2 0x1FE8 SWAP2 SWAP1 PUSH2 0x42CA JUMP JUMPDEST DUP2 MLOAD DUP2 LT PUSH2 0x1FF9 JUMPI PUSH2 0x1FF8 PUSH2 0x3F0F JUMP JUMPDEST JUMPDEST PUSH1 0x20 MUL PUSH1 0x20 ADD ADD DUP2 DUP2 MSTORE POP POP DUP7 DUP2 DUP2 MLOAD DUP2 LT PUSH2 0x2018 JUMPI PUSH2 0x2017 PUSH2 0x3F0F JUMP JUMPDEST JUMPDEST PUSH1 0x20 MUL PUSH1 0x20 ADD ADD MLOAD PUSH1 0x3 PUSH1 0x4 DUP2 LT PUSH2 0x2033 JUMPI PUSH2 0x2032 PUSH2 0x3F0F JUMP JUMPDEST JUMPDEST PUSH1 0x20 MUL ADD MLOAD DUP3 PUSH1 0xA PUSH1 0x6 DUP5 PUSH2 0x2048 SWAP2 SWAP1 PUSH2 0x42FE JUMP JUMPDEST PUSH2 0x2052 SWAP2 SWAP1 PUSH2 0x42CA JUMP JUMPDEST DUP2 MLOAD DUP2 LT PUSH2 0x2063 JUMPI PUSH2 0x2062 PUSH2 0x3F0F JUMP JUMPDEST JUMPDEST PUSH1 0x20 MUL PUSH1 0x20 ADD ADD DUP2 DUP2 MSTORE POP POP DUP7 DUP2 DUP2 MLOAD DUP2 LT PUSH2 0x2082 JUMPI PUSH2 0x2081 PUSH2 0x3F0F JUMP JUMPDEST JUMPDEST PUSH1 0x20 MUL PUSH1 0x20 ADD ADD MLOAD PUSH1 0x2 PUSH1 0x4 DUP2 LT PUSH2 0x209D JUMPI PUSH2 0x209C PUSH2 0x3F0F JUMP JUMPDEST JUMPDEST PUSH1 0x20 MUL ADD MLOAD DUP3 PUSH1 0xB PUSH1 0x6 DUP5 PUSH2 0x20B2 SWAP2 SWAP1 PUSH2 0x42FE JUMP JUMPDEST PUSH2 0x20BC SWAP2 SWAP1 PUSH2 0x42CA JUMP JUMPDEST DUP2 MLOAD DUP2 LT PUSH2 0x20CD JUMPI PUSH2 0x20CC PUSH2 0x3F0F JUMP JUMPDEST JUMPDEST PUSH1 0x20 MUL PUSH1 0x20 ADD ADD DUP2 DUP2 MSTORE POP POP DUP1 DUP1 PUSH2 0x20E4 SWAP1 PUSH2 0x4340 JUMP JUMPDEST SWAP2 POP POP PUSH2 0x1E56 JUMP JUMPDEST POP PUSH2 0x20F5 PUSH2 0x3897 JUMP JUMPDEST PUSH1 0x0 PUSH1 0x20 DUP3 PUSH1 0x20 DUP7 MUL PUSH1 0x20 DUP7 ADD PUSH1 0x8 PUSH2 0x7D0 GAS SUB STATICCALL SWAP1 POP DUP1 PUSH1 0x0 DUP2 SUB PUSH2 0x2117 JUMPI INVALID JUMPDEST POP DUP1 PUSH2 0x2158 JUMPI PUSH1 0x40 MLOAD PUSH32 0x8C379A000000000000000000000000000000000000000000000000000000000 DUP2 MSTORE PUSH1 0x4 ADD PUSH2 0x214F SWAP1 PUSH2 0x3FF6 JUMP JUMPDEST PUSH1 0x40 MLOAD DUP1 SWAP2 SUB SWAP1 REVERT JUMPDEST PUSH1 0x0 DUP3 PUSH1 0x0 PUSH1 0x1 DUP2 LT PUSH2 0x216E JUMPI PUSH2 0x216D PUSH2 0x3F0F JUMP JUMPDEST JUMPDEST PUSH1 0x20 MUL ADD MLOAD EQ ISZERO SWAP6 POP POP POP POP POP POP SWAP4 SWAP3 POP POP POP JUMP JUMPDEST PUSH2 0x218B PUSH2 0x3875 JUMP JUMPDEST PUSH1 0x0 PUSH32 0x30644E72E131A029B85045B68181585D97816A916871CA8D3C208C16D87CFD47 DUP4 PUSH1 0x0 SHR PUSH2 0x21BC SWAP2 SWAP1 PUSH2 0x4388 JUMP JUMPDEST SWAP1 POP PUSH1 0x0 DUP1 PUSH1 0x0 SWAP1 POP JUMPDEST PUSH1 0x1 ISZERO PUSH2 0x22FC JUMPI PUSH32 0x30644E72E131A029B85045B68181585D97816A916871CA8D3C208C16D87CFD47 DUP1 PUSH2 0x21FC JUMPI PUSH2 0x21FB PUSH2 0x3EE0 JUMP JUMPDEST JUMPDEST DUP4 DUP5 MULMOD SWAP2 POP PUSH32 0x30644E72E131A029B85045B68181585D97816A916871CA8D3C208C16D87CFD47 DUP1 PUSH2 0x2230 JUMPI PUSH2 0x222F PUSH2 0x3EE0 JUMP JUMPDEST JUMPDEST DUP4 DUP4 MULMOD SWAP2 POP PUSH32 0x30644E72E131A029B85045B68181585D97816A916871CA8D3C208C16D87CFD47 DUP1 PUSH2 0x2264 JUMPI PUSH2 0x2263 PUSH2 0x3EE0 JUMP JUMPDEST JUMPDEST PUSH1 0x3 DUP4 ADDMOD SWAP2 POP PUSH2 0x2273 DUP3 PUSH2 0x2623 JUMP JUMPDEST DUP1 SWAP3 POP DUP2 SWAP4 POP POP POP DUP1 ISZERO PUSH2 0x22C2 JUMPI DUP3 DUP5 PUSH1 0x0 PUSH1 0x2 DUP2 LT PUSH2 0x2296 JUMPI PUSH2 0x2295 PUSH2 0x3F0F JUMP JUMPDEST JUMPDEST PUSH1 0x20 MUL ADD DUP2 DUP2 MSTORE POP POP DUP2 DUP5 PUSH1 0x1 PUSH1 0x2 DUP2 LT PUSH2 0x22B4 JUMPI PUSH2 0x22B3 PUSH2 0x3F0F JUMP JUMPDEST JUMPDEST PUSH1 0x20 MUL ADD DUP2 DUP2 MSTORE POP POP PUSH2 0x22FC JUMP JUMPDEST PUSH32 0x30644E72E131A029B85045B68181585D97816A916871CA8D3C208C16D87CFD47 DUP1 PUSH2 0x22F1 JUMPI PUSH2 0x22F0 PUSH2 0x3EE0 JUMP JUMPDEST JUMPDEST PUSH1 0x1 DUP5 ADDMOD SWAP3 POP PUSH2 0x21C6 JUMP JUMPDEST POP POP POP SWAP2 SWAP1 POP JUMP JUMPDEST PUSH1 0x0 DUP2 MLOAD PUSH1 0x20 DUP4 ADD MLOAD PUSH32 0x30644E72E131A029B85045B68181585D97816A916871CA8D3C208C16D87CFD47 DUP3 DUP4 MULMOD PUSH32 0x30644E72E131A029B85045B68181585D97816A916871CA8D3C208C16D87CFD47 DUP3 DUP4 MULMOD DUP2 DUP3 DUP4 ADD ADD PUSH32 0x30644E72E131A029B85045B68181585D97816A916871CA8D3C208C16D87CFD47 DUP3 DUP4 DUP5 ADD ADDMOD PUSH32 0x30644E72E131A029B85045B68181585D97816A916871CA8D3C208C16D87CFD47 DUP7 DUP3 PUSH32 0x30644E72E131A029B85045B68181585D97816A916871CA8D3C208C16D87CFD47 SUB DUP7 ADD MULMOD SWAP4 POP PUSH32 0x30644E72E131A029B85045B68181585D97816A916871CA8D3C208C16D87CFD47 DUP6 DUP5 PUSH32 0x30644E72E131A029B85045B68181585D97816A916871CA8D3C208C16D87CFD47 SUB DUP5 ADD MULMOD SWAP3 POP PUSH32 0x30644E72E131A029B85045B68181585D97816A916871CA8D3C208C16D87CFD47 PUSH32 0x2B149D40CEB8AAAE81BE18991BE06AC3B5B4C5E559DBEFA33267E6DC24A138E5 DUP6 ADDMOD SWAP6 POP PUSH32 0x30644E72E131A029B85045B68181585D97816A916871CA8D3C208C16D87CFD47 PUSH31 0x9713B03AF0FED4CD2CAFADEED8FDF4A74FA084E52D1852E4A2BD0685C315D2 DUP5 ADDMOD SWAP5 POP PUSH1 0x40 DUP9 ADD MLOAD SWAP4 POP PUSH1 0x60 DUP9 ADD MLOAD SWAP3 POP PUSH32 0x30644E72E131A029B85045B68181585D97816A916871CA8D3C208C16D87CFD47 DUP1 DUP5 PUSH32 0x30644E72E131A029B85045B68181585D97816A916871CA8D3C208C16D87CFD47 SUB DUP7 ADDMOD PUSH32 0x30644E72E131A029B85045B68181585D97816A916871CA8D3C208C16D87CFD47 DUP6 DUP8 ADDMOD MULMOD SWAP2 POP PUSH32 0x30644E72E131A029B85045B68181585D97816A916871CA8D3C208C16D87CFD47 DUP4 DUP6 PUSH1 0x1 SHL MULMOD SWAP3 POP DUP3 DUP6 EQ DUP3 DUP8 EQ AND SWAP7 POP POP POP POP POP POP POP SWAP2 SWAP1 POP JUMP JUMPDEST PUSH1 0x0 DUP1 PUSH1 0x40 MLOAD PUSH1 0x20 DUP2 MSTORE PUSH1 0x20 DUP1 DUP3 ADD MSTORE PUSH1 0x20 PUSH1 0x40 DUP3 ADD MSTORE DUP4 PUSH1 0x60 DUP3 ADD MSTORE PUSH32 0x183227397098D014DC2822DB40C0AC2ECBC0B548B438E5469E10460B6C3E7EA3 PUSH1 0x80 DUP3 ADD MSTORE PUSH32 0x30644E72E131A029B85045B68181585D97816A916871CA8D3C208C16D87CFD47 PUSH1 0xA0 DUP3 ADD MSTORE PUSH1 0x20 DUP2 PUSH1 0xC0 DUP4 PUSH1 0x5 PUSH2 0x7D0 GAS SUB STATICCALL SWAP2 POP DUP1 MLOAD PUSH1 0x1 EQ SWAP3 POP POP DUP1 PUSH2 0x2619 JUMPI PUSH1 0x40 MLOAD PUSH32 0x8C379A000000000000000000000000000000000000000000000000000000000 DUP2 MSTORE PUSH1 0x4 ADD PUSH2 0x2610 SWAP1 PUSH2 0x442B JUMP JUMPDEST PUSH1 0x40 MLOAD DUP1 SWAP2 SUB SWAP1 REVERT JUMPDEST DUP2 ISZERO SWAP2 POP POP SWAP2 SWAP1 POP JUMP JUMPDEST PUSH1 0x0 DUP1 PUSH2 0x262F DUP4 PUSH2 0x29D3 JUMP JUMPDEST SWAP2 POP DUP3 PUSH32 0x30644E72E131A029B85045B68181585D97816A916871CA8D3C208C16D87CFD47 DUP1 PUSH2 0x2661 JUMPI PUSH2 0x2660 PUSH2 0x3EE0 JUMP JUMPDEST JUMPDEST DUP4 DUP5 MULMOD EQ SWAP1 POP SWAP2 POP SWAP2 JUMP JUMPDEST PUSH1 0x60 PUSH1 0x0 DUP4 MLOAD SWAP1 POP PUSH2 0x100 DUP2 LT PUSH2 0x26B8 JUMPI PUSH1 0x40 MLOAD PUSH32 0x8C379A000000000000000000000000000000000000000000000000000000000 DUP2 MSTORE PUSH1 0x4 ADD PUSH2 0x26AF SWAP1 PUSH2 0x4497 JUMP JUMPDEST PUSH1 0x40 MLOAD DUP1 SWAP2 SUB SWAP1 REVERT JUMPDEST PUSH1 0x0 DUP4 MLOAD SWAP1 POP PUSH1 0x0 PUSH1 0x4 PUSH1 0x40 DUP4 DUP6 PUSH2 0x26D0 SWAP2 SWAP1 PUSH2 0x42CA JUMP JUMPDEST PUSH2 0x26DA SWAP2 SWAP1 PUSH2 0x42CA JUMP JUMPDEST PUSH2 0x26E4 SWAP2 SWAP1 PUSH2 0x42CA JUMP JUMPDEST PUSH8 0xFFFFFFFFFFFFFFFF DUP2 GT ISZERO PUSH2 0x26FD JUMPI PUSH2 0x26FC PUSH2 0x3992 JUMP JUMPDEST JUMPDEST PUSH1 0x40 MLOAD SWAP1 DUP1 DUP3 MSTORE DUP1 PUSH1 0x1F ADD PUSH1 0x1F NOT AND PUSH1 0x20 ADD DUP3 ADD PUSH1 0x40 MSTORE DUP1 ISZERO PUSH2 0x272F JUMPI DUP2 PUSH1 0x20 ADD PUSH1 0x1 DUP3 MUL DUP1 CALLDATASIZE DUP4 CALLDATACOPY DUP1 DUP3 ADD SWAP2 POP POP SWAP1 POP JUMPDEST POP SWAP1 POP PUSH1 0x0 PUSH1 0x60 PUSH8 0xFFFFFFFFFFFFFFFF DUP2 GT ISZERO PUSH2 0x274F JUMPI PUSH2 0x274E PUSH2 0x3992 JUMP JUMPDEST JUMPDEST PUSH1 0x40 MLOAD SWAP1 DUP1 DUP3 MSTORE DUP1 PUSH1 0x1F ADD PUSH1 0x1F NOT AND PUSH1 0x20 ADD DUP3 ADD PUSH1 0x40 MSTORE DUP1 ISZERO PUSH2 0x2781 JUMPI DUP2 PUSH1 0x20 ADD PUSH1 0x1 DUP3 MUL DUP1 CALLDATASIZE DUP4 CALLDATACOPY DUP1 DUP3 ADD SWAP2 POP POP SWAP1 POP JUMPDEST POP SWAP1 POP PUSH1 0x60 DUP3 ADD PUSH1 0x0 JUMPDEST DUP5 DUP2 LT ISZERO PUSH2 0x27A9 JUMPI PUSH1 0x20 DUP2 ADD DUP9 ADD MLOAD DUP2 DUP4 ADD MSTORE PUSH1 0x20 DUP2 ADD SWAP1 POP PUSH2 0x278B JUMP JUMPDEST DUP5 DUP3 ADD SWAP2 POP PUSH1 0x0 DUP3 MSTORE8 PUSH1 0x1 DUP3 ADD SWAP2 POP PUSH1 0x60 DUP3 MSTORE8 PUSH1 0x1 DUP3 ADD SWAP2 POP PUSH1 0x0 DUP3 MSTORE8 PUSH1 0x1 DUP3 ADD SWAP2 POP PUSH1 0x20 DUP10 ADD MLOAD DUP3 MSTORE DUP6 DUP3 ADD SWAP2 POP DUP6 DUP3 MSTORE8 POP POP PUSH1 0x0 PUSH1 0x2 DUP4 PUSH1 0x40 MLOAD PUSH2 0x27EF SWAP2 SWAP1 PUSH2 0x4528 JUMP JUMPDEST PUSH1 0x20 PUSH1 0x40 MLOAD DUP1 DUP4 SUB DUP2 DUP6 GAS STATICCALL ISZERO DUP1 ISZERO PUSH2 0x280C JUMPI RETURNDATASIZE PUSH1 0x0 DUP1 RETURNDATACOPY RETURNDATASIZE PUSH1 0x0 REVERT JUMPDEST POP POP POP PUSH1 0x40 MLOAD RETURNDATASIZE PUSH1 0x1F NOT PUSH1 0x1F DUP3 ADD AND DUP3 ADD DUP1 PUSH1 0x40 MSTORE POP DUP2 ADD SWAP1 PUSH2 0x282F SWAP2 SWAP1 PUSH2 0x4554 JUMP JUMPDEST SWAP1 POP PUSH1 0x0 PUSH1 0x22 DUP7 PUSH2 0x2840 SWAP2 SWAP1 PUSH2 0x42CA JUMP JUMPDEST SWAP5 POP DUP5 DUP5 MSTORE DUP2 PUSH1 0x20 DUP6 ADD MSTORE PUSH1 0x1 PUSH1 0x40 DUP6 ADD MSTORE8 PUSH1 0x20 DUP10 ADD MLOAD PUSH1 0x41 DUP6 ADD MSTORE DUP6 PUSH1 0x41 DUP8 ADD DUP6 ADD MSTORE8 PUSH1 0x2 DUP5 PUSH1 0x40 MLOAD PUSH2 0x2874 SWAP2 SWAP1 PUSH2 0x4528 JUMP JUMPDEST PUSH1 0x20 PUSH1 0x40 MLOAD DUP1 DUP4 SUB DUP2 DUP6 GAS STATICCALL ISZERO DUP1 ISZERO PUSH2 0x2891 JUMPI RETURNDATASIZE PUSH1 0x0 DUP1 RETURNDATACOPY RETURNDATASIZE PUSH1 0x0 REVERT JUMPDEST POP POP POP PUSH1 0x40 MLOAD RETURNDATASIZE PUSH1 0x1F NOT PUSH1 0x1F DUP3 ADD AND DUP3 ADD DUP1 PUSH1 0x40 MSTORE POP DUP2 ADD SWAP1 PUSH2 0x28B4 SWAP2 SWAP1 PUSH2 0x4554 JUMP JUMPDEST SWAP1 POP DUP1 PUSH1 0x20 DUP5 ADD MSTORE DUP1 DUP3 XOR DUP1 PUSH1 0x20 DUP7 ADD MSTORE PUSH1 0x2 PUSH1 0x40 DUP7 ADD MSTORE8 PUSH1 0x20 DUP11 ADD MLOAD PUSH1 0x41 DUP7 ADD MSTORE DUP7 PUSH1 0x41 DUP9 ADD DUP7 ADD MSTORE8 POP PUSH1 0x2 DUP5 PUSH1 0x40 MLOAD PUSH2 0x28EF SWAP2 SWAP1 PUSH2 0x4528 JUMP JUMPDEST PUSH1 0x20 PUSH1 0x40 MLOAD DUP1 DUP4 SUB DUP2 DUP6 GAS STATICCALL ISZERO DUP1 ISZERO PUSH2 0x290C JUMPI RETURNDATASIZE PUSH1 0x0 DUP1 RETURNDATACOPY RETURNDATASIZE PUSH1 0x0 REVERT JUMPDEST POP POP POP PUSH1 0x40 MLOAD RETURNDATASIZE PUSH1 0x1F NOT PUSH1 0x1F DUP3 ADD AND DUP3 ADD DUP1 PUSH1 0x40 MSTORE POP DUP2 ADD SWAP1 PUSH2 0x292F SWAP2 SWAP1 PUSH2 0x4554 JUMP JUMPDEST SWAP1 POP DUP1 PUSH1 0x40 DUP5 ADD MSTORE DUP1 DUP3 XOR DUP1 PUSH1 0x20 DUP7 ADD MSTORE PUSH1 0x3 PUSH1 0x40 DUP7 ADD MSTORE8 PUSH1 0x20 DUP11 ADD MLOAD PUSH1 0x41 DUP7 ADD MSTORE DUP7 PUSH1 0x41 DUP9 ADD DUP7 ADD MSTORE8 POP PUSH1 0x2 DUP5 PUSH1 0x40 MLOAD PUSH2 0x296A SWAP2 SWAP1 PUSH2 0x4528 JUMP JUMPDEST PUSH1 0x20 PUSH1 0x40 MLOAD DUP1 DUP4 SUB DUP2 DUP6 GAS STATICCALL ISZERO DUP1 ISZERO PUSH2 0x2987 JUMPI RETURNDATASIZE PUSH1 0x0 DUP1 RETURNDATACOPY RETURNDATASIZE PUSH1 0x0 REVERT JUMPDEST POP POP POP PUSH1 0x40 MLOAD RETURNDATASIZE PUSH1 0x1F NOT PUSH1 0x1F DUP3 ADD AND DUP3 ADD DUP1 PUSH1 0x40 MSTORE POP DUP2 ADD SWAP1 PUSH2 0x29AA SWAP2 SWAP1 PUSH2 0x4554 JUMP JUMPDEST SWAP1 POP DUP1 PUSH1 0x60 DUP5 ADD MSTORE DUP3 SWAP7 POP POP POP POP POP POP POP SWAP3 SWAP2 POP POP JUMP JUMPDEST PUSH1 0x0 PUSH2 0x29CC DUP3 PUSH2 0x311B JUMP JUMPDEST SWAP1 POP SWAP2 SWAP1 POP JUMP JUMPDEST PUSH1 0x0 PUSH32 0x30644E72E131A029B85045B68181585D97816A916871CA8D3C208C16D87CFD47 DUP1 DUP4 DUP5 MULMOD SWAP2 POP DUP1 DUP4 DUP4 MULMOD DUP2 DUP4 DUP3 MULMOD DUP3 DUP3 DUP4 MULMOD DUP4 DUP6 DUP4 MULMOD DUP5 DUP5 DUP4 MULMOD DUP6 DUP5 DUP5 MULMOD DUP7 DUP5 DUP6 MULMOD SWAP8 POP DUP7 DUP5 DUP5 MULMOD DUP8 DUP6 DUP5 MULMOD SWAP5 POP DUP8 DUP10 DUP11 MULMOD SWAP9 POP DUP8 DUP10 DUP11 MULMOD SWAP9 POP DUP8 DUP10 DUP11 MULMOD SWAP9 POP DUP8 DUP10 DUP11 MULMOD SWAP9 POP DUP8 DUP10 DUP11 MULMOD SWAP9 POP DUP8 DUP8 DUP11 MULMOD SWAP9 POP DUP8 DUP10 DUP11 MULMOD SWAP9 POP DUP8 DUP10 DUP11 MULMOD SWAP9 POP DUP8 DUP10 DUP11 MULMOD SWAP9 POP DUP8 DUP11 DUP11 MULMOD SWAP9 POP DUP8 DUP10 DUP11 MULMOD SWAP9 POP DUP8 DUP10 DUP11 MULMOD SWAP9 POP DUP8 DUP10 DUP11 MULMOD SWAP9 POP DUP8 DUP10 DUP11 MULMOD SWAP9 POP DUP8 DUP11 DUP11 MULMOD SWAP9 POP DUP8 DUP10 DUP11 MULMOD SWAP9 POP DUP8 DUP10 DUP11 MULMOD SWAP9 POP DUP8 DUP10 DUP11 MULMOD SWAP9 POP DUP8 DUP10 DUP11 MULMOD SWAP9 POP DUP8 DUP10 DUP11 MULMOD SWAP9 POP DUP8 DUP5 DUP11 MULMOD SWAP9 POP DUP8 DUP10 DUP11 MULMOD SWAP9 POP DUP8 DUP10 DUP11 MULMOD SWAP9 POP DUP8 DUP10 DUP11 MULMOD SWAP9 POP DUP8 DUP10 DUP11 MULMOD SWAP9 POP DUP8 DUP10 DUP11 MULMOD SWAP9 POP DUP8 DUP5 DUP11 MULMOD SWAP9 POP DUP8 DUP10 DUP11 MULMOD SWAP9 POP DUP8 DUP10 DUP11 MULMOD SWAP9 POP DUP8 DUP10 DUP11 MULMOD SWAP9 POP DUP8 DUP11 DUP11 MULMOD SWAP9 POP DUP8 DUP10 DUP11 MULMOD SWAP9 POP DUP8 DUP10 DUP11 MULMOD SWAP9 POP DUP8 DUP10 DUP11 MULMOD SWAP9 POP DUP8 DUP10 DUP11 MULMOD SWAP9 POP DUP8 DUP5 DUP11 MULMOD SWAP9 POP DUP8 DUP10 DUP11 MULMOD SWAP9 POP DUP8 DUP10 DUP11 MULMOD SWAP9 POP DUP8 DUP10 DUP11 MULMOD SWAP9 POP DUP8 DUP10 DUP11 MULMOD SWAP9 POP DUP8 DUP10 DUP11 MULMOD SWAP9 POP DUP8 DUP11 DUP11 MULMOD SWAP9 POP DUP8 DUP10 DUP11 MULMOD SWAP9 POP DUP8 DUP10 DUP11 MULMOD SWAP9 POP DUP8 DUP10 DUP11 MULMOD SWAP9 POP DUP8 DUP10 DUP11 MULMOD SWAP9 POP DUP8 DUP8 DUP11 MULMOD SWAP9 POP DUP8 DUP10 DUP11 MULMOD SWAP9 POP DUP8 DUP10 DUP11 MULMOD SWAP9 POP DUP8 DUP10 DUP11 MULMOD SWAP9 POP DUP8 DUP10 DUP11 MULMOD SWAP9 POP DUP8 DUP10 DUP11 MULMOD SWAP9 POP DUP8 DUP10 DUP11 MULMOD SWAP9 POP DUP8 DUP10 DUP11 MULMOD SWAP9 POP DUP8 DUP2 DUP11 MULMOD SWAP9 POP DUP8 DUP10 DUP11 MULMOD SWAP9 POP DUP8 DUP10 DUP11 MULMOD SWAP9 POP DUP8 DUP10 DUP11 MULMOD SWAP9 POP DUP8 DUP10 DUP11 MULMOD SWAP9 POP DUP8 DUP10 DUP11 MULMOD SWAP9 POP DUP8 DUP10 DUP11 MULMOD SWAP9 POP DUP8 DUP10 DUP11 MULMOD SWAP9 POP DUP8 DUP10 DUP11 MULMOD SWAP9 POP DUP8 DUP10 DUP11 MULMOD SWAP9 POP DUP8 DUP10 DUP11 MULMOD SWAP9 POP DUP8 DUP7 DUP11 MULMOD SWAP9 POP DUP8 DUP10 DUP11 MULMOD SWAP9 POP DUP8 DUP10 DUP11 MULMOD SWAP9 POP DUP8 DUP10 DUP11 MULMOD SWAP9 POP DUP8 DUP10 DUP11 MULMOD SWAP9 POP DUP8 DUP8 DUP11 MULMOD SWAP9 POP DUP8 DUP10 DUP11 MULMOD SWAP9 POP DUP8 DUP10 DUP11 MULMOD SWAP9 POP DUP8 DUP10 DUP11 MULMOD SWAP9 POP DUP8 DUP10 DUP11 MULMOD SWAP9 POP DUP8 DUP5 DUP11 MULMOD SWAP9 POP DUP8 DUP10 DUP11 MULMOD SWAP9 POP DUP8 DUP10 DUP11 MULMOD SWAP9 POP DUP8 DUP10 DUP11 MULMOD SWAP9 POP DUP8 DUP10 DUP11 MULMOD SWAP9 POP DUP8 DUP10 DUP11 MULMOD SWAP9 POP DUP8 DUP10 DUP11 MULMOD SWAP9 POP DUP8 DUP10 DUP11 MULMOD SWAP9 POP DUP8 DUP7 DUP11 MULMOD SWAP9 POP DUP8 DUP10 DUP11 MULMOD SWAP9 POP DUP8 DUP10 DUP11 MULMOD SWAP9 POP DUP8 DUP10 DUP11 MULMOD SWAP9 POP DUP8 DUP10 DUP11 MULMOD SWAP9 POP DUP8 DUP10 DUP11 MULMOD SWAP9 POP DUP8 DUP10 DUP11 MULMOD SWAP9 POP DUP8 DUP11 DUP11 MULMOD SWAP9 POP DUP8 DUP10 DUP11 MULMOD SWAP9 POP DUP8 DUP10 DUP11 MULMOD SWAP9 POP DUP8 DUP10 DUP11 MULMOD SWAP9 POP DUP8 DUP10 DUP11 MULMOD SWAP9 POP DUP8 DUP10 DUP11 MULMOD SWAP9 POP DUP8 DUP10 DUP11 MULMOD SWAP9 POP DUP8 DUP10 DUP11 MULMOD SWAP9 POP DUP8 DUP3 DUP11 MULMOD SWAP9 POP DUP8 DUP10 DUP11 MULMOD SWAP9 POP DUP8 DUP10 DUP11 MULMOD SWAP9 POP DUP8 DUP10 DUP11 MULMOD SWAP9 POP DUP8 DUP10 DUP11 MULMOD SWAP9 POP DUP8 DUP10 DUP11 MULMOD SWAP9 POP DUP8 DUP2 DUP11 MULMOD SWAP9 POP DUP8 DUP10 DUP11 MULMOD SWAP9 POP DUP8 DUP10 DUP11 MULMOD SWAP9 POP DUP8 DUP10 DUP11 MULMOD SWAP9 POP DUP8 DUP7 DUP11 MULMOD SWAP9 POP DUP8 DUP10 DUP11 MULMOD SWAP9 POP DUP8 DUP10 DUP11 MULMOD SWAP9 POP DUP8 DUP10 DUP11 MULMOD SWAP9 POP DUP8 DUP10 DUP11 MULMOD SWAP9 POP DUP8 DUP10 DUP11 MULMOD SWAP9 POP DUP8 DUP10 DUP11 MULMOD SWAP9 POP DUP8 DUP10 DUP11 MULMOD SWAP9 POP DUP8 DUP10 DUP11 MULMOD SWAP9 POP DUP8 DUP8 DUP11 MULMOD SWAP9 POP DUP8 DUP10 DUP11 MULMOD SWAP9 POP DUP8 DUP10 DUP11 MULMOD SWAP9 POP DUP8 DUP10 DUP11 MULMOD SWAP9 POP DUP8 DUP10 DUP11 MULMOD SWAP9 POP DUP8 DUP10 DUP11 MULMOD SWAP9 POP DUP8 DUP10 DUP11 MULMOD SWAP9 POP DUP8 DUP10 DUP11 MULMOD SWAP9 POP DUP8 DUP10 DUP11 MULMOD SWAP9 POP DUP8 DUP10 DUP11 MULMOD SWAP9 POP DUP8 DUP7 DUP11 MULMOD SWAP9 POP DUP8 DUP10 DUP11 MULMOD SWAP9 POP DUP8 DUP10 DUP11 MULMOD SWAP9 POP DUP8 DUP10 DUP11 MULMOD SWAP9 POP DUP8 DUP8 DUP11 MULMOD SWAP9 POP DUP8 DUP10 DUP11 MULMOD SWAP9 POP DUP8 DUP10 DUP11 MULMOD SWAP9 POP DUP8 DUP10 DUP11 MULMOD SWAP9 POP DUP8 DUP10 DUP11 MULMOD SWAP9 POP DUP8 DUP10 DUP11 MULMOD SWAP9 POP DUP8 DUP10 DUP11 MULMOD SWAP9 POP DUP8 DUP10 DUP11 MULMOD SWAP9 POP DUP8 DUP10 DUP11 MULMOD SWAP9 POP DUP8 DUP3 DUP11 MULMOD SWAP9 POP DUP8 DUP10 DUP11 MULMOD SWAP9 POP DUP8 DUP10 DUP11 MULMOD SWAP9 POP DUP8 DUP10 DUP11 MULMOD SWAP9 POP DUP8 DUP10 DUP11 MULMOD SWAP9 POP DUP8 DUP3 DUP11 MULMOD SWAP9 POP DUP8 DUP10 DUP11 MULMOD SWAP9 POP DUP8 DUP10 DUP11 MULMOD SWAP9 POP DUP8 DUP10 DUP11 MULMOD SWAP9 POP DUP8 DUP10 DUP11 MULMOD SWAP9 POP DUP8 DUP10 DUP11 MULMOD SWAP9 POP DUP8 DUP7 DUP11 MULMOD SWAP9 POP DUP8 DUP10 DUP11 MULMOD SWAP9 POP DUP8 DUP10 DUP11 MULMOD SWAP9 POP DUP8 DUP10 DUP11 MULMOD SWAP9 POP DUP8 DUP5 DUP11 MULMOD SWAP9 POP DUP8 DUP10 DUP11 MULMOD SWAP9 POP DUP8 DUP10 DUP11 MULMOD SWAP9 POP DUP8 DUP10 DUP11 MULMOD SWAP9 POP DUP8 DUP10 DUP11 MULMOD SWAP9 POP DUP8 DUP10 DUP11 MULMOD SWAP9 POP DUP8 DUP10 DUP11 MULMOD SWAP9 POP DUP8 DUP10 DUP11 MULMOD SWAP9 POP DUP8 DUP10 DUP11 MULMOD SWAP9 POP DUP8 DUP10 DUP11 MULMOD SWAP9 POP DUP8 DUP10 DUP11 MULMOD SWAP9 POP DUP8 DUP3 DUP11 MULMOD SWAP9 POP DUP8 DUP10 DUP11 MULMOD SWAP9 POP DUP8 DUP10 DUP11 MULMOD SWAP9 POP DUP8 DUP10 DUP11 MULMOD SWAP9 POP DUP8 DUP10 DUP11 MULMOD SWAP9 POP DUP8 DUP7 DUP11 MULMOD SWAP9 POP DUP8 DUP10 DUP11 MULMOD SWAP9 POP DUP8 DUP10 DUP11 MULMOD SWAP9 POP DUP8 DUP10 DUP11 MULMOD SWAP9 POP DUP8 DUP10 DUP11 MULMOD SWAP9 POP DUP8 DUP10 DUP11 MULMOD SWAP9 POP DUP8 DUP4 DUP11 MULMOD SWAP9 POP DUP8 DUP10 DUP11 MULMOD SWAP9 POP DUP8 DUP10 DUP11 MULMOD SWAP9 POP DUP8 DUP10 DUP11 MULMOD SWAP9 POP DUP8 DUP10 DUP11 MULMOD SWAP9 POP DUP8 DUP10 DUP11 MULMOD SWAP9 POP DUP8 DUP10 DUP11 MULMOD SWAP9 POP DUP8 DUP10 DUP11 MULMOD SWAP9 POP DUP8 DUP3 DUP11 MULMOD SWAP9 POP DUP8 DUP10 DUP11 MULMOD SWAP9 POP DUP8 DUP10 DUP11 MULMOD SWAP9 POP DUP8 DUP11 DUP11 MULMOD SWAP9 POP DUP8 DUP10 DUP11 MULMOD SWAP9 POP DUP8 DUP10 DUP11 MULMOD SWAP9 POP DUP8 DUP10 DUP11 MULMOD SWAP9 POP DUP8 DUP10 DUP11 MULMOD SWAP9 POP DUP8 DUP10 DUP11 MULMOD SWAP9 POP DUP8 DUP10 DUP11 MULMOD SWAP9 POP DUP8 DUP10 DUP11 MULMOD SWAP9 POP DUP8 DUP5 DUP11 MULMOD SWAP9 POP DUP8 DUP10 DUP11 MULMOD SWAP9 POP DUP8 DUP10 DUP11 MULMOD SWAP9 POP DUP8 DUP10 DUP11 MULMOD SWAP9 POP DUP8 DUP10 DUP11 MULMOD SWAP9 POP DUP8 DUP10 DUP11 MULMOD SWAP9 POP DUP8 DUP10 DUP11 MULMOD SWAP9 POP DUP8 DUP5 DUP11 MULMOD SWAP9 POP DUP8 DUP10 DUP11 MULMOD SWAP9 POP DUP8 DUP10 DUP11 MULMOD SWAP9 POP DUP8 DUP10 DUP11 MULMOD SWAP9 POP DUP8 DUP10 DUP11 MULMOD SWAP9 POP DUP8 DUP10 DUP11 MULMOD SWAP9 POP DUP8 DUP7 DUP11 MULMOD SWAP9 POP DUP8 DUP10 DUP11 MULMOD SWAP9 POP DUP8 DUP10 DUP11 MULMOD SWAP9 POP DUP8 DUP11 DUP11 MULMOD SWAP9 POP DUP8 DUP10 DUP11 MULMOD SWAP9 POP DUP8 DUP10 DUP11 MULMOD SWAP9 POP DUP8 DUP10 DUP11 MULMOD SWAP9 POP DUP8 DUP10 DUP11 MULMOD SWAP9 POP DUP8 DUP10 DUP11 MULMOD SWAP9 POP DUP8 DUP10 DUP11 MULMOD SWAP9 POP DUP8 DUP10 DUP11 MULMOD SWAP9 POP DUP8 DUP2 DUP11 MULMOD SWAP9 POP DUP8 DUP10 DUP11 MULMOD SWAP9 POP DUP8 DUP10 DUP11 MULMOD SWAP9 POP DUP8 DUP10 DUP11 MULMOD SWAP9 POP DUP8 DUP10 DUP11 MULMOD SWAP9 POP DUP8 DUP10 DUP11 MULMOD SWAP9 POP DUP8 DUP10 DUP11 MULMOD SWAP9 POP DUP8 DUP6 DUP11 MULMOD SWAP9 POP DUP8 DUP10 DUP11 MULMOD SWAP9 POP DUP8 DUP10 DUP11 MULMOD SWAP9 POP DUP8 DUP10 DUP11 MULMOD SWAP9 POP DUP8 DUP10 DUP11 MULMOD SWAP9 POP DUP8 DUP10 DUP11 MULMOD SWAP9 POP DUP8 DUP11 DUP11 MULMOD SWAP9 POP DUP8 DUP10 DUP11 MULMOD SWAP9 POP DUP8 DUP10 DUP11 MULMOD SWAP9 POP DUP8 DUP10 DUP11 MULMOD SWAP9 POP DUP8 DUP10 DUP11 MULMOD SWAP9 POP DUP8 DUP10 DUP11 MULMOD SWAP9 POP DUP8 DUP10 DUP11 MULMOD SWAP9 POP DUP8 DUP11 DUP11 MULMOD SWAP9 POP DUP8 DUP10 DUP11 MULMOD SWAP9 POP DUP8 DUP10 DUP11 MULMOD SWAP9 POP DUP8 DUP10 DUP11 MULMOD SWAP9 POP DUP8 DUP10 DUP11 MULMOD SWAP9 POP DUP8 DUP10 DUP11 MULMOD SWAP9 POP DUP8 DUP8 DUP11 MULMOD SWAP9 POP DUP8 DUP10 DUP11 MULMOD SWAP9 POP DUP8 DUP10 DUP11 MULMOD SWAP9 POP DUP8 DUP10 DUP11 MULMOD SWAP9 POP DUP8 DUP10 DUP11 MULMOD SWAP9 POP DUP8 DUP10 DUP11 MULMOD SWAP9 POP DUP8 DUP10 DUP11 MULMOD SWAP9 POP DUP8 DUP10 DUP11 MULMOD SWAP9 POP DUP8 DUP10 DUP11 MULMOD SWAP9 POP DUP8 DUP10 DUP11 MULMOD SWAP9 POP DUP8 DUP3 DUP11 MULMOD SWAP9 POP DUP8 DUP10 DUP11 MULMOD SWAP9 POP DUP8 DUP10 DUP11 MULMOD SWAP9 POP DUP8 DUP10 DUP11 MULMOD SWAP9 POP DUP8 DUP8 DUP11 MULMOD SWAP9 POP DUP8 DUP10 DUP11 MULMOD SWAP9 POP DUP8 DUP10 DUP11 MULMOD SWAP9 POP DUP8 DUP10 DUP11 MULMOD SWAP9 POP DUP8 DUP8 DUP11 MULMOD SWAP9 POP DUP8 DUP10 DUP11 MULMOD SWAP9 POP DUP8 DUP10 DUP11 MULMOD SWAP9 POP DUP8 DUP10 DUP11 MULMOD SWAP9 POP DUP8 DUP10 DUP11 MULMOD SWAP9 POP DUP8 DUP10 DUP11 MULMOD SWAP9 POP DUP8 DUP10 DUP11 MULMOD SWAP9 POP DUP8 DUP10 DUP11 MULMOD SWAP9 POP DUP8 DUP10 DUP11 MULMOD SWAP9 POP DUP8 DUP6 DUP11 MULMOD SWAP9 POP DUP8 DUP10 DUP11 MULMOD SWAP9 POP DUP8 DUP10 DUP11 MULMOD SWAP9 POP DUP8 DUP10 DUP11 MULMOD SWAP9 POP DUP8 DUP10 DUP11 MULMOD SWAP9 POP DUP8 DUP4 DUP11 MULMOD SWAP9 POP DUP8 DUP10 DUP11 MULMOD SWAP9 POP DUP8 DUP10 DUP11 MULMOD SWAP9 POP DUP8 DUP10 DUP11 MULMOD SWAP9 POP DUP8 DUP10 DUP11 MULMOD SWAP9 POP DUP8 DUP6 DUP11 MULMOD SWAP9 POP DUP8 DUP10 DUP11 MULMOD SWAP9 POP DUP8 DUP10 DUP11 MULMOD SWAP9 POP DUP8 DUP10 DUP11 MULMOD SWAP9 POP DUP8 DUP7 DUP11 MULMOD SWAP9 POP DUP8 DUP10 DUP11 MULMOD SWAP9 POP DUP8 DUP10 DUP11 MULMOD SWAP9 POP DUP8 DUP10 DUP11 MULMOD SWAP9 POP DUP8 DUP10 DUP11 MULMOD SWAP9 POP DUP8 DUP10 DUP11 MULMOD SWAP9 POP DUP8 DUP4 DUP11 MULMOD SWAP9 POP DUP8 DUP10 DUP11 MULMOD SWAP9 POP POP POP POP POP POP POP POP POP SWAP2 SWAP1 POP JUMP JUMPDEST PUSH1 0x0 PUSH32 0x30644E72E131A029B85045B68181585D97816A916871CA8D3C208C16D87CFD47 DUP1 DUP4 DUP5 MULMOD SWAP2 POP DUP1 DUP4 DUP4 MULMOD DUP2 DUP4 DUP3 MULMOD DUP3 DUP3 DUP4 MULMOD DUP4 DUP6 DUP4 MULMOD DUP5 DUP5 DUP4 MULMOD DUP6 DUP5 DUP5 MULMOD DUP7 DUP5 DUP6 MULMOD SWAP8 POP DUP7 DUP5 DUP5 MULMOD DUP8 DUP6 DUP5 MULMOD SWAP5 POP DUP8 DUP10 DUP11 MULMOD SWAP9 POP DUP8 DUP10 DUP11 MULMOD SWAP9 POP DUP8 DUP10 DUP11 MULMOD SWAP9 POP DUP8 DUP10 DUP11 MULMOD SWAP9 POP DUP8 DUP10 DUP11 MULMOD SWAP9 POP DUP8 DUP8 DUP11 MULMOD SWAP9 POP DUP8 DUP10 DUP11 MULMOD SWAP9 POP DUP8 DUP10 DUP11 MULMOD SWAP9 POP DUP8 DUP10 DUP11 MULMOD SWAP9 POP DUP8 DUP11 DUP11 MULMOD SWAP9 POP DUP8 DUP10 DUP11 MULMOD SWAP9 POP DUP8 DUP10 DUP11 MULMOD SWAP9 POP DUP8 DUP10 DUP11 MULMOD SWAP9 POP DUP8 DUP10 DUP11 MULMOD SWAP9 POP DUP8 DUP11 DUP11 MULMOD SWAP9 POP DUP8 DUP10 DUP11 MULMOD SWAP9 POP DUP8 DUP10 DUP11 MULMOD SWAP9 POP DUP8 DUP10 DUP11 MULMOD SWAP9 POP DUP8 DUP10 DUP11 MULMOD SWAP9 POP DUP8 DUP10 DUP11 MULMOD SWAP9 POP DUP8 DUP5 DUP11 MULMOD SWAP9 POP DUP8 DUP10 DUP11 MULMOD SWAP9 POP DUP8 DUP10 DUP11 MULMOD SWAP9 POP DUP8 DUP10 DUP11 MULMOD SWAP9 POP DUP8 DUP10 DUP11 MULMOD SWAP9 POP DUP8 DUP10 DUP11 MULMOD SWAP9 POP DUP8 DUP5 DUP11 MULMOD SWAP9 POP DUP8 DUP10 DUP11 MULMOD SWAP9 POP DUP8 DUP10 DUP11 MULMOD SWAP9 POP DUP8 DUP10 DUP11 MULMOD SWAP9 POP DUP8 DUP11 DUP11 MULMOD SWAP9 POP DUP8 DUP10 DUP11 MULMOD SWAP9 POP DUP8 DUP10 DUP11 MULMOD SWAP9 POP DUP8 DUP10 DUP11 MULMOD SWAP9 POP DUP8 DUP10 DUP11 MULMOD SWAP9 POP DUP8 DUP5 DUP11 MULMOD SWAP9 POP DUP8 DUP10 DUP11 MULMOD SWAP9 POP DUP8 DUP10 DUP11 MULMOD SWAP9 POP DUP8 DUP10 DUP11 MULMOD SWAP9 POP DUP8 DUP10 DUP11 MULMOD SWAP9 POP DUP8 DUP10 DUP11 MULMOD SWAP9 POP DUP8 DUP11 DUP11 MULMOD SWAP9 POP DUP8 DUP10 DUP11 MULMOD SWAP9 POP DUP8 DUP10 DUP11 MULMOD SWAP9 POP DUP8 DUP10 DUP11 MULMOD SWAP9 POP DUP8 DUP10 DUP11 MULMOD SWAP9 POP DUP8 DUP8 DUP11 MULMOD SWAP9 POP DUP8 DUP10 DUP11 MULMOD SWAP9 POP DUP8 DUP10 DUP11 MULMOD SWAP9 POP DUP8 DUP10 DUP11 MULMOD SWAP9 POP DUP8 DUP10 DUP11 MULMOD SWAP9 POP DUP8 DUP10 DUP11 MULMOD SWAP9 POP DUP8 DUP10 DUP11 MULMOD SWAP9 POP DUP8 DUP10 DUP11 MULMOD SWAP9 POP DUP8 DUP2 DUP11 MULMOD SWAP9 POP DUP8 DUP10 DUP11 MULMOD SWAP9 POP DUP8 DUP10 DUP11 MULMOD SWAP9 POP DUP8 DUP10 DUP11 MULMOD SWAP9 POP DUP8 DUP10 DUP11 MULMOD SWAP9 POP DUP8 DUP10 DUP11 MULMOD SWAP9 POP DUP8 DUP10 DUP11 MULMOD SWAP9 POP DUP8 DUP10 DUP11 MULMOD SWAP9 POP DUP8 DUP10 DUP11 MULMOD SWAP9 POP DUP8 DUP10 DUP11 MULMOD SWAP9 POP DUP8 DUP10 DUP11 MULMOD SWAP9 POP DUP8 DUP7 DUP11 MULMOD SWAP9 POP DUP8 DUP10 DUP11 MULMOD SWAP9 POP DUP8 DUP10 DUP11 MULMOD SWAP9 POP DUP8 DUP10 DUP11 MULMOD SWAP9 POP DUP8 DUP10 DUP11 MULMOD SWAP9 POP DUP8 DUP8 DUP11 MULMOD SWAP9 POP DUP8 DUP10 DUP11 MULMOD SWAP9 POP DUP8 DUP10 DUP11 MULMOD SWAP9 POP DUP8 DUP10 DUP11 MULMOD SWAP9 POP DUP8 DUP10 DUP11 MULMOD SWAP9 POP DUP8 DUP5 DUP11 MULMOD SWAP9 POP DUP8 DUP10 DUP11 MULMOD SWAP9 POP DUP8 DUP10 DUP11 MULMOD SWAP9 POP DUP8 DUP10 DUP11 MULMOD SWAP9 POP DUP8 DUP10 DUP11 MULMOD SWAP9 POP DUP8 DUP10 DUP11 MULMOD SWAP9 POP DUP8 DUP10 DUP11 MULMOD SWAP9 POP DUP8 DUP10 DUP11 MULMOD SWAP9 POP DUP8 DUP7 DUP11 MULMOD SWAP9 POP DUP8 DUP10 DUP11 MULMOD SWAP9 POP DUP8 DUP10 DUP11 MULMOD SWAP9 POP DUP8 DUP10 DUP11 MULMOD SWAP9 POP DUP8 DUP10 DUP11 MULMOD SWAP9 POP DUP8 DUP10 DUP11 MULMOD SWAP9 POP DUP8 DUP10 DUP11 MULMOD SWAP9 POP DUP8 DUP11 DUP11 MULMOD SWAP9 POP DUP8 DUP10 DUP11 MULMOD SWAP9 POP DUP8 DUP10 DUP11 MULMOD SWAP9 POP DUP8 DUP10 DUP11 MULMOD SWAP9 POP DUP8 DUP10 DUP11 MULMOD SWAP9 POP DUP8 DUP10 DUP11 MULMOD SWAP9 POP DUP8 DUP10 DUP11 MULMOD SWAP9 POP DUP8 DUP10 DUP11 MULMOD SWAP9 POP DUP8 DUP3 DUP11 MULMOD SWAP9 POP DUP8 DUP10 DUP11 MULMOD SWAP9 POP DUP8 DUP10 DUP11 MULMOD SWAP9 POP DUP8 DUP10 DUP11 MULMOD SWAP9 POP DUP8 DUP10 DUP11 MULMOD SWAP9 POP DUP8 DUP10 DUP11 MULMOD SWAP9 POP DUP8 DUP2 DUP11 MULMOD SWAP9 POP DUP8 DUP10 DUP11 MULMOD SWAP9 POP DUP8 DUP10 DUP11 MULMOD SWAP9 POP DUP8 DUP10 DUP11 MULMOD SWAP9 POP DUP8 DUP7 DUP11 MULMOD SWAP9 POP DUP8 DUP10 DUP11 MULMOD SWAP9 POP DUP8 DUP10 DUP11 MULMOD SWAP9 POP DUP8 DUP10 DUP11 MULMOD SWAP9 POP DUP8 DUP10 DUP11 MULMOD SWAP9 POP DUP8 DUP10 DUP11 MULMOD SWAP9 POP DUP8 DUP10 DUP11 MULMOD SWAP9 POP DUP8 DUP10 DUP11 MULMOD SWAP9 POP DUP8 DUP10 DUP11 MULMOD SWAP9 POP DUP8 DUP8 DUP11 MULMOD SWAP9 POP DUP8 DUP10 DUP11 MULMOD SWAP9 POP DUP8 DUP10 DUP11 MULMOD SWAP9 POP DUP8 DUP10 DUP11 MULMOD SWAP9 POP DUP8 DUP10 DUP11 MULMOD SWAP9 POP DUP8 DUP10 DUP11 MULMOD SWAP9 POP DUP8 DUP10 DUP11 MULMOD SWAP9 POP DUP8 DUP10 DUP11 MULMOD SWAP9 POP DUP8 DUP10 DUP11 MULMOD SWAP9 POP DUP8 DUP10 DUP11 MULMOD SWAP9 POP DUP8 DUP7 DUP11 MULMOD SWAP9 POP DUP8 DUP10 DUP11 MULMOD SWAP9 POP DUP8 DUP10 DUP11 MULMOD SWAP9 POP DUP8 DUP10 DUP11 MULMOD SWAP9 POP DUP8 DUP8 DUP11 MULMOD SWAP9 POP DUP8 DUP10 DUP11 MULMOD SWAP9 POP DUP8 DUP10 DUP11 MULMOD SWAP9 POP DUP8 DUP10 DUP11 MULMOD SWAP9 POP DUP8 DUP10 DUP11 MULMOD SWAP9 POP DUP8 DUP10 DUP11 MULMOD SWAP9 POP DUP8 DUP10 DUP11 MULMOD SWAP9 POP DUP8 DUP10 DUP11 MULMOD SWAP9 POP DUP8 DUP10 DUP11 MULMOD SWAP9 POP DUP8 DUP3 DUP11 MULMOD SWAP9 POP DUP8 DUP10 DUP11 MULMOD SWAP9 POP DUP8 DUP10 DUP11 MULMOD SWAP9 POP DUP8 DUP10 DUP11 MULMOD SWAP9 POP DUP8 DUP10 DUP11 MULMOD SWAP9 POP DUP8 DUP3 DUP11 MULMOD SWAP9 POP DUP8 DUP10 DUP11 MULMOD SWAP9 POP DUP8 DUP10 DUP11 MULMOD SWAP9 POP DUP8 DUP10 DUP11 MULMOD SWAP9 POP DUP8 DUP10 DUP11 MULMOD SWAP9 POP DUP8 DUP10 DUP11 MULMOD SWAP9 POP DUP8 DUP7 DUP11 MULMOD SWAP9 POP DUP8 DUP10 DUP11 MULMOD SWAP9 POP DUP8 DUP10 DUP11 MULMOD SWAP9 POP DUP8 DUP10 DUP11 MULMOD SWAP9 POP DUP8 DUP5 DUP11 MULMOD SWAP9 POP DUP8 DUP10 DUP11 MULMOD SWAP9 POP DUP8 DUP10 DUP11 MULMOD SWAP9 POP DUP8 DUP10 DUP11 MULMOD SWAP9 POP DUP8 DUP10 DUP11 MULMOD SWAP9 POP DUP8 DUP10 DUP11 MULMOD SWAP9 POP DUP8 DUP10 DUP11 MULMOD SWAP9 POP DUP8 DUP10 DUP11 MULMOD SWAP9 POP DUP8 DUP10 DUP11 MULMOD SWAP9 POP DUP8 DUP10 DUP11 MULMOD SWAP9 POP DUP8 DUP10 DUP11 MULMOD SWAP9 POP DUP8 DUP3 DUP11 MULMOD SWAP9 POP DUP8 DUP10 DUP11 MULMOD SWAP9 POP DUP8 DUP10 DUP11 MULMOD SWAP9 POP DUP8 DUP10 DUP11 MULMOD SWAP9 POP DUP8 DUP10 DUP11 MULMOD SWAP9 POP DUP8 DUP7 DUP11 MULMOD SWAP9 POP DUP8 DUP10 DUP11 MULMOD SWAP9 POP DUP8 DUP10 DUP11 MULMOD SWAP9 POP DUP8 DUP10 DUP11 MULMOD SWAP9 POP DUP8 DUP10 DUP11 MULMOD SWAP9 POP DUP8 DUP10 DUP11 MULMOD SWAP9 POP DUP8 DUP4 DUP11 MULMOD SWAP9 POP DUP8 DUP10 DUP11 MULMOD SWAP9 POP DUP8 DUP10 DUP11 MULMOD SWAP9 POP DUP8 DUP10 DUP11 MULMOD SWAP9 POP DUP8 DUP10 DUP11 MULMOD SWAP9 POP DUP8 DUP10 DUP11 MULMOD SWAP9 POP DUP8 DUP10 DUP11 MULMOD SWAP9 POP DUP8 DUP10 DUP11 MULMOD SWAP9 POP DUP8 DUP3 DUP11 MULMOD SWAP9 POP DUP8 DUP10 DUP11 MULMOD SWAP9 POP DUP8 DUP10 DUP11 MULMOD SWAP9 POP DUP8 DUP11 DUP11 MULMOD SWAP9 POP DUP8 DUP10 DUP11 MULMOD SWAP9 POP DUP8 DUP10 DUP11 MULMOD SWAP9 POP DUP8 DUP10 DUP11 MULMOD SWAP9 POP DUP8 DUP10 DUP11 MULMOD SWAP9 POP DUP8 DUP10 DUP11 MULMOD SWAP9 POP DUP8 DUP10 DUP11 MULMOD SWAP9 POP DUP8 DUP10 DUP11 MULMOD SWAP9 POP DUP8 DUP5 DUP11 MULMOD SWAP9 POP DUP8 DUP10 DUP11 MULMOD SWAP9 POP DUP8 DUP10 DUP11 MULMOD SWAP9 POP DUP8 DUP10 DUP11 MULMOD SWAP9 POP DUP8 DUP10 DUP11 MULMOD SWAP9 POP DUP8 DUP10 DUP11 MULMOD SWAP9 POP DUP8 DUP10 DUP11 MULMOD SWAP9 POP DUP8 DUP5 DUP11 MULMOD SWAP9 POP DUP8 DUP10 DUP11 MULMOD SWAP9 POP DUP8 DUP10 DUP11 MULMOD SWAP9 POP DUP8 DUP10 DUP11 MULMOD SWAP9 POP DUP8 DUP10 DUP11 MULMOD SWAP9 POP DUP8 DUP10 DUP11 MULMOD SWAP9 POP DUP8 DUP7 DUP11 MULMOD SWAP9 POP DUP8 DUP10 DUP11 MULMOD SWAP9 POP DUP8 DUP10 DUP11 MULMOD SWAP9 POP DUP8 DUP11 DUP11 MULMOD SWAP9 POP DUP8 DUP10 DUP11 MULMOD SWAP9 POP DUP8 DUP10 DUP11 MULMOD SWAP9 POP DUP8 DUP10 DUP11 MULMOD SWAP9 POP DUP8 DUP10 DUP11 MULMOD SWAP9 POP DUP8 DUP10 DUP11 MULMOD SWAP9 POP DUP8 DUP10 DUP11 MULMOD SWAP9 POP DUP8 DUP10 DUP11 MULMOD SWAP9 POP DUP8 DUP2 DUP11 MULMOD SWAP9 POP DUP8 DUP10 DUP11 MULMOD SWAP9 POP DUP8 DUP10 DUP11 MULMOD SWAP9 POP DUP8 DUP10 DUP11 MULMOD SWAP9 POP DUP8 DUP10 DUP11 MULMOD SWAP9 POP DUP8 DUP10 DUP11 MULMOD SWAP9 POP DUP8 DUP10 DUP11 MULMOD SWAP9 POP DUP8 DUP6 DUP11 MULMOD SWAP9 POP DUP8 DUP10 DUP11 MULMOD SWAP9 POP DUP8 DUP10 DUP11 MULMOD SWAP9 POP DUP8 DUP10 DUP11 MULMOD SWAP9 POP DUP8 DUP10 DUP11 MULMOD SWAP9 POP DUP8 DUP10 DUP11 MULMOD SWAP9 POP DUP8 DUP11 DUP11 MULMOD SWAP9 POP DUP8 DUP10 DUP11 MULMOD SWAP9 POP DUP8 DUP10 DUP11 MULMOD SWAP9 POP DUP8 DUP10 DUP11 MULMOD SWAP9 POP DUP8 DUP10 DUP11 MULMOD SWAP9 POP DUP8 DUP10 DUP11 MULMOD SWAP9 POP DUP8 DUP10 DUP11 MULMOD SWAP9 POP DUP8 DUP11 DUP11 MULMOD SWAP9 POP DUP8 DUP10 DUP11 MULMOD SWAP9 POP DUP8 DUP10 DUP11 MULMOD SWAP9 POP DUP8 DUP10 DUP11 MULMOD SWAP9 POP DUP8 DUP10 DUP11 MULMOD SWAP9 POP DUP8 DUP10 DUP11 MULMOD SWAP9 POP DUP8 DUP8 DUP11 MULMOD SWAP9 POP DUP8 DUP10 DUP11 MULMOD SWAP9 POP DUP8 DUP10 DUP11 MULMOD SWAP9 POP DUP8 DUP10 DUP11 MULMOD SWAP9 POP DUP8 DUP10 DUP11 MULMOD SWAP9 POP DUP8 DUP10 DUP11 MULMOD SWAP9 POP DUP8 DUP10 DUP11 MULMOD SWAP9 POP DUP8 DUP10 DUP11 MULMOD SWAP9 POP DUP8 DUP10 DUP11 MULMOD SWAP9 POP DUP8 DUP10 DUP11 MULMOD SWAP9 POP DUP8 DUP3 DUP11 MULMOD SWAP9 POP DUP8 DUP10 DUP11 MULMOD SWAP9 POP DUP8 DUP10 DUP11 MULMOD SWAP9 POP DUP8 DUP10 DUP11 MULMOD SWAP9 POP DUP8 DUP8 DUP11 MULMOD SWAP9 POP DUP8 DUP10 DUP11 MULMOD SWAP9 POP DUP8 DUP10 DUP11 MULMOD SWAP9 POP DUP8 DUP10 DUP11 MULMOD SWAP9 POP DUP8 DUP8 DUP11 MULMOD SWAP9 POP DUP8 DUP10 DUP11 MULMOD SWAP9 POP DUP8 DUP10 DUP11 MULMOD SWAP9 POP DUP8 DUP10 DUP11 MULMOD SWAP9 POP DUP8 DUP10 DUP11 MULMOD SWAP9 POP DUP8 DUP10 DUP11 MULMOD SWAP9 POP DUP8 DUP10 DUP11 MULMOD SWAP9 POP DUP8 DUP10 DUP11 MULMOD SWAP9 POP DUP8 DUP10 DUP11 MULMOD SWAP9 POP DUP8 DUP6 DUP11 MULMOD SWAP9 POP DUP8 DUP10 DUP11 MULMOD SWAP9 POP DUP8 DUP10 DUP11 MULMOD SWAP9 POP DUP8 DUP10 DUP11 MULMOD SWAP9 POP DUP8 DUP10 DUP11 MULMOD SWAP9 POP DUP8 DUP4 DUP11 MULMOD SWAP9 POP DUP8 DUP10 DUP11 MULMOD SWAP9 POP DUP8 DUP10 DUP11 MULMOD SWAP9 POP DUP8 DUP10 DUP11 MULMOD SWAP9 POP DUP8 DUP10 DUP11 MULMOD SWAP9 POP DUP8 DUP6 DUP11 MULMOD SWAP9 POP DUP8 DUP10 DUP11 MULMOD SWAP9 POP DUP8 DUP10 DUP11 MULMOD SWAP9 POP DUP8 DUP10 DUP11 MULMOD SWAP9 POP DUP8 DUP7 DUP11 MULMOD SWAP9 POP DUP8 DUP10 DUP11 MULMOD SWAP9 POP DUP8 DUP10 DUP11 MULMOD SWAP9 POP DUP8 DUP11 DUP11 MULMOD SWAP9 POP DUP8 DUP10 DUP11 MULMOD SWAP9 POP DUP8 DUP10 DUP11 MULMOD SWAP9 POP DUP8 DUP10 DUP11 MULMOD SWAP9 POP DUP8 DUP10 DUP11 MULMOD SWAP9 POP DUP8 DUP10 DUP11 MULMOD SWAP9 POP DUP8 DUP10 DUP11 MULMOD SWAP9 POP DUP8 DUP7 DUP11 MULMOD SWAP9 POP POP POP POP POP POP POP POP POP SWAP2 SWAP1 POP JUMP JUMPDEST PUSH1 0x40 MLOAD DUP1 PUSH1 0x40 ADD PUSH1 0x40 MSTORE DUP1 PUSH1 0x2 SWAP1 PUSH1 0x20 DUP3 MUL DUP1 CALLDATASIZE DUP4 CALLDATACOPY DUP1 DUP3 ADD SWAP2 POP POP SWAP1 POP POP SWAP1 JUMP JUMPDEST PUSH1 0x40 MLOAD DUP1 PUSH1 0x20 ADD PUSH1 0x40 MSTORE DUP1 PUSH1 0x1 SWAP1 PUSH1 0x20 DUP3 MUL DUP1 CALLDATASIZE DUP4 CALLDATACOPY DUP1 DUP3 ADD SWAP2 POP POP SWAP1 POP POP SWAP1 JUMP JUMPDEST PUSH1 0x40 MLOAD DUP1 PUSH1 0x80 ADD PUSH1 0x40 MSTORE DUP1 PUSH1 0x4 SWAP1 PUSH1 0x20 DUP3 MUL DUP1 CALLDATASIZE DUP4 CALLDATACOPY DUP1 DUP3 ADD SWAP2 POP POP SWAP1 POP POP SWAP1 JUMP JUMPDEST PUSH1 0x0 PUSH1 0x40 MLOAD SWAP1 POP SWAP1 JUMP JUMPDEST PUSH1 0x0 DUP1 REVERT JUMPDEST PUSH1 0x0 DUP1 REVERT JUMPDEST PUSH1 0x0 DUP1 REVERT JUMPDEST PUSH1 0x0 DUP2 SWAP1 POP DUP3 PUSH1 0x20 PUSH1 0x2 MUL DUP3 ADD GT ISZERO PUSH2 0x3910 JUMPI PUSH2 0x390F PUSH2 0x38EF JUMP JUMPDEST JUMPDEST SWAP3 SWAP2 POP POP JUMP JUMPDEST PUSH1 0x0 PUSH1 0x40 DUP3 DUP5 SUB SLT ISZERO PUSH2 0x392C JUMPI PUSH2 0x392B PUSH2 0x38E5 JUMP JUMPDEST JUMPDEST PUSH1 0x0 PUSH2 0x393A DUP5 DUP3 DUP6 ADD PUSH2 0x38F4 JUMP JUMPDEST SWAP2 POP POP SWAP3 SWAP2 POP POP JUMP JUMPDEST PUSH1 0x0 DUP2 SWAP1 POP SWAP2 SWAP1 POP JUMP JUMPDEST PUSH2 0x3956 DUP2 PUSH2 0x3943 JUMP JUMPDEST DUP3 MSTORE POP POP JUMP JUMPDEST PUSH1 0x0 PUSH1 0x20 DUP3 ADD SWAP1 POP PUSH2 0x3971 PUSH1 0x0 DUP4 ADD DUP5 PUSH2 0x394D JUMP JUMPDEST SWAP3 SWAP2 POP POP JUMP JUMPDEST PUSH1 0x0 DUP1 REVERT JUMPDEST PUSH1 0x0 DUP1 REVERT JUMPDEST PUSH1 0x0 PUSH1 0x1F NOT PUSH1 0x1F DUP4 ADD AND SWAP1 POP SWAP2 SWAP1 POP JUMP JUMPDEST PUSH32 0x4E487B7100000000000000000000000000000000000000000000000000000000 PUSH1 0x0 MSTORE PUSH1 0x41 PUSH1 0x4 MSTORE PUSH1 0x24 PUSH1 0x0 REVERT JUMPDEST PUSH2 0x39CA DUP3 PUSH2 0x3981 JUMP JUMPDEST DUP2 ADD DUP2 DUP2 LT PUSH8 0xFFFFFFFFFFFFFFFF DUP3 GT OR ISZERO PUSH2 0x39E9 JUMPI PUSH2 0x39E8 PUSH2 0x3992 JUMP JUMPDEST JUMPDEST DUP1 PUSH1 0x40 MSTORE POP POP POP JUMP JUMPDEST PUSH1 0x0 PUSH2 0x39FC PUSH2 0x38DB JUMP JUMPDEST SWAP1 POP PUSH2 0x3A08 DUP3 DUP3 PUSH2 0x39C1 JUMP JUMPDEST SWAP2 SWAP1 POP JUMP JUMPDEST PUSH1 0x0 PUSH8 0xFFFFFFFFFFFFFFFF DUP3 GT ISZERO PUSH2 0x3A28 JUMPI PUSH2 0x3A27 PUSH2 0x3992 JUMP JUMPDEST JUMPDEST PUSH2 0x3A31 DUP3 PUSH2 0x3981 JUMP JUMPDEST SWAP1 POP PUSH1 0x20 DUP2 ADD SWAP1 POP SWAP2 SWAP1 POP JUMP JUMPDEST DUP3 DUP2 DUP4 CALLDATACOPY PUSH1 0x0 DUP4 DUP4 ADD MSTORE POP POP POP JUMP JUMPDEST PUSH1 0x0 PUSH2 0x3A60 PUSH2 0x3A5B DUP5 PUSH2 0x3A0D JUMP JUMPDEST PUSH2 0x39F2 JUMP JUMPDEST SWAP1 POP DUP3 DUP2 MSTORE PUSH1 0x20 DUP2 ADD DUP5 DUP5 DUP5 ADD GT ISZERO PUSH2 0x3A7C JUMPI PUSH2 0x3A7B PUSH2 0x397C JUMP JUMPDEST JUMPDEST PUSH2 0x3A87 DUP5 DUP3 DUP6 PUSH2 0x3A3E JUMP JUMPDEST POP SWAP4 SWAP3 POP POP POP JUMP JUMPDEST PUSH1 0x0 DUP3 PUSH1 0x1F DUP4 ADD SLT PUSH2 0x3AA4 JUMPI PUSH2 0x3AA3 PUSH2 0x3977 JUMP JUMPDEST JUMPDEST DUP2 CALLDATALOAD PUSH2 0x3AB4 DUP5 DUP3 PUSH1 0x20 DUP7 ADD PUSH2 0x3A4D JUMP JUMPDEST SWAP2 POP POP SWAP3 SWAP2 POP POP JUMP JUMPDEST PUSH1 0x0 DUP1 PUSH1 0x40 DUP4 DUP6 SUB SLT ISZERO PUSH2 0x3AD4 JUMPI PUSH2 0x3AD3 PUSH2 0x38E5 JUMP JUMPDEST JUMPDEST PUSH1 0x0 DUP4 ADD CALLDATALOAD PUSH8 0xFFFFFFFFFFFFFFFF DUP2 GT ISZERO PUSH2 0x3AF2 JUMPI PUSH2 0x3AF1 PUSH2 0x38EA JUMP JUMPDEST JUMPDEST PUSH2 0x3AFE DUP6 DUP3 DUP7 ADD PUSH2 0x3A8F JUMP JUMPDEST SWAP3 POP POP PUSH1 0x20 DUP4 ADD CALLDATALOAD PUSH8 0xFFFFFFFFFFFFFFFF DUP2 GT ISZERO PUSH2 0x3B1F JUMPI PUSH2 0x3B1E PUSH2 0x38EA JUMP JUMPDEST JUMPDEST PUSH2 0x3B2B DUP6 DUP3 DUP7 ADD PUSH2 0x3A8F JUMP JUMPDEST SWAP2 POP POP SWAP3 POP SWAP3 SWAP1 POP JUMP JUMPDEST PUSH1 0x0 DUP2 SWAP1 POP DUP3 PUSH1 0x20 PUSH1 0x4 MUL DUP3 ADD GT ISZERO PUSH2 0x3B51 JUMPI PUSH2 0x3B50 PUSH2 0x38EF JUMP JUMPDEST JUMPDEST SWAP3 SWAP2 POP POP JUMP JUMPDEST PUSH1 0x0 DUP1 PUSH1 0x0 PUSH2 0x100 DUP5 DUP7 SUB SLT ISZERO PUSH2 0x3B71 JUMPI PUSH2 0x3B70 PUSH2 0x38E5 JUMP JUMPDEST JUMPDEST PUSH1 0x0 PUSH2 0x3B7F DUP7 DUP3 DUP8 ADD PUSH2 0x38F4 JUMP JUMPDEST SWAP4 POP POP PUSH1 0x40 PUSH2 0x3B90 DUP7 DUP3 DUP8 ADD PUSH2 0x3B35 JUMP JUMPDEST SWAP3 POP POP PUSH1 0xC0 PUSH2 0x3BA1 DUP7 DUP3 DUP8 ADD PUSH2 0x38F4 JUMP JUMPDEST SWAP2 POP POP SWAP3 POP SWAP3 POP SWAP3 JUMP JUMPDEST PUSH2 0x3BB4 DUP2 PUSH2 0x3943 JUMP JUMPDEST DUP2 EQ PUSH2 0x3BBF JUMPI PUSH1 0x0 DUP1 REVERT JUMPDEST POP JUMP JUMPDEST PUSH1 0x0 DUP2 CALLDATALOAD SWAP1 POP PUSH2 0x3BD1 DUP2 PUSH2 0x3BAB JUMP JUMPDEST SWAP3 SWAP2 POP POP JUMP JUMPDEST PUSH1 0x0 PUSH1 0x20 DUP3 DUP5 SUB SLT ISZERO PUSH2 0x3BED JUMPI PUSH2 0x3BEC PUSH2 0x38E5 JUMP JUMPDEST JUMPDEST PUSH1 0x0 PUSH2 0x3BFB DUP5 DUP3 DUP6 ADD PUSH2 0x3BC2 JUMP JUMPDEST SWAP2 POP POP SWAP3 SWAP2 POP POP JUMP JUMPDEST PUSH1 0x0 DUP1 REVERT JUMPDEST PUSH1 0x0 DUP1 DUP4 PUSH1 0x1F DUP5 ADD SLT PUSH2 0x3C1F JUMPI PUSH2 0x3C1E PUSH2 0x3977 JUMP JUMPDEST JUMPDEST DUP3 CALLDATALOAD SWAP1 POP PUSH8 0xFFFFFFFFFFFFFFFF DUP2 GT ISZERO PUSH2 0x3C3C JUMPI PUSH2 0x3C3B PUSH2 0x3C04 JUMP JUMPDEST JUMPDEST PUSH1 0x20 DUP4 ADD SWAP2 POP DUP4 PUSH1 0x80 DUP3 MUL DUP4 ADD GT ISZERO PUSH2 0x3C58 JUMPI PUSH2 0x3C57 PUSH2 0x38EF JUMP JUMPDEST JUMPDEST SWAP3 POP SWAP3 SWAP1 POP JUMP JUMPDEST PUSH1 0x0 DUP1 DUP4 PUSH1 0x1F DUP5 ADD SLT PUSH2 0x3C75 JUMPI PUSH2 0x3C74 PUSH2 0x3977 JUMP JUMPDEST JUMPDEST DUP3 CALLDATALOAD SWAP1 POP PUSH8 0xFFFFFFFFFFFFFFFF DUP2 GT ISZERO PUSH2 0x3C92 JUMPI PUSH2 0x3C91 PUSH2 0x3C04 JUMP JUMPDEST JUMPDEST PUSH1 0x20 DUP4 ADD SWAP2 POP DUP4 PUSH1 0x40 DUP3 MUL DUP4 ADD GT ISZERO PUSH2 0x3CAE JUMPI PUSH2 0x3CAD PUSH2 0x38EF JUMP JUMPDEST JUMPDEST SWAP3 POP SWAP3 SWAP1 POP JUMP JUMPDEST PUSH1 0x0 DUP1 PUSH1 0x0 DUP1 PUSH1 0x0 PUSH1 0x80 DUP7 DUP9 SUB SLT ISZERO PUSH2 0x3CD1 JUMPI PUSH2 0x3CD0 PUSH2 0x38E5 JUMP JUMPDEST JUMPDEST PUSH1 0x0 PUSH2 0x3CDF DUP9 DUP3 DUP10 ADD PUSH2 0x38F4 JUMP JUMPDEST SWAP6 POP POP PUSH1 0x40 DUP7 ADD CALLDATALOAD PUSH8 0xFFFFFFFFFFFFFFFF DUP2 GT ISZERO PUSH2 0x3D00 JUMPI PUSH2 0x3CFF PUSH2 0x38EA JUMP JUMPDEST JUMPDEST PUSH2 0x3D0C DUP9 DUP3 DUP10 ADD PUSH2 0x3C09 JUMP JUMPDEST SWAP5 POP SWAP5 POP POP PUSH1 0x60 DUP7 ADD CALLDATALOAD PUSH8 0xFFFFFFFFFFFFFFFF DUP2 GT ISZERO PUSH2 0x3D2F JUMPI PUSH2 0x3D2E PUSH2 0x38EA JUMP JUMPDEST JUMPDEST PUSH2 0x3D3B DUP9 DUP3 DUP10 ADD PUSH2 0x3C5F JUMP JUMPDEST SWAP3 POP SWAP3 POP POP SWAP3 SWAP6 POP SWAP3 SWAP6 SWAP1 SWAP4 POP JUMP JUMPDEST PUSH1 0x0 DUP2 SWAP1 POP SWAP2 SWAP1 POP JUMP JUMPDEST PUSH2 0x3D5D DUP2 PUSH2 0x3D4A JUMP JUMPDEST DUP2 EQ PUSH2 0x3D68 JUMPI PUSH1 0x0 DUP1 REVERT JUMPDEST POP JUMP JUMPDEST PUSH1 0x0 DUP2 CALLDATALOAD SWAP1 POP PUSH2 0x3D7A DUP2 PUSH2 0x3D54 JUMP JUMPDEST SWAP3 SWAP2 POP POP JUMP JUMPDEST PUSH1 0x0 PUSH1 0x20 DUP3 DUP5 SUB SLT ISZERO PUSH2 0x3D96 JUMPI PUSH2 0x3D95 PUSH2 0x38E5 JUMP JUMPDEST JUMPDEST PUSH1 0x0 PUSH2 0x3DA4 DUP5 DUP3 DUP6 ADD PUSH2 0x3D6B JUMP JUMPDEST SWAP2 POP POP SWAP3 SWAP2 POP POP JUMP JUMPDEST PUSH1 0x0 PUSH1 0x80 DUP3 DUP5 SUB SLT ISZERO PUSH2 0x3DC3 JUMPI PUSH2 0x3DC2 PUSH2 0x38E5 JUMP JUMPDEST JUMPDEST PUSH1 0x0 PUSH2 0x3DD1 DUP5 DUP3 DUP6 ADD PUSH2 0x3B35 JUMP JUMPDEST SWAP2 POP POP SWAP3 SWAP2 POP POP JUMP JUMPDEST PUSH32 0x4E487B7100000000000000000000000000000000000000000000000000000000 PUSH1 0x0 MSTORE PUSH1 0x11 PUSH1 0x4 MSTORE PUSH1 0x24 PUSH1 0x0 REVERT JUMPDEST PUSH1 0x0 PUSH2 0x3E14 DUP3 PUSH2 0x3943 JUMP JUMPDEST SWAP2 POP PUSH2 0x3E1F DUP4 PUSH2 0x3943 JUMP JUMPDEST SWAP3 POP DUP3 DUP3 SUB SWAP1 POP DUP2 DUP2 GT ISZERO PUSH2 0x3E37 JUMPI PUSH2 0x3E36 PUSH2 0x3DDA JUMP JUMPDEST JUMPDEST SWAP3 SWAP2 POP POP JUMP JUMPDEST PUSH1 0x0 DUP3 DUP3 MSTORE PUSH1 0x20 DUP3 ADD SWAP1 POP SWAP3 SWAP2 POP POP JUMP JUMPDEST PUSH32 0x424C53546573743A206578706563742073756363657366756C20766572696669 PUSH1 0x0 DUP3 ADD MSTORE PUSH32 0x636174696F6E0000000000000000000000000000000000000000000000000000 PUSH1 0x20 DUP3 ADD MSTORE POP JUMP JUMPDEST PUSH1 0x0 PUSH2 0x3EAA PUSH1 0x26 DUP4 PUSH2 0x3E3D JUMP JUMPDEST SWAP2 POP PUSH2 0x3EB5 DUP3 PUSH2 0x3E4E JUMP JUMPDEST PUSH1 0x40 DUP3 ADD SWAP1 POP SWAP2 SWAP1 POP JUMP JUMPDEST PUSH1 0x0 PUSH1 0x20 DUP3 ADD SWAP1 POP DUP2 DUP2 SUB PUSH1 0x0 DUP4 ADD MSTORE PUSH2 0x3ED9 DUP2 PUSH2 0x3E9D JUMP JUMPDEST SWAP1 POP SWAP2 SWAP1 POP JUMP JUMPDEST PUSH32 0x4E487B7100000000000000000000000000000000000000000000000000000000 PUSH1 0x0 MSTORE PUSH1 0x12 PUSH1 0x4 MSTORE PUSH1 0x24 PUSH1 0x0 REVERT JUMPDEST PUSH32 0x4E487B7100000000000000000000000000000000000000000000000000000000 PUSH1 0x0 MSTORE PUSH1 0x32 PUSH1 0x4 MSTORE PUSH1 0x24 PUSH1 0x0 REVERT JUMPDEST PUSH32 0x424C533A2069734E6F6E52657369647565465032206D6F646578702063616C6C PUSH1 0x0 DUP3 ADD MSTORE PUSH32 0x206661696C656400000000000000000000000000000000000000000000000000 PUSH1 0x20 DUP3 ADD MSTORE POP JUMP JUMPDEST PUSH1 0x0 PUSH2 0x3F9A PUSH1 0x27 DUP4 PUSH2 0x3E3D JUMP JUMPDEST SWAP2 POP PUSH2 0x3FA5 DUP3 PUSH2 0x3F3E JUMP JUMPDEST PUSH1 0x40 DUP3 ADD SWAP1 POP SWAP2 SWAP1 POP JUMP JUMPDEST PUSH1 0x0 PUSH1 0x20 DUP3 ADD SWAP1 POP DUP2 DUP2 SUB PUSH1 0x0 DUP4 ADD MSTORE PUSH2 0x3FC9 DUP2 PUSH2 0x3F8D JUMP JUMPDEST SWAP1 POP SWAP2 SWAP1 POP JUMP JUMPDEST POP JUMP JUMPDEST PUSH1 0x0 PUSH2 0x3FE0 PUSH1 0x0 DUP4 PUSH2 0x3E3D JUMP JUMPDEST SWAP2 POP PUSH2 0x3FEB DUP3 PUSH2 0x3FD0 JUMP JUMPDEST PUSH1 0x0 DUP3 ADD SWAP1 POP SWAP2 SWAP1 POP JUMP JUMPDEST PUSH1 0x0 PUSH1 0x20 DUP3 ADD SWAP1 POP DUP2 DUP2 SUB PUSH1 0x0 DUP4 ADD MSTORE PUSH2 0x400F DUP2 PUSH2 0x3FD3 JUMP JUMPDEST SWAP1 POP SWAP2 SWAP1 POP JUMP JUMPDEST PUSH32 0x6D6170546F506F696E7446543A20696E76616C6964206669656C6420656C656D PUSH1 0x0 DUP3 ADD MSTORE PUSH32 0x656E740000000000000000000000000000000000000000000000000000000000 PUSH1 0x20 DUP3 ADD MSTORE POP JUMP JUMPDEST PUSH1 0x0 PUSH2 0x4072 PUSH1 0x23 DUP4 PUSH2 0x3E3D JUMP JUMPDEST SWAP2 POP PUSH2 0x407D DUP3 PUSH2 0x4016 JUMP JUMPDEST PUSH1 0x40 DUP3 ADD SWAP1 POP SWAP2 SWAP1 POP JUMP JUMPDEST PUSH1 0x0 PUSH1 0x20 DUP3 ADD SWAP1 POP DUP2 DUP2 SUB PUSH1 0x0 DUP4 ADD MSTORE PUSH2 0x40A1 DUP2 PUSH2 0x4065 JUMP JUMPDEST SWAP1 POP SWAP2 SWAP1 POP JUMP JUMPDEST PUSH32 0x424C533A20626164206674206D617070696E6720696D706C656D656E74617469 PUSH1 0x0 DUP3 ADD MSTORE PUSH32 0x6F6E000000000000000000000000000000000000000000000000000000000000 PUSH1 0x20 DUP3 ADD MSTORE POP JUMP JUMPDEST PUSH1 0x0 PUSH2 0x4104 PUSH1 0x22 DUP4 PUSH2 0x3E3D JUMP JUMPDEST SWAP2 POP PUSH2 0x410F DUP3 PUSH2 0x40A8 JUMP JUMPDEST PUSH1 0x40 DUP3 ADD SWAP1 POP SWAP2 SWAP1 POP JUMP JUMPDEST PUSH1 0x0 PUSH1 0x20 DUP3 ADD SWAP1 POP DUP2 DUP2 SUB PUSH1 0x0 DUP4 ADD MSTORE PUSH2 0x4133 DUP2 PUSH2 0x40F7 JUMP JUMPDEST SWAP1 POP SWAP2 SWAP1 POP JUMP JUMPDEST PUSH32 0x424C533A2073717274206D6F646578702063616C6C206661696C656400000000 PUSH1 0x0 DUP3 ADD MSTORE POP JUMP JUMPDEST PUSH1 0x0 PUSH2 0x4170 PUSH1 0x1C DUP4 PUSH2 0x3E3D JUMP JUMPDEST SWAP2 POP PUSH2 0x417B DUP3 PUSH2 0x413A JUMP JUMPDEST PUSH1 0x20 DUP3 ADD SWAP1 POP SWAP2 SWAP1 POP JUMP JUMPDEST PUSH1 0x0 PUSH1 0x20 DUP3 ADD SWAP1 POP DUP2 DUP2 SUB PUSH1 0x0 DUP4 ADD MSTORE PUSH2 0x419F DUP2 PUSH2 0x4163 JUMP JUMPDEST SWAP1 POP SWAP2 SWAP1 POP JUMP JUMPDEST PUSH32 0x424C533A206E756D626572206F66207075626C6963206B6579206973207A6572 PUSH1 0x0 DUP3 ADD MSTORE PUSH32 0x6F00000000000000000000000000000000000000000000000000000000000000 PUSH1 0x20 DUP3 ADD MSTORE POP JUMP JUMPDEST PUSH1 0x0 PUSH2 0x4202 PUSH1 0x21 DUP4 PUSH2 0x3E3D JUMP JUMPDEST SWAP2 POP PUSH2 0x420D DUP3 PUSH2 0x41A6 JUMP JUMPDEST PUSH1 0x40 DUP3 ADD SWAP1 POP SWAP2 SWAP1 POP JUMP JUMPDEST PUSH1 0x0 PUSH1 0x20 DUP3 ADD SWAP1 POP DUP2 DUP2 SUB PUSH1 0x0 DUP4 ADD MSTORE PUSH2 0x4231 DUP2 PUSH2 0x41F5 JUMP JUMPDEST SWAP1 POP SWAP2 SWAP1 POP JUMP JUMPDEST PUSH32 0x424C533A206E756D626572206F66207075626C6963206B65797320616E64206D PUSH1 0x0 DUP3 ADD MSTORE PUSH32 0x65737361676573206D75737420626520657175616C0000000000000000000000 PUSH1 0x20 DUP3 ADD MSTORE POP JUMP JUMPDEST PUSH1 0x0 PUSH2 0x4294 PUSH1 0x35 DUP4 PUSH2 0x3E3D JUMP JUMPDEST SWAP2 POP PUSH2 0x429F DUP3 PUSH2 0x4238 JUMP JUMPDEST PUSH1 0x40 DUP3 ADD SWAP1 POP SWAP2 SWAP1 POP JUMP JUMPDEST PUSH1 0x0 PUSH1 0x20 DUP3 ADD SWAP1 POP DUP2 DUP2 SUB PUSH1 0x0 DUP4 ADD MSTORE PUSH2 0x42C3 DUP2 PUSH2 0x4287 JUMP JUMPDEST SWAP1 POP SWAP2 SWAP1 POP JUMP JUMPDEST PUSH1 0x0 PUSH2 0x42D5 DUP3 PUSH2 0x3943 JUMP JUMPDEST SWAP2 POP PUSH2 0x42E0 DUP4 PUSH2 0x3943 JUMP JUMPDEST SWAP3 POP DUP3 DUP3 ADD SWAP1 POP DUP1 DUP3 GT ISZERO PUSH2 0x42F8 JUMPI PUSH2 0x42F7 PUSH2 0x3DDA JUMP JUMPDEST JUMPDEST SWAP3 SWAP2 POP POP JUMP JUMPDEST PUSH1 0x0 PUSH2 0x4309 DUP3 PUSH2 0x3943 JUMP JUMPDEST SWAP2 POP PUSH2 0x4314 DUP4 PUSH2 0x3943 JUMP JUMPDEST SWAP3 POP DUP3 DUP3 MUL PUSH2 0x4322 DUP2 PUSH2 0x3943 JUMP JUMPDEST SWAP2 POP DUP3 DUP3 DIV DUP5 EQ DUP4 ISZERO OR PUSH2 0x4339 JUMPI PUSH2 0x4338 PUSH2 0x3DDA JUMP JUMPDEST JUMPDEST POP SWAP3 SWAP2 POP POP JUMP JUMPDEST PUSH1 0x0 PUSH2 0x434B DUP3 PUSH2 0x3943 JUMP JUMPDEST SWAP2 POP PUSH32 0xFFFFFFFFFFFFFFFFFFFFFFFFFFFFFFFFFFFFFFFFFFFFFFFFFFFFFFFFFFFFFFFF DUP3 SUB PUSH2 0x437D JUMPI PUSH2 0x437C PUSH2 0x3DDA JUMP JUMPDEST JUMPDEST PUSH1 0x1 DUP3 ADD SWAP1 POP SWAP2 SWAP1 POP JUMP JUMPDEST PUSH1 0x0 PUSH2 0x4393 DUP3 PUSH2 0x3943 JUMP JUMPDEST SWAP2 POP PUSH2 0x439E DUP4 PUSH2 0x3943 JUMP JUMPDEST SWAP3 POP DUP3 PUSH2 0x43AE JUMPI PUSH2 0x43AD PUSH2 0x3EE0 JUMP JUMPDEST JUMPDEST DUP3 DUP3 MOD SWAP1 POP SWAP3 SWAP2 POP POP JUMP JUMPDEST PUSH32 0x424C533A2069734E6F6E526573696475654650206D6F646578702063616C6C20 PUSH1 0x0 DUP3 ADD MSTORE PUSH32 0x6661696C65640000000000000000000000000000000000000000000000000000 PUSH1 0x20 DUP3 ADD MSTORE POP JUMP JUMPDEST PUSH1 0x0 PUSH2 0x4415 PUSH1 0x26 DUP4 PUSH2 0x3E3D JUMP JUMPDEST SWAP2 POP PUSH2 0x4420 DUP3 PUSH2 0x43B9 JUMP JUMPDEST PUSH1 0x40 DUP3 ADD SWAP1 POP SWAP2 SWAP1 POP JUMP JUMPDEST PUSH1 0x0 PUSH1 0x20 DUP3 ADD SWAP1 POP DUP2 DUP2 SUB PUSH1 0x0 DUP4 ADD MSTORE PUSH2 0x4444 DUP2 PUSH2 0x4408 JUMP JUMPDEST SWAP1 POP SWAP2 SWAP1 POP JUMP JUMPDEST PUSH32 0x424C533A20696E76616C696420646F6D61696E206C656E677468000000000000 PUSH1 0x0 DUP3 ADD MSTORE POP JUMP JUMPDEST PUSH1 0x0 PUSH2 0x4481 PUSH1 0x1A DUP4 PUSH2 0x3E3D JUMP JUMPDEST SWAP2 POP PUSH2 0x448C DUP3 PUSH2 0x444B JUMP JUMPDEST PUSH1 0x20 DUP3 ADD SWAP1 POP SWAP2 SWAP1 POP JUMP JUMPDEST PUSH1 0x0 PUSH1 0x20 DUP3 ADD SWAP1 POP DUP2 DUP2 SUB PUSH1 0x0 DUP4 ADD MSTORE PUSH2 0x44B0 DUP2 PUSH2 0x4474 JUMP JUMPDEST SWAP1 POP SWAP2 SWAP1 POP JUMP JUMPDEST PUSH1 0x0 DUP2 MLOAD SWAP1 POP SWAP2 SWAP1 POP JUMP JUMPDEST PUSH1 0x0 DUP2 SWAP1 POP SWAP3 SWAP2 POP POP JUMP JUMPDEST PUSH1 0x0 JUMPDEST DUP4 DUP2 LT ISZERO PUSH2 0x44EB JUMPI DUP1 DUP3 ADD MLOAD DUP2 DUP5 ADD MSTORE PUSH1 0x20 DUP2 ADD SWAP1 POP PUSH2 0x44D0 JUMP JUMPDEST PUSH1 0x0 DUP5 DUP5 ADD MSTORE POP POP POP POP JUMP JUMPDEST PUSH1 0x0 PUSH2 0x4502 DUP3 PUSH2 0x44B7 JUMP JUMPDEST PUSH2 0x450C DUP2 DUP6 PUSH2 0x44C2 JUMP JUMPDEST SWAP4 POP PUSH2 0x451C DUP2 DUP6 PUSH1 0x20 DUP7 ADD PUSH2 0x44CD JUMP JUMPDEST DUP1 DUP5 ADD SWAP2 POP POP SWAP3 SWAP2 POP POP JUMP JUMPDEST PUSH1 0x0 PUSH2 0x4534 DUP3 DUP5 PUSH2 0x44F7 JUMP JUMPDEST SWAP2 POP DUP2 SWAP1 POP SWAP3 SWAP2 POP POP JUMP JUMPDEST PUSH1 0x0 DUP2 MLOAD SWAP1 POP PUSH2 0x454E DUP2 PUSH2 0x3D54 JUMP JUMPDEST SWAP3 SWAP2 POP POP JUMP JUMPDEST PUSH1 0x0 PUSH1 0x20 DUP3 DUP5 SUB SLT ISZERO PUSH2 0x456A JUMPI PUSH2 0x4569 PUSH2 0x38E5 JUMP JUMPDEST JUMPDEST PUSH1 0x0 PUSH2 0x4578 DUP5 DUP3 DUP6 ADD PUSH2 0x453F JUMP JUMPDEST SWAP2 POP POP SWAP3 SWAP2 POP POP JUMP INVALID LOG2 PUSH5 0x6970667358 0x22 SLT KECCAK256 0x24 0xFC 0x2E BLOCKHASH 0xE3 0xEA PUSH25 0x59A22BC04781EAF2E4B2040CCEBB654721480F1AEB2E8EC30F PUSH5 0x736F6C6343 STOP ADDMOD SGT STOP CALLER "},"methodIdentifiers":{"_hashToFieldGasCost(bytes,bytes)":"22267351","_hashToPointGasCost(bytes,bytes)":"8911b0d8","_isNonResidueFP2GasCost(uint256[2])":"10bf819a","_isNonResidueFPGasCost(uint256)":"f470857b","_isOnCurveG1CompressedGasCost(uint256)":"850870e6","_isOnCurveG1GasCost(uint256[2])":"4f09448a","_isOnCurveG2CompressedGasCost(uint256[2])":"101800c2","_isOnCurveG2GasCost(uint256[4])":"d13200cc","_mapToPointFTGasCost(uint256)":"4ce25ff0","_mapToPointTIGasCost(bytes32)":"c8c352c2","_sqrt(uint256)":"6a263f02","_sqrtFaster(uint256)":"ffef569c","_verifyMultipleGasCost(uint256[2],uint256[4][],uint256[2][])":"8fb3a983","_verifySingleGasCost(uint256[2],uint256[4],uint256[2])":"3e563d10"}}}}}