{"contracts/test/TestBLS.sol":{"TestBLS":{"abi":[{"inputs":[{"internalType":"bytes","name":"domain","type":"bytes"},{"internalType":"bytes","name":"message","type":"bytes"}],"name":"_expandMsg","outputs":[{"internalType":"bytes","name":"","type":"bytes"}],"stateMutability":"view","type":"function"},{"inputs":[{"internalType":"bytes","name":"domain","type":"bytes"},{"internalType":"bytes","name":"message","type":"bytes"}],"name":"_hashToField","outputs":[{"internalType":"uint256[2]","name":"","type":"uint256[2]"}],"stateMutability":"view","type":"function"},{"inputs":[{"internalType":"bytes","name":"domain","type":"bytes"},{"internalType":"bytes","name":"message","type":"bytes"}],"name":"_hashToPoint","outputs":[{"internalType":"uint256[2]","name":"","type":"uint256[2]"}],"stateMutability":"view","type":"function"},{"inputs":[{"internalType":"uint256","name":"a","type":"uint256"}],"name":"_inverse","outputs":[{"internalType":"uint256","name":"","type":"uint256"}],"stateMutability":"view","type":"function"},{"inputs":[{"internalType":"uint256","name":"a","type":"uint256"}],"name":"_inverseFaster","outputs":[{"internalType":"uint256","name":"","type":"uint256"}],"stateMutability":"view","type":"function"},{"inputs":[{"internalType":"uint256","name":"e","type":"uint256"}],"name":"_isNonResidueFP","outputs":[{"internalType":"bool","name":"","type":"bool"}],"stateMutability":"view","type":"function"},{"inputs":[{"internalType":"uint256[2]","name":"e","type":"uint256[2]"}],"name":"_isNonResidueFP2","outputs":[{"internalType":"bool","name":"","type":"bool"}],"stateMutability":"view","type":"function"},{"inputs":[{"internalType":"uint256[2]","name":"point","type":"uint256[2]"}],"name":"_isOnCurveG1","outputs":[{"internalType":"bool","name":"","type":"bool"}],"stateMutability":"pure","type":"function"},{"inputs":[{"internalType":"uint256","name":"point","type":"uint256"}],"name":"_isOnCurveG1Compressed","outputs":[{"internalType":"bool","name":"","type":"bool"}],"stateMutability":"view","type":"function"},{"inputs":[{"internalType":"uint256[4]","name":"point","type":"uint256[4]"}],"name":"_isOnCurveG2","outputs":[{"internalType":"bool","name":"","type":"bool"}],"stateMutability":"pure","type":"function"},{"inputs":[{"internalType":"uint256[2]","name":"point","type":"uint256[2]"}],"name":"_isOnCurveG2Compressed","outputs":[{"internalType":"bool","name":"","type":"bool"}],"stateMutability":"view","type":"function"},{"inputs":[{"internalType":"uint256[2]","name":"compressed","type":"uint256[2]"}],"name":"_isValidCompressedPublicKey","outputs":[{"internalType":"bool","name":"","type":"bool"}],"stateMutability":"view","type":"function"},{"inputs":[{"internalType":"uint256","name":"compressed","type":"uint256"}],"name":"_isValidCompressedSignature","outputs":[{"internalType":"bool","name":"","type":"bool"}],"stateMutability":"view","type":"function"},{"inputs":[{"internalType":"uint256","name":"e","type":"uint256"}],"name":"_mapToPointFT","outputs":[{"internalType":"uint256[2]","name":"p","type":"uint256[2]"}],"stateMutability":"view","type":"function"},{"inputs":[{"internalType":"bytes32","name":"e","type":"bytes32"}],"name":"_mapToPointTI","outputs":[{"internalType":"uint256[2]","name":"p","type":"uint256[2]"}],"stateMutability":"view","type":"function"},{"inputs":[{"internalType":"uint256[2]","name":"compressed","type":"uint256[2]"},{"internalType":"uint256[2]","name":"y","type":"uint256[2]"}],"name":"_pubkeyToUncompresed","outputs":[{"internalType":"uint256[4]","name":"uncompressed","type":"uint256[4]"}],"stateMutability":"pure","type":"function"},{"inputs":[{"internalType":"uint256","name":"compressed","type":"uint256"},{"internalType":"uint256","name":"y","type":"uint256"}],"name":"_signatureToUncompresed","outputs":[{"internalType":"uint256[2]","name":"uncompressed","type":"uint256[2]"}],"stateMutability":"pure","type":"function"},{"inputs":[{"internalType":"uint256","name":"xx","type":"uint256"}],"name":"_sqrt","outputs":[{"internalType":"uint256","name":"","type":"uint256"},{"internalType":"bool","name":"","type":"bool"}],"stateMutability":"view","type":"function"},{"inputs":[{"internalType":"uint256","name":"xx","type":"uint256"}],"name":"_sqrtFaster","outputs":[{"internalType":"uint256","name":"","type":"uint256"},{"internalType":"bool","name":"","type":"bool"}],"stateMutability":"view","type":"function"},{"inputs":[{"internalType":"uint256[2]","name":"signature","type":"uint256[2]"},{"internalType":"uint256[4][]","name":"pubkeys","type":"uint256[4][]"},{"internalType":"uint256[2][]","name":"messages","type":"uint256[2][]"}],"name":"_verifyMultiple","outputs":[{"internalType":"bool","name":"","type":"bool"}],"stateMutability":"view","type":"function"},{"inputs":[{"internalType":"uint256[2]","name":"signature","type":"uint256[2]"},{"internalType":"uint256[4]","name":"pubkey","type":"uint256[4]"},{"internalType":"uint256[2]","name":"message","type":"uint256[2]"}],"name":"_verifySingle","outputs":[{"internalType":"bool","name":"","type":"bool"}],"stateMutability":"view","type":"function"}],"evm":{"bytecode":{"linkReferences":{},"object":"608060405234801561001057600080fd5b5061521b806100206000396000f3fe608060405234801561001057600080fd5b50600436106101375760003560e01c806390baab7f116100b8578063e1fcad4a1161007c578063e1fcad4a1461040d578063f45dded61461043d578063f66d032f1461046d578063f73caea81461049d578063f8c6c05f146104cd578063ffef569c146104fd57610137565b806390baab7f1461031d578063917175241461034d578063ac39a6351461037d578063b4a5eaca146103ad578063ca608d01146103dd57610137565b80636e000f02116100ff5780636e000f021461022d57806375e066501461025d57806378d8be241461028d57806385a2b168146102bd5780638cecf66e146102ed57610137565b80632758ebce1461013c578063384cd5c41461016c5780634bfc36e41461019c57806350c406f7146101cc5780636a263f02146101fc575b600080fd5b610156600480360381019061015191906140e5565b61052e565b604051610163919061412d565b60405180910390f35b610186600480360381019061018191906142b1565b610562565b604051610193919061439c565b60405180910390f35b6101b660048036038101906101b191906140e5565b6105b3565b6040516101c3919061443b565b60405180910390f35b6101e660048036038101906101e19190614456565b6105cb565b6040516101f3919061412d565b60405180910390f35b610216600480360381019061021191906140e5565b61064e565b604051610224929190614492565b60405180910390f35b61024760048036038101906102429190614456565b610663565b604051610254919061412d565b60405180910390f35b61027760048036038101906102729190614570565b6106ac565b604051610284919061443b565b60405180910390f35b6102a760048036038101906102a2919061460a565b6106c6565b6040516102b4919061412d565b60405180910390f35b6102d760048036038101906102d291906146b9565b610781565b6040516102e491906147b9565b60405180910390f35b610307600480360381019061030291906140e5565b61081f565b60405161031491906147db565b60405180910390f35b610337600480360381019061033291906148a2565b610831565b604051610344919061412d565b60405180910390f35b610367600480360381019061036291906140e5565b61097a565b604051610374919061412d565b60405180910390f35b610397600480360381019061039291906140e5565b61098c565b6040516103a4919061412d565b60405180910390f35b6103c760048036038101906103c2919061496d565b61099e565b6040516103d4919061443b565b60405180910390f35b6103f760048036038101906103f2919061499a565b6109b6565b604051610404919061443b565b60405180910390f35b610427600480360381019061042291906149da565b6109d0565b604051610434919061412d565b60405180910390f35b61045760048036038101906104529190614456565b610a19565b604051610464919061412d565b60405180910390f35b61048760048036038101906104829190614456565b610a62565b604051610494919061412d565b60405180910390f35b6104b760048036038101906104b291906146b9565b610aab565b6040516104c4919061443b565b60405180910390f35b6104e760048036038101906104e291906140e5565b610b4f565b6040516104f491906147db565b60405180910390f35b610517600480360381019061051291906140e5565b610b61565b604051610525929190614492565b60405180910390f35b600061055b7f7fffffffffffffffffffffffffffffffffffffffffffffffffffffffffffffff8316610b76565b9050919050565b61056a614035565b6105ab836002806020026040519081016040528092919082600260200280828437600081840152601f19601f82011690508083019250505050505083610c71565b905092915050565b6105bb614057565b6105c482610e41565b9050919050565b6000807f7fffffffffffffffffffffffffffffffffffffffffffffffffffffffffffffff8360006002811061060357610602614a07565b5b602002013516905060008360016002811061062157610620614a07565b5b6020020135905061064560405180604001604052808481526020018381525061158d565b92505050919050565b60008061065a836117c0565b91509150915091565b60006106a5826002806020026040519081016040528092919082600260200280828437600081840152601f19601f8201169050808301925050505050506118ae565b9050919050565b6106b4614057565b6106be8383611a72565b905092915050565b6000610778846002806020026040519081016040528092919082600260200280828437600081840152601f19601f820116905080830192505050505050846004806020026040519081016040528092919082600460200280828437600081840152601f19601f820116905080830192505050505050846002806020026040519081016040528092919082600260200280828437600081840152601f19601f820116905080830192505050505050611c1e565b90509392505050565b606061081585858080601f016020809104026020016040519081016040528093929190818152602001838380828437600081840152601f19601f8201169050808301925050505050505084848080601f016020809104026020016040519081016040528093929190818152602001838380828437600081840152601f19601f82011690508083019250505050505050611e45565b9050949350505050565b600061082a8261219a565b9050919050565b600061096f866002806020026040519081016040528092919082600260200280828437600081840152601f19601f8201169050808301925050505050508686808060200260200160405190810160405280939291908181526020016000905b828210156108e7578484839050608002016004806020026040519081016040528092919082600460200280828437600081840152601f19601f82011690508083019250505050505081526020019060010190610890565b50505050508585808060200260200160405190810160405280939291908181526020016000905b82821015610965578484839050604002016002806020026040519081016040528092919082600260200280828437600081840152601f19601f8201169050808301925050505050508152602001906001019061090e565b505050505061225e565b905095945050505050565b6000610985826127fb565b9050919050565b600061099782612878565b9050919050565b6109a6614057565b6109af82612943565b9050919050565b6109be614057565b6109c88383612ac4565b905092915050565b6000610a12826004806020026040519081016040528092919082600460200280828437600081840152601f19601f820116905080830192505050505050612ba3565b9050919050565b6000610a5b826002806020026040519081016040528092919082600260200280828437600081840152601f19601f820116905080830192505050505050612df7565b9050919050565b6000610aa4826002806020026040519081016040528092919082600260200280828437600081840152601f19601f820116905080830192505050505050612efa565b9050919050565b610ab3614057565b610b4585858080601f016020809104026020016040519081016040528093929190818152602001838380828437600081840152601f19601f8201169050808301925050505050505084848080601f016020809104026020016040519081016040528093929190818152602001838380828437600081840152601f19601f82011690508083019250505050505050612fa7565b9050949350505050565b6000610b5a82613138565b9050919050565b600080610b6d8361314a565b91509150915091565b600080827f30644e72e131a029b85045b68181585d97816a916871ca8d3c208c16d87cfd478182097f30644e72e131a029b85045b68181585d97816a916871ca8d3c208c16d87cfd4782820990507f30644e72e131a029b85045b68181585d97816a916871ca8d3c208c16d87cfd4760038208905060405160208152602080820152602060408201528160608201527f183227397098d014dc2822db40c0ac2ecbc0b548b438e5469e10460b6c3e7ea360808201527f30644e72e131a029b85045b68181585d97816a916871ca8d3c208c16d87cfd4760a082015260208160c08360056107d05a03fa93508051600114945050505050919050565b610c79614035565b60007f800000000000000000000000000000000000000000000000000000000000000084600060028110610cb057610caf614a07565b5b60200201511690507f8000000000000000000000000000000000000000000000000000000000000000811480610d01575060018084600060028110610cf857610cf7614a07565b5b60200201511614155b610d40576040517f08c379a0000000000000000000000000000000000000000000000000000000008152600401610d3790614ab9565b60405180910390fd5b7f7fffffffffffffffffffffffffffffffffffffffffffffffffffffffffffffff84600060028110610d7557610d74614a07565b5b60200201511682600060048110610d8f57610d8e614a07565b5b60200201818152505083600160028110610dac57610dab614a07565b5b602002015182600160048110610dc557610dc4614a07565b5b60200201818152505082600060028110610de257610de1614a07565b5b602002015182600260048110610dfb57610dfa614a07565b5b60200201818152505082600160028110610e1857610e17614a07565b5b602002015182600360048110610e3157610e30614a07565b5b6020020181815250505092915050565b610e49614057565b7f30644e72e131a029b85045b68181585d97816a916871ca8d3c208c16d87cfd478210610eab576040517f08c379a0000000000000000000000000000000000000000000000000000000008152600401610ea290614b4b565b60405180910390fd5b60008290506000610ebb82612878565b905060007f30644e72e131a029b85045b68181585d97816a916871ca8d3c208c16d87cfd4780610eee57610eed614b6b565b5b83840990507f30644e72e131a029b85045b68181585d97816a916871ca8d3c208c16d87cfd4780610f2257610f21614b6b565b5b60048208905060007f30644e72e131a029b85045b68181585d97816a916871ca8d3c208c16d87cfd4780610f5957610f58614b6b565b5b77b3c4d79d41a91759a9e4c7e359b6b89eaec68e62effffffd8509905060007f30644e72e131a029b85045b68181585d97816a916871ca8d3c208c16d87cfd4780610fa757610fa6614b6b565b5b8383099050610fb581613138565b90507f30644e72e131a029b85045b68181585d97816a916871ca8d3c208c16d87cfd4780610fe657610fe5614b6b565b5b82830991507f30644e72e131a029b85045b68181585d97816a916871ca8d3c208c16d87cfd478061101a57611019614b6b565b5b81830991507f30644e72e131a029b85045b68181585d97816a916871ca8d3c208c16d87cfd478061104e5761104d614b6b565b5b82860991507f30644e72e131a029b85045b68181585d97816a916871ca8d3c208c16d87cfd478061108257611081614b6b565b5b827f30644e72e131a029b85045b68181585d97816a916871ca8d3c208c16d87cfd476110ae9190614bc9565b7759e26bcea0d48bacd4f263f1acdb5c4f5763473177fffffe0894507f30644e72e131a029b85045b68181585d97816a916871ca8d3c208c16d87cfd47806110f9576110f8614b6b565b5b85860991507f30644e72e131a029b85045b68181585d97816a916871ca8d3c208c16d87cfd478061112d5761112c614b6b565b5b85830991507f30644e72e131a029b85045b68181585d97816a916871ca8d3c208c16d87cfd478061116157611160614b6b565b5b60038308915060006111728361314a565b809250819450505080156111d75784156111b557827f30644e72e131a029b85045b68181585d97816a916871ca8d3c208c16d87cfd476111b29190614bc9565b92505b6040518060400160405280878152602001848152509650505050505050611588565b7f30644e72e131a029b85045b68181585d97816a916871ca8d3c208c16d87cfd478061120657611205614b6b565b5b600187087f30644e72e131a029b85045b68181585d97816a916871ca8d3c208c16d87cfd476112359190614bc9565b95507f30644e72e131a029b85045b68181585d97816a916871ca8d3c208c16d87cfd478061126657611265614b6b565b5b86870992507f30644e72e131a029b85045b68181585d97816a916871ca8d3c208c16d87cfd478061129a57611299614b6b565b5b86840992507f30644e72e131a029b85045b68181585d97816a916871ca8d3c208c16d87cfd47806112ce576112cd614b6b565b5b6003840892506112dd8361314a565b8092508194505050801561134257841561132057827f30644e72e131a029b85045b68181585d97816a916871ca8d3c208c16d87cfd4761131d9190614bc9565b92505b6040518060400160405280878152602001848152509650505050505050611588565b7f30644e72e131a029b85045b68181585d97816a916871ca8d3c208c16d87cfd478061137157611370614b6b565b5b84850995507f30644e72e131a029b85045b68181585d97816a916871ca8d3c208c16d87cfd47806113a5576113a4614b6b565b5b86870995507f30644e72e131a029b85045b68181585d97816a916871ca8d3c208c16d87cfd47806113d9576113d8614b6b565b5b82870995507f30644e72e131a029b85045b68181585d97816a916871ca8d3c208c16d87cfd478061140d5761140c614b6b565b5b82870995507f30644e72e131a029b85045b68181585d97816a916871ca8d3c208c16d87cfd478061144157611440614b6b565b5b6001870895507f30644e72e131a029b85045b68181585d97816a916871ca8d3c208c16d87cfd478061147657611475614b6b565b5b86870992507f30644e72e131a029b85045b68181585d97816a916871ca8d3c208c16d87cfd47806114aa576114a9614b6b565b5b86840992507f30644e72e131a029b85045b68181585d97816a916871ca8d3c208c16d87cfd47806114de576114dd614b6b565b5b6003840892506114ed8361314a565b809250819450505080611535576040517f08c379a000000000000000000000000000000000000000000000000000000000815260040161152c90614c6f565b60405180910390fd5b841561156a57827f30644e72e131a029b85045b68181585d97816a916871ca8d3c208c16d87cfd476115679190614bc9565b92505b60405180604001604052808781526020018481525096505050505050505b919050565b600080600083015160208401517f30644e72e131a029b85045b68181585d97816a916871ca8d3c208c16d87cfd478283097f30644e72e131a029b85045b68181585d97816a916871ca8d3c208c16d87cfd4782830981828301017f30644e72e131a029b85045b68181585d97816a916871ca8d3c208c16d87cfd4782838401087f30644e72e131a029b85045b68181585d97816a916871ca8d3c208c16d87cfd4786827f30644e72e131a029b85045b68181585d97816a916871ca8d3c208c16d87cfd470386010993507f30644e72e131a029b85045b68181585d97816a916871ca8d3c208c16d87cfd4785847f30644e72e131a029b85045b68181585d97816a916871ca8d3c208c16d87cfd470384010992507f2b149d40ceb8aaae81be18991be06ac3b5b4c5e559dbefa33267e6dc24a138e5840195507e9713b03af0fed4cd2cafadeed8fdf4a74fa084e52d1852e4a2bd0685c315d2830194507f30644e72e131a029b85045b68181585d97816a916871ca8d3c208c16d87cfd47808687097f30644e72e131a029b85045b68181585d97816a916871ca8d3c208c16d87cfd4788890908955060405160208152602080820152602060408201528660608201527f183227397098d014dc2822db40c0ac2ecbc0b548b438e5469e10460b6c3e7ea360808201527f30644e72e131a029b85045b68181585d97816a916871ca8d3c208c16d87cfd4760a082015260208160c08360056107d05a03fa9750805160011498505050505050505050919050565b600080600060405160208152602080820152602060408201528460608201527f0c19139cb84c680a6e14116da060561765e05aa45a1c72a34f082305b61f3f5260808201527f30644e72e131a029b85045b68181585d97816a916871ca8d3c208c16d87cfd4760a082015260208160c08360056107d05a03fa9150805193507f30644e72e131a029b85045b68181585d97816a916871ca8d3c208c16d87cfd478485098514925050806118a8576040517f08c379a000000000000000000000000000000000000000000000000000000000815260040161189f90614cdb565b60405180910390fd5b50915091565b6000807f30644e72e131a029b85045b68181585d97816a916871ca8d3c208c16d87cfd47806118e0576118df614b6b565b5b7f30644e72e131a029b85045b68181585d97816a916871ca8d3c208c16d87cfd478061190f5761190e614b6b565b5b8460016002811061192357611922614a07565b5b60200201518560016002811061193c5761193b614a07565b5b6020020151097f30644e72e131a029b85045b68181585d97816a916871ca8d3c208c16d87cfd478061197157611970614b6b565b5b8560006002811061198557611984614a07565b5b60200201518660006002811061199e5761199d614a07565b5b602002015109089050600060405160208152602080820152602060408201528260608201527f183227397098d014dc2822db40c0ac2ecbc0b548b438e5469e10460b6c3e7ea360808201527f30644e72e131a029b85045b68181585d97816a916871ca8d3c208c16d87cfd4760a082015260208160c08360056107d05a03fa9150805160011493505080611a67576040517f08c379a0000000000000000000000000000000000000000000000000000000008152600401611a5e90614d6d565b60405180910390fd5b821592505050919050565b611a7a614057565b6000611a868484612fa7565b90506000611aab82600060028110611aa157611aa0614a07565b5b6020020151610e41565b90506000611ad083600160028110611ac657611ac5614a07565b5b6020020151610e41565b9050611ada614035565b82600060028110611aee57611aed614a07565b5b602002015181600060048110611b0757611b06614a07565b5b60200201818152505082600160028110611b2457611b23614a07565b5b602002015181600160048110611b3d57611b3c614a07565b5b60200201818152505081600060028110611b5a57611b59614a07565b5b602002015181600260048110611b7357611b72614a07565b5b60200201818152505081600160028110611b9057611b8f614a07565b5b602002015181600360048110611ba957611ba8614a07565b5b602002018181525050600060408460808460066107d05a03fa90508060008103611bcf57fe5b5080611c10576040517f08c379a0000000000000000000000000000000000000000000000000000000008152600401611c0790614db3565b60405180910390fd5b839550505050505092915050565b60008060405180610180016040528086600060028110611c4157611c40614a07565b5b6020020151815260200186600160028110611c5f57611c5e614a07565b5b602002015181526020017f198e9393920d483a7260bfb731fb5d25f1aa493335a9e71297e485b7aef312c281526020017f1800deef121f1e76426a00665e5c4479674322d4f75edadd46debd5cd992f6ed81526020017f275dc4a288d1afb3cbb1ac09187524c7db36395df7be3b99e673b13a075a65ec81526020017f1d9befcd05a5323e6da4d435f3b617cdb3af83285c2df711ef39c01571827f9d815260200184600060028110611d1557611d14614a07565b5b6020020151815260200184600160028110611d3357611d32614a07565b5b6020020151815260200185600160048110611d5157611d50614a07565b5b6020020151815260200185600060048110611d6f57611d6e614a07565b5b6020020151815260200185600360048110611d8d57611d8c614a07565b5b6020020151815260200185600260048110611dab57611daa614a07565b5b60200201518152509050611dbd614079565b60006020826101808560086107d05a03fa90508060008103611ddb57fe5b5080611e1c576040517f08c379a0000000000000000000000000000000000000000000000000000000008152600401611e1390614db3565b60405180910390fd5b600082600060018110611e3257611e31614a07565b5b6020020151141593505050509392505050565b60606000835190506101008110611e91576040517f08c379a0000000000000000000000000000000000000000000000000000000008152600401611e8890614e1f565b60405180910390fd5b6000835190506000600460408385611ea99190614e3f565b611eb39190614e3f565b611ebd9190614e3f565b67ffffffffffffffff811115611ed657611ed5614185565b5b6040519080825280601f01601f191660200182016040528015611f085781602001600182028036833780820191505090505b5090506000606067ffffffffffffffff811115611f2857611f27614185565b5b6040519080825280601f01601f191660200182016040528015611f5a5781602001600182028036833780820191505090505b5090506060820160005b84811015611f82576020810188015181830152602081019050611f64565b848201915060008253600182019150606082536001820191506000825360018201915060208901518252858201915085825350506000600283604051611fc89190614eaf565b602060405180830381855afa158015611fe5573d6000803e3d6000fd5b5050506040513d601f19601f820116820180604052508101906120089190614edb565b905060006022866120199190614e3f565b94508484528160208501526001604085015360208901516041850152856041870185015360028460405161204d9190614eaf565b602060405180830381855afa15801561206a573d6000803e3d6000fd5b5050506040513d601f19601f8201168201806040525081019061208d9190614edb565b90508060208401528082188060208601526002604086015360208a015160418601528660418801860153506002846040516120c89190614eaf565b602060405180830381855afa1580156120e5573d6000803e3d6000fd5b5050506040513d601f19601f820116820180604052508101906121089190614edb565b90508060408401528082188060208601526003604086015360208a015160418601528660418801860153506002846040516121439190614eaf565b602060405180830381855afa158015612160573d6000803e3d6000fd5b5050506040513d601f19601f820116820180604052508101906121839190614edb565b905080606084015282965050505050505092915050565b60008060405160208152602080820152602060408201528360608201527f30644e72e131a029b85045b68181585d97816a916871ca8d3c208c16d87cfd4560808201527f30644e72e131a029b85045b68181585d97816a916871ca8d3c208c16d87cfd4760a082015260208160c08360056107d05a03fa9150805192505080612258576040517f08c379a000000000000000000000000000000000000000000000000000000000815260040161224f90614f54565b60405180910390fd5b50919050565b60008083519050600081116122a8576040517f08c379a000000000000000000000000000000000000000000000000000000000815260040161229f90614fe6565b60405180910390fd5b825181146122eb576040517f08c379a00000000000000000000000000000000000000000000000000000000081526004016122e290615078565b60405180910390fd5b600060066001836122fc9190614e3f565b6123069190615098565b905060008167ffffffffffffffff81111561232457612323614185565b5b6040519080825280602002602001820160405280156123525781602001602082028036833780820191505090505b5090508660006002811061236957612368614a07565b5b60200201518160008151811061238257612381614a07565b5b602002602001018181525050866001600281106123a2576123a1614a07565b5b6020020151816001815181106123bb576123ba614a07565b5b6020026020010181815250507f198e9393920d483a7260bfb731fb5d25f1aa493335a9e71297e485b7aef312c2816002815181106123fc576123fb614a07565b5b6020026020010181815250507f1800deef121f1e76426a00665e5c4479674322d4f75edadd46debd5cd992f6ed8160038151811061243d5761243c614a07565b5b6020026020010181815250507f275dc4a288d1afb3cbb1ac09187524c7db36395df7be3b99e673b13a075a65ec8160048151811061247e5761247d614a07565b5b6020026020010181815250507f1d9befcd05a5323e6da4d435f3b617cdb3af83285c2df711ef39c01571827f9d816005815181106124bf576124be614a07565b5b60200260200101818152505060005b83811015612764578581815181106124e9576124e8614a07565b5b602002602001015160006002811061250457612503614a07565b5b602002015182600680846125189190615098565b6125229190614e3f565b8151811061253357612532614a07565b5b60200260200101818152505085818151811061255257612551614a07565b5b602002602001015160016002811061256d5761256c614a07565b5b60200201518260076006846125829190615098565b61258c9190614e3f565b8151811061259d5761259c614a07565b5b6020026020010181815250508681815181106125bc576125bb614a07565b5b60200260200101516001600481106125d7576125d6614a07565b5b60200201518260086006846125ec9190615098565b6125f69190614e3f565b8151811061260757612606614a07565b5b60200260200101818152505086818151811061262657612625614a07565b5b602002602001015160006004811061264157612640614a07565b5b60200201518260096006846126569190615098565b6126609190614e3f565b8151811061267157612670614a07565b5b6020026020010181815250508681815181106126905761268f614a07565b5b60200260200101516003600481106126ab576126aa614a07565b5b602002015182600a6006846126c09190615098565b6126ca9190614e3f565b815181106126db576126da614a07565b5b6020026020010181815250508681815181106126fa576126f9614a07565b5b602002602001015160026004811061271557612714614a07565b5b602002015182600b60068461272a9190615098565b6127349190614e3f565b8151811061274557612744614a07565b5b602002602001018181525050808061275c906150da565b9150506124ce565b5061276d614079565b6000602082602086026020860160086107d05a03fa9050806000810361278f57fe5b50806127d0576040517f08c379a00000000000000000000000000000000000000000000000000000000081526004016127c790614db3565b60405180910390fd5b6000826000600181106127e6576127e5614a07565b5b60200201511415955050505050509392505050565b6000807f7fffffffffffffffffffffffffffffffffffffffffffffffffffffffffffffff831690507f30644e72e131a029b85045b68181585d97816a916871ca8d3c208c16d87cfd478110612854576000915050612873565b60008103612866576000915050612873565b61286f81610b76565b9150505b919050565b60008060405160208152602080820152602060408201528360608201527f183227397098d014dc2822db40c0ac2ecbc0b548b438e5469e10460b6c3e7ea360808201527f30644e72e131a029b85045b68181585d97816a916871ca8d3c208c16d87cfd4760a082015260208160c08360056107d05a03fa9150805160011492505080612939576040517f08c379a000000000000000000000000000000000000000000000000000000000815260040161293090615194565b60405180910390fd5b8115915050919050565b61294b614057565b60007f30644e72e131a029b85045b68181585d97816a916871ca8d3c208c16d87cfd478360001c61297c91906151b4565b9050600080600090505b600115612abc577f30644e72e131a029b85045b68181585d97816a916871ca8d3c208c16d87cfd47806129bc576129bb614b6b565b5b83840991507f30644e72e131a029b85045b68181585d97816a916871ca8d3c208c16d87cfd47806129f0576129ef614b6b565b5b83830991507f30644e72e131a029b85045b68181585d97816a916871ca8d3c208c16d87cfd4780612a2457612a23614b6b565b5b600383089150612a338261314a565b80925081935050508015612a82578284600060028110612a5657612a55614a07565b5b6020020181815250508184600160028110612a7457612a73614a07565b5b602002018181525050612abc565b7f30644e72e131a029b85045b68181585d97816a916871ca8d3c208c16d87cfd4780612ab157612ab0614b6b565b5b600184089250612986565b505050919050565b612acc614057565b60007f8000000000000000000000000000000000000000000000000000000000000000841690507f8000000000000000000000000000000000000000000000000000000000000000811480612b245750600180841614155b612b63576040517f08c379a0000000000000000000000000000000000000000000000000000000008152600401612b5a90614ab9565b60405180910390fd5b60405180604001604052807f7fffffffffffffffffffffffffffffffffffffffffffffffffffffffffffffff861681526020018481525091505092915050565b6000815160208301517f30644e72e131a029b85045b68181585d97816a916871ca8d3c208c16d87cfd478283097f30644e72e131a029b85045b68181585d97816a916871ca8d3c208c16d87cfd4782830981828301017f30644e72e131a029b85045b68181585d97816a916871ca8d3c208c16d87cfd4782838401087f30644e72e131a029b85045b68181585d97816a916871ca8d3c208c16d87cfd4786827f30644e72e131a029b85045b68181585d97816a916871ca8d3c208c16d87cfd470386010993507f30644e72e131a029b85045b68181585d97816a916871ca8d3c208c16d87cfd4785847f30644e72e131a029b85045b68181585d97816a916871ca8d3c208c16d87cfd470384010992507f30644e72e131a029b85045b68181585d97816a916871ca8d3c208c16d87cfd477f2b149d40ceb8aaae81be18991be06ac3b5b4c5e559dbefa33267e6dc24a138e5850895507f30644e72e131a029b85045b68181585d97816a916871ca8d3c208c16d87cfd477e9713b03af0fed4cd2cafadeed8fdf4a74fa084e52d1852e4a2bd0685c315d28408945060408801519350606088015192507f30644e72e131a029b85045b68181585d97816a916871ca8d3c208c16d87cfd4780847f30644e72e131a029b85045b68181585d97816a916871ca8d3c208c16d87cfd470386087f30644e72e131a029b85045b68181585d97816a916871ca8d3c208c16d87cfd478587080991507f30644e72e131a029b85045b68181585d97816a916871ca8d3c208c16d87cfd47838560011b099250828514828714169650505050505050919050565b6000807f7fffffffffffffffffffffffffffffffffffffffffffffffffffffffffffffff83600060028110612e2f57612e2e614a07565b5b6020020151169050600083600160028110612e4d57612e4c614a07565b5b602002015190507f30644e72e131a029b85045b68181585d97816a916871ca8d3c208c16d87cfd4782101580612ea357507f30644e72e131a029b85045b68181585d97816a916871ca8d3c208c16d87cfd478110155b15612eb357600092505050612ef5565b600082148015612ec35750600081145b15612ed357600092505050612ef5565b612ef060405180604001604052808481526020018381525061158d565b925050505b919050565b6000815160208301517f30644e72e131a029b85045b68181585d97816a916871ca8d3c208c16d87cfd478283097f30644e72e131a029b85045b68181585d97816a916871ca8d3c208c16d87cfd4783820990507f30644e72e131a029b85045b68181585d97816a916871ca8d3c208c16d87cfd476003820890507f30644e72e131a029b85045b68181585d97816a916871ca8d3c208c16d87cfd4782830991508082149350505050919050565b612faf614057565b6000612fbb8484611e45565b90506000806000806018850177ffffffffffffffffffffffffffffffffffffffffffffffff815116935060308601905077ffffffffffffffffffffffffffffffffffffffffffffffff81511694507f30644e72e131a029b85045b68181585d97816a916871ca8d3c208c16d87cfd47857f30644e72e131a029b85045b68181585d97816a916871ca8d3c208c16d87cfd477801000000000000000000000000000000000000000000000000870908925060488601905077ffffffffffffffffffffffffffffffffffffffffffffffff815116935060608601905077ffffffffffffffffffffffffffffffffffffffffffffffff81511694507f30644e72e131a029b85045b68181585d97816a916871ca8d3c208c16d87cfd47857f30644e72e131a029b85045b68181585d97816a916871ca8d3c208c16d87cfd4778010000000000000000000000000000000000000000000000008709089150506040518060400160405280838152602001828152509550505050505092915050565b600061314382613193565b9050919050565b600080613156836138ed565b9150827f30644e72e131a029b85045b68181585d97816a916871ca8d3c208c16d87cfd478061318857613187614b6b565b5b838409149050915091565b60007f30644e72e131a029b85045b68181585d97816a916871ca8d3c208c16d87cfd478083840991508083830981838209828283098385830984848309858484098684850997508684840987858409945087898a09985087898a09985087898a09985087898a09985087898a09985087878a09985087898a09985087898a09985087898a099850878a8a09985087898a09985087898a09985087898a09985087898a099850878a8a09985087898a09985087898a09985087898a09985087898a09985087898a09985087848a09985087898a09985087898a09985087898a09985087898a09985087898a09985087848a09985087898a09985087898a09985087898a099850878a8a09985087898a09985087898a09985087898a09985087898a09985087848a09985087898a09985087898a09985087898a09985087898a09985087898a099850878a8a09985087898a09985087898a09985087898a09985087898a09985087878a09985087898a09985087898a09985087898a09985087898a09985087898a09985087898a09985087898a09985087818a09985087898a09985087898a09985087898a09985087898a09985087898a09985087898a09985087898a09985087898a09985087898a09985087898a09985087868a09985087898a09985087898a09985087898a09985087898a09985087878a09985087898a09985087898a09985087898a09985087898a09985087848a09985087898a09985087898a09985087898a09985087898a09985087898a09985087898a09985087898a09985087868a09985087898a09985087898a09985087898a09985087898a09985087898a09985087898a099850878a8a09985087898a09985087898a09985087898a09985087898a09985087898a09985087898a09985087898a09985087828a09985087898a09985087898a09985087898a09985087898a09985087898a09985087818a09985087898a09985087898a09985087898a09985087868a09985087898a09985087898a09985087898a09985087898a09985087898a09985087898a09985087898a09985087898a09985087878a09985087898a09985087898a09985087898a09985087898a09985087898a09985087898a09985087898a09985087898a09985087898a09985087868a09985087898a09985087898a09985087898a09985087878a09985087898a09985087898a09985087898a09985087898a09985087898a09985087898a09985087898a09985087898a09985087828a09985087898a09985087898a09985087898a09985087898a09985087828a09985087898a09985087898a09985087898a09985087898a09985087898a09985087868a09985087898a09985087898a09985087898a09985087848a09985087898a09985087898a09985087898a09985087898a09985087898a09985087898a09985087898a09985087898a09985087898a09985087898a09985087828a09985087898a09985087898a09985087898a09985087898a09985087868a09985087898a09985087898a09985087898a09985087898a09985087898a09985087838a09985087898a09985087898a09985087898a09985087898a09985087898a09985087898a09985087898a09985087828a09985087898a09985087898a099850878a8a09985087898a09985087898a09985087898a09985087898a09985087898a09985087898a09985087898a09985087848a09985087898a09985087898a09985087898a09985087898a09985087898a09985087898a09985087848a09985087898a09985087898a09985087898a09985087898a09985087898a09985087868a09985087898a09985087898a099850878a8a09985087898a09985087898a09985087898a09985087898a09985087898a09985087898a09985087898a09985087818a09985087898a09985087898a09985087898a09985087898a09985087898a09985087898a09985087858a09985087898a09985087898a09985087898a09985087898a09985087898a099850878a8a09985087898a09985087898a09985087898a09985087898a09985087898a09985087898a099850878a8a09985087898a09985087898a09985087898a09985087898a09985087898a09985087878a09985087898a09985087898a09985087898a09985087898a09985087898a09985087898a09985087898a09985087898a09985087898a09985087828a09985087898a09985087898a09985087898a09985087878a09985087898a09985087898a09985087898a09985087878a09985087898a09985087898a09985087898a09985087898a09985087898a09985087898a09985087898a09985087898a09985087858a09985087898a09985087898a09985087898a09985087898a09985087838a09985087898a09985087898a09985087898a09985087898a09985087858a09985087898a09985087898a09985087898a09985087868a09985087898a09985087898a099850878a8a09985087898a09985087898a09985087898a09985087898a09985087898a09985087898a09985087868a0998505050505050505050919050565b60007f30644e72e131a029b85045b68181585d97816a916871ca8d3c208c16d87cfd478083840991508083830981838209828283098385830984848309858484098684850997508684840987858409945087898a09985087898a09985087898a09985087898a09985087898a09985087878a09985087898a09985087898a09985087898a099850878a8a09985087898a09985087898a09985087898a09985087898a099850878a8a09985087898a09985087898a09985087898a09985087898a09985087898a09985087848a09985087898a09985087898a09985087898a09985087898a09985087898a09985087848a09985087898a09985087898a09985087898a099850878a8a09985087898a09985087898a09985087898a09985087898a09985087848a09985087898a09985087898a09985087898a09985087898a09985087898a099850878a8a09985087898a09985087898a09985087898a09985087898a09985087878a09985087898a09985087898a09985087898a09985087898a09985087898a09985087898a09985087898a09985087818a09985087898a09985087898a09985087898a09985087898a09985087898a09985087898a09985087898a09985087898a09985087898a09985087898a09985087868a09985087898a09985087898a09985087898a09985087898a09985087878a09985087898a09985087898a09985087898a09985087898a09985087848a09985087898a09985087898a09985087898a09985087898a09985087898a09985087898a09985087898a09985087868a09985087898a09985087898a09985087898a09985087898a09985087898a09985087898a099850878a8a09985087898a09985087898a09985087898a09985087898a09985087898a09985087898a09985087898a09985087828a09985087898a09985087898a09985087898a09985087898a09985087898a09985087818a09985087898a09985087898a09985087898a09985087868a09985087898a09985087898a09985087898a09985087898a09985087898a09985087898a09985087898a09985087898a09985087878a09985087898a09985087898a09985087898a09985087898a09985087898a09985087898a09985087898a09985087898a09985087898a09985087868a09985087898a09985087898a09985087898a09985087878a09985087898a09985087898a09985087898a09985087898a09985087898a09985087898a09985087898a09985087898a09985087828a09985087898a09985087898a09985087898a09985087898a09985087828a09985087898a09985087898a09985087898a09985087898a09985087898a09985087868a09985087898a09985087898a09985087898a09985087848a09985087898a09985087898a09985087898a09985087898a09985087898a09985087898a09985087898a09985087898a09985087898a09985087898a09985087828a09985087898a09985087898a09985087898a09985087898a09985087868a09985087898a09985087898a09985087898a09985087898a09985087898a09985087838a09985087898a09985087898a09985087898a09985087898a09985087898a09985087898a09985087898a09985087828a09985087898a09985087898a099850878a8a09985087898a09985087898a09985087898a09985087898a09985087898a09985087898a09985087898a09985087848a09985087898a09985087898a09985087898a09985087898a09985087898a09985087898a09985087848a09985087898a09985087898a09985087898a09985087898a09985087898a09985087868a09985087898a09985087898a099850878a8a09985087898a09985087898a09985087898a09985087898a09985087898a09985087898a09985087898a09985087818a09985087898a09985087898a09985087898a09985087898a09985087898a09985087898a09985087858a09985087898a09985087898a09985087898a09985087898a09985087898a099850878a8a09985087898a09985087898a09985087898a09985087898a09985087898a09985087898a099850878a8a09985087898a09985087898a09985087898a09985087898a09985087898a09985087878a09985087898a09985087898a09985087898a09985087898a09985087898a09985087898a09985087898a09985087898a09985087898a09985087828a09985087898a09985087898a09985087898a09985087878a09985087898a09985087898a09985087898a09985087878a09985087898a09985087898a09985087898a09985087898a09985087898a09985087898a09985087898a09985087898a09985087858a09985087898a09985087898a09985087898a09985087898a09985087838a09985087898a09985087898a09985087898a09985087898a09985087858a09985087898a09985087898a09985087898a09985087868a09985087898a09985087898a09985087898a09985087898a09985087898a09985087838a09985087898a0998505050505050505050919050565b6040518060800160405280600490602082028036833780820191505090505090565b6040518060400160405280600290602082028036833780820191505090505090565b6040518060200160405280600190602082028036833780820191505090505090565b6000604051905090565b600080fd5b600080fd5b6000819050919050565b6140c2816140af565b81146140cd57600080fd5b50565b6000813590506140df816140b9565b92915050565b6000602082840312156140fb576140fa6140a5565b5b6000614109848285016140d0565b91505092915050565b60008115159050919050565b61412781614112565b82525050565b6000602082019050614142600083018461411e565b92915050565b600080fd5b60008190508260206002028201111561416957614168614148565b5b92915050565b600080fd5b6000601f19601f8301169050919050565b7f4e487b7100000000000000000000000000000000000000000000000000000000600052604160045260246000fd5b6141bd82614174565b810181811067ffffffffffffffff821117156141dc576141db614185565b5b80604052505050565b60006141ef61409b565b90506141fb82826141b4565b919050565b600067ffffffffffffffff82111561421b5761421a614185565b5b602082029050919050565b600061423961423484614200565b6141e5565b9050806020840283018581111561425357614252614148565b5b835b8181101561427c578061426888826140d0565b845260208401935050602081019050614255565b5050509392505050565b600082601f83011261429b5761429a61416f565b5b60026142a8848285614226565b91505092915050565b600080608083850312156142c8576142c76140a5565b5b60006142d68582860161414d565b92505060406142e785828601614286565b9150509250929050565b600060049050919050565b600081905092915050565b6000819050919050565b61431a816140af565b82525050565b600061432c8383614311565b60208301905092915050565b6000602082019050919050565b61434e816142f1565b61435881846142fc565b925061436382614307565b8060005b8381101561439457815161437b8782614320565b965061438683614338565b925050600181019050614367565b505050505050565b60006080820190506143b16000830184614345565b92915050565b600060029050919050565b600081905092915050565b6000819050919050565b6000602082019050919050565b6143ed816143b7565b6143f781846143c2565b9250614402826143cd565b8060005b8381101561443357815161441a8782614320565b9650614425836143d7565b925050600181019050614406565b505050505050565b600060408201905061445060008301846143e4565b92915050565b60006040828403121561446c5761446b6140a5565b5b600061447a8482850161414d565b91505092915050565b61448c816140af565b82525050565b60006040820190506144a76000830185614483565b6144b4602083018461411e565b9392505050565b600080fd5b600067ffffffffffffffff8211156144db576144da614185565b5b6144e482614174565b9050602081019050919050565b82818337600083830152505050565b600061451361450e846144c0565b6141e5565b90508281526020810184848401111561452f5761452e6144bb565b5b61453a8482856144f1565b509392505050565b600082601f8301126145575761455661416f565b5b8135614567848260208601614500565b91505092915050565b60008060408385031215614587576145866140a5565b5b600083013567ffffffffffffffff8111156145a5576145a46140aa565b5b6145b185828601614542565b925050602083013567ffffffffffffffff8111156145d2576145d16140aa565b5b6145de85828601614542565b9150509250929050565b60008190508260206004028201111561460457614603614148565b5b92915050565b60008060006101008486031215614624576146236140a5565b5b60006146328682870161414d565b9350506040614643868287016145e8565b92505060c06146548682870161414d565b9150509250925092565b600080fd5b60008083601f8401126146795761467861416f565b5b8235905067ffffffffffffffff8111156146965761469561465e565b5b6020830191508360018202830111156146b2576146b1614148565b5b9250929050565b600080600080604085870312156146d3576146d26140a5565b5b600085013567ffffffffffffffff8111156146f1576146f06140aa565b5b6146fd87828801614663565b9450945050602085013567ffffffffffffffff8111156147205761471f6140aa565b5b61472c87828801614663565b925092505092959194509250565b600081519050919050565b600082825260208201905092915050565b60005b83811015614774578082015181840152602081019050614759565b60008484015250505050565b600061478b8261473a565b6147958185614745565b93506147a5818560208601614756565b6147ae81614174565b840191505092915050565b600060208201905081810360008301526147d38184614780565b905092915050565b60006020820190506147f06000830184614483565b92915050565b60008083601f84011261480c5761480b61416f565b5b8235905067ffffffffffffffff8111156148295761482861465e565b5b60208301915083608082028301111561484557614844614148565b5b9250929050565b60008083601f8401126148625761486161416f565b5b8235905067ffffffffffffffff81111561487f5761487e61465e565b5b60208301915083604082028301111561489b5761489a614148565b5b9250929050565b6000806000806000608086880312156148be576148bd6140a5565b5b60006148cc8882890161414d565b955050604086013567ffffffffffffffff8111156148ed576148ec6140aa565b5b6148f9888289016147f6565b9450945050606086013567ffffffffffffffff81111561491c5761491b6140aa565b5b6149288882890161484c565b92509250509295509295909350565b6000819050919050565b61494a81614937565b811461495557600080fd5b50565b60008135905061496781614941565b92915050565b600060208284031215614983576149826140a5565b5b600061499184828501614958565b91505092915050565b600080604083850312156149b1576149b06140a5565b5b60006149bf858286016140d0565b92505060206149d0858286016140d0565b9150509250929050565b6000608082840312156149f0576149ef6140a5565b5b60006149fe848285016145e8565b91505092915050565b7f4e487b7100000000000000000000000000000000000000000000000000000000600052603260045260246000fd5b600082825260208201905092915050565b7f424c533a20626164207920636f6f7264696e61746520666f7220756e636f6d7060008201527f72657373696e67206b6579000000000000000000000000000000000000000000602082015250565b6000614aa3602b83614a36565b9150614aae82614a47565b604082019050919050565b60006020820190508181036000830152614ad281614a96565b9050919050565b7f6d6170546f506f696e7446543a20696e76616c6964206669656c6420656c656d60008201527f656e740000000000000000000000000000000000000000000000000000000000602082015250565b6000614b35602383614a36565b9150614b4082614ad9565b604082019050919050565b60006020820190508181036000830152614b6481614b28565b9050919050565b7f4e487b7100000000000000000000000000000000000000000000000000000000600052601260045260246000fd5b7f4e487b7100000000000000000000000000000000000000000000000000000000600052601160045260246000fd5b6000614bd4826140af565b9150614bdf836140af565b9250828203905081811115614bf757614bf6614b9a565b5b92915050565b7f424c533a20626164206674206d617070696e6720696d706c656d656e7461746960008201527f6f6e000000000000000000000000000000000000000000000000000000000000602082015250565b6000614c59602283614a36565b9150614c6482614bfd565b604082019050919050565b60006020820190508181036000830152614c8881614c4c565b9050919050565b7f424c533a2073717274206d6f646578702063616c6c206661696c656400000000600082015250565b6000614cc5601c83614a36565b9150614cd082614c8f565b602082019050919050565b60006020820190508181036000830152614cf481614cb8565b9050919050565b7f424c533a2069734e6f6e52657369647565465032206d6f646578702063616c6c60008201527f206661696c656400000000000000000000000000000000000000000000000000602082015250565b6000614d57602783614a36565b9150614d6282614cfb565b604082019050919050565b60006020820190508181036000830152614d8681614d4a565b9050919050565b50565b6000614d9d600083614a36565b9150614da882614d8d565b600082019050919050565b60006020820190508181036000830152614dcc81614d90565b9050919050565b7f424c533a20696e76616c696420646f6d61696e206c656e677468000000000000600082015250565b6000614e09601a83614a36565b9150614e1482614dd3565b602082019050919050565b60006020820190508181036000830152614e3881614dfc565b9050919050565b6000614e4a826140af565b9150614e55836140af565b9250828201905080821115614e6d57614e6c614b9a565b5b92915050565b600081905092915050565b6000614e898261473a565b614e938185614e73565b9350614ea3818560208601614756565b80840191505092915050565b6000614ebb8284614e7e565b915081905092915050565b600081519050614ed581614941565b92915050565b600060208284031215614ef157614ef06140a5565b5b6000614eff84828501614ec6565b91505092915050565b7f424c533a20696e7665727365206d6f646578702063616c6c206661696c656400600082015250565b6000614f3e601f83614a36565b9150614f4982614f08565b602082019050919050565b60006020820190508181036000830152614f6d81614f31565b9050919050565b7f424c533a206e756d626572206f66207075626c6963206b6579206973207a657260008201527f6f00000000000000000000000000000000000000000000000000000000000000602082015250565b6000614fd0602183614a36565b9150614fdb82614f74565b604082019050919050565b60006020820190508181036000830152614fff81614fc3565b9050919050565b7f424c533a206e756d626572206f66207075626c6963206b65797320616e64206d60008201527f65737361676573206d75737420626520657175616c0000000000000000000000602082015250565b6000615062603583614a36565b915061506d82615006565b604082019050919050565b6000602082019050818103600083015261509181615055565b9050919050565b60006150a3826140af565b91506150ae836140af565b92508282026150bc816140af565b915082820484148315176150d3576150d2614b9a565b5b5092915050565b60006150e5826140af565b91507fffffffffffffffffffffffffffffffffffffffffffffffffffffffffffffffff820361511757615116614b9a565b5b600182019050919050565b7f424c533a2069734e6f6e526573696475654650206d6f646578702063616c6c2060008201527f6661696c65640000000000000000000000000000000000000000000000000000602082015250565b600061517e602683614a36565b915061518982615122565b604082019050919050565b600060208201905081810360008301526151ad81615171565b9050919050565b60006151bf826140af565b91506151ca836140af565b9250826151da576151d9614b6b565b5b82820690509291505056fea26469706673582212205e8ef76fec279e66d245d46cd05a915a3819b95f3f5b12a302fba56dd291108264736f6c63430008130033","opcodes":"PUSH1 0x80 PUSH1 0x40 MSTORE CALLVALUE DUP1 ISZERO PUSH2 0x10 JUMPI PUSH1 0x0 DUP1 REVERT JUMPDEST POP PUSH2 0x521B DUP1 PUSH2 0x20 PUSH1 0x0 CODECOPY PUSH1 0x0 RETURN INVALID PUSH1 0x80 PUSH1 0x40 MSTORE CALLVALUE DUP1 ISZERO PUSH2 0x10 JUMPI PUSH1 0x0 DUP1 REVERT JUMPDEST POP PUSH1 0x4 CALLDATASIZE LT PUSH2 0x137 JUMPI PUSH1 0x0 CALLDATALOAD PUSH1 0xE0 SHR DUP1 PUSH4 0x90BAAB7F GT PUSH2 0xB8 JUMPI DUP1 PUSH4 0xE1FCAD4A GT PUSH2 0x7C JUMPI DUP1 PUSH4 0xE1FCAD4A EQ PUSH2 0x40D JUMPI DUP1 PUSH4 0xF45DDED6 EQ PUSH2 0x43D JUMPI DUP1 PUSH4 0xF66D032F EQ PUSH2 0x46D JUMPI DUP1 PUSH4 0xF73CAEA8 EQ PUSH2 0x49D JUMPI DUP1 PUSH4 0xF8C6C05F EQ PUSH2 0x4CD JUMPI DUP1 PUSH4 0xFFEF569C EQ PUSH2 0x4FD JUMPI PUSH2 0x137 JUMP JUMPDEST DUP1 PUSH4 0x90BAAB7F EQ PUSH2 0x31D JUMPI DUP1 PUSH4 0x91717524 EQ PUSH2 0x34D JUMPI DUP1 PUSH4 0xAC39A635 EQ PUSH2 0x37D JUMPI DUP1 PUSH4 0xB4A5EACA EQ PUSH2 0x3AD JUMPI DUP1 PUSH4 0xCA608D01 EQ PUSH2 0x3DD JUMPI PUSH2 0x137 JUMP JUMPDEST DUP1 PUSH4 0x6E000F02 GT PUSH2 0xFF JUMPI DUP1 PUSH4 0x6E000F02 EQ PUSH2 0x22D JUMPI DUP1 PUSH4 0x75E06650 EQ PUSH2 0x25D JUMPI DUP1 PUSH4 0x78D8BE24 EQ PUSH2 0x28D JUMPI DUP1 PUSH4 0x85A2B168 EQ PUSH2 0x2BD JUMPI DUP1 PUSH4 0x8CECF66E EQ PUSH2 0x2ED JUMPI PUSH2 0x137 JUMP JUMPDEST DUP1 PUSH4 0x2758EBCE EQ PUSH2 0x13C JUMPI DUP1 PUSH4 0x384CD5C4 EQ PUSH2 0x16C JUMPI DUP1 PUSH4 0x4BFC36E4 EQ PUSH2 0x19C JUMPI DUP1 PUSH4 0x50C406F7 EQ PUSH2 0x1CC JUMPI DUP1 PUSH4 0x6A263F02 EQ PUSH2 0x1FC JUMPI JUMPDEST PUSH1 0x0 DUP1 REVERT JUMPDEST PUSH2 0x156 PUSH1 0x4 DUP1 CALLDATASIZE SUB DUP2 ADD SWAP1 PUSH2 0x151 SWAP2 SWAP1 PUSH2 0x40E5 JUMP JUMPDEST PUSH2 0x52E JUMP JUMPDEST PUSH1 0x40 MLOAD PUSH2 0x163 SWAP2 SWAP1 PUSH2 0x412D JUMP JUMPDEST PUSH1 0x40 MLOAD DUP1 SWAP2 SUB SWAP1 RETURN JUMPDEST PUSH2 0x186 PUSH1 0x4 DUP1 CALLDATASIZE SUB DUP2 ADD SWAP1 PUSH2 0x181 SWAP2 SWAP1 PUSH2 0x42B1 JUMP JUMPDEST PUSH2 0x562 JUMP JUMPDEST PUSH1 0x40 MLOAD PUSH2 0x193 SWAP2 SWAP1 PUSH2 0x439C JUMP JUMPDEST PUSH1 0x40 MLOAD DUP1 SWAP2 SUB SWAP1 RETURN JUMPDEST PUSH2 0x1B6 PUSH1 0x4 DUP1 CALLDATASIZE SUB DUP2 ADD SWAP1 PUSH2 0x1B1 SWAP2 SWAP1 PUSH2 0x40E5 JUMP JUMPDEST PUSH2 0x5B3 JUMP JUMPDEST PUSH1 0x40 MLOAD PUSH2 0x1C3 SWAP2 SWAP1 PUSH2 0x443B JUMP JUMPDEST PUSH1 0x40 MLOAD DUP1 SWAP2 SUB SWAP1 RETURN JUMPDEST PUSH2 0x1E6 PUSH1 0x4 DUP1 CALLDATASIZE SUB DUP2 ADD SWAP1 PUSH2 0x1E1 SWAP2 SWAP1 PUSH2 0x4456 JUMP JUMPDEST PUSH2 0x5CB JUMP JUMPDEST PUSH1 0x40 MLOAD PUSH2 0x1F3 SWAP2 SWAP1 PUSH2 0x412D JUMP JUMPDEST PUSH1 0x40 MLOAD DUP1 SWAP2 SUB SWAP1 RETURN JUMPDEST PUSH2 0x216 PUSH1 0x4 DUP1 CALLDATASIZE SUB DUP2 ADD SWAP1 PUSH2 0x211 SWAP2 SWAP1 PUSH2 0x40E5 JUMP JUMPDEST PUSH2 0x64E JUMP JUMPDEST PUSH1 0x40 MLOAD PUSH2 0x224 SWAP3 SWAP2 SWAP1 PUSH2 0x4492 JUMP JUMPDEST PUSH1 0x40 MLOAD DUP1 SWAP2 SUB SWAP1 RETURN JUMPDEST PUSH2 0x247 PUSH1 0x4 DUP1 CALLDATASIZE SUB DUP2 ADD SWAP1 PUSH2 0x242 SWAP2 SWAP1 PUSH2 0x4456 JUMP JUMPDEST PUSH2 0x663 JUMP JUMPDEST PUSH1 0x40 MLOAD PUSH2 0x254 SWAP2 SWAP1 PUSH2 0x412D JUMP JUMPDEST PUSH1 0x40 MLOAD DUP1 SWAP2 SUB SWAP1 RETURN JUMPDEST PUSH2 0x277 PUSH1 0x4 DUP1 CALLDATASIZE SUB DUP2 ADD SWAP1 PUSH2 0x272 SWAP2 SWAP1 PUSH2 0x4570 JUMP JUMPDEST PUSH2 0x6AC JUMP JUMPDEST PUSH1 0x40 MLOAD PUSH2 0x284 SWAP2 SWAP1 PUSH2 0x443B JUMP JUMPDEST PUSH1 0x40 MLOAD DUP1 SWAP2 SUB SWAP1 RETURN JUMPDEST PUSH2 0x2A7 PUSH1 0x4 DUP1 CALLDATASIZE SUB DUP2 ADD SWAP1 PUSH2 0x2A2 SWAP2 SWAP1 PUSH2 0x460A JUMP JUMPDEST PUSH2 0x6C6 JUMP JUMPDEST PUSH1 0x40 MLOAD PUSH2 0x2B4 SWAP2 SWAP1 PUSH2 0x412D JUMP JUMPDEST PUSH1 0x40 MLOAD DUP1 SWAP2 SUB SWAP1 RETURN JUMPDEST PUSH2 0x2D7 PUSH1 0x4 DUP1 CALLDATASIZE SUB DUP2 ADD SWAP1 PUSH2 0x2D2 SWAP2 SWAP1 PUSH2 0x46B9 JUMP JUMPDEST PUSH2 0x781 JUMP JUMPDEST PUSH1 0x40 MLOAD PUSH2 0x2E4 SWAP2 SWAP1 PUSH2 0x47B9 JUMP JUMPDEST PUSH1 0x40 MLOAD DUP1 SWAP2 SUB SWAP1 RETURN JUMPDEST PUSH2 0x307 PUSH1 0x4 DUP1 CALLDATASIZE SUB DUP2 ADD SWAP1 PUSH2 0x302 SWAP2 SWAP1 PUSH2 0x40E5 JUMP JUMPDEST PUSH2 0x81F JUMP JUMPDEST PUSH1 0x40 MLOAD PUSH2 0x314 SWAP2 SWAP1 PUSH2 0x47DB JUMP JUMPDEST PUSH1 0x40 MLOAD DUP1 SWAP2 SUB SWAP1 RETURN JUMPDEST PUSH2 0x337 PUSH1 0x4 DUP1 CALLDATASIZE SUB DUP2 ADD SWAP1 PUSH2 0x332 SWAP2 SWAP1 PUSH2 0x48A2 JUMP JUMPDEST PUSH2 0x831 JUMP JUMPDEST PUSH1 0x40 MLOAD PUSH2 0x344 SWAP2 SWAP1 PUSH2 0x412D JUMP JUMPDEST PUSH1 0x40 MLOAD DUP1 SWAP2 SUB SWAP1 RETURN JUMPDEST PUSH2 0x367 PUSH1 0x4 DUP1 CALLDATASIZE SUB DUP2 ADD SWAP1 PUSH2 0x362 SWAP2 SWAP1 PUSH2 0x40E5 JUMP JUMPDEST PUSH2 0x97A JUMP JUMPDEST PUSH1 0x40 MLOAD PUSH2 0x374 SWAP2 SWAP1 PUSH2 0x412D JUMP JUMPDEST PUSH1 0x40 MLOAD DUP1 SWAP2 SUB SWAP1 RETURN JUMPDEST PUSH2 0x397 PUSH1 0x4 DUP1 CALLDATASIZE SUB DUP2 ADD SWAP1 PUSH2 0x392 SWAP2 SWAP1 PUSH2 0x40E5 JUMP JUMPDEST PUSH2 0x98C JUMP JUMPDEST PUSH1 0x40 MLOAD PUSH2 0x3A4 SWAP2 SWAP1 PUSH2 0x412D JUMP JUMPDEST PUSH1 0x40 MLOAD DUP1 SWAP2 SUB SWAP1 RETURN JUMPDEST PUSH2 0x3C7 PUSH1 0x4 DUP1 CALLDATASIZE SUB DUP2 ADD SWAP1 PUSH2 0x3C2 SWAP2 SWAP1 PUSH2 0x496D JUMP JUMPDEST PUSH2 0x99E JUMP JUMPDEST PUSH1 0x40 MLOAD PUSH2 0x3D4 SWAP2 SWAP1 PUSH2 0x443B JUMP JUMPDEST PUSH1 0x40 MLOAD DUP1 SWAP2 SUB SWAP1 RETURN JUMPDEST PUSH2 0x3F7 PUSH1 0x4 DUP1 CALLDATASIZE SUB DUP2 ADD SWAP1 PUSH2 0x3F2 SWAP2 SWAP1 PUSH2 0x499A JUMP JUMPDEST PUSH2 0x9B6 JUMP JUMPDEST PUSH1 0x40 MLOAD PUSH2 0x404 SWAP2 SWAP1 PUSH2 0x443B JUMP JUMPDEST PUSH1 0x40 MLOAD DUP1 SWAP2 SUB SWAP1 RETURN JUMPDEST PUSH2 0x427 PUSH1 0x4 DUP1 CALLDATASIZE SUB DUP2 ADD SWAP1 PUSH2 0x422 SWAP2 SWAP1 PUSH2 0x49DA JUMP JUMPDEST PUSH2 0x9D0 JUMP JUMPDEST PUSH1 0x40 MLOAD PUSH2 0x434 SWAP2 SWAP1 PUSH2 0x412D JUMP JUMPDEST PUSH1 0x40 MLOAD DUP1 SWAP2 SUB SWAP1 RETURN JUMPDEST PUSH2 0x457 PUSH1 0x4 DUP1 CALLDATASIZE SUB DUP2 ADD SWAP1 PUSH2 0x452 SWAP2 SWAP1 PUSH2 0x4456 JUMP JUMPDEST PUSH2 0xA19 JUMP JUMPDEST PUSH1 0x40 MLOAD PUSH2 0x464 SWAP2 SWAP1 PUSH2 0x412D JUMP JUMPDEST PUSH1 0x40 MLOAD DUP1 SWAP2 SUB SWAP1 RETURN JUMPDEST PUSH2 0x487 PUSH1 0x4 DUP1 CALLDATASIZE SUB DUP2 ADD SWAP1 PUSH2 0x482 SWAP2 SWAP1 PUSH2 0x4456 JUMP JUMPDEST PUSH2 0xA62 JUMP JUMPDEST PUSH1 0x40 MLOAD PUSH2 0x494 SWAP2 SWAP1 PUSH2 0x412D JUMP JUMPDEST PUSH1 0x40 MLOAD DUP1 SWAP2 SUB SWAP1 RETURN JUMPDEST PUSH2 0x4B7 PUSH1 0x4 DUP1 CALLDATASIZE SUB DUP2 ADD SWAP1 PUSH2 0x4B2 SWAP2 SWAP1 PUSH2 0x46B9 JUMP JUMPDEST PUSH2 0xAAB JUMP JUMPDEST PUSH1 0x40 MLOAD PUSH2 0x4C4 SWAP2 SWAP1 PUSH2 0x443B JUMP JUMPDEST PUSH1 0x40 MLOAD DUP1 SWAP2 SUB SWAP1 RETURN JUMPDEST PUSH2 0x4E7 PUSH1 0x4 DUP1 CALLDATASIZE SUB DUP2 ADD SWAP1 PUSH2 0x4E2 SWAP2 SWAP1 PUSH2 0x40E5 JUMP JUMPDEST PUSH2 0xB4F JUMP JUMPDEST PUSH1 0x40 MLOAD PUSH2 0x4F4 SWAP2 SWAP1 PUSH2 0x47DB JUMP JUMPDEST PUSH1 0x40 MLOAD DUP1 SWAP2 SUB SWAP1 RETURN JUMPDEST PUSH2 0x517 PUSH1 0x4 DUP1 CALLDATASIZE SUB DUP2 ADD SWAP1 PUSH2 0x512 SWAP2 SWAP1 PUSH2 0x40E5 JUMP JUMPDEST PUSH2 0xB61 JUMP JUMPDEST PUSH1 0x40 MLOAD PUSH2 0x525 SWAP3 SWAP2 SWAP1 PUSH2 0x4492 JUMP JUMPDEST PUSH1 0x40 MLOAD DUP1 SWAP2 SUB SWAP1 RETURN JUMPDEST PUSH1 0x0 PUSH2 0x55B PUSH32 0x7FFFFFFFFFFFFFFFFFFFFFFFFFFFFFFFFFFFFFFFFFFFFFFFFFFFFFFFFFFFFFFF DUP4 AND PUSH2 0xB76 JUMP JUMPDEST SWAP1 POP SWAP2 SWAP1 POP JUMP JUMPDEST PUSH2 0x56A PUSH2 0x4035 JUMP JUMPDEST PUSH2 0x5AB DUP4 PUSH1 0x2 DUP1 PUSH1 0x20 MUL PUSH1 0x40 MLOAD SWAP1 DUP2 ADD PUSH1 0x40 MSTORE DUP1 SWAP3 SWAP2 SWAP1 DUP3 PUSH1 0x2 PUSH1 0x20 MUL DUP1 DUP3 DUP5 CALLDATACOPY PUSH1 0x0 DUP2 DUP5 ADD MSTORE PUSH1 0x1F NOT PUSH1 0x1F DUP3 ADD AND SWAP1 POP DUP1 DUP4 ADD SWAP3 POP POP POP POP POP POP DUP4 PUSH2 0xC71 JUMP JUMPDEST SWAP1 POP SWAP3 SWAP2 POP POP JUMP JUMPDEST PUSH2 0x5BB PUSH2 0x4057 JUMP JUMPDEST PUSH2 0x5C4 DUP3 PUSH2 0xE41 JUMP JUMPDEST SWAP1 POP SWAP2 SWAP1 POP JUMP JUMPDEST PUSH1 0x0 DUP1 PUSH32 0x7FFFFFFFFFFFFFFFFFFFFFFFFFFFFFFFFFFFFFFFFFFFFFFFFFFFFFFFFFFFFFFF DUP4 PUSH1 0x0 PUSH1 0x2 DUP2 LT PUSH2 0x603 JUMPI PUSH2 0x602 PUSH2 0x4A07 JUMP JUMPDEST JUMPDEST PUSH1 0x20 MUL ADD CALLDATALOAD AND SWAP1 POP PUSH1 0x0 DUP4 PUSH1 0x1 PUSH1 0x2 DUP2 LT PUSH2 0x621 JUMPI PUSH2 0x620 PUSH2 0x4A07 JUMP JUMPDEST JUMPDEST PUSH1 0x20 MUL ADD CALLDATALOAD SWAP1 POP PUSH2 0x645 PUSH1 0x40 MLOAD DUP1 PUSH1 0x40 ADD PUSH1 0x40 MSTORE DUP1 DUP5 DUP2 MSTORE PUSH1 0x20 ADD DUP4 DUP2 MSTORE POP PUSH2 0x158D JUMP JUMPDEST SWAP3 POP POP POP SWAP2 SWAP1 POP JUMP JUMPDEST PUSH1 0x0 DUP1 PUSH2 0x65A DUP4 PUSH2 0x17C0 JUMP JUMPDEST SWAP2 POP SWAP2 POP SWAP2 POP SWAP2 JUMP JUMPDEST PUSH1 0x0 PUSH2 0x6A5 DUP3 PUSH1 0x2 DUP1 PUSH1 0x20 MUL PUSH1 0x40 MLOAD SWAP1 DUP2 ADD PUSH1 0x40 MSTORE DUP1 SWAP3 SWAP2 SWAP1 DUP3 PUSH1 0x2 PUSH1 0x20 MUL DUP1 DUP3 DUP5 CALLDATACOPY PUSH1 0x0 DUP2 DUP5 ADD MSTORE PUSH1 0x1F NOT PUSH1 0x1F DUP3 ADD AND SWAP1 POP DUP1 DUP4 ADD SWAP3 POP POP POP POP POP POP PUSH2 0x18AE JUMP JUMPDEST SWAP1 POP SWAP2 SWAP1 POP JUMP JUMPDEST PUSH2 0x6B4 PUSH2 0x4057 JUMP JUMPDEST PUSH2 0x6BE DUP4 DUP4 PUSH2 0x1A72 JUMP JUMPDEST SWAP1 POP SWAP3 SWAP2 POP POP JUMP JUMPDEST PUSH1 0x0 PUSH2 0x778 DUP5 PUSH1 0x2 DUP1 PUSH1 0x20 MUL PUSH1 0x40 MLOAD SWAP1 DUP2 ADD PUSH1 0x40 MSTORE DUP1 SWAP3 SWAP2 SWAP1 DUP3 PUSH1 0x2 PUSH1 0x20 MUL DUP1 DUP3 DUP5 CALLDATACOPY PUSH1 0x0 DUP2 DUP5 ADD MSTORE PUSH1 0x1F NOT PUSH1 0x1F DUP3 ADD AND SWAP1 POP DUP1 DUP4 ADD SWAP3 POP POP POP POP POP POP DUP5 PUSH1 0x4 DUP1 PUSH1 0x20 MUL PUSH1 0x40 MLOAD SWAP1 DUP2 ADD PUSH1 0x40 MSTORE DUP1 SWAP3 SWAP2 SWAP1 DUP3 PUSH1 0x4 PUSH1 0x20 MUL DUP1 DUP3 DUP5 CALLDATACOPY PUSH1 0x0 DUP2 DUP5 ADD MSTORE PUSH1 0x1F NOT PUSH1 0x1F DUP3 ADD AND SWAP1 POP DUP1 DUP4 ADD SWAP3 POP POP POP POP POP POP DUP5 PUSH1 0x2 DUP1 PUSH1 0x20 MUL PUSH1 0x40 MLOAD SWAP1 DUP2 ADD PUSH1 0x40 MSTORE DUP1 SWAP3 SWAP2 SWAP1 DUP3 PUSH1 0x2 PUSH1 0x20 MUL DUP1 DUP3 DUP5 CALLDATACOPY PUSH1 0x0 DUP2 DUP5 ADD MSTORE PUSH1 0x1F NOT PUSH1 0x1F DUP3 ADD AND SWAP1 POP DUP1 DUP4 ADD SWAP3 POP POP POP POP POP POP PUSH2 0x1C1E JUMP JUMPDEST SWAP1 POP SWAP4 SWAP3 POP POP POP JUMP JUMPDEST PUSH1 0x60 PUSH2 0x815 DUP6 DUP6 DUP1 DUP1 PUSH1 0x1F ADD PUSH1 0x20 DUP1 SWAP2 DIV MUL PUSH1 0x20 ADD PUSH1 0x40 MLOAD SWAP1 DUP2 ADD PUSH1 0x40 MSTORE DUP1 SWAP4 SWAP3 SWAP2 SWAP1 DUP2 DUP2 MSTORE PUSH1 0x20 ADD DUP4 DUP4 DUP1 DUP3 DUP5 CALLDATACOPY PUSH1 0x0 DUP2 DUP5 ADD MSTORE PUSH1 0x1F NOT PUSH1 0x1F DUP3 ADD AND SWAP1 POP DUP1 DUP4 ADD SWAP3 POP POP POP POP POP POP POP DUP5 DUP5 DUP1 DUP1 PUSH1 0x1F ADD PUSH1 0x20 DUP1 SWAP2 DIV MUL PUSH1 0x20 ADD PUSH1 0x40 MLOAD SWAP1 DUP2 ADD PUSH1 0x40 MSTORE DUP1 SWAP4 SWAP3 SWAP2 SWAP1 DUP2 DUP2 MSTORE PUSH1 0x20 ADD DUP4 DUP4 DUP1 DUP3 DUP5 CALLDATACOPY PUSH1 0x0 DUP2 DUP5 ADD MSTORE PUSH1 0x1F NOT PUSH1 0x1F DUP3 ADD AND SWAP1 POP DUP1 DUP4 ADD SWAP3 POP POP POP POP POP POP POP PUSH2 0x1E45 JUMP JUMPDEST SWAP1 POP SWAP5 SWAP4 POP POP POP POP JUMP JUMPDEST PUSH1 0x0 PUSH2 0x82A DUP3 PUSH2 0x219A JUMP JUMPDEST SWAP1 POP SWAP2 SWAP1 POP JUMP JUMPDEST PUSH1 0x0 PUSH2 0x96F DUP7 PUSH1 0x2 DUP1 PUSH1 0x20 MUL PUSH1 0x40 MLOAD SWAP1 DUP2 ADD PUSH1 0x40 MSTORE DUP1 SWAP3 SWAP2 SWAP1 DUP3 PUSH1 0x2 PUSH1 0x20 MUL DUP1 DUP3 DUP5 CALLDATACOPY PUSH1 0x0 DUP2 DUP5 ADD MSTORE PUSH1 0x1F NOT PUSH1 0x1F DUP3 ADD AND SWAP1 POP DUP1 DUP4 ADD SWAP3 POP POP POP POP POP POP DUP7 DUP7 DUP1 DUP1 PUSH1 0x20 MUL PUSH1 0x20 ADD PUSH1 0x40 MLOAD SWAP1 DUP2 ADD PUSH1 0x40 MSTORE DUP1 SWAP4 SWAP3 SWAP2 SWAP1 DUP2 DUP2 MSTORE PUSH1 0x20 ADD PUSH1 0x0 SWAP1 JUMPDEST DUP3 DUP3 LT ISZERO PUSH2 0x8E7 JUMPI DUP5 DUP5 DUP4 SWAP1 POP PUSH1 0x80 MUL ADD PUSH1 0x4 DUP1 PUSH1 0x20 MUL PUSH1 0x40 MLOAD SWAP1 DUP2 ADD PUSH1 0x40 MSTORE DUP1 SWAP3 SWAP2 SWAP1 DUP3 PUSH1 0x4 PUSH1 0x20 MUL DUP1 DUP3 DUP5 CALLDATACOPY PUSH1 0x0 DUP2 DUP5 ADD MSTORE PUSH1 0x1F NOT PUSH1 0x1F DUP3 ADD AND SWAP1 POP DUP1 DUP4 ADD SWAP3 POP POP POP POP POP POP DUP2 MSTORE PUSH1 0x20 ADD SWAP1 PUSH1 0x1 ADD SWAP1 PUSH2 0x890 JUMP JUMPDEST POP POP POP POP POP DUP6 DUP6 DUP1 DUP1 PUSH1 0x20 MUL PUSH1 0x20 ADD PUSH1 0x40 MLOAD SWAP1 DUP2 ADD PUSH1 0x40 MSTORE DUP1 SWAP4 SWAP3 SWAP2 SWAP1 DUP2 DUP2 MSTORE PUSH1 0x20 ADD PUSH1 0x0 SWAP1 JUMPDEST DUP3 DUP3 LT ISZERO PUSH2 0x965 JUMPI DUP5 DUP5 DUP4 SWAP1 POP PUSH1 0x40 MUL ADD PUSH1 0x2 DUP1 PUSH1 0x20 MUL PUSH1 0x40 MLOAD SWAP1 DUP2 ADD PUSH1 0x40 MSTORE DUP1 SWAP3 SWAP2 SWAP1 DUP3 PUSH1 0x2 PUSH1 0x20 MUL DUP1 DUP3 DUP5 CALLDATACOPY PUSH1 0x0 DUP2 DUP5 ADD MSTORE PUSH1 0x1F NOT PUSH1 0x1F DUP3 ADD AND SWAP1 POP DUP1 DUP4 ADD SWAP3 POP POP POP POP POP POP DUP2 MSTORE PUSH1 0x20 ADD SWAP1 PUSH1 0x1 ADD SWAP1 PUSH2 0x90E JUMP JUMPDEST POP POP POP POP POP PUSH2 0x225E JUMP JUMPDEST SWAP1 POP SWAP6 SWAP5 POP POP POP POP POP JUMP JUMPDEST PUSH1 0x0 PUSH2 0x985 DUP3 PUSH2 0x27FB JUMP JUMPDEST SWAP1 POP SWAP2 SWAP1 POP JUMP JUMPDEST PUSH1 0x0 PUSH2 0x997 DUP3 PUSH2 0x2878 JUMP JUMPDEST SWAP1 POP SWAP2 SWAP1 POP JUMP JUMPDEST PUSH2 0x9A6 PUSH2 0x4057 JUMP JUMPDEST PUSH2 0x9AF DUP3 PUSH2 0x2943 JUMP JUMPDEST SWAP1 POP SWAP2 SWAP1 POP JUMP JUMPDEST PUSH2 0x9BE PUSH2 0x4057 JUMP JUMPDEST PUSH2 0x9C8 DUP4 DUP4 PUSH2 0x2AC4 JUMP JUMPDEST SWAP1 POP SWAP3 SWAP2 POP POP JUMP JUMPDEST PUSH1 0x0 PUSH2 0xA12 DUP3 PUSH1 0x4 DUP1 PUSH1 0x20 MUL PUSH1 0x40 MLOAD SWAP1 DUP2 ADD PUSH1 0x40 MSTORE DUP1 SWAP3 SWAP2 SWAP1 DUP3 PUSH1 0x4 PUSH1 0x20 MUL DUP1 DUP3 DUP5 CALLDATACOPY PUSH1 0x0 DUP2 DUP5 ADD MSTORE PUSH1 0x1F NOT PUSH1 0x1F DUP3 ADD AND SWAP1 POP DUP1 DUP4 ADD SWAP3 POP POP POP POP POP POP PUSH2 0x2BA3 JUMP JUMPDEST SWAP1 POP SWAP2 SWAP1 POP JUMP JUMPDEST PUSH1 0x0 PUSH2 0xA5B DUP3 PUSH1 0x2 DUP1 PUSH1 0x20 MUL PUSH1 0x40 MLOAD SWAP1 DUP2 ADD PUSH1 0x40 MSTORE DUP1 SWAP3 SWAP2 SWAP1 DUP3 PUSH1 0x2 PUSH1 0x20 MUL DUP1 DUP3 DUP5 CALLDATACOPY PUSH1 0x0 DUP2 DUP5 ADD MSTORE PUSH1 0x1F NOT PUSH1 0x1F DUP3 ADD AND SWAP1 POP DUP1 DUP4 ADD SWAP3 POP POP POP POP POP POP PUSH2 0x2DF7 JUMP JUMPDEST SWAP1 POP SWAP2 SWAP1 POP JUMP JUMPDEST PUSH1 0x0 PUSH2 0xAA4 DUP3 PUSH1 0x2 DUP1 PUSH1 0x20 MUL PUSH1 0x40 MLOAD SWAP1 DUP2 ADD PUSH1 0x40 MSTORE DUP1 SWAP3 SWAP2 SWAP1 DUP3 PUSH1 0x2 PUSH1 0x20 MUL DUP1 DUP3 DUP5 CALLDATACOPY PUSH1 0x0 DUP2 DUP5 ADD MSTORE PUSH1 0x1F NOT PUSH1 0x1F DUP3 ADD AND SWAP1 POP DUP1 DUP4 ADD SWAP3 POP POP POP POP POP POP PUSH2 0x2EFA JUMP JUMPDEST SWAP1 POP SWAP2 SWAP1 POP JUMP JUMPDEST PUSH2 0xAB3 PUSH2 0x4057 JUMP JUMPDEST PUSH2 0xB45 DUP6 DUP6 DUP1 DUP1 PUSH1 0x1F ADD PUSH1 0x20 DUP1 SWAP2 DIV MUL PUSH1 0x20 ADD PUSH1 0x40 MLOAD SWAP1 DUP2 ADD PUSH1 0x40 MSTORE DUP1 SWAP4 SWAP3 SWAP2 SWAP1 DUP2 DUP2 MSTORE PUSH1 0x20 ADD DUP4 DUP4 DUP1 DUP3 DUP5 CALLDATACOPY PUSH1 0x0 DUP2 DUP5 ADD MSTORE PUSH1 0x1F NOT PUSH1 0x1F DUP3 ADD AND SWAP1 POP DUP1 DUP4 ADD SWAP3 POP POP POP POP POP POP POP DUP5 DUP5 DUP1 DUP1 PUSH1 0x1F ADD PUSH1 0x20 DUP1 SWAP2 DIV MUL PUSH1 0x20 ADD PUSH1 0x40 MLOAD SWAP1 DUP2 ADD PUSH1 0x40 MSTORE DUP1 SWAP4 SWAP3 SWAP2 SWAP1 DUP2 DUP2 MSTORE PUSH1 0x20 ADD DUP4 DUP4 DUP1 DUP3 DUP5 CALLDATACOPY PUSH1 0x0 DUP2 DUP5 ADD MSTORE PUSH1 0x1F NOT PUSH1 0x1F DUP3 ADD AND SWAP1 POP DUP1 DUP4 ADD SWAP3 POP POP POP POP POP POP POP PUSH2 0x2FA7 JUMP JUMPDEST SWAP1 POP SWAP5 SWAP4 POP POP POP POP JUMP JUMPDEST PUSH1 0x0 PUSH2 0xB5A DUP3 PUSH2 0x3138 JUMP JUMPDEST SWAP1 POP SWAP2 SWAP1 POP JUMP JUMPDEST PUSH1 0x0 DUP1 PUSH2 0xB6D DUP4 PUSH2 0x314A JUMP JUMPDEST SWAP2 POP SWAP2 POP SWAP2 POP SWAP2 JUMP JUMPDEST PUSH1 0x0 DUP1 DUP3 PUSH32 0x30644E72E131A029B85045B68181585D97816A916871CA8D3C208C16D87CFD47 DUP2 DUP3 MULMOD PUSH32 0x30644E72E131A029B85045B68181585D97816A916871CA8D3C208C16D87CFD47 DUP3 DUP3 MULMOD SWAP1 POP PUSH32 0x30644E72E131A029B85045B68181585D97816A916871CA8D3C208C16D87CFD47 PUSH1 0x3 DUP3 ADDMOD SWAP1 POP PUSH1 0x40 MLOAD PUSH1 0x20 DUP2 MSTORE PUSH1 0x20 DUP1 DUP3 ADD MSTORE PUSH1 0x20 PUSH1 0x40 DUP3 ADD MSTORE DUP2 PUSH1 0x60 DUP3 ADD MSTORE PUSH32 0x183227397098D014DC2822DB40C0AC2ECBC0B548B438E5469E10460B6C3E7EA3 PUSH1 0x80 DUP3 ADD MSTORE PUSH32 0x30644E72E131A029B85045B68181585D97816A916871CA8D3C208C16D87CFD47 PUSH1 0xA0 DUP3 ADD MSTORE PUSH1 0x20 DUP2 PUSH1 0xC0 DUP4 PUSH1 0x5 PUSH2 0x7D0 GAS SUB STATICCALL SWAP4 POP DUP1 MLOAD PUSH1 0x1 EQ SWAP5 POP POP POP POP POP SWAP2 SWAP1 POP JUMP JUMPDEST PUSH2 0xC79 PUSH2 0x4035 JUMP JUMPDEST PUSH1 0x0 PUSH32 0x8000000000000000000000000000000000000000000000000000000000000000 DUP5 PUSH1 0x0 PUSH1 0x2 DUP2 LT PUSH2 0xCB0 JUMPI PUSH2 0xCAF PUSH2 0x4A07 JUMP JUMPDEST JUMPDEST PUSH1 0x20 MUL ADD MLOAD AND SWAP1 POP PUSH32 0x8000000000000000000000000000000000000000000000000000000000000000 DUP2 EQ DUP1 PUSH2 0xD01 JUMPI POP PUSH1 0x1 DUP1 DUP5 PUSH1 0x0 PUSH1 0x2 DUP2 LT PUSH2 0xCF8 JUMPI PUSH2 0xCF7 PUSH2 0x4A07 JUMP JUMPDEST JUMPDEST PUSH1 0x20 MUL ADD MLOAD AND EQ ISZERO JUMPDEST PUSH2 0xD40 JUMPI PUSH1 0x40 MLOAD PUSH32 0x8C379A000000000000000000000000000000000000000000000000000000000 DUP2 MSTORE PUSH1 0x4 ADD PUSH2 0xD37 SWAP1 PUSH2 0x4AB9 JUMP JUMPDEST PUSH1 0x40 MLOAD DUP1 SWAP2 SUB SWAP1 REVERT JUMPDEST PUSH32 0x7FFFFFFFFFFFFFFFFFFFFFFFFFFFFFFFFFFFFFFFFFFFFFFFFFFFFFFFFFFFFFFF DUP5 PUSH1 0x0 PUSH1 0x2 DUP2 LT PUSH2 0xD75 JUMPI PUSH2 0xD74 PUSH2 0x4A07 JUMP JUMPDEST JUMPDEST PUSH1 0x20 MUL ADD MLOAD AND DUP3 PUSH1 0x0 PUSH1 0x4 DUP2 LT PUSH2 0xD8F JUMPI PUSH2 0xD8E PUSH2 0x4A07 JUMP JUMPDEST JUMPDEST PUSH1 0x20 MUL ADD DUP2 DUP2 MSTORE POP POP DUP4 PUSH1 0x1 PUSH1 0x2 DUP2 LT PUSH2 0xDAC JUMPI PUSH2 0xDAB PUSH2 0x4A07 JUMP JUMPDEST JUMPDEST PUSH1 0x20 MUL ADD MLOAD DUP3 PUSH1 0x1 PUSH1 0x4 DUP2 LT PUSH2 0xDC5 JUMPI PUSH2 0xDC4 PUSH2 0x4A07 JUMP JUMPDEST JUMPDEST PUSH1 0x20 MUL ADD DUP2 DUP2 MSTORE POP POP DUP3 PUSH1 0x0 PUSH1 0x2 DUP2 LT PUSH2 0xDE2 JUMPI PUSH2 0xDE1 PUSH2 0x4A07 JUMP JUMPDEST JUMPDEST PUSH1 0x20 MUL ADD MLOAD DUP3 PUSH1 0x2 PUSH1 0x4 DUP2 LT PUSH2 0xDFB JUMPI PUSH2 0xDFA PUSH2 0x4A07 JUMP JUMPDEST JUMPDEST PUSH1 0x20 MUL ADD DUP2 DUP2 MSTORE POP POP DUP3 PUSH1 0x1 PUSH1 0x2 DUP2 LT PUSH2 0xE18 JUMPI PUSH2 0xE17 PUSH2 0x4A07 JUMP JUMPDEST JUMPDEST PUSH1 0x20 MUL ADD MLOAD DUP3 PUSH1 0x3 PUSH1 0x4 DUP2 LT PUSH2 0xE31 JUMPI PUSH2 0xE30 PUSH2 0x4A07 JUMP JUMPDEST JUMPDEST PUSH1 0x20 MUL ADD DUP2 DUP2 MSTORE POP POP POP SWAP3 SWAP2 POP POP JUMP JUMPDEST PUSH2 0xE49 PUSH2 0x4057 JUMP JUMPDEST PUSH32 0x30644E72E131A029B85045B68181585D97816A916871CA8D3C208C16D87CFD47 DUP3 LT PUSH2 0xEAB JUMPI PUSH1 0x40 MLOAD PUSH32 0x8C379A000000000000000000000000000000000000000000000000000000000 DUP2 MSTORE PUSH1 0x4 ADD PUSH2 0xEA2 SWAP1 PUSH2 0x4B4B JUMP JUMPDEST PUSH1 0x40 MLOAD DUP1 SWAP2 SUB SWAP1 REVERT JUMPDEST PUSH1 0x0 DUP3 SWAP1 POP PUSH1 0x0 PUSH2 0xEBB DUP3 PUSH2 0x2878 JUMP JUMPDEST SWAP1 POP PUSH1 0x0 PUSH32 0x30644E72E131A029B85045B68181585D97816A916871CA8D3C208C16D87CFD47 DUP1 PUSH2 0xEEE JUMPI PUSH2 0xEED PUSH2 0x4B6B JUMP JUMPDEST JUMPDEST DUP4 DUP5 MULMOD SWAP1 POP PUSH32 0x30644E72E131A029B85045B68181585D97816A916871CA8D3C208C16D87CFD47 DUP1 PUSH2 0xF22 JUMPI PUSH2 0xF21 PUSH2 0x4B6B JUMP JUMPDEST JUMPDEST PUSH1 0x4 DUP3 ADDMOD SWAP1 POP PUSH1 0x0 PUSH32 0x30644E72E131A029B85045B68181585D97816A916871CA8D3C208C16D87CFD47 DUP1 PUSH2 0xF59 JUMPI PUSH2 0xF58 PUSH2 0x4B6B JUMP JUMPDEST JUMPDEST PUSH24 0xB3C4D79D41A91759A9E4C7E359B6B89EAEC68E62EFFFFFFD DUP6 MULMOD SWAP1 POP PUSH1 0x0 PUSH32 0x30644E72E131A029B85045B68181585D97816A916871CA8D3C208C16D87CFD47 DUP1 PUSH2 0xFA7 JUMPI PUSH2 0xFA6 PUSH2 0x4B6B JUMP JUMPDEST JUMPDEST DUP4 DUP4 MULMOD SWAP1 POP PUSH2 0xFB5 DUP2 PUSH2 0x3138 JUMP JUMPDEST SWAP1 POP PUSH32 0x30644E72E131A029B85045B68181585D97816A916871CA8D3C208C16D87CFD47 DUP1 PUSH2 0xFE6 JUMPI PUSH2 0xFE5 PUSH2 0x4B6B JUMP JUMPDEST JUMPDEST DUP3 DUP4 MULMOD SWAP2 POP PUSH32 0x30644E72E131A029B85045B68181585D97816A916871CA8D3C208C16D87CFD47 DUP1 PUSH2 0x101A JUMPI PUSH2 0x1019 PUSH2 0x4B6B JUMP JUMPDEST JUMPDEST DUP2 DUP4 MULMOD SWAP2 POP PUSH32 0x30644E72E131A029B85045B68181585D97816A916871CA8D3C208C16D87CFD47 DUP1 PUSH2 0x104E JUMPI PUSH2 0x104D PUSH2 0x4B6B JUMP JUMPDEST JUMPDEST DUP3 DUP7 MULMOD SWAP2 POP PUSH32 0x30644E72E131A029B85045B68181585D97816A916871CA8D3C208C16D87CFD47 DUP1 PUSH2 0x1082 JUMPI PUSH2 0x1081 PUSH2 0x4B6B JUMP JUMPDEST JUMPDEST DUP3 PUSH32 0x30644E72E131A029B85045B68181585D97816A916871CA8D3C208C16D87CFD47 PUSH2 0x10AE SWAP2 SWAP1 PUSH2 0x4BC9 JUMP JUMPDEST PUSH24 0x59E26BCEA0D48BACD4F263F1ACDB5C4F5763473177FFFFFE ADDMOD SWAP5 POP PUSH32 0x30644E72E131A029B85045B68181585D97816A916871CA8D3C208C16D87CFD47 DUP1 PUSH2 0x10F9 JUMPI PUSH2 0x10F8 PUSH2 0x4B6B JUMP JUMPDEST JUMPDEST DUP6 DUP7 MULMOD SWAP2 POP PUSH32 0x30644E72E131A029B85045B68181585D97816A916871CA8D3C208C16D87CFD47 DUP1 PUSH2 0x112D JUMPI PUSH2 0x112C PUSH2 0x4B6B JUMP JUMPDEST JUMPDEST DUP6 DUP4 MULMOD SWAP2 POP PUSH32 0x30644E72E131A029B85045B68181585D97816A916871CA8D3C208C16D87CFD47 DUP1 PUSH2 0x1161 JUMPI PUSH2 0x1160 PUSH2 0x4B6B JUMP JUMPDEST JUMPDEST PUSH1 0x3 DUP4 ADDMOD SWAP2 POP PUSH1 0x0 PUSH2 0x1172 DUP4 PUSH2 0x314A JUMP JUMPDEST DUP1 SWAP3 POP DUP2 SWAP5 POP POP POP DUP1 ISZERO PUSH2 0x11D7 JUMPI DUP5 ISZERO PUSH2 0x11B5 JUMPI DUP3 PUSH32 0x30644E72E131A029B85045B68181585D97816A916871CA8D3C208C16D87CFD47 PUSH2 0x11B2 SWAP2 SWAP1 PUSH2 0x4BC9 JUMP JUMPDEST SWAP3 POP JUMPDEST PUSH1 0x40 MLOAD DUP1 PUSH1 0x40 ADD PUSH1 0x40 MSTORE DUP1 DUP8 DUP2 MSTORE PUSH1 0x20 ADD DUP5 DUP2 MSTORE POP SWAP7 POP POP POP POP POP POP POP PUSH2 0x1588 JUMP JUMPDEST PUSH32 0x30644E72E131A029B85045B68181585D97816A916871CA8D3C208C16D87CFD47 DUP1 PUSH2 0x1206 JUMPI PUSH2 0x1205 PUSH2 0x4B6B JUMP JUMPDEST JUMPDEST PUSH1 0x1 DUP8 ADDMOD PUSH32 0x30644E72E131A029B85045B68181585D97816A916871CA8D3C208C16D87CFD47 PUSH2 0x1235 SWAP2 SWAP1 PUSH2 0x4BC9 JUMP JUMPDEST SWAP6 POP PUSH32 0x30644E72E131A029B85045B68181585D97816A916871CA8D3C208C16D87CFD47 DUP1 PUSH2 0x1266 JUMPI PUSH2 0x1265 PUSH2 0x4B6B JUMP JUMPDEST JUMPDEST DUP7 DUP8 MULMOD SWAP3 POP PUSH32 0x30644E72E131A029B85045B68181585D97816A916871CA8D3C208C16D87CFD47 DUP1 PUSH2 0x129A JUMPI PUSH2 0x1299 PUSH2 0x4B6B JUMP JUMPDEST JUMPDEST DUP7 DUP5 MULMOD SWAP3 POP PUSH32 0x30644E72E131A029B85045B68181585D97816A916871CA8D3C208C16D87CFD47 DUP1 PUSH2 0x12CE JUMPI PUSH2 0x12CD PUSH2 0x4B6B JUMP JUMPDEST JUMPDEST PUSH1 0x3 DUP5 ADDMOD SWAP3 POP PUSH2 0x12DD DUP4 PUSH2 0x314A JUMP JUMPDEST DUP1 SWAP3 POP DUP2 SWAP5 POP POP POP DUP1 ISZERO PUSH2 0x1342 JUMPI DUP5 ISZERO PUSH2 0x1320 JUMPI DUP3 PUSH32 0x30644E72E131A029B85045B68181585D97816A916871CA8D3C208C16D87CFD47 PUSH2 0x131D SWAP2 SWAP1 PUSH2 0x4BC9 JUMP JUMPDEST SWAP3 POP JUMPDEST PUSH1 0x40 MLOAD DUP1 PUSH1 0x40 ADD PUSH1 0x40 MSTORE DUP1 DUP8 DUP2 MSTORE PUSH1 0x20 ADD DUP5 DUP2 MSTORE POP SWAP7 POP POP POP POP POP POP POP PUSH2 0x1588 JUMP JUMPDEST PUSH32 0x30644E72E131A029B85045B68181585D97816A916871CA8D3C208C16D87CFD47 DUP1 PUSH2 0x1371 JUMPI PUSH2 0x1370 PUSH2 0x4B6B JUMP JUMPDEST JUMPDEST DUP5 DUP6 MULMOD SWAP6 POP PUSH32 0x30644E72E131A029B85045B68181585D97816A916871CA8D3C208C16D87CFD47 DUP1 PUSH2 0x13A5 JUMPI PUSH2 0x13A4 PUSH2 0x4B6B JUMP JUMPDEST JUMPDEST DUP7 DUP8 MULMOD SWAP6 POP PUSH32 0x30644E72E131A029B85045B68181585D97816A916871CA8D3C208C16D87CFD47 DUP1 PUSH2 0x13D9 JUMPI PUSH2 0x13D8 PUSH2 0x4B6B JUMP JUMPDEST JUMPDEST DUP3 DUP8 MULMOD SWAP6 POP PUSH32 0x30644E72E131A029B85045B68181585D97816A916871CA8D3C208C16D87CFD47 DUP1 PUSH2 0x140D JUMPI PUSH2 0x140C PUSH2 0x4B6B JUMP JUMPDEST JUMPDEST DUP3 DUP8 MULMOD SWAP6 POP PUSH32 0x30644E72E131A029B85045B68181585D97816A916871CA8D3C208C16D87CFD47 DUP1 PUSH2 0x1441 JUMPI PUSH2 0x1440 PUSH2 0x4B6B JUMP JUMPDEST JUMPDEST PUSH1 0x1 DUP8 ADDMOD SWAP6 POP PUSH32 0x30644E72E131A029B85045B68181585D97816A916871CA8D3C208C16D87CFD47 DUP1 PUSH2 0x1476 JUMPI PUSH2 0x1475 PUSH2 0x4B6B JUMP JUMPDEST JUMPDEST DUP7 DUP8 MULMOD SWAP3 POP PUSH32 0x30644E72E131A029B85045B68181585D97816A916871CA8D3C208C16D87CFD47 DUP1 PUSH2 0x14AA JUMPI PUSH2 0x14A9 PUSH2 0x4B6B JUMP JUMPDEST JUMPDEST DUP7 DUP5 MULMOD SWAP3 POP PUSH32 0x30644E72E131A029B85045B68181585D97816A916871CA8D3C208C16D87CFD47 DUP1 PUSH2 0x14DE JUMPI PUSH2 0x14DD PUSH2 0x4B6B JUMP JUMPDEST JUMPDEST PUSH1 0x3 DUP5 ADDMOD SWAP3 POP PUSH2 0x14ED DUP4 PUSH2 0x314A JUMP JUMPDEST DUP1 SWAP3 POP DUP2 SWAP5 POP POP POP DUP1 PUSH2 0x1535 JUMPI PUSH1 0x40 MLOAD PUSH32 0x8C379A000000000000000000000000000000000000000000000000000000000 DUP2 MSTORE PUSH1 0x4 ADD PUSH2 0x152C SWAP1 PUSH2 0x4C6F JUMP JUMPDEST PUSH1 0x40 MLOAD DUP1 SWAP2 SUB SWAP1 REVERT JUMPDEST DUP5 ISZERO PUSH2 0x156A JUMPI DUP3 PUSH32 0x30644E72E131A029B85045B68181585D97816A916871CA8D3C208C16D87CFD47 PUSH2 0x1567 SWAP2 SWAP1 PUSH2 0x4BC9 JUMP JUMPDEST SWAP3 POP JUMPDEST PUSH1 0x40 MLOAD DUP1 PUSH1 0x40 ADD PUSH1 0x40 MSTORE DUP1 DUP8 DUP2 MSTORE PUSH1 0x20 ADD DUP5 DUP2 MSTORE POP SWAP7 POP POP POP POP POP POP POP JUMPDEST SWAP2 SWAP1 POP JUMP JUMPDEST PUSH1 0x0 DUP1 PUSH1 0x0 DUP4 ADD MLOAD PUSH1 0x20 DUP5 ADD MLOAD PUSH32 0x30644E72E131A029B85045B68181585D97816A916871CA8D3C208C16D87CFD47 DUP3 DUP4 MULMOD PUSH32 0x30644E72E131A029B85045B68181585D97816A916871CA8D3C208C16D87CFD47 DUP3 DUP4 MULMOD DUP2 DUP3 DUP4 ADD ADD PUSH32 0x30644E72E131A029B85045B68181585D97816A916871CA8D3C208C16D87CFD47 DUP3 DUP4 DUP5 ADD ADDMOD PUSH32 0x30644E72E131A029B85045B68181585D97816A916871CA8D3C208C16D87CFD47 DUP7 DUP3 PUSH32 0x30644E72E131A029B85045B68181585D97816A916871CA8D3C208C16D87CFD47 SUB DUP7 ADD MULMOD SWAP4 POP PUSH32 0x30644E72E131A029B85045B68181585D97816A916871CA8D3C208C16D87CFD47 DUP6 DUP5 PUSH32 0x30644E72E131A029B85045B68181585D97816A916871CA8D3C208C16D87CFD47 SUB DUP5 ADD MULMOD SWAP3 POP PUSH32 0x2B149D40CEB8AAAE81BE18991BE06AC3B5B4C5E559DBEFA33267E6DC24A138E5 DUP5 ADD SWAP6 POP PUSH31 0x9713B03AF0FED4CD2CAFADEED8FDF4A74FA084E52D1852E4A2BD0685C315D2 DUP4 ADD SWAP5 POP PUSH32 0x30644E72E131A029B85045B68181585D97816A916871CA8D3C208C16D87CFD47 DUP1 DUP7 DUP8 MULMOD PUSH32 0x30644E72E131A029B85045B68181585D97816A916871CA8D3C208C16D87CFD47 DUP9 DUP10 MULMOD ADDMOD SWAP6 POP PUSH1 0x40 MLOAD PUSH1 0x20 DUP2 MSTORE PUSH1 0x20 DUP1 DUP3 ADD MSTORE PUSH1 0x20 PUSH1 0x40 DUP3 ADD MSTORE DUP7 PUSH1 0x60 DUP3 ADD MSTORE PUSH32 0x183227397098D014DC2822DB40C0AC2ECBC0B548B438E5469E10460B6C3E7EA3 PUSH1 0x80 DUP3 ADD MSTORE PUSH32 0x30644E72E131A029B85045B68181585D97816A916871CA8D3C208C16D87CFD47 PUSH1 0xA0 DUP3 ADD MSTORE PUSH1 0x20 DUP2 PUSH1 0xC0 DUP4 PUSH1 0x5 PUSH2 0x7D0 GAS SUB STATICCALL SWAP8 POP DUP1 MLOAD PUSH1 0x1 EQ SWAP9 POP POP POP POP POP POP POP POP POP SWAP2 SWAP1 POP JUMP JUMPDEST PUSH1 0x0 DUP1 PUSH1 0x0 PUSH1 0x40 MLOAD PUSH1 0x20 DUP2 MSTORE PUSH1 0x20 DUP1 DUP3 ADD MSTORE PUSH1 0x20 PUSH1 0x40 DUP3 ADD MSTORE DUP5 PUSH1 0x60 DUP3 ADD MSTORE PUSH32 0xC19139CB84C680A6E14116DA060561765E05AA45A1C72A34F082305B61F3F52 PUSH1 0x80 DUP3 ADD MSTORE PUSH32 0x30644E72E131A029B85045B68181585D97816A916871CA8D3C208C16D87CFD47 PUSH1 0xA0 DUP3 ADD MSTORE PUSH1 0x20 DUP2 PUSH1 0xC0 DUP4 PUSH1 0x5 PUSH2 0x7D0 GAS SUB STATICCALL SWAP2 POP DUP1 MLOAD SWAP4 POP PUSH32 0x30644E72E131A029B85045B68181585D97816A916871CA8D3C208C16D87CFD47 DUP5 DUP6 MULMOD DUP6 EQ SWAP3 POP POP DUP1 PUSH2 0x18A8 JUMPI PUSH1 0x40 MLOAD PUSH32 0x8C379A000000000000000000000000000000000000000000000000000000000 DUP2 MSTORE PUSH1 0x4 ADD PUSH2 0x189F SWAP1 PUSH2 0x4CDB JUMP JUMPDEST PUSH1 0x40 MLOAD DUP1 SWAP2 SUB SWAP1 REVERT JUMPDEST POP SWAP2 POP SWAP2 JUMP JUMPDEST PUSH1 0x0 DUP1 PUSH32 0x30644E72E131A029B85045B68181585D97816A916871CA8D3C208C16D87CFD47 DUP1 PUSH2 0x18E0 JUMPI PUSH2 0x18DF PUSH2 0x4B6B JUMP JUMPDEST JUMPDEST PUSH32 0x30644E72E131A029B85045B68181585D97816A916871CA8D3C208C16D87CFD47 DUP1 PUSH2 0x190F JUMPI PUSH2 0x190E PUSH2 0x4B6B JUMP JUMPDEST JUMPDEST DUP5 PUSH1 0x1 PUSH1 0x2 DUP2 LT PUSH2 0x1923 JUMPI PUSH2 0x1922 PUSH2 0x4A07 JUMP JUMPDEST JUMPDEST PUSH1 0x20 MUL ADD MLOAD DUP6 PUSH1 0x1 PUSH1 0x2 DUP2 LT PUSH2 0x193C JUMPI PUSH2 0x193B PUSH2 0x4A07 JUMP JUMPDEST JUMPDEST PUSH1 0x20 MUL ADD MLOAD MULMOD PUSH32 0x30644E72E131A029B85045B68181585D97816A916871CA8D3C208C16D87CFD47 DUP1 PUSH2 0x1971 JUMPI PUSH2 0x1970 PUSH2 0x4B6B JUMP JUMPDEST JUMPDEST DUP6 PUSH1 0x0 PUSH1 0x2 DUP2 LT PUSH2 0x1985 JUMPI PUSH2 0x1984 PUSH2 0x4A07 JUMP JUMPDEST JUMPDEST PUSH1 0x20 MUL ADD MLOAD DUP7 PUSH1 0x0 PUSH1 0x2 DUP2 LT PUSH2 0x199E JUMPI PUSH2 0x199D PUSH2 0x4A07 JUMP JUMPDEST JUMPDEST PUSH1 0x20 MUL ADD MLOAD MULMOD ADDMOD SWAP1 POP PUSH1 0x0 PUSH1 0x40 MLOAD PUSH1 0x20 DUP2 MSTORE PUSH1 0x20 DUP1 DUP3 ADD MSTORE PUSH1 0x20 PUSH1 0x40 DUP3 ADD MSTORE DUP3 PUSH1 0x60 DUP3 ADD MSTORE PUSH32 0x183227397098D014DC2822DB40C0AC2ECBC0B548B438E5469E10460B6C3E7EA3 PUSH1 0x80 DUP3 ADD MSTORE PUSH32 0x30644E72E131A029B85045B68181585D97816A916871CA8D3C208C16D87CFD47 PUSH1 0xA0 DUP3 ADD MSTORE PUSH1 0x20 DUP2 PUSH1 0xC0 DUP4 PUSH1 0x5 PUSH2 0x7D0 GAS SUB STATICCALL SWAP2 POP DUP1 MLOAD PUSH1 0x1 EQ SWAP4 POP POP DUP1 PUSH2 0x1A67 JUMPI PUSH1 0x40 MLOAD PUSH32 0x8C379A000000000000000000000000000000000000000000000000000000000 DUP2 MSTORE PUSH1 0x4 ADD PUSH2 0x1A5E SWAP1 PUSH2 0x4D6D JUMP JUMPDEST PUSH1 0x40 MLOAD DUP1 SWAP2 SUB SWAP1 REVERT JUMPDEST DUP3 ISZERO SWAP3 POP POP POP SWAP2 SWAP1 POP JUMP JUMPDEST PUSH2 0x1A7A PUSH2 0x4057 JUMP JUMPDEST PUSH1 0x0 PUSH2 0x1A86 DUP5 DUP5 PUSH2 0x2FA7 JUMP JUMPDEST SWAP1 POP PUSH1 0x0 PUSH2 0x1AAB DUP3 PUSH1 0x0 PUSH1 0x2 DUP2 LT PUSH2 0x1AA1 JUMPI PUSH2 0x1AA0 PUSH2 0x4A07 JUMP JUMPDEST JUMPDEST PUSH1 0x20 MUL ADD MLOAD PUSH2 0xE41 JUMP JUMPDEST SWAP1 POP PUSH1 0x0 PUSH2 0x1AD0 DUP4 PUSH1 0x1 PUSH1 0x2 DUP2 LT PUSH2 0x1AC6 JUMPI PUSH2 0x1AC5 PUSH2 0x4A07 JUMP JUMPDEST JUMPDEST PUSH1 0x20 MUL ADD MLOAD PUSH2 0xE41 JUMP JUMPDEST SWAP1 POP PUSH2 0x1ADA PUSH2 0x4035 JUMP JUMPDEST DUP3 PUSH1 0x0 PUSH1 0x2 DUP2 LT PUSH2 0x1AEE JUMPI PUSH2 0x1AED PUSH2 0x4A07 JUMP JUMPDEST JUMPDEST PUSH1 0x20 MUL ADD MLOAD DUP2 PUSH1 0x0 PUSH1 0x4 DUP2 LT PUSH2 0x1B07 JUMPI PUSH2 0x1B06 PUSH2 0x4A07 JUMP JUMPDEST JUMPDEST PUSH1 0x20 MUL ADD DUP2 DUP2 MSTORE POP POP DUP3 PUSH1 0x1 PUSH1 0x2 DUP2 LT PUSH2 0x1B24 JUMPI PUSH2 0x1B23 PUSH2 0x4A07 JUMP JUMPDEST JUMPDEST PUSH1 0x20 MUL ADD MLOAD DUP2 PUSH1 0x1 PUSH1 0x4 DUP2 LT PUSH2 0x1B3D JUMPI PUSH2 0x1B3C PUSH2 0x4A07 JUMP JUMPDEST JUMPDEST PUSH1 0x20 MUL ADD DUP2 DUP2 MSTORE POP POP DUP2 PUSH1 0x0 PUSH1 0x2 DUP2 LT PUSH2 0x1B5A JUMPI PUSH2 0x1B59 PUSH2 0x4A07 JUMP JUMPDEST JUMPDEST PUSH1 0x20 MUL ADD MLOAD DUP2 PUSH1 0x2 PUSH1 0x4 DUP2 LT PUSH2 0x1B73 JUMPI PUSH2 0x1B72 PUSH2 0x4A07 JUMP JUMPDEST JUMPDEST PUSH1 0x20 MUL ADD DUP2 DUP2 MSTORE POP POP DUP2 PUSH1 0x1 PUSH1 0x2 DUP2 LT PUSH2 0x1B90 JUMPI PUSH2 0x1B8F PUSH2 0x4A07 JUMP JUMPDEST JUMPDEST PUSH1 0x20 MUL ADD MLOAD DUP2 PUSH1 0x3 PUSH1 0x4 DUP2 LT PUSH2 0x1BA9 JUMPI PUSH2 0x1BA8 PUSH2 0x4A07 JUMP JUMPDEST JUMPDEST PUSH1 0x20 MUL ADD DUP2 DUP2 MSTORE POP POP PUSH1 0x0 PUSH1 0x40 DUP5 PUSH1 0x80 DUP5 PUSH1 0x6 PUSH2 0x7D0 GAS SUB STATICCALL SWAP1 POP DUP1 PUSH1 0x0 DUP2 SUB PUSH2 0x1BCF JUMPI INVALID JUMPDEST POP DUP1 PUSH2 0x1C10 JUMPI PUSH1 0x40 MLOAD PUSH32 0x8C379A000000000000000000000000000000000000000000000000000000000 DUP2 MSTORE PUSH1 0x4 ADD PUSH2 0x1C07 SWAP1 PUSH2 0x4DB3 JUMP JUMPDEST PUSH1 0x40 MLOAD DUP1 SWAP2 SUB SWAP1 REVERT JUMPDEST DUP4 SWAP6 POP POP POP POP POP POP SWAP3 SWAP2 POP POP JUMP JUMPDEST PUSH1 0x0 DUP1 PUSH1 0x40 MLOAD DUP1 PUSH2 0x180 ADD PUSH1 0x40 MSTORE DUP1 DUP7 PUSH1 0x0 PUSH1 0x2 DUP2 LT PUSH2 0x1C41 JUMPI PUSH2 0x1C40 PUSH2 0x4A07 JUMP JUMPDEST JUMPDEST PUSH1 0x20 MUL ADD MLOAD DUP2 MSTORE PUSH1 0x20 ADD DUP7 PUSH1 0x1 PUSH1 0x2 DUP2 LT PUSH2 0x1C5F JUMPI PUSH2 0x1C5E PUSH2 0x4A07 JUMP JUMPDEST JUMPDEST PUSH1 0x20 MUL ADD MLOAD DUP2 MSTORE PUSH1 0x20 ADD PUSH32 0x198E9393920D483A7260BFB731FB5D25F1AA493335A9E71297E485B7AEF312C2 DUP2 MSTORE PUSH1 0x20 ADD PUSH32 0x1800DEEF121F1E76426A00665E5C4479674322D4F75EDADD46DEBD5CD992F6ED DUP2 MSTORE PUSH1 0x20 ADD PUSH32 0x275DC4A288D1AFB3CBB1AC09187524C7DB36395DF7BE3B99E673B13A075A65EC DUP2 MSTORE PUSH1 0x20 ADD PUSH32 0x1D9BEFCD05A5323E6DA4D435F3B617CDB3AF83285C2DF711EF39C01571827F9D DUP2 MSTORE PUSH1 0x20 ADD DUP5 PUSH1 0x0 PUSH1 0x2 DUP2 LT PUSH2 0x1D15 JUMPI PUSH2 0x1D14 PUSH2 0x4A07 JUMP JUMPDEST JUMPDEST PUSH1 0x20 MUL ADD MLOAD DUP2 MSTORE PUSH1 0x20 ADD DUP5 PUSH1 0x1 PUSH1 0x2 DUP2 LT PUSH2 0x1D33 JUMPI PUSH2 0x1D32 PUSH2 0x4A07 JUMP JUMPDEST JUMPDEST PUSH1 0x20 MUL ADD MLOAD DUP2 MSTORE PUSH1 0x20 ADD DUP6 PUSH1 0x1 PUSH1 0x4 DUP2 LT PUSH2 0x1D51 JUMPI PUSH2 0x1D50 PUSH2 0x4A07 JUMP JUMPDEST JUMPDEST PUSH1 0x20 MUL ADD MLOAD DUP2 MSTORE PUSH1 0x20 ADD DUP6 PUSH1 0x0 PUSH1 0x4 DUP2 LT PUSH2 0x1D6F JUMPI PUSH2 0x1D6E PUSH2 0x4A07 JUMP JUMPDEST JUMPDEST PUSH1 0x20 MUL ADD MLOAD DUP2 MSTORE PUSH1 0x20 ADD DUP6 PUSH1 0x3 PUSH1 0x4 DUP2 LT PUSH2 0x1D8D JUMPI PUSH2 0x1D8C PUSH2 0x4A07 JUMP JUMPDEST JUMPDEST PUSH1 0x20 MUL ADD MLOAD DUP2 MSTORE PUSH1 0x20 ADD DUP6 PUSH1 0x2 PUSH1 0x4 DUP2 LT PUSH2 0x1DAB JUMPI PUSH2 0x1DAA PUSH2 0x4A07 JUMP JUMPDEST JUMPDEST PUSH1 0x20 MUL ADD MLOAD DUP2 MSTORE POP SWAP1 POP PUSH2 0x1DBD PUSH2 0x4079 JUMP JUMPDEST PUSH1 0x0 PUSH1 0x20 DUP3 PUSH2 0x180 DUP6 PUSH1 0x8 PUSH2 0x7D0 GAS SUB STATICCALL SWAP1 POP DUP1 PUSH1 0x0 DUP2 SUB PUSH2 0x1DDB JUMPI INVALID JUMPDEST POP DUP1 PUSH2 0x1E1C JUMPI PUSH1 0x40 MLOAD PUSH32 0x8C379A000000000000000000000000000000000000000000000000000000000 DUP2 MSTORE PUSH1 0x4 ADD PUSH2 0x1E13 SWAP1 PUSH2 0x4DB3 JUMP JUMPDEST PUSH1 0x40 MLOAD DUP1 SWAP2 SUB SWAP1 REVERT JUMPDEST PUSH1 0x0 DUP3 PUSH1 0x0 PUSH1 0x1 DUP2 LT PUSH2 0x1E32 JUMPI PUSH2 0x1E31 PUSH2 0x4A07 JUMP JUMPDEST JUMPDEST PUSH1 0x20 MUL ADD MLOAD EQ ISZERO SWAP4 POP POP POP POP SWAP4 SWAP3 POP POP POP JUMP JUMPDEST PUSH1 0x60 PUSH1 0x0 DUP4 MLOAD SWAP1 POP PUSH2 0x100 DUP2 LT PUSH2 0x1E91 JUMPI PUSH1 0x40 MLOAD PUSH32 0x8C379A000000000000000000000000000000000000000000000000000000000 DUP2 MSTORE PUSH1 0x4 ADD PUSH2 0x1E88 SWAP1 PUSH2 0x4E1F JUMP JUMPDEST PUSH1 0x40 MLOAD DUP1 SWAP2 SUB SWAP1 REVERT JUMPDEST PUSH1 0x0 DUP4 MLOAD SWAP1 POP PUSH1 0x0 PUSH1 0x4 PUSH1 0x40 DUP4 DUP6 PUSH2 0x1EA9 SWAP2 SWAP1 PUSH2 0x4E3F JUMP JUMPDEST PUSH2 0x1EB3 SWAP2 SWAP1 PUSH2 0x4E3F JUMP JUMPDEST PUSH2 0x1EBD SWAP2 SWAP1 PUSH2 0x4E3F JUMP JUMPDEST PUSH8 0xFFFFFFFFFFFFFFFF DUP2 GT ISZERO PUSH2 0x1ED6 JUMPI PUSH2 0x1ED5 PUSH2 0x4185 JUMP JUMPDEST JUMPDEST PUSH1 0x40 MLOAD SWAP1 DUP1 DUP3 MSTORE DUP1 PUSH1 0x1F ADD PUSH1 0x1F NOT AND PUSH1 0x20 ADD DUP3 ADD PUSH1 0x40 MSTORE DUP1 ISZERO PUSH2 0x1F08 JUMPI DUP2 PUSH1 0x20 ADD PUSH1 0x1 DUP3 MUL DUP1 CALLDATASIZE DUP4 CALLDATACOPY DUP1 DUP3 ADD SWAP2 POP POP SWAP1 POP JUMPDEST POP SWAP1 POP PUSH1 0x0 PUSH1 0x60 PUSH8 0xFFFFFFFFFFFFFFFF DUP2 GT ISZERO PUSH2 0x1F28 JUMPI PUSH2 0x1F27 PUSH2 0x4185 JUMP JUMPDEST JUMPDEST PUSH1 0x40 MLOAD SWAP1 DUP1 DUP3 MSTORE DUP1 PUSH1 0x1F ADD PUSH1 0x1F NOT AND PUSH1 0x20 ADD DUP3 ADD PUSH1 0x40 MSTORE DUP1 ISZERO PUSH2 0x1F5A JUMPI DUP2 PUSH1 0x20 ADD PUSH1 0x1 DUP3 MUL DUP1 CALLDATASIZE DUP4 CALLDATACOPY DUP1 DUP3 ADD SWAP2 POP POP SWAP1 POP JUMPDEST POP SWAP1 POP PUSH1 0x60 DUP3 ADD PUSH1 0x0 JUMPDEST DUP5 DUP2 LT ISZERO PUSH2 0x1F82 JUMPI PUSH1 0x20 DUP2 ADD DUP9 ADD MLOAD DUP2 DUP4 ADD MSTORE PUSH1 0x20 DUP2 ADD SWAP1 POP PUSH2 0x1F64 JUMP JUMPDEST DUP5 DUP3 ADD SWAP2 POP PUSH1 0x0 DUP3 MSTORE8 PUSH1 0x1 DUP3 ADD SWAP2 POP PUSH1 0x60 DUP3 MSTORE8 PUSH1 0x1 DUP3 ADD SWAP2 POP PUSH1 0x0 DUP3 MSTORE8 PUSH1 0x1 DUP3 ADD SWAP2 POP PUSH1 0x20 DUP10 ADD MLOAD DUP3 MSTORE DUP6 DUP3 ADD SWAP2 POP DUP6 DUP3 MSTORE8 POP POP PUSH1 0x0 PUSH1 0x2 DUP4 PUSH1 0x40 MLOAD PUSH2 0x1FC8 SWAP2 SWAP1 PUSH2 0x4EAF JUMP JUMPDEST PUSH1 0x20 PUSH1 0x40 MLOAD DUP1 DUP4 SUB DUP2 DUP6 GAS STATICCALL ISZERO DUP1 ISZERO PUSH2 0x1FE5 JUMPI RETURNDATASIZE PUSH1 0x0 DUP1 RETURNDATACOPY RETURNDATASIZE PUSH1 0x0 REVERT JUMPDEST POP POP POP PUSH1 0x40 MLOAD RETURNDATASIZE PUSH1 0x1F NOT PUSH1 0x1F DUP3 ADD AND DUP3 ADD DUP1 PUSH1 0x40 MSTORE POP DUP2 ADD SWAP1 PUSH2 0x2008 SWAP2 SWAP1 PUSH2 0x4EDB JUMP JUMPDEST SWAP1 POP PUSH1 0x0 PUSH1 0x22 DUP7 PUSH2 0x2019 SWAP2 SWAP1 PUSH2 0x4E3F JUMP JUMPDEST SWAP5 POP DUP5 DUP5 MSTORE DUP2 PUSH1 0x20 DUP6 ADD MSTORE PUSH1 0x1 PUSH1 0x40 DUP6 ADD MSTORE8 PUSH1 0x20 DUP10 ADD MLOAD PUSH1 0x41 DUP6 ADD MSTORE DUP6 PUSH1 0x41 DUP8 ADD DUP6 ADD MSTORE8 PUSH1 0x2 DUP5 PUSH1 0x40 MLOAD PUSH2 0x204D SWAP2 SWAP1 PUSH2 0x4EAF JUMP JUMPDEST PUSH1 0x20 PUSH1 0x40 MLOAD DUP1 DUP4 SUB DUP2 DUP6 GAS STATICCALL ISZERO DUP1 ISZERO PUSH2 0x206A JUMPI RETURNDATASIZE PUSH1 0x0 DUP1 RETURNDATACOPY RETURNDATASIZE PUSH1 0x0 REVERT JUMPDEST POP POP POP PUSH1 0x40 MLOAD RETURNDATASIZE PUSH1 0x1F NOT PUSH1 0x1F DUP3 ADD AND DUP3 ADD DUP1 PUSH1 0x40 MSTORE POP DUP2 ADD SWAP1 PUSH2 0x208D SWAP2 SWAP1 PUSH2 0x4EDB JUMP JUMPDEST SWAP1 POP DUP1 PUSH1 0x20 DUP5 ADD MSTORE DUP1 DUP3 XOR DUP1 PUSH1 0x20 DUP7 ADD MSTORE PUSH1 0x2 PUSH1 0x40 DUP7 ADD MSTORE8 PUSH1 0x20 DUP11 ADD MLOAD PUSH1 0x41 DUP7 ADD MSTORE DUP7 PUSH1 0x41 DUP9 ADD DUP7 ADD MSTORE8 POP PUSH1 0x2 DUP5 PUSH1 0x40 MLOAD PUSH2 0x20C8 SWAP2 SWAP1 PUSH2 0x4EAF JUMP JUMPDEST PUSH1 0x20 PUSH1 0x40 MLOAD DUP1 DUP4 SUB DUP2 DUP6 GAS STATICCALL ISZERO DUP1 ISZERO PUSH2 0x20E5 JUMPI RETURNDATASIZE PUSH1 0x0 DUP1 RETURNDATACOPY RETURNDATASIZE PUSH1 0x0 REVERT JUMPDEST POP POP POP PUSH1 0x40 MLOAD RETURNDATASIZE PUSH1 0x1F NOT PUSH1 0x1F DUP3 ADD AND DUP3 ADD DUP1 PUSH1 0x40 MSTORE POP DUP2 ADD SWAP1 PUSH2 0x2108 SWAP2 SWAP1 PUSH2 0x4EDB JUMP JUMPDEST SWAP1 POP DUP1 PUSH1 0x40 DUP5 ADD MSTORE DUP1 DUP3 XOR DUP1 PUSH1 0x20 DUP7 ADD MSTORE PUSH1 0x3 PUSH1 0x40 DUP7 ADD MSTORE8 PUSH1 0x20 DUP11 ADD MLOAD PUSH1 0x41 DUP7 ADD MSTORE DUP7 PUSH1 0x41 DUP9 ADD DUP7 ADD MSTORE8 POP PUSH1 0x2 DUP5 PUSH1 0x40 MLOAD PUSH2 0x2143 SWAP2 SWAP1 PUSH2 0x4EAF JUMP JUMPDEST PUSH1 0x20 PUSH1 0x40 MLOAD DUP1 DUP4 SUB DUP2 DUP6 GAS STATICCALL ISZERO DUP1 ISZERO PUSH2 0x2160 JUMPI RETURNDATASIZE PUSH1 0x0 DUP1 RETURNDATACOPY RETURNDATASIZE PUSH1 0x0 REVERT JUMPDEST POP POP POP PUSH1 0x40 MLOAD RETURNDATASIZE PUSH1 0x1F NOT PUSH1 0x1F DUP3 ADD AND DUP3 ADD DUP1 PUSH1 0x40 MSTORE POP DUP2 ADD SWAP1 PUSH2 0x2183 SWAP2 SWAP1 PUSH2 0x4EDB JUMP JUMPDEST SWAP1 POP DUP1 PUSH1 0x60 DUP5 ADD MSTORE DUP3 SWAP7 POP POP POP POP POP POP POP SWAP3 SWAP2 POP POP JUMP JUMPDEST PUSH1 0x0 DUP1 PUSH1 0x40 MLOAD PUSH1 0x20 DUP2 MSTORE PUSH1 0x20 DUP1 DUP3 ADD MSTORE PUSH1 0x20 PUSH1 0x40 DUP3 ADD MSTORE DUP4 PUSH1 0x60 DUP3 ADD MSTORE PUSH32 0x30644E72E131A029B85045B68181585D97816A916871CA8D3C208C16D87CFD45 PUSH1 0x80 DUP3 ADD MSTORE PUSH32 0x30644E72E131A029B85045B68181585D97816A916871CA8D3C208C16D87CFD47 PUSH1 0xA0 DUP3 ADD MSTORE PUSH1 0x20 DUP2 PUSH1 0xC0 DUP4 PUSH1 0x5 PUSH2 0x7D0 GAS SUB STATICCALL SWAP2 POP DUP1 MLOAD SWAP3 POP POP DUP1 PUSH2 0x2258 JUMPI PUSH1 0x40 MLOAD PUSH32 0x8C379A000000000000000000000000000000000000000000000000000000000 DUP2 MSTORE PUSH1 0x4 ADD PUSH2 0x224F SWAP1 PUSH2 0x4F54 JUMP JUMPDEST PUSH1 0x40 MLOAD DUP1 SWAP2 SUB SWAP1 REVERT JUMPDEST POP SWAP2 SWAP1 POP JUMP JUMPDEST PUSH1 0x0 DUP1 DUP4 MLOAD SWAP1 POP PUSH1 0x0 DUP2 GT PUSH2 0x22A8 JUMPI PUSH1 0x40 MLOAD PUSH32 0x8C379A000000000000000000000000000000000000000000000000000000000 DUP2 MSTORE PUSH1 0x4 ADD PUSH2 0x229F SWAP1 PUSH2 0x4FE6 JUMP JUMPDEST PUSH1 0x40 MLOAD DUP1 SWAP2 SUB SWAP1 REVERT JUMPDEST DUP3 MLOAD DUP2 EQ PUSH2 0x22EB JUMPI PUSH1 0x40 MLOAD PUSH32 0x8C379A000000000000000000000000000000000000000000000000000000000 DUP2 MSTORE PUSH1 0x4 ADD PUSH2 0x22E2 SWAP1 PUSH2 0x5078 JUMP JUMPDEST PUSH1 0x40 MLOAD DUP1 SWAP2 SUB SWAP1 REVERT JUMPDEST PUSH1 0x0 PUSH1 0x6 PUSH1 0x1 DUP4 PUSH2 0x22FC SWAP2 SWAP1 PUSH2 0x4E3F JUMP JUMPDEST PUSH2 0x2306 SWAP2 SWAP1 PUSH2 0x5098 JUMP JUMPDEST SWAP1 POP PUSH1 0x0 DUP2 PUSH8 0xFFFFFFFFFFFFFFFF DUP2 GT ISZERO PUSH2 0x2324 JUMPI PUSH2 0x2323 PUSH2 0x4185 JUMP JUMPDEST JUMPDEST PUSH1 0x40 MLOAD SWAP1 DUP1 DUP3 MSTORE DUP1 PUSH1 0x20 MUL PUSH1 0x20 ADD DUP3 ADD PUSH1 0x40 MSTORE DUP1 ISZERO PUSH2 0x2352 JUMPI DUP2 PUSH1 0x20 ADD PUSH1 0x20 DUP3 MUL DUP1 CALLDATASIZE DUP4 CALLDATACOPY DUP1 DUP3 ADD SWAP2 POP POP SWAP1 POP JUMPDEST POP SWAP1 POP DUP7 PUSH1 0x0 PUSH1 0x2 DUP2 LT PUSH2 0x2369 JUMPI PUSH2 0x2368 PUSH2 0x4A07 JUMP JUMPDEST JUMPDEST PUSH1 0x20 MUL ADD MLOAD DUP2 PUSH1 0x0 DUP2 MLOAD DUP2 LT PUSH2 0x2382 JUMPI PUSH2 0x2381 PUSH2 0x4A07 JUMP JUMPDEST JUMPDEST PUSH1 0x20 MUL PUSH1 0x20 ADD ADD DUP2 DUP2 MSTORE POP POP DUP7 PUSH1 0x1 PUSH1 0x2 DUP2 LT PUSH2 0x23A2 JUMPI PUSH2 0x23A1 PUSH2 0x4A07 JUMP JUMPDEST JUMPDEST PUSH1 0x20 MUL ADD MLOAD DUP2 PUSH1 0x1 DUP2 MLOAD DUP2 LT PUSH2 0x23BB JUMPI PUSH2 0x23BA PUSH2 0x4A07 JUMP JUMPDEST JUMPDEST PUSH1 0x20 MUL PUSH1 0x20 ADD ADD DUP2 DUP2 MSTORE POP POP PUSH32 0x198E9393920D483A7260BFB731FB5D25F1AA493335A9E71297E485B7AEF312C2 DUP2 PUSH1 0x2 DUP2 MLOAD DUP2 LT PUSH2 0x23FC JUMPI PUSH2 0x23FB PUSH2 0x4A07 JUMP JUMPDEST JUMPDEST PUSH1 0x20 MUL PUSH1 0x20 ADD ADD DUP2 DUP2 MSTORE POP POP PUSH32 0x1800DEEF121F1E76426A00665E5C4479674322D4F75EDADD46DEBD5CD992F6ED DUP2 PUSH1 0x3 DUP2 MLOAD DUP2 LT PUSH2 0x243D JUMPI PUSH2 0x243C PUSH2 0x4A07 JUMP JUMPDEST JUMPDEST PUSH1 0x20 MUL PUSH1 0x20 ADD ADD DUP2 DUP2 MSTORE POP POP PUSH32 0x275DC4A288D1AFB3CBB1AC09187524C7DB36395DF7BE3B99E673B13A075A65EC DUP2 PUSH1 0x4 DUP2 MLOAD DUP2 LT PUSH2 0x247E JUMPI PUSH2 0x247D PUSH2 0x4A07 JUMP JUMPDEST JUMPDEST PUSH1 0x20 MUL PUSH1 0x20 ADD ADD DUP2 DUP2 MSTORE POP POP PUSH32 0x1D9BEFCD05A5323E6DA4D435F3B617CDB3AF83285C2DF711EF39C01571827F9D DUP2 PUSH1 0x5 DUP2 MLOAD DUP2 LT PUSH2 0x24BF JUMPI PUSH2 0x24BE PUSH2 0x4A07 JUMP JUMPDEST JUMPDEST PUSH1 0x20 MUL PUSH1 0x20 ADD ADD DUP2 DUP2 MSTORE POP POP PUSH1 0x0 JUMPDEST DUP4 DUP2 LT ISZERO PUSH2 0x2764 JUMPI DUP6 DUP2 DUP2 MLOAD DUP2 LT PUSH2 0x24E9 JUMPI PUSH2 0x24E8 PUSH2 0x4A07 JUMP JUMPDEST JUMPDEST PUSH1 0x20 MUL PUSH1 0x20 ADD ADD MLOAD PUSH1 0x0 PUSH1 0x2 DUP2 LT PUSH2 0x2504 JUMPI PUSH2 0x2503 PUSH2 0x4A07 JUMP JUMPDEST JUMPDEST PUSH1 0x20 MUL ADD MLOAD DUP3 PUSH1 0x6 DUP1 DUP5 PUSH2 0x2518 SWAP2 SWAP1 PUSH2 0x5098 JUMP JUMPDEST PUSH2 0x2522 SWAP2 SWAP1 PUSH2 0x4E3F JUMP JUMPDEST DUP2 MLOAD DUP2 LT PUSH2 0x2533 JUMPI PUSH2 0x2532 PUSH2 0x4A07 JUMP JUMPDEST JUMPDEST PUSH1 0x20 MUL PUSH1 0x20 ADD ADD DUP2 DUP2 MSTORE POP POP DUP6 DUP2 DUP2 MLOAD DUP2 LT PUSH2 0x2552 JUMPI PUSH2 0x2551 PUSH2 0x4A07 JUMP JUMPDEST JUMPDEST PUSH1 0x20 MUL PUSH1 0x20 ADD ADD MLOAD PUSH1 0x1 PUSH1 0x2 DUP2 LT PUSH2 0x256D JUMPI PUSH2 0x256C PUSH2 0x4A07 JUMP JUMPDEST JUMPDEST PUSH1 0x20 MUL ADD MLOAD DUP3 PUSH1 0x7 PUSH1 0x6 DUP5 PUSH2 0x2582 SWAP2 SWAP1 PUSH2 0x5098 JUMP JUMPDEST PUSH2 0x258C SWAP2 SWAP1 PUSH2 0x4E3F JUMP JUMPDEST DUP2 MLOAD DUP2 LT PUSH2 0x259D JUMPI PUSH2 0x259C PUSH2 0x4A07 JUMP JUMPDEST JUMPDEST PUSH1 0x20 MUL PUSH1 0x20 ADD ADD DUP2 DUP2 MSTORE POP POP DUP7 DUP2 DUP2 MLOAD DUP2 LT PUSH2 0x25BC JUMPI PUSH2 0x25BB PUSH2 0x4A07 JUMP JUMPDEST JUMPDEST PUSH1 0x20 MUL PUSH1 0x20 ADD ADD MLOAD PUSH1 0x1 PUSH1 0x4 DUP2 LT PUSH2 0x25D7 JUMPI PUSH2 0x25D6 PUSH2 0x4A07 JUMP JUMPDEST JUMPDEST PUSH1 0x20 MUL ADD MLOAD DUP3 PUSH1 0x8 PUSH1 0x6 DUP5 PUSH2 0x25EC SWAP2 SWAP1 PUSH2 0x5098 JUMP JUMPDEST PUSH2 0x25F6 SWAP2 SWAP1 PUSH2 0x4E3F JUMP JUMPDEST DUP2 MLOAD DUP2 LT PUSH2 0x2607 JUMPI PUSH2 0x2606 PUSH2 0x4A07 JUMP JUMPDEST JUMPDEST PUSH1 0x20 MUL PUSH1 0x20 ADD ADD DUP2 DUP2 MSTORE POP POP DUP7 DUP2 DUP2 MLOAD DUP2 LT PUSH2 0x2626 JUMPI PUSH2 0x2625 PUSH2 0x4A07 JUMP JUMPDEST JUMPDEST PUSH1 0x20 MUL PUSH1 0x20 ADD ADD MLOAD PUSH1 0x0 PUSH1 0x4 DUP2 LT PUSH2 0x2641 JUMPI PUSH2 0x2640 PUSH2 0x4A07 JUMP JUMPDEST JUMPDEST PUSH1 0x20 MUL ADD MLOAD DUP3 PUSH1 0x9 PUSH1 0x6 DUP5 PUSH2 0x2656 SWAP2 SWAP1 PUSH2 0x5098 JUMP JUMPDEST PUSH2 0x2660 SWAP2 SWAP1 PUSH2 0x4E3F JUMP JUMPDEST DUP2 MLOAD DUP2 LT PUSH2 0x2671 JUMPI PUSH2 0x2670 PUSH2 0x4A07 JUMP JUMPDEST JUMPDEST PUSH1 0x20 MUL PUSH1 0x20 ADD ADD DUP2 DUP2 MSTORE POP POP DUP7 DUP2 DUP2 MLOAD DUP2 LT PUSH2 0x2690 JUMPI PUSH2 0x268F PUSH2 0x4A07 JUMP JUMPDEST JUMPDEST PUSH1 0x20 MUL PUSH1 0x20 ADD ADD MLOAD PUSH1 0x3 PUSH1 0x4 DUP2 LT PUSH2 0x26AB JUMPI PUSH2 0x26AA PUSH2 0x4A07 JUMP JUMPDEST JUMPDEST PUSH1 0x20 MUL ADD MLOAD DUP3 PUSH1 0xA PUSH1 0x6 DUP5 PUSH2 0x26C0 SWAP2 SWAP1 PUSH2 0x5098 JUMP JUMPDEST PUSH2 0x26CA SWAP2 SWAP1 PUSH2 0x4E3F JUMP JUMPDEST DUP2 MLOAD DUP2 LT PUSH2 0x26DB JUMPI PUSH2 0x26DA PUSH2 0x4A07 JUMP JUMPDEST JUMPDEST PUSH1 0x20 MUL PUSH1 0x20 ADD ADD DUP2 DUP2 MSTORE POP POP DUP7 DUP2 DUP2 MLOAD DUP2 LT PUSH2 0x26FA JUMPI PUSH2 0x26F9 PUSH2 0x4A07 JUMP JUMPDEST JUMPDEST PUSH1 0x20 MUL PUSH1 0x20 ADD ADD MLOAD PUSH1 0x2 PUSH1 0x4 DUP2 LT PUSH2 0x2715 JUMPI PUSH2 0x2714 PUSH2 0x4A07 JUMP JUMPDEST JUMPDEST PUSH1 0x20 MUL ADD MLOAD DUP3 PUSH1 0xB PUSH1 0x6 DUP5 PUSH2 0x272A SWAP2 SWAP1 PUSH2 0x5098 JUMP JUMPDEST PUSH2 0x2734 SWAP2 SWAP1 PUSH2 0x4E3F JUMP JUMPDEST DUP2 MLOAD DUP2 LT PUSH2 0x2745 JUMPI PUSH2 0x2744 PUSH2 0x4A07 JUMP JUMPDEST JUMPDEST PUSH1 0x20 MUL PUSH1 0x20 ADD ADD DUP2 DUP2 MSTORE POP POP DUP1 DUP1 PUSH2 0x275C SWAP1 PUSH2 0x50DA JUMP JUMPDEST SWAP2 POP POP PUSH2 0x24CE JUMP JUMPDEST POP PUSH2 0x276D PUSH2 0x4079 JUMP JUMPDEST PUSH1 0x0 PUSH1 0x20 DUP3 PUSH1 0x20 DUP7 MUL PUSH1 0x20 DUP7 ADD PUSH1 0x8 PUSH2 0x7D0 GAS SUB STATICCALL SWAP1 POP DUP1 PUSH1 0x0 DUP2 SUB PUSH2 0x278F JUMPI INVALID JUMPDEST POP DUP1 PUSH2 0x27D0 JUMPI PUSH1 0x40 MLOAD PUSH32 0x8C379A000000000000000000000000000000000000000000000000000000000 DUP2 MSTORE PUSH1 0x4 ADD PUSH2 0x27C7 SWAP1 PUSH2 0x4DB3 JUMP JUMPDEST PUSH1 0x40 MLOAD DUP1 SWAP2 SUB SWAP1 REVERT JUMPDEST PUSH1 0x0 DUP3 PUSH1 0x0 PUSH1 0x1 DUP2 LT PUSH2 0x27E6 JUMPI PUSH2 0x27E5 PUSH2 0x4A07 JUMP JUMPDEST JUMPDEST PUSH1 0x20 MUL ADD MLOAD EQ ISZERO SWAP6 POP POP POP POP POP POP SWAP4 SWAP3 POP POP POP JUMP JUMPDEST PUSH1 0x0 DUP1 PUSH32 0x7FFFFFFFFFFFFFFFFFFFFFFFFFFFFFFFFFFFFFFFFFFFFFFFFFFFFFFFFFFFFFFF DUP4 AND SWAP1 POP PUSH32 0x30644E72E131A029B85045B68181585D97816A916871CA8D3C208C16D87CFD47 DUP2 LT PUSH2 0x2854 JUMPI PUSH1 0x0 SWAP2 POP POP PUSH2 0x2873 JUMP JUMPDEST PUSH1 0x0 DUP2 SUB PUSH2 0x2866 JUMPI PUSH1 0x0 SWAP2 POP POP PUSH2 0x2873 JUMP JUMPDEST PUSH2 0x286F DUP2 PUSH2 0xB76 JUMP JUMPDEST SWAP2 POP POP JUMPDEST SWAP2 SWAP1 POP JUMP JUMPDEST PUSH1 0x0 DUP1 PUSH1 0x40 MLOAD PUSH1 0x20 DUP2 MSTORE PUSH1 0x20 DUP1 DUP3 ADD MSTORE PUSH1 0x20 PUSH1 0x40 DUP3 ADD MSTORE DUP4 PUSH1 0x60 DUP3 ADD MSTORE PUSH32 0x183227397098D014DC2822DB40C0AC2ECBC0B548B438E5469E10460B6C3E7EA3 PUSH1 0x80 DUP3 ADD MSTORE PUSH32 0x30644E72E131A029B85045B68181585D97816A916871CA8D3C208C16D87CFD47 PUSH1 0xA0 DUP3 ADD MSTORE PUSH1 0x20 DUP2 PUSH1 0xC0 DUP4 PUSH1 0x5 PUSH2 0x7D0 GAS SUB STATICCALL SWAP2 POP DUP1 MLOAD PUSH1 0x1 EQ SWAP3 POP POP DUP1 PUSH2 0x2939 JUMPI PUSH1 0x40 MLOAD PUSH32 0x8C379A000000000000000000000000000000000000000000000000000000000 DUP2 MSTORE PUSH1 0x4 ADD PUSH2 0x2930 SWAP1 PUSH2 0x5194 JUMP JUMPDEST PUSH1 0x40 MLOAD DUP1 SWAP2 SUB SWAP1 REVERT JUMPDEST DUP2 ISZERO SWAP2 POP POP SWAP2 SWAP1 POP JUMP JUMPDEST PUSH2 0x294B PUSH2 0x4057 JUMP JUMPDEST PUSH1 0x0 PUSH32 0x30644E72E131A029B85045B68181585D97816A916871CA8D3C208C16D87CFD47 DUP4 PUSH1 0x0 SHR PUSH2 0x297C SWAP2 SWAP1 PUSH2 0x51B4 JUMP JUMPDEST SWAP1 POP PUSH1 0x0 DUP1 PUSH1 0x0 SWAP1 POP JUMPDEST PUSH1 0x1 ISZERO PUSH2 0x2ABC JUMPI PUSH32 0x30644E72E131A029B85045B68181585D97816A916871CA8D3C208C16D87CFD47 DUP1 PUSH2 0x29BC JUMPI PUSH2 0x29BB PUSH2 0x4B6B JUMP JUMPDEST JUMPDEST DUP4 DUP5 MULMOD SWAP2 POP PUSH32 0x30644E72E131A029B85045B68181585D97816A916871CA8D3C208C16D87CFD47 DUP1 PUSH2 0x29F0 JUMPI PUSH2 0x29EF PUSH2 0x4B6B JUMP JUMPDEST JUMPDEST DUP4 DUP4 MULMOD SWAP2 POP PUSH32 0x30644E72E131A029B85045B68181585D97816A916871CA8D3C208C16D87CFD47 DUP1 PUSH2 0x2A24 JUMPI PUSH2 0x2A23 PUSH2 0x4B6B JUMP JUMPDEST JUMPDEST PUSH1 0x3 DUP4 ADDMOD SWAP2 POP PUSH2 0x2A33 DUP3 PUSH2 0x314A JUMP JUMPDEST DUP1 SWAP3 POP DUP2 SWAP4 POP POP POP DUP1 ISZERO PUSH2 0x2A82 JUMPI DUP3 DUP5 PUSH1 0x0 PUSH1 0x2 DUP2 LT PUSH2 0x2A56 JUMPI PUSH2 0x2A55 PUSH2 0x4A07 JUMP JUMPDEST JUMPDEST PUSH1 0x20 MUL ADD DUP2 DUP2 MSTORE POP POP DUP2 DUP5 PUSH1 0x1 PUSH1 0x2 DUP2 LT PUSH2 0x2A74 JUMPI PUSH2 0x2A73 PUSH2 0x4A07 JUMP JUMPDEST JUMPDEST PUSH1 0x20 MUL ADD DUP2 DUP2 MSTORE POP POP PUSH2 0x2ABC JUMP JUMPDEST PUSH32 0x30644E72E131A029B85045B68181585D97816A916871CA8D3C208C16D87CFD47 DUP1 PUSH2 0x2AB1 JUMPI PUSH2 0x2AB0 PUSH2 0x4B6B JUMP JUMPDEST JUMPDEST PUSH1 0x1 DUP5 ADDMOD SWAP3 POP PUSH2 0x2986 JUMP JUMPDEST POP POP POP SWAP2 SWAP1 POP JUMP JUMPDEST PUSH2 0x2ACC PUSH2 0x4057 JUMP JUMPDEST PUSH1 0x0 PUSH32 0x8000000000000000000000000000000000000000000000000000000000000000 DUP5 AND SWAP1 POP PUSH32 0x8000000000000000000000000000000000000000000000000000000000000000 DUP2 EQ DUP1 PUSH2 0x2B24 JUMPI POP PUSH1 0x1 DUP1 DUP5 AND EQ ISZERO JUMPDEST PUSH2 0x2B63 JUMPI PUSH1 0x40 MLOAD PUSH32 0x8C379A000000000000000000000000000000000000000000000000000000000 DUP2 MSTORE PUSH1 0x4 ADD PUSH2 0x2B5A SWAP1 PUSH2 0x4AB9 JUMP JUMPDEST PUSH1 0x40 MLOAD DUP1 SWAP2 SUB SWAP1 REVERT JUMPDEST PUSH1 0x40 MLOAD DUP1 PUSH1 0x40 ADD PUSH1 0x40 MSTORE DUP1 PUSH32 0x7FFFFFFFFFFFFFFFFFFFFFFFFFFFFFFFFFFFFFFFFFFFFFFFFFFFFFFFFFFFFFFF DUP7 AND DUP2 MSTORE PUSH1 0x20 ADD DUP5 DUP2 MSTORE POP SWAP2 POP POP SWAP3 SWAP2 POP POP JUMP JUMPDEST PUSH1 0x0 DUP2 MLOAD PUSH1 0x20 DUP4 ADD MLOAD PUSH32 0x30644E72E131A029B85045B68181585D97816A916871CA8D3C208C16D87CFD47 DUP3 DUP4 MULMOD PUSH32 0x30644E72E131A029B85045B68181585D97816A916871CA8D3C208C16D87CFD47 DUP3 DUP4 MULMOD DUP2 DUP3 DUP4 ADD ADD PUSH32 0x30644E72E131A029B85045B68181585D97816A916871CA8D3C208C16D87CFD47 DUP3 DUP4 DUP5 ADD ADDMOD PUSH32 0x30644E72E131A029B85045B68181585D97816A916871CA8D3C208C16D87CFD47 DUP7 DUP3 PUSH32 0x30644E72E131A029B85045B68181585D97816A916871CA8D3C208C16D87CFD47 SUB DUP7 ADD MULMOD SWAP4 POP PUSH32 0x30644E72E131A029B85045B68181585D97816A916871CA8D3C208C16D87CFD47 DUP6 DUP5 PUSH32 0x30644E72E131A029B85045B68181585D97816A916871CA8D3C208C16D87CFD47 SUB DUP5 ADD MULMOD SWAP3 POP PUSH32 0x30644E72E131A029B85045B68181585D97816A916871CA8D3C208C16D87CFD47 PUSH32 0x2B149D40CEB8AAAE81BE18991BE06AC3B5B4C5E559DBEFA33267E6DC24A138E5 DUP6 ADDMOD SWAP6 POP PUSH32 0x30644E72E131A029B85045B68181585D97816A916871CA8D3C208C16D87CFD47 PUSH31 0x9713B03AF0FED4CD2CAFADEED8FDF4A74FA084E52D1852E4A2BD0685C315D2 DUP5 ADDMOD SWAP5 POP PUSH1 0x40 DUP9 ADD MLOAD SWAP4 POP PUSH1 0x60 DUP9 ADD MLOAD SWAP3 POP PUSH32 0x30644E72E131A029B85045B68181585D97816A916871CA8D3C208C16D87CFD47 DUP1 DUP5 PUSH32 0x30644E72E131A029B85045B68181585D97816A916871CA8D3C208C16D87CFD47 SUB DUP7 ADDMOD PUSH32 0x30644E72E131A029B85045B68181585D97816A916871CA8D3C208C16D87CFD47 DUP6 DUP8 ADDMOD MULMOD SWAP2 POP PUSH32 0x30644E72E131A029B85045B68181585D97816A916871CA8D3C208C16D87CFD47 DUP4 DUP6 PUSH1 0x1 SHL MULMOD SWAP3 POP DUP3 DUP6 EQ DUP3 DUP8 EQ AND SWAP7 POP POP POP POP POP POP POP SWAP2 SWAP1 POP JUMP JUMPDEST PUSH1 0x0 DUP1 PUSH32 0x7FFFFFFFFFFFFFFFFFFFFFFFFFFFFFFFFFFFFFFFFFFFFFFFFFFFFFFFFFFFFFFF DUP4 PUSH1 0x0 PUSH1 0x2 DUP2 LT PUSH2 0x2E2F JUMPI PUSH2 0x2E2E PUSH2 0x4A07 JUMP JUMPDEST JUMPDEST PUSH1 0x20 MUL ADD MLOAD AND SWAP1 POP PUSH1 0x0 DUP4 PUSH1 0x1 PUSH1 0x2 DUP2 LT PUSH2 0x2E4D JUMPI PUSH2 0x2E4C PUSH2 0x4A07 JUMP JUMPDEST JUMPDEST PUSH1 0x20 MUL ADD MLOAD SWAP1 POP PUSH32 0x30644E72E131A029B85045B68181585D97816A916871CA8D3C208C16D87CFD47 DUP3 LT ISZERO DUP1 PUSH2 0x2EA3 JUMPI POP PUSH32 0x30644E72E131A029B85045B68181585D97816A916871CA8D3C208C16D87CFD47 DUP2 LT ISZERO JUMPDEST ISZERO PUSH2 0x2EB3 JUMPI PUSH1 0x0 SWAP3 POP POP POP PUSH2 0x2EF5 JUMP JUMPDEST PUSH1 0x0 DUP3 EQ DUP1 ISZERO PUSH2 0x2EC3 JUMPI POP PUSH1 0x0 DUP2 EQ JUMPDEST ISZERO PUSH2 0x2ED3 JUMPI PUSH1 0x0 SWAP3 POP POP POP PUSH2 0x2EF5 JUMP JUMPDEST PUSH2 0x2EF0 PUSH1 0x40 MLOAD DUP1 PUSH1 0x40 ADD PUSH1 0x40 MSTORE DUP1 DUP5 DUP2 MSTORE PUSH1 0x20 ADD DUP4 DUP2 MSTORE POP PUSH2 0x158D JUMP JUMPDEST SWAP3 POP POP POP JUMPDEST SWAP2 SWAP1 POP JUMP JUMPDEST PUSH1 0x0 DUP2 MLOAD PUSH1 0x20 DUP4 ADD MLOAD PUSH32 0x30644E72E131A029B85045B68181585D97816A916871CA8D3C208C16D87CFD47 DUP3 DUP4 MULMOD PUSH32 0x30644E72E131A029B85045B68181585D97816A916871CA8D3C208C16D87CFD47 DUP4 DUP3 MULMOD SWAP1 POP PUSH32 0x30644E72E131A029B85045B68181585D97816A916871CA8D3C208C16D87CFD47 PUSH1 0x3 DUP3 ADDMOD SWAP1 POP PUSH32 0x30644E72E131A029B85045B68181585D97816A916871CA8D3C208C16D87CFD47 DUP3 DUP4 MULMOD SWAP2 POP DUP1 DUP3 EQ SWAP4 POP POP POP POP SWAP2 SWAP1 POP JUMP JUMPDEST PUSH2 0x2FAF PUSH2 0x4057 JUMP JUMPDEST PUSH1 0x0 PUSH2 0x2FBB DUP5 DUP5 PUSH2 0x1E45 JUMP JUMPDEST SWAP1 POP PUSH1 0x0 DUP1 PUSH1 0x0 DUP1 PUSH1 0x18 DUP6 ADD PUSH24 0xFFFFFFFFFFFFFFFFFFFFFFFFFFFFFFFFFFFFFFFFFFFFFFFF DUP2 MLOAD AND SWAP4 POP PUSH1 0x30 DUP7 ADD SWAP1 POP PUSH24 0xFFFFFFFFFFFFFFFFFFFFFFFFFFFFFFFFFFFFFFFFFFFFFFFF DUP2 MLOAD AND SWAP5 POP PUSH32 0x30644E72E131A029B85045B68181585D97816A916871CA8D3C208C16D87CFD47 DUP6 PUSH32 0x30644E72E131A029B85045B68181585D97816A916871CA8D3C208C16D87CFD47 PUSH25 0x1000000000000000000000000000000000000000000000000 DUP8 MULMOD ADDMOD SWAP3 POP PUSH1 0x48 DUP7 ADD SWAP1 POP PUSH24 0xFFFFFFFFFFFFFFFFFFFFFFFFFFFFFFFFFFFFFFFFFFFFFFFF DUP2 MLOAD AND SWAP4 POP PUSH1 0x60 DUP7 ADD SWAP1 POP PUSH24 0xFFFFFFFFFFFFFFFFFFFFFFFFFFFFFFFFFFFFFFFFFFFFFFFF DUP2 MLOAD AND SWAP5 POP PUSH32 0x30644E72E131A029B85045B68181585D97816A916871CA8D3C208C16D87CFD47 DUP6 PUSH32 0x30644E72E131A029B85045B68181585D97816A916871CA8D3C208C16D87CFD47 PUSH25 0x1000000000000000000000000000000000000000000000000 DUP8 MULMOD ADDMOD SWAP2 POP POP PUSH1 0x40 MLOAD DUP1 PUSH1 0x40 ADD PUSH1 0x40 MSTORE DUP1 DUP4 DUP2 MSTORE PUSH1 0x20 ADD DUP3 DUP2 MSTORE POP SWAP6 POP POP POP POP POP POP SWAP3 SWAP2 POP POP JUMP JUMPDEST PUSH1 0x0 PUSH2 0x3143 DUP3 PUSH2 0x3193 JUMP JUMPDEST SWAP1 POP SWAP2 SWAP1 POP JUMP JUMPDEST PUSH1 0x0 DUP1 PUSH2 0x3156 DUP4 PUSH2 0x38ED JUMP JUMPDEST SWAP2 POP DUP3 PUSH32 0x30644E72E131A029B85045B68181585D97816A916871CA8D3C208C16D87CFD47 DUP1 PUSH2 0x3188 JUMPI PUSH2 0x3187 PUSH2 0x4B6B JUMP JUMPDEST JUMPDEST DUP4 DUP5 MULMOD EQ SWAP1 POP SWAP2 POP SWAP2 JUMP JUMPDEST PUSH1 0x0 PUSH32 0x30644E72E131A029B85045B68181585D97816A916871CA8D3C208C16D87CFD47 DUP1 DUP4 DUP5 MULMOD SWAP2 POP DUP1 DUP4 DUP4 MULMOD DUP2 DUP4 DUP3 MULMOD DUP3 DUP3 DUP4 MULMOD DUP4 DUP6 DUP4 MULMOD DUP5 DUP5 DUP4 MULMOD DUP6 DUP5 DUP5 MULMOD DUP7 DUP5 DUP6 MULMOD SWAP8 POP DUP7 DUP5 DUP5 MULMOD DUP8 DUP6 DUP5 MULMOD SWAP5 POP DUP8 DUP10 DUP11 MULMOD SWAP9 POP DUP8 DUP10 DUP11 MULMOD SWAP9 POP DUP8 DUP10 DUP11 MULMOD SWAP9 POP DUP8 DUP10 DUP11 MULMOD SWAP9 POP DUP8 DUP10 DUP11 MULMOD SWAP9 POP DUP8 DUP8 DUP11 MULMOD SWAP9 POP DUP8 DUP10 DUP11 MULMOD SWAP9 POP DUP8 DUP10 DUP11 MULMOD SWAP9 POP DUP8 DUP10 DUP11 MULMOD SWAP9 POP DUP8 DUP11 DUP11 MULMOD SWAP9 POP DUP8 DUP10 DUP11 MULMOD SWAP9 POP DUP8 DUP10 DUP11 MULMOD SWAP9 POP DUP8 DUP10 DUP11 MULMOD SWAP9 POP DUP8 DUP10 DUP11 MULMOD SWAP9 POP DUP8 DUP11 DUP11 MULMOD SWAP9 POP DUP8 DUP10 DUP11 MULMOD SWAP9 POP DUP8 DUP10 DUP11 MULMOD SWAP9 POP DUP8 DUP10 DUP11 MULMOD SWAP9 POP DUP8 DUP10 DUP11 MULMOD SWAP9 POP DUP8 DUP10 DUP11 MULMOD SWAP9 POP DUP8 DUP5 DUP11 MULMOD SWAP9 POP DUP8 DUP10 DUP11 MULMOD SWAP9 POP DUP8 DUP10 DUP11 MULMOD SWAP9 POP DUP8 DUP10 DUP11 MULMOD SWAP9 POP DUP8 DUP10 DUP11 MULMOD SWAP9 POP DUP8 DUP10 DUP11 MULMOD SWAP9 POP DUP8 DUP5 DUP11 MULMOD SWAP9 POP DUP8 DUP10 DUP11 MULMOD SWAP9 POP DUP8 DUP10 DUP11 MULMOD SWAP9 POP DUP8 DUP10 DUP11 MULMOD SWAP9 POP DUP8 DUP11 DUP11 MULMOD SWAP9 POP DUP8 DUP10 DUP11 MULMOD SWAP9 POP DUP8 DUP10 DUP11 MULMOD SWAP9 POP DUP8 DUP10 DUP11 MULMOD SWAP9 POP DUP8 DUP10 DUP11 MULMOD SWAP9 POP DUP8 DUP5 DUP11 MULMOD SWAP9 POP DUP8 DUP10 DUP11 MULMOD SWAP9 POP DUP8 DUP10 DUP11 MULMOD SWAP9 POP DUP8 DUP10 DUP11 MULMOD SWAP9 POP DUP8 DUP10 DUP11 MULMOD SWAP9 POP DUP8 DUP10 DUP11 MULMOD SWAP9 POP DUP8 DUP11 DUP11 MULMOD SWAP9 POP DUP8 DUP10 DUP11 MULMOD SWAP9 POP DUP8 DUP10 DUP11 MULMOD SWAP9 POP DUP8 DUP10 DUP11 MULMOD SWAP9 POP DUP8 DUP10 DUP11 MULMOD SWAP9 POP DUP8 DUP8 DUP11 MULMOD SWAP9 POP DUP8 DUP10 DUP11 MULMOD SWAP9 POP DUP8 DUP10 DUP11 MULMOD SWAP9 POP DUP8 DUP10 DUP11 MULMOD SWAP9 POP DUP8 DUP10 DUP11 MULMOD SWAP9 POP DUP8 DUP10 DUP11 MULMOD SWAP9 POP DUP8 DUP10 DUP11 MULMOD SWAP9 POP DUP8 DUP10 DUP11 MULMOD SWAP9 POP DUP8 DUP2 DUP11 MULMOD SWAP9 POP DUP8 DUP10 DUP11 MULMOD SWAP9 POP DUP8 DUP10 DUP11 MULMOD SWAP9 POP DUP8 DUP10 DUP11 MULMOD SWAP9 POP DUP8 DUP10 DUP11 MULMOD SWAP9 POP DUP8 DUP10 DUP11 MULMOD SWAP9 POP DUP8 DUP10 DUP11 MULMOD SWAP9 POP DUP8 DUP10 DUP11 MULMOD SWAP9 POP DUP8 DUP10 DUP11 MULMOD SWAP9 POP DUP8 DUP10 DUP11 MULMOD SWAP9 POP DUP8 DUP10 DUP11 MULMOD SWAP9 POP DUP8 DUP7 DUP11 MULMOD SWAP9 POP DUP8 DUP10 DUP11 MULMOD SWAP9 POP DUP8 DUP10 DUP11 MULMOD SWAP9 POP DUP8 DUP10 DUP11 MULMOD SWAP9 POP DUP8 DUP10 DUP11 MULMOD SWAP9 POP DUP8 DUP8 DUP11 MULMOD SWAP9 POP DUP8 DUP10 DUP11 MULMOD SWAP9 POP DUP8 DUP10 DUP11 MULMOD SWAP9 POP DUP8 DUP10 DUP11 MULMOD SWAP9 POP DUP8 DUP10 DUP11 MULMOD SWAP9 POP DUP8 DUP5 DUP11 MULMOD SWAP9 POP DUP8 DUP10 DUP11 MULMOD SWAP9 POP DUP8 DUP10 DUP11 MULMOD SWAP9 POP DUP8 DUP10 DUP11 MULMOD SWAP9 POP DUP8 DUP10 DUP11 MULMOD SWAP9 POP DUP8 DUP10 DUP11 MULMOD SWAP9 POP DUP8 DUP10 DUP11 MULMOD SWAP9 POP DUP8 DUP10 DUP11 MULMOD SWAP9 POP DUP8 DUP7 DUP11 MULMOD SWAP9 POP DUP8 DUP10 DUP11 MULMOD SWAP9 POP DUP8 DUP10 DUP11 MULMOD SWAP9 POP DUP8 DUP10 DUP11 MULMOD SWAP9 POP DUP8 DUP10 DUP11 MULMOD SWAP9 POP DUP8 DUP10 DUP11 MULMOD SWAP9 POP DUP8 DUP10 DUP11 MULMOD SWAP9 POP DUP8 DUP11 DUP11 MULMOD SWAP9 POP DUP8 DUP10 DUP11 MULMOD SWAP9 POP DUP8 DUP10 DUP11 MULMOD SWAP9 POP DUP8 DUP10 DUP11 MULMOD SWAP9 POP DUP8 DUP10 DUP11 MULMOD SWAP9 POP DUP8 DUP10 DUP11 MULMOD SWAP9 POP DUP8 DUP10 DUP11 MULMOD SWAP9 POP DUP8 DUP10 DUP11 MULMOD SWAP9 POP DUP8 DUP3 DUP11 MULMOD SWAP9 POP DUP8 DUP10 DUP11 MULMOD SWAP9 POP DUP8 DUP10 DUP11 MULMOD SWAP9 POP DUP8 DUP10 DUP11 MULMOD SWAP9 POP DUP8 DUP10 DUP11 MULMOD SWAP9 POP DUP8 DUP10 DUP11 MULMOD SWAP9 POP DUP8 DUP2 DUP11 MULMOD SWAP9 POP DUP8 DUP10 DUP11 MULMOD SWAP9 POP DUP8 DUP10 DUP11 MULMOD SWAP9 POP DUP8 DUP10 DUP11 MULMOD SWAP9 POP DUP8 DUP7 DUP11 MULMOD SWAP9 POP DUP8 DUP10 DUP11 MULMOD SWAP9 POP DUP8 DUP10 DUP11 MULMOD SWAP9 POP DUP8 DUP10 DUP11 MULMOD SWAP9 POP DUP8 DUP10 DUP11 MULMOD SWAP9 POP DUP8 DUP10 DUP11 MULMOD SWAP9 POP DUP8 DUP10 DUP11 MULMOD SWAP9 POP DUP8 DUP10 DUP11 MULMOD SWAP9 POP DUP8 DUP10 DUP11 MULMOD SWAP9 POP DUP8 DUP8 DUP11 MULMOD SWAP9 POP DUP8 DUP10 DUP11 MULMOD SWAP9 POP DUP8 DUP10 DUP11 MULMOD SWAP9 POP DUP8 DUP10 DUP11 MULMOD SWAP9 POP DUP8 DUP10 DUP11 MULMOD SWAP9 POP DUP8 DUP10 DUP11 MULMOD SWAP9 POP DUP8 DUP10 DUP11 MULMOD SWAP9 POP DUP8 DUP10 DUP11 MULMOD SWAP9 POP DUP8 DUP10 DUP11 MULMOD SWAP9 POP DUP8 DUP10 DUP11 MULMOD SWAP9 POP DUP8 DUP7 DUP11 MULMOD SWAP9 POP DUP8 DUP10 DUP11 MULMOD SWAP9 POP DUP8 DUP10 DUP11 MULMOD SWAP9 POP DUP8 DUP10 DUP11 MULMOD SWAP9 POP DUP8 DUP8 DUP11 MULMOD SWAP9 POP DUP8 DUP10 DUP11 MULMOD SWAP9 POP DUP8 DUP10 DUP11 MULMOD SWAP9 POP DUP8 DUP10 DUP11 MULMOD SWAP9 POP DUP8 DUP10 DUP11 MULMOD SWAP9 POP DUP8 DUP10 DUP11 MULMOD SWAP9 POP DUP8 DUP10 DUP11 MULMOD SWAP9 POP DUP8 DUP10 DUP11 MULMOD SWAP9 POP DUP8 DUP10 DUP11 MULMOD SWAP9 POP DUP8 DUP3 DUP11 MULMOD SWAP9 POP DUP8 DUP10 DUP11 MULMOD SWAP9 POP DUP8 DUP10 DUP11 MULMOD SWAP9 POP DUP8 DUP10 DUP11 MULMOD SWAP9 POP DUP8 DUP10 DUP11 MULMOD SWAP9 POP DUP8 DUP3 DUP11 MULMOD SWAP9 POP DUP8 DUP10 DUP11 MULMOD SWAP9 POP DUP8 DUP10 DUP11 MULMOD SWAP9 POP DUP8 DUP10 DUP11 MULMOD SWAP9 POP DUP8 DUP10 DUP11 MULMOD SWAP9 POP DUP8 DUP10 DUP11 MULMOD SWAP9 POP DUP8 DUP7 DUP11 MULMOD SWAP9 POP DUP8 DUP10 DUP11 MULMOD SWAP9 POP DUP8 DUP10 DUP11 MULMOD SWAP9 POP DUP8 DUP10 DUP11 MULMOD SWAP9 POP DUP8 DUP5 DUP11 MULMOD SWAP9 POP DUP8 DUP10 DUP11 MULMOD SWAP9 POP DUP8 DUP10 DUP11 MULMOD SWAP9 POP DUP8 DUP10 DUP11 MULMOD SWAP9 POP DUP8 DUP10 DUP11 MULMOD SWAP9 POP DUP8 DUP10 DUP11 MULMOD SWAP9 POP DUP8 DUP10 DUP11 MULMOD SWAP9 POP DUP8 DUP10 DUP11 MULMOD SWAP9 POP DUP8 DUP10 DUP11 MULMOD SWAP9 POP DUP8 DUP10 DUP11 MULMOD SWAP9 POP DUP8 DUP10 DUP11 MULMOD SWAP9 POP DUP8 DUP3 DUP11 MULMOD SWAP9 POP DUP8 DUP10 DUP11 MULMOD SWAP9 POP DUP8 DUP10 DUP11 MULMOD SWAP9 POP DUP8 DUP10 DUP11 MULMOD SWAP9 POP DUP8 DUP10 DUP11 MULMOD SWAP9 POP DUP8 DUP7 DUP11 MULMOD SWAP9 POP DUP8 DUP10 DUP11 MULMOD SWAP9 POP DUP8 DUP10 DUP11 MULMOD SWAP9 POP DUP8 DUP10 DUP11 MULMOD SWAP9 POP DUP8 DUP10 DUP11 MULMOD SWAP9 POP DUP8 DUP10 DUP11 MULMOD SWAP9 POP DUP8 DUP4 DUP11 MULMOD SWAP9 POP DUP8 DUP10 DUP11 MULMOD SWAP9 POP DUP8 DUP10 DUP11 MULMOD SWAP9 POP DUP8 DUP10 DUP11 MULMOD SWAP9 POP DUP8 DUP10 DUP11 MULMOD SWAP9 POP DUP8 DUP10 DUP11 MULMOD SWAP9 POP DUP8 DUP10 DUP11 MULMOD SWAP9 POP DUP8 DUP10 DUP11 MULMOD SWAP9 POP DUP8 DUP3 DUP11 MULMOD SWAP9 POP DUP8 DUP10 DUP11 MULMOD SWAP9 POP DUP8 DUP10 DUP11 MULMOD SWAP9 POP DUP8 DUP11 DUP11 MULMOD SWAP9 POP DUP8 DUP10 DUP11 MULMOD SWAP9 POP DUP8 DUP10 DUP11 MULMOD SWAP9 POP DUP8 DUP10 DUP11 MULMOD SWAP9 POP DUP8 DUP10 DUP11 MULMOD SWAP9 POP DUP8 DUP10 DUP11 MULMOD SWAP9 POP DUP8 DUP10 DUP11 MULMOD SWAP9 POP DUP8 DUP10 DUP11 MULMOD SWAP9 POP DUP8 DUP5 DUP11 MULMOD SWAP9 POP DUP8 DUP10 DUP11 MULMOD SWAP9 POP DUP8 DUP10 DUP11 MULMOD SWAP9 POP DUP8 DUP10 DUP11 MULMOD SWAP9 POP DUP8 DUP10 DUP11 MULMOD SWAP9 POP DUP8 DUP10 DUP11 MULMOD SWAP9 POP DUP8 DUP10 DUP11 MULMOD SWAP9 POP DUP8 DUP5 DUP11 MULMOD SWAP9 POP DUP8 DUP10 DUP11 MULMOD SWAP9 POP DUP8 DUP10 DUP11 MULMOD SWAP9 POP DUP8 DUP10 DUP11 MULMOD SWAP9 POP DUP8 DUP10 DUP11 MULMOD SWAP9 POP DUP8 DUP10 DUP11 MULMOD SWAP9 POP DUP8 DUP7 DUP11 MULMOD SWAP9 POP DUP8 DUP10 DUP11 MULMOD SWAP9 POP DUP8 DUP10 DUP11 MULMOD SWAP9 POP DUP8 DUP11 DUP11 MULMOD SWAP9 POP DUP8 DUP10 DUP11 MULMOD SWAP9 POP DUP8 DUP10 DUP11 MULMOD SWAP9 POP DUP8 DUP10 DUP11 MULMOD SWAP9 POP DUP8 DUP10 DUP11 MULMOD SWAP9 POP DUP8 DUP10 DUP11 MULMOD SWAP9 POP DUP8 DUP10 DUP11 MULMOD SWAP9 POP DUP8 DUP10 DUP11 MULMOD SWAP9 POP DUP8 DUP2 DUP11 MULMOD SWAP9 POP DUP8 DUP10 DUP11 MULMOD SWAP9 POP DUP8 DUP10 DUP11 MULMOD SWAP9 POP DUP8 DUP10 DUP11 MULMOD SWAP9 POP DUP8 DUP10 DUP11 MULMOD SWAP9 POP DUP8 DUP10 DUP11 MULMOD SWAP9 POP DUP8 DUP10 DUP11 MULMOD SWAP9 POP DUP8 DUP6 DUP11 MULMOD SWAP9 POP DUP8 DUP10 DUP11 MULMOD SWAP9 POP DUP8 DUP10 DUP11 MULMOD SWAP9 POP DUP8 DUP10 DUP11 MULMOD SWAP9 POP DUP8 DUP10 DUP11 MULMOD SWAP9 POP DUP8 DUP10 DUP11 MULMOD SWAP9 POP DUP8 DUP11 DUP11 MULMOD SWAP9 POP DUP8 DUP10 DUP11 MULMOD SWAP9 POP DUP8 DUP10 DUP11 MULMOD SWAP9 POP DUP8 DUP10 DUP11 MULMOD SWAP9 POP DUP8 DUP10 DUP11 MULMOD SWAP9 POP DUP8 DUP10 DUP11 MULMOD SWAP9 POP DUP8 DUP10 DUP11 MULMOD SWAP9 POP DUP8 DUP11 DUP11 MULMOD SWAP9 POP DUP8 DUP10 DUP11 MULMOD SWAP9 POP DUP8 DUP10 DUP11 MULMOD SWAP9 POP DUP8 DUP10 DUP11 MULMOD SWAP9 POP DUP8 DUP10 DUP11 MULMOD SWAP9 POP DUP8 DUP10 DUP11 MULMOD SWAP9 POP DUP8 DUP8 DUP11 MULMOD SWAP9 POP DUP8 DUP10 DUP11 MULMOD SWAP9 POP DUP8 DUP10 DUP11 MULMOD SWAP9 POP DUP8 DUP10 DUP11 MULMOD SWAP9 POP DUP8 DUP10 DUP11 MULMOD SWAP9 POP DUP8 DUP10 DUP11 MULMOD SWAP9 POP DUP8 DUP10 DUP11 MULMOD SWAP9 POP DUP8 DUP10 DUP11 MULMOD SWAP9 POP DUP8 DUP10 DUP11 MULMOD SWAP9 POP DUP8 DUP10 DUP11 MULMOD SWAP9 POP DUP8 DUP3 DUP11 MULMOD SWAP9 POP DUP8 DUP10 DUP11 MULMOD SWAP9 POP DUP8 DUP10 DUP11 MULMOD SWAP9 POP DUP8 DUP10 DUP11 MULMOD SWAP9 POP DUP8 DUP8 DUP11 MULMOD SWAP9 POP DUP8 DUP10 DUP11 MULMOD SWAP9 POP DUP8 DUP10 DUP11 MULMOD SWAP9 POP DUP8 DUP10 DUP11 MULMOD SWAP9 POP DUP8 DUP8 DUP11 MULMOD SWAP9 POP DUP8 DUP10 DUP11 MULMOD SWAP9 POP DUP8 DUP10 DUP11 MULMOD SWAP9 POP DUP8 DUP10 DUP11 MULMOD SWAP9 POP DUP8 DUP10 DUP11 MULMOD SWAP9 POP DUP8 DUP10 DUP11 MULMOD SWAP9 POP DUP8 DUP10 DUP11 MULMOD SWAP9 POP DUP8 DUP10 DUP11 MULMOD SWAP9 POP DUP8 DUP10 DUP11 MULMOD SWAP9 POP DUP8 DUP6 DUP11 MULMOD SWAP9 POP DUP8 DUP10 DUP11 MULMOD SWAP9 POP DUP8 DUP10 DUP11 MULMOD SWAP9 POP DUP8 DUP10 DUP11 MULMOD SWAP9 POP DUP8 DUP10 DUP11 MULMOD SWAP9 POP DUP8 DUP4 DUP11 MULMOD SWAP9 POP DUP8 DUP10 DUP11 MULMOD SWAP9 POP DUP8 DUP10 DUP11 MULMOD SWAP9 POP DUP8 DUP10 DUP11 MULMOD SWAP9 POP DUP8 DUP10 DUP11 MULMOD SWAP9 POP DUP8 DUP6 DUP11 MULMOD SWAP9 POP DUP8 DUP10 DUP11 MULMOD SWAP9 POP DUP8 DUP10 DUP11 MULMOD SWAP9 POP DUP8 DUP10 DUP11 MULMOD SWAP9 POP DUP8 DUP7 DUP11 MULMOD SWAP9 POP DUP8 DUP10 DUP11 MULMOD SWAP9 POP DUP8 DUP10 DUP11 MULMOD SWAP9 POP DUP8 DUP11 DUP11 MULMOD SWAP9 POP DUP8 DUP10 DUP11 MULMOD SWAP9 POP DUP8 DUP10 DUP11 MULMOD SWAP9 POP DUP8 DUP10 DUP11 MULMOD SWAP9 POP DUP8 DUP10 DUP11 MULMOD SWAP9 POP DUP8 DUP10 DUP11 MULMOD SWAP9 POP DUP8 DUP10 DUP11 MULMOD SWAP9 POP DUP8 DUP7 DUP11 MULMOD SWAP9 POP POP POP POP POP POP POP POP POP SWAP2 SWAP1 POP JUMP JUMPDEST PUSH1 0x0 PUSH32 0x30644E72E131A029B85045B68181585D97816A916871CA8D3C208C16D87CFD47 DUP1 DUP4 DUP5 MULMOD SWAP2 POP DUP1 DUP4 DUP4 MULMOD DUP2 DUP4 DUP3 MULMOD DUP3 DUP3 DUP4 MULMOD DUP4 DUP6 DUP4 MULMOD DUP5 DUP5 DUP4 MULMOD DUP6 DUP5 DUP5 MULMOD DUP7 DUP5 DUP6 MULMOD SWAP8 POP DUP7 DUP5 DUP5 MULMOD DUP8 DUP6 DUP5 MULMOD SWAP5 POP DUP8 DUP10 DUP11 MULMOD SWAP9 POP DUP8 DUP10 DUP11 MULMOD SWAP9 POP DUP8 DUP10 DUP11 MULMOD SWAP9 POP DUP8 DUP10 DUP11 MULMOD SWAP9 POP DUP8 DUP10 DUP11 MULMOD SWAP9 POP DUP8 DUP8 DUP11 MULMOD SWAP9 POP DUP8 DUP10 DUP11 MULMOD SWAP9 POP DUP8 DUP10 DUP11 MULMOD SWAP9 POP DUP8 DUP10 DUP11 MULMOD SWAP9 POP DUP8 DUP11 DUP11 MULMOD SWAP9 POP DUP8 DUP10 DUP11 MULMOD SWAP9 POP DUP8 DUP10 DUP11 MULMOD SWAP9 POP DUP8 DUP10 DUP11 MULMOD SWAP9 POP DUP8 DUP10 DUP11 MULMOD SWAP9 POP DUP8 DUP11 DUP11 MULMOD SWAP9 POP DUP8 DUP10 DUP11 MULMOD SWAP9 POP DUP8 DUP10 DUP11 MULMOD SWAP9 POP DUP8 DUP10 DUP11 MULMOD SWAP9 POP DUP8 DUP10 DUP11 MULMOD SWAP9 POP DUP8 DUP10 DUP11 MULMOD SWAP9 POP DUP8 DUP5 DUP11 MULMOD SWAP9 POP DUP8 DUP10 DUP11 MULMOD SWAP9 POP DUP8 DUP10 DUP11 MULMOD SWAP9 POP DUP8 DUP10 DUP11 MULMOD SWAP9 POP DUP8 DUP10 DUP11 MULMOD SWAP9 POP DUP8 DUP10 DUP11 MULMOD SWAP9 POP DUP8 DUP5 DUP11 MULMOD SWAP9 POP DUP8 DUP10 DUP11 MULMOD SWAP9 POP DUP8 DUP10 DUP11 MULMOD SWAP9 POP DUP8 DUP10 DUP11 MULMOD SWAP9 POP DUP8 DUP11 DUP11 MULMOD SWAP9 POP DUP8 DUP10 DUP11 MULMOD SWAP9 POP DUP8 DUP10 DUP11 MULMOD SWAP9 POP DUP8 DUP10 DUP11 MULMOD SWAP9 POP DUP8 DUP10 DUP11 MULMOD SWAP9 POP DUP8 DUP5 DUP11 MULMOD SWAP9 POP DUP8 DUP10 DUP11 MULMOD SWAP9 POP DUP8 DUP10 DUP11 MULMOD SWAP9 POP DUP8 DUP10 DUP11 MULMOD SWAP9 POP DUP8 DUP10 DUP11 MULMOD SWAP9 POP DUP8 DUP10 DUP11 MULMOD SWAP9 POP DUP8 DUP11 DUP11 MULMOD SWAP9 POP DUP8 DUP10 DUP11 MULMOD SWAP9 POP DUP8 DUP10 DUP11 MULMOD SWAP9 POP DUP8 DUP10 DUP11 MULMOD SWAP9 POP DUP8 DUP10 DUP11 MULMOD SWAP9 POP DUP8 DUP8 DUP11 MULMOD SWAP9 POP DUP8 DUP10 DUP11 MULMOD SWAP9 POP DUP8 DUP10 DUP11 MULMOD SWAP9 POP DUP8 DUP10 DUP11 MULMOD SWAP9 POP DUP8 DUP10 DUP11 MULMOD SWAP9 POP DUP8 DUP10 DUP11 MULMOD SWAP9 POP DUP8 DUP10 DUP11 MULMOD SWAP9 POP DUP8 DUP10 DUP11 MULMOD SWAP9 POP DUP8 DUP2 DUP11 MULMOD SWAP9 POP DUP8 DUP10 DUP11 MULMOD SWAP9 POP DUP8 DUP10 DUP11 MULMOD SWAP9 POP DUP8 DUP10 DUP11 MULMOD SWAP9 POP DUP8 DUP10 DUP11 MULMOD SWAP9 POP DUP8 DUP10 DUP11 MULMOD SWAP9 POP DUP8 DUP10 DUP11 MULMOD SWAP9 POP DUP8 DUP10 DUP11 MULMOD SWAP9 POP DUP8 DUP10 DUP11 MULMOD SWAP9 POP DUP8 DUP10 DUP11 MULMOD SWAP9 POP DUP8 DUP10 DUP11 MULMOD SWAP9 POP DUP8 DUP7 DUP11 MULMOD SWAP9 POP DUP8 DUP10 DUP11 MULMOD SWAP9 POP DUP8 DUP10 DUP11 MULMOD SWAP9 POP DUP8 DUP10 DUP11 MULMOD SWAP9 POP DUP8 DUP10 DUP11 MULMOD SWAP9 POP DUP8 DUP8 DUP11 MULMOD SWAP9 POP DUP8 DUP10 DUP11 MULMOD SWAP9 POP DUP8 DUP10 DUP11 MULMOD SWAP9 POP DUP8 DUP10 DUP11 MULMOD SWAP9 POP DUP8 DUP10 DUP11 MULMOD SWAP9 POP DUP8 DUP5 DUP11 MULMOD SWAP9 POP DUP8 DUP10 DUP11 MULMOD SWAP9 POP DUP8 DUP10 DUP11 MULMOD SWAP9 POP DUP8 DUP10 DUP11 MULMOD SWAP9 POP DUP8 DUP10 DUP11 MULMOD SWAP9 POP DUP8 DUP10 DUP11 MULMOD SWAP9 POP DUP8 DUP10 DUP11 MULMOD SWAP9 POP DUP8 DUP10 DUP11 MULMOD SWAP9 POP DUP8 DUP7 DUP11 MULMOD SWAP9 POP DUP8 DUP10 DUP11 MULMOD SWAP9 POP DUP8 DUP10 DUP11 MULMOD SWAP9 POP DUP8 DUP10 DUP11 MULMOD SWAP9 POP DUP8 DUP10 DUP11 MULMOD SWAP9 POP DUP8 DUP10 DUP11 MULMOD SWAP9 POP DUP8 DUP10 DUP11 MULMOD SWAP9 POP DUP8 DUP11 DUP11 MULMOD SWAP9 POP DUP8 DUP10 DUP11 MULMOD SWAP9 POP DUP8 DUP10 DUP11 MULMOD SWAP9 POP DUP8 DUP10 DUP11 MULMOD SWAP9 POP DUP8 DUP10 DUP11 MULMOD SWAP9 POP DUP8 DUP10 DUP11 MULMOD SWAP9 POP DUP8 DUP10 DUP11 MULMOD SWAP9 POP DUP8 DUP10 DUP11 MULMOD SWAP9 POP DUP8 DUP3 DUP11 MULMOD SWAP9 POP DUP8 DUP10 DUP11 MULMOD SWAP9 POP DUP8 DUP10 DUP11 MULMOD SWAP9 POP DUP8 DUP10 DUP11 MULMOD SWAP9 POP DUP8 DUP10 DUP11 MULMOD SWAP9 POP DUP8 DUP10 DUP11 MULMOD SWAP9 POP DUP8 DUP2 DUP11 MULMOD SWAP9 POP DUP8 DUP10 DUP11 MULMOD SWAP9 POP DUP8 DUP10 DUP11 MULMOD SWAP9 POP DUP8 DUP10 DUP11 MULMOD SWAP9 POP DUP8 DUP7 DUP11 MULMOD SWAP9 POP DUP8 DUP10 DUP11 MULMOD SWAP9 POP DUP8 DUP10 DUP11 MULMOD SWAP9 POP DUP8 DUP10 DUP11 MULMOD SWAP9 POP DUP8 DUP10 DUP11 MULMOD SWAP9 POP DUP8 DUP10 DUP11 MULMOD SWAP9 POP DUP8 DUP10 DUP11 MULMOD SWAP9 POP DUP8 DUP10 DUP11 MULMOD SWAP9 POP DUP8 DUP10 DUP11 MULMOD SWAP9 POP DUP8 DUP8 DUP11 MULMOD SWAP9 POP DUP8 DUP10 DUP11 MULMOD SWAP9 POP DUP8 DUP10 DUP11 MULMOD SWAP9 POP DUP8 DUP10 DUP11 MULMOD SWAP9 POP DUP8 DUP10 DUP11 MULMOD SWAP9 POP DUP8 DUP10 DUP11 MULMOD SWAP9 POP DUP8 DUP10 DUP11 MULMOD SWAP9 POP DUP8 DUP10 DUP11 MULMOD SWAP9 POP DUP8 DUP10 DUP11 MULMOD SWAP9 POP DUP8 DUP10 DUP11 MULMOD SWAP9 POP DUP8 DUP7 DUP11 MULMOD SWAP9 POP DUP8 DUP10 DUP11 MULMOD SWAP9 POP DUP8 DUP10 DUP11 MULMOD SWAP9 POP DUP8 DUP10 DUP11 MULMOD SWAP9 POP DUP8 DUP8 DUP11 MULMOD SWAP9 POP DUP8 DUP10 DUP11 MULMOD SWAP9 POP DUP8 DUP10 DUP11 MULMOD SWAP9 POP DUP8 DUP10 DUP11 MULMOD SWAP9 POP DUP8 DUP10 DUP11 MULMOD SWAP9 POP DUP8 DUP10 DUP11 MULMOD SWAP9 POP DUP8 DUP10 DUP11 MULMOD SWAP9 POP DUP8 DUP10 DUP11 MULMOD SWAP9 POP DUP8 DUP10 DUP11 MULMOD SWAP9 POP DUP8 DUP3 DUP11 MULMOD SWAP9 POP DUP8 DUP10 DUP11 MULMOD SWAP9 POP DUP8 DUP10 DUP11 MULMOD SWAP9 POP DUP8 DUP10 DUP11 MULMOD SWAP9 POP DUP8 DUP10 DUP11 MULMOD SWAP9 POP DUP8 DUP3 DUP11 MULMOD SWAP9 POP DUP8 DUP10 DUP11 MULMOD SWAP9 POP DUP8 DUP10 DUP11 MULMOD SWAP9 POP DUP8 DUP10 DUP11 MULMOD SWAP9 POP DUP8 DUP10 DUP11 MULMOD SWAP9 POP DUP8 DUP10 DUP11 MULMOD SWAP9 POP DUP8 DUP7 DUP11 MULMOD SWAP9 POP DUP8 DUP10 DUP11 MULMOD SWAP9 POP DUP8 DUP10 DUP11 MULMOD SWAP9 POP DUP8 DUP10 DUP11 MULMOD SWAP9 POP DUP8 DUP5 DUP11 MULMOD SWAP9 POP DUP8 DUP10 DUP11 MULMOD SWAP9 POP DUP8 DUP10 DUP11 MULMOD SWAP9 POP DUP8 DUP10 DUP11 MULMOD SWAP9 POP DUP8 DUP10 DUP11 MULMOD SWAP9 POP DUP8 DUP10 DUP11 MULMOD SWAP9 POP DUP8 DUP10 DUP11 MULMOD SWAP9 POP DUP8 DUP10 DUP11 MULMOD SWAP9 POP DUP8 DUP10 DUP11 MULMOD SWAP9 POP DUP8 DUP10 DUP11 MULMOD SWAP9 POP DUP8 DUP10 DUP11 MULMOD SWAP9 POP DUP8 DUP3 DUP11 MULMOD SWAP9 POP DUP8 DUP10 DUP11 MULMOD SWAP9 POP DUP8 DUP10 DUP11 MULMOD SWAP9 POP DUP8 DUP10 DUP11 MULMOD SWAP9 POP DUP8 DUP10 DUP11 MULMOD SWAP9 POP DUP8 DUP7 DUP11 MULMOD SWAP9 POP DUP8 DUP10 DUP11 MULMOD SWAP9 POP DUP8 DUP10 DUP11 MULMOD SWAP9 POP DUP8 DUP10 DUP11 MULMOD SWAP9 POP DUP8 DUP10 DUP11 MULMOD SWAP9 POP DUP8 DUP10 DUP11 MULMOD SWAP9 POP DUP8 DUP4 DUP11 MULMOD SWAP9 POP DUP8 DUP10 DUP11 MULMOD SWAP9 POP DUP8 DUP10 DUP11 MULMOD SWAP9 POP DUP8 DUP10 DUP11 MULMOD SWAP9 POP DUP8 DUP10 DUP11 MULMOD SWAP9 POP DUP8 DUP10 DUP11 MULMOD SWAP9 POP DUP8 DUP10 DUP11 MULMOD SWAP9 POP DUP8 DUP10 DUP11 MULMOD SWAP9 POP DUP8 DUP3 DUP11 MULMOD SWAP9 POP DUP8 DUP10 DUP11 MULMOD SWAP9 POP DUP8 DUP10 DUP11 MULMOD SWAP9 POP DUP8 DUP11 DUP11 MULMOD SWAP9 POP DUP8 DUP10 DUP11 MULMOD SWAP9 POP DUP8 DUP10 DUP11 MULMOD SWAP9 POP DUP8 DUP10 DUP11 MULMOD SWAP9 POP DUP8 DUP10 DUP11 MULMOD SWAP9 POP DUP8 DUP10 DUP11 MULMOD SWAP9 POP DUP8 DUP10 DUP11 MULMOD SWAP9 POP DUP8 DUP10 DUP11 MULMOD SWAP9 POP DUP8 DUP5 DUP11 MULMOD SWAP9 POP DUP8 DUP10 DUP11 MULMOD SWAP9 POP DUP8 DUP10 DUP11 MULMOD SWAP9 POP DUP8 DUP10 DUP11 MULMOD SWAP9 POP DUP8 DUP10 DUP11 MULMOD SWAP9 POP DUP8 DUP10 DUP11 MULMOD SWAP9 POP DUP8 DUP10 DUP11 MULMOD SWAP9 POP DUP8 DUP5 DUP11 MULMOD SWAP9 POP DUP8 DUP10 DUP11 MULMOD SWAP9 POP DUP8 DUP10 DUP11 MULMOD SWAP9 POP DUP8 DUP10 DUP11 MULMOD SWAP9 POP DUP8 DUP10 DUP11 MULMOD SWAP9 POP DUP8 DUP10 DUP11 MULMOD SWAP9 POP DUP8 DUP7 DUP11 MULMOD SWAP9 POP DUP8 DUP10 DUP11 MULMOD SWAP9 POP DUP8 DUP10 DUP11 MULMOD SWAP9 POP DUP8 DUP11 DUP11 MULMOD SWAP9 POP DUP8 DUP10 DUP11 MULMOD SWAP9 POP DUP8 DUP10 DUP11 MULMOD SWAP9 POP DUP8 DUP10 DUP11 MULMOD SWAP9 POP DUP8 DUP10 DUP11 MULMOD SWAP9 POP DUP8 DUP10 DUP11 MULMOD SWAP9 POP DUP8 DUP10 DUP11 MULMOD SWAP9 POP DUP8 DUP10 DUP11 MULMOD SWAP9 POP DUP8 DUP2 DUP11 MULMOD SWAP9 POP DUP8 DUP10 DUP11 MULMOD SWAP9 POP DUP8 DUP10 DUP11 MULMOD SWAP9 POP DUP8 DUP10 DUP11 MULMOD SWAP9 POP DUP8 DUP10 DUP11 MULMOD SWAP9 POP DUP8 DUP10 DUP11 MULMOD SWAP9 POP DUP8 DUP10 DUP11 MULMOD SWAP9 POP DUP8 DUP6 DUP11 MULMOD SWAP9 POP DUP8 DUP10 DUP11 MULMOD SWAP9 POP DUP8 DUP10 DUP11 MULMOD SWAP9 POP DUP8 DUP10 DUP11 MULMOD SWAP9 POP DUP8 DUP10 DUP11 MULMOD SWAP9 POP DUP8 DUP10 DUP11 MULMOD SWAP9 POP DUP8 DUP11 DUP11 MULMOD SWAP9 POP DUP8 DUP10 DUP11 MULMOD SWAP9 POP DUP8 DUP10 DUP11 MULMOD SWAP9 POP DUP8 DUP10 DUP11 MULMOD SWAP9 POP DUP8 DUP10 DUP11 MULMOD SWAP9 POP DUP8 DUP10 DUP11 MULMOD SWAP9 POP DUP8 DUP10 DUP11 MULMOD SWAP9 POP DUP8 DUP11 DUP11 MULMOD SWAP9 POP DUP8 DUP10 DUP11 MULMOD SWAP9 POP DUP8 DUP10 DUP11 MULMOD SWAP9 POP DUP8 DUP10 DUP11 MULMOD SWAP9 POP DUP8 DUP10 DUP11 MULMOD SWAP9 POP DUP8 DUP10 DUP11 MULMOD SWAP9 POP DUP8 DUP8 DUP11 MULMOD SWAP9 POP DUP8 DUP10 DUP11 MULMOD SWAP9 POP DUP8 DUP10 DUP11 MULMOD SWAP9 POP DUP8 DUP10 DUP11 MULMOD SWAP9 POP DUP8 DUP10 DUP11 MULMOD SWAP9 POP DUP8 DUP10 DUP11 MULMOD SWAP9 POP DUP8 DUP10 DUP11 MULMOD SWAP9 POP DUP8 DUP10 DUP11 MULMOD SWAP9 POP DUP8 DUP10 DUP11 MULMOD SWAP9 POP DUP8 DUP10 DUP11 MULMOD SWAP9 POP DUP8 DUP3 DUP11 MULMOD SWAP9 POP DUP8 DUP10 DUP11 MULMOD SWAP9 POP DUP8 DUP10 DUP11 MULMOD SWAP9 POP DUP8 DUP10 DUP11 MULMOD SWAP9 POP DUP8 DUP8 DUP11 MULMOD SWAP9 POP DUP8 DUP10 DUP11 MULMOD SWAP9 POP DUP8 DUP10 DUP11 MULMOD SWAP9 POP DUP8 DUP10 DUP11 MULMOD SWAP9 POP DUP8 DUP8 DUP11 MULMOD SWAP9 POP DUP8 DUP10 DUP11 MULMOD SWAP9 POP DUP8 DUP10 DUP11 MULMOD SWAP9 POP DUP8 DUP10 DUP11 MULMOD SWAP9 POP DUP8 DUP10 DUP11 MULMOD SWAP9 POP DUP8 DUP10 DUP11 MULMOD SWAP9 POP DUP8 DUP10 DUP11 MULMOD SWAP9 POP DUP8 DUP10 DUP11 MULMOD SWAP9 POP DUP8 DUP10 DUP11 MULMOD SWAP9 POP DUP8 DUP6 DUP11 MULMOD SWAP9 POP DUP8 DUP10 DUP11 MULMOD SWAP9 POP DUP8 DUP10 DUP11 MULMOD SWAP9 POP DUP8 DUP10 DUP11 MULMOD SWAP9 POP DUP8 DUP10 DUP11 MULMOD SWAP9 POP DUP8 DUP4 DUP11 MULMOD SWAP9 POP DUP8 DUP10 DUP11 MULMOD SWAP9 POP DUP8 DUP10 DUP11 MULMOD SWAP9 POP DUP8 DUP10 DUP11 MULMOD SWAP9 POP DUP8 DUP10 DUP11 MULMOD SWAP9 POP DUP8 DUP6 DUP11 MULMOD SWAP9 POP DUP8 DUP10 DUP11 MULMOD SWAP9 POP DUP8 DUP10 DUP11 MULMOD SWAP9 POP DUP8 DUP10 DUP11 MULMOD SWAP9 POP DUP8 DUP7 DUP11 MULMOD SWAP9 POP DUP8 DUP10 DUP11 MULMOD SWAP9 POP DUP8 DUP10 DUP11 MULMOD SWAP9 POP DUP8 DUP10 DUP11 MULMOD SWAP9 POP DUP8 DUP10 DUP11 MULMOD SWAP9 POP DUP8 DUP10 DUP11 MULMOD SWAP9 POP DUP8 DUP4 DUP11 MULMOD SWAP9 POP DUP8 DUP10 DUP11 MULMOD SWAP9 POP POP POP POP POP POP POP POP POP SWAP2 SWAP1 POP JUMP JUMPDEST PUSH1 0x40 MLOAD DUP1 PUSH1 0x80 ADD PUSH1 0x40 MSTORE DUP1 PUSH1 0x4 SWAP1 PUSH1 0x20 DUP3 MUL DUP1 CALLDATASIZE DUP4 CALLDATACOPY DUP1 DUP3 ADD SWAP2 POP POP SWAP1 POP POP SWAP1 JUMP JUMPDEST PUSH1 0x40 MLOAD DUP1 PUSH1 0x40 ADD PUSH1 0x40 MSTORE DUP1 PUSH1 0x2 SWAP1 PUSH1 0x20 DUP3 MUL DUP1 CALLDATASIZE DUP4 CALLDATACOPY DUP1 DUP3 ADD SWAP2 POP POP SWAP1 POP POP SWAP1 JUMP JUMPDEST PUSH1 0x40 MLOAD DUP1 PUSH1 0x20 ADD PUSH1 0x40 MSTORE DUP1 PUSH1 0x1 SWAP1 PUSH1 0x20 DUP3 MUL DUP1 CALLDATASIZE DUP4 CALLDATACOPY DUP1 DUP3 ADD SWAP2 POP POP SWAP1 POP POP SWAP1 JUMP JUMPDEST PUSH1 0x0 PUSH1 0x40 MLOAD SWAP1 POP SWAP1 JUMP JUMPDEST PUSH1 0x0 DUP1 REVERT JUMPDEST PUSH1 0x0 DUP1 REVERT JUMPDEST PUSH1 0x0 DUP2 SWAP1 POP SWAP2 SWAP1 POP JUMP JUMPDEST PUSH2 0x40C2 DUP2 PUSH2 0x40AF JUMP JUMPDEST DUP2 EQ PUSH2 0x40CD JUMPI PUSH1 0x0 DUP1 REVERT JUMPDEST POP JUMP JUMPDEST PUSH1 0x0 DUP2 CALLDATALOAD SWAP1 POP PUSH2 0x40DF DUP2 PUSH2 0x40B9 JUMP JUMPDEST SWAP3 SWAP2 POP POP JUMP JUMPDEST PUSH1 0x0 PUSH1 0x20 DUP3 DUP5 SUB SLT ISZERO PUSH2 0x40FB JUMPI PUSH2 0x40FA PUSH2 0x40A5 JUMP JUMPDEST JUMPDEST PUSH1 0x0 PUSH2 0x4109 DUP5 DUP3 DUP6 ADD PUSH2 0x40D0 JUMP JUMPDEST SWAP2 POP POP SWAP3 SWAP2 POP POP JUMP JUMPDEST PUSH1 0x0 DUP2 ISZERO ISZERO SWAP1 POP SWAP2 SWAP1 POP JUMP JUMPDEST PUSH2 0x4127 DUP2 PUSH2 0x4112 JUMP JUMPDEST DUP3 MSTORE POP POP JUMP JUMPDEST PUSH1 0x0 PUSH1 0x20 DUP3 ADD SWAP1 POP PUSH2 0x4142 PUSH1 0x0 DUP4 ADD DUP5 PUSH2 0x411E JUMP JUMPDEST SWAP3 SWAP2 POP POP JUMP JUMPDEST PUSH1 0x0 DUP1 REVERT JUMPDEST PUSH1 0x0 DUP2 SWAP1 POP DUP3 PUSH1 0x20 PUSH1 0x2 MUL DUP3 ADD GT ISZERO PUSH2 0x4169 JUMPI PUSH2 0x4168 PUSH2 0x4148 JUMP JUMPDEST JUMPDEST SWAP3 SWAP2 POP POP JUMP JUMPDEST PUSH1 0x0 DUP1 REVERT JUMPDEST PUSH1 0x0 PUSH1 0x1F NOT PUSH1 0x1F DUP4 ADD AND SWAP1 POP SWAP2 SWAP1 POP JUMP JUMPDEST PUSH32 0x4E487B7100000000000000000000000000000000000000000000000000000000 PUSH1 0x0 MSTORE PUSH1 0x41 PUSH1 0x4 MSTORE PUSH1 0x24 PUSH1 0x0 REVERT JUMPDEST PUSH2 0x41BD DUP3 PUSH2 0x4174 JUMP JUMPDEST DUP2 ADD DUP2 DUP2 LT PUSH8 0xFFFFFFFFFFFFFFFF DUP3 GT OR ISZERO PUSH2 0x41DC JUMPI PUSH2 0x41DB PUSH2 0x4185 JUMP JUMPDEST JUMPDEST DUP1 PUSH1 0x40 MSTORE POP POP POP JUMP JUMPDEST PUSH1 0x0 PUSH2 0x41EF PUSH2 0x409B JUMP JUMPDEST SWAP1 POP PUSH2 0x41FB DUP3 DUP3 PUSH2 0x41B4 JUMP JUMPDEST SWAP2 SWAP1 POP JUMP JUMPDEST PUSH1 0x0 PUSH8 0xFFFFFFFFFFFFFFFF DUP3 GT ISZERO PUSH2 0x421B JUMPI PUSH2 0x421A PUSH2 0x4185 JUMP JUMPDEST JUMPDEST PUSH1 0x20 DUP3 MUL SWAP1 POP SWAP2 SWAP1 POP JUMP JUMPDEST PUSH1 0x0 PUSH2 0x4239 PUSH2 0x4234 DUP5 PUSH2 0x4200 JUMP JUMPDEST PUSH2 0x41E5 JUMP JUMPDEST SWAP1 POP DUP1 PUSH1 0x20 DUP5 MUL DUP4 ADD DUP6 DUP2 GT ISZERO PUSH2 0x4253 JUMPI PUSH2 0x4252 PUSH2 0x4148 JUMP JUMPDEST JUMPDEST DUP4 JUMPDEST DUP2 DUP2 LT ISZERO PUSH2 0x427C JUMPI DUP1 PUSH2 0x4268 DUP9 DUP3 PUSH2 0x40D0 JUMP JUMPDEST DUP5 MSTORE PUSH1 0x20 DUP5 ADD SWAP4 POP POP PUSH1 0x20 DUP2 ADD SWAP1 POP PUSH2 0x4255 JUMP JUMPDEST POP POP POP SWAP4 SWAP3 POP POP POP JUMP JUMPDEST PUSH1 0x0 DUP3 PUSH1 0x1F DUP4 ADD SLT PUSH2 0x429B JUMPI PUSH2 0x429A PUSH2 0x416F JUMP JUMPDEST JUMPDEST PUSH1 0x2 PUSH2 0x42A8 DUP5 DUP3 DUP6 PUSH2 0x4226 JUMP JUMPDEST SWAP2 POP POP SWAP3 SWAP2 POP POP JUMP JUMPDEST PUSH1 0x0 DUP1 PUSH1 0x80 DUP4 DUP6 SUB SLT ISZERO PUSH2 0x42C8 JUMPI PUSH2 0x42C7 PUSH2 0x40A5 JUMP JUMPDEST JUMPDEST PUSH1 0x0 PUSH2 0x42D6 DUP6 DUP3 DUP7 ADD PUSH2 0x414D JUMP JUMPDEST SWAP3 POP POP PUSH1 0x40 PUSH2 0x42E7 DUP6 DUP3 DUP7 ADD PUSH2 0x4286 JUMP JUMPDEST SWAP2 POP POP SWAP3 POP SWAP3 SWAP1 POP JUMP JUMPDEST PUSH1 0x0 PUSH1 0x4 SWAP1 POP SWAP2 SWAP1 POP JUMP JUMPDEST PUSH1 0x0 DUP2 SWAP1 POP SWAP3 SWAP2 POP POP JUMP JUMPDEST PUSH1 0x0 DUP2 SWAP1 POP SWAP2 SWAP1 POP JUMP JUMPDEST PUSH2 0x431A DUP2 PUSH2 0x40AF JUMP JUMPDEST DUP3 MSTORE POP POP JUMP JUMPDEST PUSH1 0x0 PUSH2 0x432C DUP4 DUP4 PUSH2 0x4311 JUMP JUMPDEST PUSH1 0x20 DUP4 ADD SWAP1 POP SWAP3 SWAP2 POP POP JUMP JUMPDEST PUSH1 0x0 PUSH1 0x20 DUP3 ADD SWAP1 POP SWAP2 SWAP1 POP JUMP JUMPDEST PUSH2 0x434E DUP2 PUSH2 0x42F1 JUMP JUMPDEST PUSH2 0x4358 DUP2 DUP5 PUSH2 0x42FC JUMP JUMPDEST SWAP3 POP PUSH2 0x4363 DUP3 PUSH2 0x4307 JUMP JUMPDEST DUP1 PUSH1 0x0 JUMPDEST DUP4 DUP2 LT ISZERO PUSH2 0x4394 JUMPI DUP2 MLOAD PUSH2 0x437B DUP8 DUP3 PUSH2 0x4320 JUMP JUMPDEST SWAP7 POP PUSH2 0x4386 DUP4 PUSH2 0x4338 JUMP JUMPDEST SWAP3 POP POP PUSH1 0x1 DUP2 ADD SWAP1 POP PUSH2 0x4367 JUMP JUMPDEST POP POP POP POP POP POP JUMP JUMPDEST PUSH1 0x0 PUSH1 0x80 DUP3 ADD SWAP1 POP PUSH2 0x43B1 PUSH1 0x0 DUP4 ADD DUP5 PUSH2 0x4345 JUMP JUMPDEST SWAP3 SWAP2 POP POP JUMP JUMPDEST PUSH1 0x0 PUSH1 0x2 SWAP1 POP SWAP2 SWAP1 POP JUMP JUMPDEST PUSH1 0x0 DUP2 SWAP1 POP SWAP3 SWAP2 POP POP JUMP JUMPDEST PUSH1 0x0 DUP2 SWAP1 POP SWAP2 SWAP1 POP JUMP JUMPDEST PUSH1 0x0 PUSH1 0x20 DUP3 ADD SWAP1 POP SWAP2 SWAP1 POP JUMP JUMPDEST PUSH2 0x43ED DUP2 PUSH2 0x43B7 JUMP JUMPDEST PUSH2 0x43F7 DUP2 DUP5 PUSH2 0x43C2 JUMP JUMPDEST SWAP3 POP PUSH2 0x4402 DUP3 PUSH2 0x43CD JUMP JUMPDEST DUP1 PUSH1 0x0 JUMPDEST DUP4 DUP2 LT ISZERO PUSH2 0x4433 JUMPI DUP2 MLOAD PUSH2 0x441A DUP8 DUP3 PUSH2 0x4320 JUMP JUMPDEST SWAP7 POP PUSH2 0x4425 DUP4 PUSH2 0x43D7 JUMP JUMPDEST SWAP3 POP POP PUSH1 0x1 DUP2 ADD SWAP1 POP PUSH2 0x4406 JUMP JUMPDEST POP POP POP POP POP POP JUMP JUMPDEST PUSH1 0x0 PUSH1 0x40 DUP3 ADD SWAP1 POP PUSH2 0x4450 PUSH1 0x0 DUP4 ADD DUP5 PUSH2 0x43E4 JUMP JUMPDEST SWAP3 SWAP2 POP POP JUMP JUMPDEST PUSH1 0x0 PUSH1 0x40 DUP3 DUP5 SUB SLT ISZERO PUSH2 0x446C JUMPI PUSH2 0x446B PUSH2 0x40A5 JUMP JUMPDEST JUMPDEST PUSH1 0x0 PUSH2 0x447A DUP5 DUP3 DUP6 ADD PUSH2 0x414D JUMP JUMPDEST SWAP2 POP POP SWAP3 SWAP2 POP POP JUMP JUMPDEST PUSH2 0x448C DUP2 PUSH2 0x40AF JUMP JUMPDEST DUP3 MSTORE POP POP JUMP JUMPDEST PUSH1 0x0 PUSH1 0x40 DUP3 ADD SWAP1 POP PUSH2 0x44A7 PUSH1 0x0 DUP4 ADD DUP6 PUSH2 0x4483 JUMP JUMPDEST PUSH2 0x44B4 PUSH1 0x20 DUP4 ADD DUP5 PUSH2 0x411E JUMP JUMPDEST SWAP4 SWAP3 POP POP POP JUMP JUMPDEST PUSH1 0x0 DUP1 REVERT JUMPDEST PUSH1 0x0 PUSH8 0xFFFFFFFFFFFFFFFF DUP3 GT ISZERO PUSH2 0x44DB JUMPI PUSH2 0x44DA PUSH2 0x4185 JUMP JUMPDEST JUMPDEST PUSH2 0x44E4 DUP3 PUSH2 0x4174 JUMP JUMPDEST SWAP1 POP PUSH1 0x20 DUP2 ADD SWAP1 POP SWAP2 SWAP1 POP JUMP JUMPDEST DUP3 DUP2 DUP4 CALLDATACOPY PUSH1 0x0 DUP4 DUP4 ADD MSTORE POP POP POP JUMP JUMPDEST PUSH1 0x0 PUSH2 0x4513 PUSH2 0x450E DUP5 PUSH2 0x44C0 JUMP JUMPDEST PUSH2 0x41E5 JUMP JUMPDEST SWAP1 POP DUP3 DUP2 MSTORE PUSH1 0x20 DUP2 ADD DUP5 DUP5 DUP5 ADD GT ISZERO PUSH2 0x452F JUMPI PUSH2 0x452E PUSH2 0x44BB JUMP JUMPDEST JUMPDEST PUSH2 0x453A DUP5 DUP3 DUP6 PUSH2 0x44F1 JUMP JUMPDEST POP SWAP4 SWAP3 POP POP POP JUMP JUMPDEST PUSH1 0x0 DUP3 PUSH1 0x1F DUP4 ADD SLT PUSH2 0x4557 JUMPI PUSH2 0x4556 PUSH2 0x416F JUMP JUMPDEST JUMPDEST DUP2 CALLDATALOAD PUSH2 0x4567 DUP5 DUP3 PUSH1 0x20 DUP7 ADD PUSH2 0x4500 JUMP JUMPDEST SWAP2 POP POP SWAP3 SWAP2 POP POP JUMP JUMPDEST PUSH1 0x0 DUP1 PUSH1 0x40 DUP4 DUP6 SUB SLT ISZERO PUSH2 0x4587 JUMPI PUSH2 0x4586 PUSH2 0x40A5 JUMP JUMPDEST JUMPDEST PUSH1 0x0 DUP4 ADD CALLDATALOAD PUSH8 0xFFFFFFFFFFFFFFFF DUP2 GT ISZERO PUSH2 0x45A5 JUMPI PUSH2 0x45A4 PUSH2 0x40AA JUMP JUMPDEST JUMPDEST PUSH2 0x45B1 DUP6 DUP3 DUP7 ADD PUSH2 0x4542 JUMP JUMPDEST SWAP3 POP POP PUSH1 0x20 DUP4 ADD CALLDATALOAD PUSH8 0xFFFFFFFFFFFFFFFF DUP2 GT ISZERO PUSH2 0x45D2 JUMPI PUSH2 0x45D1 PUSH2 0x40AA JUMP JUMPDEST JUMPDEST PUSH2 0x45DE DUP6 DUP3 DUP7 ADD PUSH2 0x4542 JUMP JUMPDEST SWAP2 POP POP SWAP3 POP SWAP3 SWAP1 POP JUMP JUMPDEST PUSH1 0x0 DUP2 SWAP1 POP DUP3 PUSH1 0x20 PUSH1 0x4 MUL DUP3 ADD GT ISZERO PUSH2 0x4604 JUMPI PUSH2 0x4603 PUSH2 0x4148 JUMP JUMPDEST JUMPDEST SWAP3 SWAP2 POP POP JUMP JUMPDEST PUSH1 0x0 DUP1 PUSH1 0x0 PUSH2 0x100 DUP5 DUP7 SUB SLT ISZERO PUSH2 0x4624 JUMPI PUSH2 0x4623 PUSH2 0x40A5 JUMP JUMPDEST JUMPDEST PUSH1 0x0 PUSH2 0x4632 DUP7 DUP3 DUP8 ADD PUSH2 0x414D JUMP JUMPDEST SWAP4 POP POP PUSH1 0x40 PUSH2 0x4643 DUP7 DUP3 DUP8 ADD PUSH2 0x45E8 JUMP JUMPDEST SWAP3 POP POP PUSH1 0xC0 PUSH2 0x4654 DUP7 DUP3 DUP8 ADD PUSH2 0x414D JUMP JUMPDEST SWAP2 POP POP SWAP3 POP SWAP3 POP SWAP3 JUMP JUMPDEST PUSH1 0x0 DUP1 REVERT JUMPDEST PUSH1 0x0 DUP1 DUP4 PUSH1 0x1F DUP5 ADD SLT PUSH2 0x4679 JUMPI PUSH2 0x4678 PUSH2 0x416F JUMP JUMPDEST JUMPDEST DUP3 CALLDATALOAD SWAP1 POP PUSH8 0xFFFFFFFFFFFFFFFF DUP2 GT ISZERO PUSH2 0x4696 JUMPI PUSH2 0x4695 PUSH2 0x465E JUMP JUMPDEST JUMPDEST PUSH1 0x20 DUP4 ADD SWAP2 POP DUP4 PUSH1 0x1 DUP3 MUL DUP4 ADD GT ISZERO PUSH2 0x46B2 JUMPI PUSH2 0x46B1 PUSH2 0x4148 JUMP JUMPDEST JUMPDEST SWAP3 POP SWAP3 SWAP1 POP JUMP JUMPDEST PUSH1 0x0 DUP1 PUSH1 0x0 DUP1 PUSH1 0x40 DUP6 DUP8 SUB SLT ISZERO PUSH2 0x46D3 JUMPI PUSH2 0x46D2 PUSH2 0x40A5 JUMP JUMPDEST JUMPDEST PUSH1 0x0 DUP6 ADD CALLDATALOAD PUSH8 0xFFFFFFFFFFFFFFFF DUP2 GT ISZERO PUSH2 0x46F1 JUMPI PUSH2 0x46F0 PUSH2 0x40AA JUMP JUMPDEST JUMPDEST PUSH2 0x46FD DUP8 DUP3 DUP9 ADD PUSH2 0x4663 JUMP JUMPDEST SWAP5 POP SWAP5 POP POP PUSH1 0x20 DUP6 ADD CALLDATALOAD PUSH8 0xFFFFFFFFFFFFFFFF DUP2 GT ISZERO PUSH2 0x4720 JUMPI PUSH2 0x471F PUSH2 0x40AA JUMP JUMPDEST JUMPDEST PUSH2 0x472C DUP8 DUP3 DUP9 ADD PUSH2 0x4663 JUMP JUMPDEST SWAP3 POP SWAP3 POP POP SWAP3 SWAP6 SWAP2 SWAP5 POP SWAP3 POP JUMP JUMPDEST PUSH1 0x0 DUP2 MLOAD SWAP1 POP SWAP2 SWAP1 POP JUMP JUMPDEST PUSH1 0x0 DUP3 DUP3 MSTORE PUSH1 0x20 DUP3 ADD SWAP1 POP SWAP3 SWAP2 POP POP JUMP JUMPDEST PUSH1 0x0 JUMPDEST DUP4 DUP2 LT ISZERO PUSH2 0x4774 JUMPI DUP1 DUP3 ADD MLOAD DUP2 DUP5 ADD MSTORE PUSH1 0x20 DUP2 ADD SWAP1 POP PUSH2 0x4759 JUMP JUMPDEST PUSH1 0x0 DUP5 DUP5 ADD MSTORE POP POP POP POP JUMP JUMPDEST PUSH1 0x0 PUSH2 0x478B DUP3 PUSH2 0x473A JUMP JUMPDEST PUSH2 0x4795 DUP2 DUP6 PUSH2 0x4745 JUMP JUMPDEST SWAP4 POP PUSH2 0x47A5 DUP2 DUP6 PUSH1 0x20 DUP7 ADD PUSH2 0x4756 JUMP JUMPDEST PUSH2 0x47AE DUP2 PUSH2 0x4174 JUMP JUMPDEST DUP5 ADD SWAP2 POP POP SWAP3 SWAP2 POP POP JUMP JUMPDEST PUSH1 0x0 PUSH1 0x20 DUP3 ADD SWAP1 POP DUP2 DUP2 SUB PUSH1 0x0 DUP4 ADD MSTORE PUSH2 0x47D3 DUP2 DUP5 PUSH2 0x4780 JUMP JUMPDEST SWAP1 POP SWAP3 SWAP2 POP POP JUMP JUMPDEST PUSH1 0x0 PUSH1 0x20 DUP3 ADD SWAP1 POP PUSH2 0x47F0 PUSH1 0x0 DUP4 ADD DUP5 PUSH2 0x4483 JUMP JUMPDEST SWAP3 SWAP2 POP POP JUMP JUMPDEST PUSH1 0x0 DUP1 DUP4 PUSH1 0x1F DUP5 ADD SLT PUSH2 0x480C JUMPI PUSH2 0x480B PUSH2 0x416F JUMP JUMPDEST JUMPDEST DUP3 CALLDATALOAD SWAP1 POP PUSH8 0xFFFFFFFFFFFFFFFF DUP2 GT ISZERO PUSH2 0x4829 JUMPI PUSH2 0x4828 PUSH2 0x465E JUMP JUMPDEST JUMPDEST PUSH1 0x20 DUP4 ADD SWAP2 POP DUP4 PUSH1 0x80 DUP3 MUL DUP4 ADD GT ISZERO PUSH2 0x4845 JUMPI PUSH2 0x4844 PUSH2 0x4148 JUMP JUMPDEST JUMPDEST SWAP3 POP SWAP3 SWAP1 POP JUMP JUMPDEST PUSH1 0x0 DUP1 DUP4 PUSH1 0x1F DUP5 ADD SLT PUSH2 0x4862 JUMPI PUSH2 0x4861 PUSH2 0x416F JUMP JUMPDEST JUMPDEST DUP3 CALLDATALOAD SWAP1 POP PUSH8 0xFFFFFFFFFFFFFFFF DUP2 GT ISZERO PUSH2 0x487F JUMPI PUSH2 0x487E PUSH2 0x465E JUMP JUMPDEST JUMPDEST PUSH1 0x20 DUP4 ADD SWAP2 POP DUP4 PUSH1 0x40 DUP3 MUL DUP4 ADD GT ISZERO PUSH2 0x489B JUMPI PUSH2 0x489A PUSH2 0x4148 JUMP JUMPDEST JUMPDEST SWAP3 POP SWAP3 SWAP1 POP JUMP JUMPDEST PUSH1 0x0 DUP1 PUSH1 0x0 DUP1 PUSH1 0x0 PUSH1 0x80 DUP7 DUP9 SUB SLT ISZERO PUSH2 0x48BE JUMPI PUSH2 0x48BD PUSH2 0x40A5 JUMP JUMPDEST JUMPDEST PUSH1 0x0 PUSH2 0x48CC DUP9 DUP3 DUP10 ADD PUSH2 0x414D JUMP JUMPDEST SWAP6 POP POP PUSH1 0x40 DUP7 ADD CALLDATALOAD PUSH8 0xFFFFFFFFFFFFFFFF DUP2 GT ISZERO PUSH2 0x48ED JUMPI PUSH2 0x48EC PUSH2 0x40AA JUMP JUMPDEST JUMPDEST PUSH2 0x48F9 DUP9 DUP3 DUP10 ADD PUSH2 0x47F6 JUMP JUMPDEST SWAP5 POP SWAP5 POP POP PUSH1 0x60 DUP7 ADD CALLDATALOAD PUSH8 0xFFFFFFFFFFFFFFFF DUP2 GT ISZERO PUSH2 0x491C JUMPI PUSH2 0x491B PUSH2 0x40AA JUMP JUMPDEST JUMPDEST PUSH2 0x4928 DUP9 DUP3 DUP10 ADD PUSH2 0x484C JUMP JUMPDEST SWAP3 POP SWAP3 POP POP SWAP3 SWAP6 POP SWAP3 SWAP6 SWAP1 SWAP4 POP JUMP JUMPDEST PUSH1 0x0 DUP2 SWAP1 POP SWAP2 SWAP1 POP JUMP JUMPDEST PUSH2 0x494A DUP2 PUSH2 0x4937 JUMP JUMPDEST DUP2 EQ PUSH2 0x4955 JUMPI PUSH1 0x0 DUP1 REVERT JUMPDEST POP JUMP JUMPDEST PUSH1 0x0 DUP2 CALLDATALOAD SWAP1 POP PUSH2 0x4967 DUP2 PUSH2 0x4941 JUMP JUMPDEST SWAP3 SWAP2 POP POP JUMP JUMPDEST PUSH1 0x0 PUSH1 0x20 DUP3 DUP5 SUB SLT ISZERO PUSH2 0x4983 JUMPI PUSH2 0x4982 PUSH2 0x40A5 JUMP JUMPDEST JUMPDEST PUSH1 0x0 PUSH2 0x4991 DUP5 DUP3 DUP6 ADD PUSH2 0x4958 JUMP JUMPDEST SWAP2 POP POP SWAP3 SWAP2 POP POP JUMP JUMPDEST PUSH1 0x0 DUP1 PUSH1 0x40 DUP4 DUP6 SUB SLT ISZERO PUSH2 0x49B1 JUMPI PUSH2 0x49B0 PUSH2 0x40A5 JUMP JUMPDEST JUMPDEST PUSH1 0x0 PUSH2 0x49BF DUP6 DUP3 DUP7 ADD PUSH2 0x40D0 JUMP JUMPDEST SWAP3 POP POP PUSH1 0x20 PUSH2 0x49D0 DUP6 DUP3 DUP7 ADD PUSH2 0x40D0 JUMP JUMPDEST SWAP2 POP POP SWAP3 POP SWAP3 SWAP1 POP JUMP JUMPDEST PUSH1 0x0 PUSH1 0x80 DUP3 DUP5 SUB SLT ISZERO PUSH2 0x49F0 JUMPI PUSH2 0x49EF PUSH2 0x40A5 JUMP JUMPDEST JUMPDEST PUSH1 0x0 PUSH2 0x49FE DUP5 DUP3 DUP6 ADD PUSH2 0x45E8 JUMP JUMPDEST SWAP2 POP POP SWAP3 SWAP2 POP POP JUMP JUMPDEST PUSH32 0x4E487B7100000000000000000000000000000000000000000000000000000000 PUSH1 0x0 MSTORE PUSH1 0x32 PUSH1 0x4 MSTORE PUSH1 0x24 PUSH1 0x0 REVERT JUMPDEST PUSH1 0x0 DUP3 DUP3 MSTORE PUSH1 0x20 DUP3 ADD SWAP1 POP SWAP3 SWAP2 POP POP JUMP JUMPDEST PUSH32 0x424C533A20626164207920636F6F7264696E61746520666F7220756E636F6D70 PUSH1 0x0 DUP3 ADD MSTORE PUSH32 0x72657373696E67206B6579000000000000000000000000000000000000000000 PUSH1 0x20 DUP3 ADD MSTORE POP JUMP JUMPDEST PUSH1 0x0 PUSH2 0x4AA3 PUSH1 0x2B DUP4 PUSH2 0x4A36 JUMP JUMPDEST SWAP2 POP PUSH2 0x4AAE DUP3 PUSH2 0x4A47 JUMP JUMPDEST PUSH1 0x40 DUP3 ADD SWAP1 POP SWAP2 SWAP1 POP JUMP JUMPDEST PUSH1 0x0 PUSH1 0x20 DUP3 ADD SWAP1 POP DUP2 DUP2 SUB PUSH1 0x0 DUP4 ADD MSTORE PUSH2 0x4AD2 DUP2 PUSH2 0x4A96 JUMP JUMPDEST SWAP1 POP SWAP2 SWAP1 POP JUMP JUMPDEST PUSH32 0x6D6170546F506F696E7446543A20696E76616C6964206669656C6420656C656D PUSH1 0x0 DUP3 ADD MSTORE PUSH32 0x656E740000000000000000000000000000000000000000000000000000000000 PUSH1 0x20 DUP3 ADD MSTORE POP JUMP JUMPDEST PUSH1 0x0 PUSH2 0x4B35 PUSH1 0x23 DUP4 PUSH2 0x4A36 JUMP JUMPDEST SWAP2 POP PUSH2 0x4B40 DUP3 PUSH2 0x4AD9 JUMP JUMPDEST PUSH1 0x40 DUP3 ADD SWAP1 POP SWAP2 SWAP1 POP JUMP JUMPDEST PUSH1 0x0 PUSH1 0x20 DUP3 ADD SWAP1 POP DUP2 DUP2 SUB PUSH1 0x0 DUP4 ADD MSTORE PUSH2 0x4B64 DUP2 PUSH2 0x4B28 JUMP JUMPDEST SWAP1 POP SWAP2 SWAP1 POP JUMP JUMPDEST PUSH32 0x4E487B7100000000000000000000000000000000000000000000000000000000 PUSH1 0x0 MSTORE PUSH1 0x12 PUSH1 0x4 MSTORE PUSH1 0x24 PUSH1 0x0 REVERT JUMPDEST PUSH32 0x4E487B7100000000000000000000000000000000000000000000000000000000 PUSH1 0x0 MSTORE PUSH1 0x11 PUSH1 0x4 MSTORE PUSH1 0x24 PUSH1 0x0 REVERT JUMPDEST PUSH1 0x0 PUSH2 0x4BD4 DUP3 PUSH2 0x40AF JUMP JUMPDEST SWAP2 POP PUSH2 0x4BDF DUP4 PUSH2 0x40AF JUMP JUMPDEST SWAP3 POP DUP3 DUP3 SUB SWAP1 POP DUP2 DUP2 GT ISZERO PUSH2 0x4BF7 JUMPI PUSH2 0x4BF6 PUSH2 0x4B9A JUMP JUMPDEST JUMPDEST SWAP3 SWAP2 POP POP JUMP JUMPDEST PUSH32 0x424C533A20626164206674206D617070696E6720696D706C656D656E74617469 PUSH1 0x0 DUP3 ADD MSTORE PUSH32 0x6F6E000000000000000000000000000000000000000000000000000000000000 PUSH1 0x20 DUP3 ADD MSTORE POP JUMP JUMPDEST PUSH1 0x0 PUSH2 0x4C59 PUSH1 0x22 DUP4 PUSH2 0x4A36 JUMP JUMPDEST SWAP2 POP PUSH2 0x4C64 DUP3 PUSH2 0x4BFD JUMP JUMPDEST PUSH1 0x40 DUP3 ADD SWAP1 POP SWAP2 SWAP1 POP JUMP JUMPDEST PUSH1 0x0 PUSH1 0x20 DUP3 ADD SWAP1 POP DUP2 DUP2 SUB PUSH1 0x0 DUP4 ADD MSTORE PUSH2 0x4C88 DUP2 PUSH2 0x4C4C JUMP JUMPDEST SWAP1 POP SWAP2 SWAP1 POP JUMP JUMPDEST PUSH32 0x424C533A2073717274206D6F646578702063616C6C206661696C656400000000 PUSH1 0x0 DUP3 ADD MSTORE POP JUMP JUMPDEST PUSH1 0x0 PUSH2 0x4CC5 PUSH1 0x1C DUP4 PUSH2 0x4A36 JUMP JUMPDEST SWAP2 POP PUSH2 0x4CD0 DUP3 PUSH2 0x4C8F JUMP JUMPDEST PUSH1 0x20 DUP3 ADD SWAP1 POP SWAP2 SWAP1 POP JUMP JUMPDEST PUSH1 0x0 PUSH1 0x20 DUP3 ADD SWAP1 POP DUP2 DUP2 SUB PUSH1 0x0 DUP4 ADD MSTORE PUSH2 0x4CF4 DUP2 PUSH2 0x4CB8 JUMP JUMPDEST SWAP1 POP SWAP2 SWAP1 POP JUMP JUMPDEST PUSH32 0x424C533A2069734E6F6E52657369647565465032206D6F646578702063616C6C PUSH1 0x0 DUP3 ADD MSTORE PUSH32 0x206661696C656400000000000000000000000000000000000000000000000000 PUSH1 0x20 DUP3 ADD MSTORE POP JUMP JUMPDEST PUSH1 0x0 PUSH2 0x4D57 PUSH1 0x27 DUP4 PUSH2 0x4A36 JUMP JUMPDEST SWAP2 POP PUSH2 0x4D62 DUP3 PUSH2 0x4CFB JUMP JUMPDEST PUSH1 0x40 DUP3 ADD SWAP1 POP SWAP2 SWAP1 POP JUMP JUMPDEST PUSH1 0x0 PUSH1 0x20 DUP3 ADD SWAP1 POP DUP2 DUP2 SUB PUSH1 0x0 DUP4 ADD MSTORE PUSH2 0x4D86 DUP2 PUSH2 0x4D4A JUMP JUMPDEST SWAP1 POP SWAP2 SWAP1 POP JUMP JUMPDEST POP JUMP JUMPDEST PUSH1 0x0 PUSH2 0x4D9D PUSH1 0x0 DUP4 PUSH2 0x4A36 JUMP JUMPDEST SWAP2 POP PUSH2 0x4DA8 DUP3 PUSH2 0x4D8D JUMP JUMPDEST PUSH1 0x0 DUP3 ADD SWAP1 POP SWAP2 SWAP1 POP JUMP JUMPDEST PUSH1 0x0 PUSH1 0x20 DUP3 ADD SWAP1 POP DUP2 DUP2 SUB PUSH1 0x0 DUP4 ADD MSTORE PUSH2 0x4DCC DUP2 PUSH2 0x4D90 JUMP JUMPDEST SWAP1 POP SWAP2 SWAP1 POP JUMP JUMPDEST PUSH32 0x424C533A20696E76616C696420646F6D61696E206C656E677468000000000000 PUSH1 0x0 DUP3 ADD MSTORE POP JUMP JUMPDEST PUSH1 0x0 PUSH2 0x4E09 PUSH1 0x1A DUP4 PUSH2 0x4A36 JUMP JUMPDEST SWAP2 POP PUSH2 0x4E14 DUP3 PUSH2 0x4DD3 JUMP JUMPDEST PUSH1 0x20 DUP3 ADD SWAP1 POP SWAP2 SWAP1 POP JUMP JUMPDEST PUSH1 0x0 PUSH1 0x20 DUP3 ADD SWAP1 POP DUP2 DUP2 SUB PUSH1 0x0 DUP4 ADD MSTORE PUSH2 0x4E38 DUP2 PUSH2 0x4DFC JUMP JUMPDEST SWAP1 POP SWAP2 SWAP1 POP JUMP JUMPDEST PUSH1 0x0 PUSH2 0x4E4A DUP3 PUSH2 0x40AF JUMP JUMPDEST SWAP2 POP PUSH2 0x4E55 DUP4 PUSH2 0x40AF JUMP JUMPDEST SWAP3 POP DUP3 DUP3 ADD SWAP1 POP DUP1 DUP3 GT ISZERO PUSH2 0x4E6D JUMPI PUSH2 0x4E6C PUSH2 0x4B9A JUMP JUMPDEST JUMPDEST SWAP3 SWAP2 POP POP JUMP JUMPDEST PUSH1 0x0 DUP2 SWAP1 POP SWAP3 SWAP2 POP POP JUMP JUMPDEST PUSH1 0x0 PUSH2 0x4E89 DUP3 PUSH2 0x473A JUMP JUMPDEST PUSH2 0x4E93 DUP2 DUP6 PUSH2 0x4E73 JUMP JUMPDEST SWAP4 POP PUSH2 0x4EA3 DUP2 DUP6 PUSH1 0x20 DUP7 ADD PUSH2 0x4756 JUMP JUMPDEST DUP1 DUP5 ADD SWAP2 POP POP SWAP3 SWAP2 POP POP JUMP JUMPDEST PUSH1 0x0 PUSH2 0x4EBB DUP3 DUP5 PUSH2 0x4E7E JUMP JUMPDEST SWAP2 POP DUP2 SWAP1 POP SWAP3 SWAP2 POP POP JUMP JUMPDEST PUSH1 0x0 DUP2 MLOAD SWAP1 POP PUSH2 0x4ED5 DUP2 PUSH2 0x4941 JUMP JUMPDEST SWAP3 SWAP2 POP POP JUMP JUMPDEST PUSH1 0x0 PUSH1 0x20 DUP3 DUP5 SUB SLT ISZERO PUSH2 0x4EF1 JUMPI PUSH2 0x4EF0 PUSH2 0x40A5 JUMP JUMPDEST JUMPDEST PUSH1 0x0 PUSH2 0x4EFF DUP5 DUP3 DUP6 ADD PUSH2 0x4EC6 JUMP JUMPDEST SWAP2 POP POP SWAP3 SWAP2 POP POP JUMP JUMPDEST PUSH32 0x424C533A20696E7665727365206D6F646578702063616C6C206661696C656400 PUSH1 0x0 DUP3 ADD MSTORE POP JUMP JUMPDEST PUSH1 0x0 PUSH2 0x4F3E PUSH1 0x1F DUP4 PUSH2 0x4A36 JUMP JUMPDEST SWAP2 POP PUSH2 0x4F49 DUP3 PUSH2 0x4F08 JUMP JUMPDEST PUSH1 0x20 DUP3 ADD SWAP1 POP SWAP2 SWAP1 POP JUMP JUMPDEST PUSH1 0x0 PUSH1 0x20 DUP3 ADD SWAP1 POP DUP2 DUP2 SUB PUSH1 0x0 DUP4 ADD MSTORE PUSH2 0x4F6D DUP2 PUSH2 0x4F31 JUMP JUMPDEST SWAP1 POP SWAP2 SWAP1 POP JUMP JUMPDEST PUSH32 0x424C533A206E756D626572206F66207075626C6963206B6579206973207A6572 PUSH1 0x0 DUP3 ADD MSTORE PUSH32 0x6F00000000000000000000000000000000000000000000000000000000000000 PUSH1 0x20 DUP3 ADD MSTORE POP JUMP JUMPDEST PUSH1 0x0 PUSH2 0x4FD0 PUSH1 0x21 DUP4 PUSH2 0x4A36 JUMP JUMPDEST SWAP2 POP PUSH2 0x4FDB DUP3 PUSH2 0x4F74 JUMP JUMPDEST PUSH1 0x40 DUP3 ADD SWAP1 POP SWAP2 SWAP1 POP JUMP JUMPDEST PUSH1 0x0 PUSH1 0x20 DUP3 ADD SWAP1 POP DUP2 DUP2 SUB PUSH1 0x0 DUP4 ADD MSTORE PUSH2 0x4FFF DUP2 PUSH2 0x4FC3 JUMP JUMPDEST SWAP1 POP SWAP2 SWAP1 POP JUMP JUMPDEST PUSH32 0x424C533A206E756D626572206F66207075626C6963206B65797320616E64206D PUSH1 0x0 DUP3 ADD MSTORE PUSH32 0x65737361676573206D75737420626520657175616C0000000000000000000000 PUSH1 0x20 DUP3 ADD MSTORE POP JUMP JUMPDEST PUSH1 0x0 PUSH2 0x5062 PUSH1 0x35 DUP4 PUSH2 0x4A36 JUMP JUMPDEST SWAP2 POP PUSH2 0x506D DUP3 PUSH2 0x5006 JUMP JUMPDEST PUSH1 0x40 DUP3 ADD SWAP1 POP SWAP2 SWAP1 POP JUMP JUMPDEST PUSH1 0x0 PUSH1 0x20 DUP3 ADD SWAP1 POP DUP2 DUP2 SUB PUSH1 0x0 DUP4 ADD MSTORE PUSH2 0x5091 DUP2 PUSH2 0x5055 JUMP JUMPDEST SWAP1 POP SWAP2 SWAP1 POP JUMP JUMPDEST PUSH1 0x0 PUSH2 0x50A3 DUP3 PUSH2 0x40AF JUMP JUMPDEST SWAP2 POP PUSH2 0x50AE DUP4 PUSH2 0x40AF JUMP JUMPDEST SWAP3 POP DUP3 DUP3 MUL PUSH2 0x50BC DUP2 PUSH2 0x40AF JUMP JUMPDEST SWAP2 POP DUP3 DUP3 DIV DUP5 EQ DUP4 ISZERO OR PUSH2 0x50D3 JUMPI PUSH2 0x50D2 PUSH2 0x4B9A JUMP JUMPDEST JUMPDEST POP SWAP3 SWAP2 POP POP JUMP JUMPDEST PUSH1 0x0 PUSH2 0x50E5 DUP3 PUSH2 0x40AF JUMP JUMPDEST SWAP2 POP PUSH32 0xFFFFFFFFFFFFFFFFFFFFFFFFFFFFFFFFFFFFFFFFFFFFFFFFFFFFFFFFFFFFFFFF DUP3 SUB PUSH2 0x5117 JUMPI PUSH2 0x5116 PUSH2 0x4B9A JUMP JUMPDEST JUMPDEST PUSH1 0x1 DUP3 ADD SWAP1 POP SWAP2 SWAP1 POP JUMP JUMPDEST PUSH32 0x424C533A2069734E6F6E526573696475654650206D6F646578702063616C6C20 PUSH1 0x0 DUP3 ADD MSTORE PUSH32 0x6661696C65640000000000000000000000000000000000000000000000000000 PUSH1 0x20 DUP3 ADD MSTORE POP JUMP JUMPDEST PUSH1 0x0 PUSH2 0x517E PUSH1 0x26 DUP4 PUSH2 0x4A36 JUMP JUMPDEST SWAP2 POP PUSH2 0x5189 DUP3 PUSH2 0x5122 JUMP JUMPDEST PUSH1 0x40 DUP3 ADD SWAP1 POP SWAP2 SWAP1 POP JUMP JUMPDEST PUSH1 0x0 PUSH1 0x20 DUP3 ADD SWAP1 POP DUP2 DUP2 SUB PUSH1 0x0 DUP4 ADD MSTORE PUSH2 0x51AD DUP2 PUSH2 0x5171 JUMP JUMPDEST SWAP1 POP SWAP2 SWAP1 POP JUMP JUMPDEST PUSH1 0x0 PUSH2 0x51BF DUP3 PUSH2 0x40AF JUMP JUMPDEST SWAP2 POP PUSH2 0x51CA DUP4 PUSH2 0x40AF JUMP JUMPDEST SWAP3 POP DUP3 PUSH2 0x51DA JUMPI PUSH2 0x51D9 PUSH2 0x4B6B JUMP JUMPDEST JUMPDEST DUP3 DUP3 MOD SWAP1 POP SWAP3 SWAP2 POP POP JUMP INVALID LOG2 PUSH5 0x6970667358 0x22 SLT KECCAK256 0x5E DUP15 0xF7 PUSH16 0xEC279E66D245D46CD05A915A3819B95F EXTCODEHASH JUMPDEST SLT LOG3 MUL 0xFB 0xA5 PUSH14 0xD291108264736F6C634300081300 CALLER "},"methodIdentifiers":{"_expandMsg(bytes,bytes)":"85a2b168","_hashToField(bytes,bytes)":"f73caea8","_hashToPoint(bytes,bytes)":"75e06650","_inverse(uint256)":"8cecf66e","_inverseFaster(uint256)":"f8c6c05f","_isNonResidueFP(uint256)":"ac39a635","_isNonResidueFP2(uint256[2])":"6e000f02","_isOnCurveG1(uint256[2])":"f66d032f","_isOnCurveG1Compressed(uint256)":"2758ebce","_isOnCurveG2(uint256[4])":"e1fcad4a","_isOnCurveG2Compressed(uint256[2])":"50c406f7","_isValidCompressedPublicKey(uint256[2])":"f45dded6","_isValidCompressedSignature(uint256)":"91717524","_mapToPointFT(uint256)":"4bfc36e4","_mapToPointTI(bytes32)":"b4a5eaca","_pubkeyToUncompresed(uint256[2],uint256[2])":"384cd5c4","_signatureToUncompresed(uint256,uint256)":"ca608d01","_sqrt(uint256)":"6a263f02","_sqrtFaster(uint256)":"ffef569c","_verifyMultiple(uint256[2],uint256[4][],uint256[2][])":"90baab7f","_verifySingle(uint256[2],uint256[4],uint256[2])":"78d8be24"}}}}}