{
  "_format": "hh-sol-artifact-1",
  "contractName": "Oracles",
  "sourceName": "contracts/Oracles.sol",
  "abi": [
    {
      "inputs": [],
      "stateMutability": "nonpayable",
      "type": "constructor"
    },
    {
      "anonymous": false,
      "inputs": [
        {
          "indexed": false,
          "internalType": "string",
          "name": "validationPath",
          "type": "string"
        },
        {
          "indexed": false,
          "internalType": "string",
          "name": "heiName",
          "type": "string"
        }
      ],
      "name": "AuthenticateHEI",
      "type": "event"
    },
    {
      "anonymous": false,
      "inputs": [
        {
          "indexed": false,
          "internalType": "string",
          "name": "heiResult",
          "type": "string"
        }
      ],
      "name": "AuthenticationMessage",
      "type": "event"
    },
    {
      "anonymous": false,
      "inputs": [
        {
          "indexed": false,
          "internalType": "uint256",
          "name": "clusterID",
          "type": "uint256"
        },
        {
          "indexed": false,
          "internalType": "address",
          "name": "head",
          "type": "address"
        }
      ],
      "name": "NewCluster",
      "type": "event"
    },
    {
      "anonymous": false,
      "inputs": [
        {
          "indexed": false,
          "internalType": "uint256",
          "name": "cluster",
          "type": "uint256"
        },
        {
          "indexed": false,
          "internalType": "string",
          "name": "hei",
          "type": "string"
        }
      ],
      "name": "SurveyTask",
      "type": "event"
    },
    {
      "anonymous": false,
      "inputs": [
        {
          "indexed": false,
          "internalType": "address",
          "name": "hei",
          "type": "address"
        },
        {
          "indexed": false,
          "internalType": "uint256",
          "name": "cluster",
          "type": "uint256"
        }
      ],
      "name": "gatherMetrics",
      "type": "event"
    },
    {
      "anonymous": false,
      "inputs": [
        {
          "indexed": false,
          "internalType": "address",
          "name": "sender",
          "type": "address"
        },
        {
          "indexed": false,
          "internalType": "uint256",
          "name": "cluster",
          "type": "uint256"
        },
        {
          "indexed": false,
          "internalType": "string",
          "name": "IPFS",
          "type": "string"
        },
        {
          "indexed": false,
          "internalType": "uint8",
          "name": "_metricOrder",
          "type": "uint8"
        }
      ],
      "name": "newData",
      "type": "event"
    },
    {
      "anonymous": false,
      "inputs": [
        {
          "indexed": false,
          "internalType": "string",
          "name": "peerIDNotification",
          "type": "string"
        }
      ],
      "name": "shareAccess",
      "type": "event"
    },
    {
      "inputs": [
        {
          "internalType": "address",
          "name": "_heiID",
          "type": "address"
        },
        {
          "internalType": "uint256",
          "name": "_result",
          "type": "uint256"
        },
        {
          "internalType": "uint256[2]",
          "name": "_resultBn",
          "type": "uint256[2]"
        },
        {
          "internalType": "uint256[2]",
          "name": "_thresSig",
          "type": "uint256[2]"
        }
      ],
      "name": "authenticateHEI",
      "outputs": [],
      "stateMutability": "nonpayable",
      "type": "function"
    },
    {
      "inputs": [],
      "name": "clusterCount",
      "outputs": [
        {
          "internalType": "uint256",
          "name": "",
          "type": "uint256"
        }
      ],
      "stateMutability": "view",
      "type": "function"
    },
    {
      "inputs": [
        {
          "internalType": "address",
          "name": "_dataOwner",
          "type": "address"
        },
        {
          "internalType": "address",
          "name": "_heID",
          "type": "address"
        },
        {
          "internalType": "uint256",
          "name": "_metricOrder",
          "type": "uint256"
        },
        {
          "internalType": "uint256",
          "name": "_metricScore",
          "type": "uint256"
        },
        {
          "internalType": "string",
          "name": "_metricData",
          "type": "string"
        },
        {
          "internalType": "uint256[2]",
          "name": "_message",
          "type": "uint256[2]"
        },
        {
          "internalType": "uint256[2]",
          "name": "_thresSig",
          "type": "uint256[2]"
        }
      ],
      "name": "commitHEIData",
      "outputs": [],
      "stateMutability": "nonpayable",
      "type": "function"
    },
    {
      "inputs": [
        {
          "internalType": "address",
          "name": "_heiID",
          "type": "address"
        }
      ],
      "name": "display",
      "outputs": [
        {
          "internalType": "string",
          "name": "",
          "type": "string"
        },
        {
          "internalType": "address",
          "name": "",
          "type": "address"
        }
      ],
      "stateMutability": "view",
      "type": "function"
    },
    {
      "inputs": [
        {
          "internalType": "string",
          "name": "a",
          "type": "string"
        },
        {
          "internalType": "string",
          "name": "b",
          "type": "string"
        }
      ],
      "name": "equals",
      "outputs": [
        {
          "internalType": "bool",
          "name": "",
          "type": "bool"
        }
      ],
      "stateMutability": "pure",
      "type": "function"
    },
    {
      "inputs": [
        {
          "internalType": "uint256",
          "name": "_clusterCount",
          "type": "uint256"
        }
      ],
      "name": "getOracleHead",
      "outputs": [
        {
          "internalType": "address",
          "name": "",
          "type": "address"
        },
        {
          "internalType": "address",
          "name": "",
          "type": "address"
        }
      ],
      "stateMutability": "view",
      "type": "function"
    },
    {
      "inputs": [],
      "name": "heiID",
      "outputs": [
        {
          "internalType": "uint256",
          "name": "",
          "type": "uint256"
        }
      ],
      "stateMutability": "view",
      "type": "function"
    },
    {
      "inputs": [
        {
          "internalType": "uint256",
          "name": "_clusterID",
          "type": "uint256"
        },
        {
          "internalType": "address",
          "name": "_HEID",
          "type": "address"
        }
      ],
      "name": "initiateSurvey",
      "outputs": [],
      "stateMutability": "nonpayable",
      "type": "function"
    },
    {
      "inputs": [],
      "name": "maxClusterSize",
      "outputs": [
        {
          "internalType": "uint16",
          "name": "",
          "type": "uint16"
        }
      ],
      "stateMutability": "view",
      "type": "function"
    },
    {
      "inputs": [
        {
          "internalType": "address",
          "name": "_heiID",
          "type": "address"
        },
        {
          "internalType": "string",
          "name": "_IPFSLink",
          "type": "string"
        },
        {
          "internalType": "uint8",
          "name": "_metricOrder",
          "type": "uint8"
        }
      ],
      "name": "newDataSubmission",
      "outputs": [],
      "stateMutability": "nonpayable",
      "type": "function"
    },
    {
      "inputs": [
        {
          "internalType": "string",
          "name": "_HEIName",
          "type": "string"
        },
        {
          "internalType": "string",
          "name": "_validationPath",
          "type": "string"
        },
        {
          "internalType": "string",
          "name": "_IPNS",
          "type": "string"
        }
      ],
      "name": "registerHEI",
      "outputs": [],
      "stateMutability": "nonpayable",
      "type": "function"
    },
    {
      "inputs": [],
      "name": "registerOracle",
      "outputs": [],
      "stateMutability": "payable",
      "type": "function"
    },
    {
      "inputs": [
        {
          "internalType": "string",
          "name": "_IPNSLink",
          "type": "string"
        }
      ],
      "name": "setIPNSLink",
      "outputs": [],
      "stateMutability": "payable",
      "type": "function"
    },
    {
      "inputs": [
        {
          "internalType": "uint256[4]",
          "name": "_pubkey",
          "type": "uint256[4]"
        }
      ],
      "name": "submitPubKey",
      "outputs": [],
      "stateMutability": "nonpayable",
      "type": "function"
    },
    {
      "inputs": [
        {
          "internalType": "address",
          "name": "_heID",
          "type": "address"
        },
        {
          "internalType": "string",
          "name": "_surveyResults",
          "type": "string"
        },
        {
          "internalType": "uint256",
          "name": "_aggregatedValues",
          "type": "uint256"
        },
        {
          "internalType": "uint256[2]",
          "name": "signature",
          "type": "uint256[2]"
        },
        {
          "internalType": "uint256[2]",
          "name": "message",
          "type": "uint256[2]"
        }
      ],
      "name": "submitSurveyResult",
      "outputs": [],
      "stateMutability": "nonpayable",
      "type": "function"
    },
    {
      "inputs": [],
      "name": "withdrawReward",
      "outputs": [],
      "stateMutability": "nonpayable",
      "type": "function"
    }
  ],
  "bytecode": "0x608060405267016345785d8a0000600055662386f26fc100006001556001600255600060035560048060006101000a81548161ffff021916908361ffff160217905550600a600460026101000a81548161ffff021916908361ffff16021790555062093a8060055534801561007357600080fd5b50614bb0806100836000396000f3fe6080604052600436106100f35760003560e01c806388d8da5f1161008a578063bd71109611610059578063bd711096146102d2578063be1ddddd146102fb578063c885bc5814610339578063eb39113f14610350576100f3565b806388d8da5f14610216578063b109fd8914610253578063b2c8c6521461027c578063bd360bac146102a7576100f3565b80635c599e4f116100c65780635c599e4f14610170578063702f45f314610199578063766aad87146101c45780637c93ef88146101ed576100f3565b8063314b9b37146100f857806332e8e46314610114578063339d25901461013d578063342961c014610147575b600080fd5b610112600480360381019061010d91906130cc565b61038e565b005b34801561012057600080fd5b5061013b600480360381019061013691906131b0565b610586565b005b610145610764565b005b34801561015357600080fd5b5061016e6004803603810190610169919061327c565b6109bb565b005b34801561017c57600080fd5b50610197600480360381019061019291906132e3565b610fb3565b005b3480156101a557600080fd5b506101ae6113ec565b6040516101bb9190613332565b60405180910390f35b3480156101d057600080fd5b506101eb60048036038101906101e6919061348a565b6113f2565b005b3480156101f957600080fd5b50610214600480360381019061020f9190613524565b6118b2565b005b34801561022257600080fd5b5061023d6004803603810190610238919061369c565b611dc8565b60405161024a919061372f565b60405180910390f35b34801561025f57600080fd5b5061027a6004803603810190610275919061374a565b611e34565b005b34801561028857600080fd5b506102916120fb565b60405161029e919061380e565b60405180910390f35b3480156102b357600080fd5b506102bc61210f565b6040516102c99190613332565b60405180910390f35b3480156102de57600080fd5b506102f960048036038101906102f4919061384b565b612115565b005b34801561030757600080fd5b50610322600480360381019061031d9190613878565b6123ad565b6040516103309291906138b4565b60405180910390f35b34801561034557600080fd5b5061034e612469565b005b34801561035c57600080fd5b50610377600480360381019061037291906138dd565b61286b565b604051610385929190613989565b60405180910390f35b60058061ffff166000546103a291906139e8565b34146103e3576040517f08c379a00000000000000000000000000000000000000000000000000000000081526004016103da90613a9c565b60405180910390fd5b6000600b60003373ffffffffffffffffffffffffffffffffffffffff1673ffffffffffffffffffffffffffffffffffffffff1681526020019081526020016000206002015403610468576040517f08c379a000000000000000000000000000000000000000000000000000000000815260040161045f90613b2e565b60405180910390fd5b600073ffffffffffffffffffffffffffffffffffffffff16600760009054906101000a900473ffffffffffffffffffffffffffffffffffffffff1673ffffffffffffffffffffffffffffffffffffffff16146104f9576040517f08c379a00000000000000000000000000000000000000000000000000000000081526004016104f090613b9a565b60405180910390fd5b82826006918261050a929190613dd1565b5033600760006101000a81548173ffffffffffffffffffffffffffffffffffffffff021916908373ffffffffffffffffffffffffffffffffffffffff1602179055507f3744d400f450a34d91a709d1c2475b8944904128368bcad7fd6e9ed6f5f83f9b60405161057990613eed565b60405180910390a1505050565b6000600860008673ffffffffffffffffffffffffffffffffffffffff1673ffffffffffffffffffffffffffffffffffffffff168152602001908152602001600020600201541415801561061857506000600c60003373ffffffffffffffffffffffffffffffffffffffff1673ffffffffffffffffffffffffffffffffffffffff16815260200190815260200160002054145b610657576040517f08c379a000000000000000000000000000000000000000000000000000000000815260040161064e90613f59565b60405180910390fd5b600860008573ffffffffffffffffffffffffffffffffffffffff1673ffffffffffffffffffffffffffffffffffffffff16815260200190815260200160002060020154600c60003373ffffffffffffffffffffffffffffffffffffffff1673ffffffffffffffffffffffffffffffffffffffff168152602001908152602001600020819055507fbeec8e4230f94b9f3103278cb151ecb9bd0865f57a48e38a79a84a457637a1ca33600860008773ffffffffffffffffffffffffffffffffffffffff1673ffffffffffffffffffffffffffffffffffffffff16815260200190815260200160002060020154858585604051610756959493929190613fb5565b60405180910390a150505050565b60018061ffff1660005461077891906139e8565b34146107b9576040517f08c379a00000000000000000000000000000000000000000000000000000000081526004016107b090613a9c565b60405180910390fd5b6000600b60003373ffffffffffffffffffffffffffffffffffffffff1673ffffffffffffffffffffffffffffffffffffffff168152602001908152602001600020600201541461083e576040517f08c379a000000000000000000000000000000000000000000000000000000000815260040161083590614075565b60405180910390fd5b610846612d43565b6000816020018181525050600460029054906101000a900461ffff1661ffff16600a600060035481526020019081526020016000206001015410158061088e57506000600354145b156108a15761089c336129a9565b6108d0565b600a6000600354815260200190815260200160002060010160008154809291906108ca90614095565b91905055505b6003548160400181815250506001600a600060035481526020019081526020016000206001015461090191906140dd565b816000018181525050600a60006003548152602001908152602001600020600c0154600a600060035481526020019081526020016000206002018260000151600a811061095157610950614111565b5b018190555080600b60003373ffffffffffffffffffffffffffffffffffffffff1673ffffffffffffffffffffffffffffffffffffffff1681526020019081526020016000206000820151816000015560208201518160010155604082015181600201559050505050565b6000600b60003373ffffffffffffffffffffffffffffffffffffffff1673ffffffffffffffffffffffffffffffffffffffff1681526020019081526020016000206002015403610a40576040517f08c379a0000000000000000000000000000000000000000000000000000000008152600401610a3790613b2e565b60405180910390fd5b600860008573ffffffffffffffffffffffffffffffffffffffff1673ffffffffffffffffffffffffffffffffffffffff16815260200190815260200160002060000160009054906101000a900473ffffffffffffffffffffffffffffffffffffffff1673ffffffffffffffffffffffffffffffffffffffff168473ffffffffffffffffffffffffffffffffffffffff16148015610b2a5750600860008573ffffffffffffffffffffffffffffffffffffffff1673ffffffffffffffffffffffffffffffffffffffff16815260200190815260200160002060030160009054906101000a900460ff16155b8015610ba25750600460009054906101000a900461ffff1661ffff16600a6000600b60003373ffffffffffffffffffffffffffffffffffffffff1673ffffffffffffffffffffffffffffffffffffffff1681526020019081526020016000206002015481526020019081526020016000206001015410155b610be1576040517f08c379a0000000000000000000000000000000000000000000000000000000008152600401610bd8906141b2565b60405180910390fd5b42600a6000600b60003373ffffffffffffffffffffffffffffffffffffffff1673ffffffffffffffffffffffffffffffffffffffff168152602001908152602001600020600201548152602001908152602001600020600e015411610c7b576040517f08c379a0000000000000000000000000000000000000000000000000000000008152600401610c7290614244565b60405180910390fd5b610d87816002806020026040519081016040528092919082600260200280828437600081840152601f19601f820116905080830192505050505050600a6000600b60003373ffffffffffffffffffffffffffffffffffffffff1673ffffffffffffffffffffffffffffffffffffffff168152602001908152602001600020600201548152602001908152602001600020600f01600480602002604051908101604052809291908260048015610d45576020028201915b815481526020019060010190808311610d31575b5050505050846002806020026040519081016040528092919082600260200280828437600081840152601f19601f820116905080830192505050505050612b1c565b610dc6576040517f08c379a0000000000000000000000000000000000000000000000000000000008152600401610dbd906142d6565b60405180910390fd5b6000831115610e64576001600860008673ffffffffffffffffffffffffffffffffffffffff1673ffffffffffffffffffffffffffffffffffffffff16815260200190815260200160002060030160006101000a81548160ff0219169083151502179055507f37bac6bc273ae63a2ffe6ff8f458e41e3101b281ec4b7c1a52b1ee5dfc0dba24604051610e5790614342565b60405180910390a1610f3f565b600860008573ffffffffffffffffffffffffffffffffffffffff1673ffffffffffffffffffffffffffffffffffffffff168152602001908152602001600020600080820160006101000a81549073ffffffffffffffffffffffffffffffffffffffff0219169055600182016000610edb9190612d64565b60028201600090556003820160006101000a81549060ff0219169055600482016000610f079190612d64565b50507f37bac6bc273ae63a2ffe6ff8f458e41e3101b281ec4b7c1a52b1ee5dfc0dba24604051610f36906143ae565b60405180910390a15b600a6000600b60003373ffffffffffffffffffffffffffffffffffffffff1673ffffffffffffffffffffffffffffffffffffffff168152602001908152602001600020600201548152602001908152602001600020600c016000815480929190610fa890614095565b919050555050505050565b6000600b60003373ffffffffffffffffffffffffffffffffffffffff1673ffffffffffffffffffffffffffffffffffffffff1681526020019081526020016000206002015403611038576040517f08c379a000000000000000000000000000000000000000000000000000000000815260040161102f90613b2e565b60405180910390fd5b600460009054906101000a900461ffff1661ffff16600a6000600b60003373ffffffffffffffffffffffffffffffffffffffff1673ffffffffffffffffffffffffffffffffffffffff1681526020019081526020016000206002015481526020019081526020016000206001015410156110e7576040517f08c379a00000000000000000000000000000000000000000000000000000000081526004016110de9061441a565b60405180910390fd5b6000600860008373ffffffffffffffffffffffffffffffffffffffff1673ffffffffffffffffffffffffffffffffffffffff1681526020019081526020016000206002015414801561117a575081600b60003373ffffffffffffffffffffffffffffffffffffffff1673ffffffffffffffffffffffffffffffffffffffff16815260200190815260200160002060020154145b80156111d25750600860008273ffffffffffffffffffffffffffffffffffffffff1673ffffffffffffffffffffffffffffffffffffffff16815260200190815260200160002060030160009054906101000a900460ff165b611211576040517f08c379a0000000000000000000000000000000000000000000000000000000008152600401611208906144ac565b60405180910390fd5b42600a6000600b60003373ffffffffffffffffffffffffffffffffffffffff1673ffffffffffffffffffffffffffffffffffffffff168152602001908152602001600020600201548152602001908152602001600020600e0154116112ab576040517f08c379a00000000000000000000000000000000000000000000000000000000081526004016112a290614244565b60405180910390fd5b81600860008373ffffffffffffffffffffffffffffffffffffffff1673ffffffffffffffffffffffffffffffffffffffff168152602001908152602001600020600201819055506002600b6000600760009054906101000a900473ffffffffffffffffffffffffffffffffffffffff1673ffffffffffffffffffffffffffffffffffffffff1673ffffffffffffffffffffffffffffffffffffffff168152602001908152602001600020600101600082825461136791906144cc565b925050819055507f3fcabd3ea914f0c2ff2f383498584a0305ea5946c22dff1aef9cc806bcba4c0382600860008473ffffffffffffffffffffffffffffffffffffffff1673ffffffffffffffffffffffffffffffffffffffff1681526020019081526020016000206001016040516113e0929190614584565b60405180910390a15050565b60035481565b6000600b60003373ffffffffffffffffffffffffffffffffffffffff1673ffffffffffffffffffffffffffffffffffffffff1681526020019081526020016000206002015403611477576040517f08c379a000000000000000000000000000000000000000000000000000000000815260040161146e90613b2e565b60405180910390fd5b61151582600a6000600b60003373ffffffffffffffffffffffffffffffffffffffff1673ffffffffffffffffffffffffffffffffffffffff168152602001908152602001600020600201548152602001908152602001600020600f0160048060200260405190810160405280929190826004801561150a576020028201915b8154815260200190600101908083116114f6575b505050505083612b1c565b611554576040517f08c379a000000000000000000000000000000000000000000000000000000000815260040161154b90614600565b60405180910390fd5b600b60003373ffffffffffffffffffffffffffffffffffffffff1673ffffffffffffffffffffffffffffffffffffffff16815260200190815260200160002060020154600860008873ffffffffffffffffffffffffffffffffffffffff1673ffffffffffffffffffffffffffffffffffffffff168152602001908152602001600020600201541461161a576040517f08c379a00000000000000000000000000000000000000000000000000000000081526004016116119061466c565b60405180910390fd5b611622612da4565b8381602001516001600960008b73ffffffffffffffffffffffffffffffffffffffff1673ffffffffffffffffffffffffffffffffffffffff16815260200190815260200160002050600a61167691906140dd565b600a811061168757611686614111565b5b60200201818152505085858080601f016020809104026020016040519081016040528093929190818152602001838380828437600081840152601f19601f8201169050808301925050505050505081600001516001600960008b73ffffffffffffffffffffffffffffffffffffffff1673ffffffffffffffffffffffffffffffffffffffff16815260200190815260200160002050600a61172891906140dd565b600a811061173957611738614111565b5b602002018190525080600960008973ffffffffffffffffffffffffffffffffffffffff1673ffffffffffffffffffffffffffffffffffffffff16815260200190815260200160002060008201518160000190600a611798929190612dd1565b50602082015181600a0190600a6117b0929190612e1d565b50604082015181601401559050506002600a6000600b60003373ffffffffffffffffffffffffffffffffffffffff1673ffffffffffffffffffffffffffffffffffffffff168152602001908152602001600020600201548152602001908152602001600020600c01600082825461182791906144cc565b925050819055507f44df815358eeaa6e5fbb3ac2dd05fd650e171ea29051666a7afdd28c811284f187600860008a73ffffffffffffffffffffffffffffffffffffffff1673ffffffffffffffffffffffffffffffffffffffff168152602001908152602001600020600201546040516118a192919061468c565b60405180910390a150505050505050565b6000600b60003373ffffffffffffffffffffffffffffffffffffffff1673ffffffffffffffffffffffffffffffffffffffff1681526020019081526020016000206002015403611937576040517f08c379a000000000000000000000000000000000000000000000000000000000815260040161192e90613b2e565b60405180910390fd5b6000600860008973ffffffffffffffffffffffffffffffffffffffff1673ffffffffffffffffffffffffffffffffffffffff16815260200190815260200160002060020154036119bc576040517f08c379a00000000000000000000000000000000000000000000000000000000081526004016119b390614701565b60405180910390fd5b600b60003373ffffffffffffffffffffffffffffffffffffffff1673ffffffffffffffffffffffffffffffffffffffff16815260200190815260200160002060020154600c60008a73ffffffffffffffffffffffffffffffffffffffff1673ffffffffffffffffffffffffffffffffffffffff1681526020019081526020016000205414611a7f576040517f08c379a0000000000000000000000000000000000000000000000000000000008152600401611a7690614793565b60405180910390fd5b42600a6000600b60003373ffffffffffffffffffffffffffffffffffffffff1673ffffffffffffffffffffffffffffffffffffffff168152602001908152602001600020600201548152602001908152602001600020600e015411611b19576040517f08c379a0000000000000000000000000000000000000000000000000000000008152600401611b1090614244565b60405180910390fd5b611c25816002806020026040519081016040528092919082600260200280828437600081840152601f19601f820116905080830192505050505050600a6000600b60003373ffffffffffffffffffffffffffffffffffffffff1673ffffffffffffffffffffffffffffffffffffffff168152602001908152602001600020600201548152602001908152602001600020600f01600480602002604051908101604052809291908260048015611be3576020028201915b815481526020019060010190808311611bcf575b5050505050846002806020026040519081016040528092919082600260200280828437600081840152601f19601f820116905080830192505050505050612b1c565b611c64576040517f08c379a0000000000000000000000000000000000000000000000000000000008152600401611c5b906147ff565b60405180910390fd5b84600960008973ffffffffffffffffffffffffffffffffffffffff1673ffffffffffffffffffffffffffffffffffffffff168152602001908152602001600020600a0187600a8110611cb957611cb8614111565b5b01819055508383600960008a73ffffffffffffffffffffffffffffffffffffffff1673ffffffffffffffffffffffffffffffffffffffff16815260200190815260200160002060000188600a8110611d1457611d13614111565b5b019182611d22929190613dd1565b50600b60008973ffffffffffffffffffffffffffffffffffffffff1673ffffffffffffffffffffffffffffffffffffffff1681526020019081526020016000206001016000815480929190611d7690614095565b9190505550600c60008973ffffffffffffffffffffffffffffffffffffffff1673ffffffffffffffffffffffffffffffffffffffff168152602001908152602001600020600090555050505050505050565b60008151835114611ddc5760009050611e2e565b81604051602001611ded919061485b565b6040516020818303038152906040528051906020012083604051602001611e14919061485b565b604051602081830303815290604052805190602001201490505b92915050565b6000600b60003373ffffffffffffffffffffffffffffffffffffffff1673ffffffffffffffffffffffffffffffffffffffff1681526020019081526020016000206002015414611eb9576040517f08c379a0000000000000000000000000000000000000000000000000000000008152600401611eb090614075565b60405180910390fd5b600073ffffffffffffffffffffffffffffffffffffffff16600860003373ffffffffffffffffffffffffffffffffffffffff1673ffffffffffffffffffffffffffffffffffffffff16815260200190815260200160002060000160009054906101000a900473ffffffffffffffffffffffffffffffffffffffff1673ffffffffffffffffffffffffffffffffffffffff1614611f8a576040517f08c379a0000000000000000000000000000000000000000000000000000000008152600401611f81906148e4565b60405180910390fd5b611f92612e5d565b83816020018190525033816000019073ffffffffffffffffffffffffffffffffffffffff16908173ffffffffffffffffffffffffffffffffffffffff168152505081816080018190525080600860003373ffffffffffffffffffffffffffffffffffffffff1673ffffffffffffffffffffffffffffffffffffffff16815260200190815260200160002060008201518160000160006101000a81548173ffffffffffffffffffffffffffffffffffffffff021916908373ffffffffffffffffffffffffffffffffffffffff16021790555060208201518160010190816120789190614904565b506040820151816002015560608201518160030160006101000a81548160ff02191690831515021790555060808201518160040190816120b89190614904565b509050507f528f90766d7ffd9a9b19173678985fe1321acae03e0d442103e20a8f950cf5b283856040516120ed9291906149d6565b60405180910390a150505050565b600460029054906101000a900461ffff1681565b60025481565b6000600b60003373ffffffffffffffffffffffffffffffffffffffff1673ffffffffffffffffffffffffffffffffffffffff168152602001908152602001600020600201540361219a576040517f08c379a000000000000000000000000000000000000000000000000000000000815260040161219190613b2e565b60405180910390fd5b600a6000600b60003373ffffffffffffffffffffffffffffffffffffffff1673ffffffffffffffffffffffffffffffffffffffff168152602001908152602001600020600201548152602001908152602001600020600d0160009054906101000a900473ffffffffffffffffffffffffffffffffffffffff1673ffffffffffffffffffffffffffffffffffffffff163373ffffffffffffffffffffffffffffffffffffffff1614612280576040517f08c379a000000000000000000000000000000000000000000000000000000000815260040161227790614a7f565b60405180910390fd5b600b60003373ffffffffffffffffffffffffffffffffffffffff1673ffffffffffffffffffffffffffffffffffffffff16815260200190815260200160002060010160008154809291906122d390614095565b9190505550600554426122e691906144cc565b600a6000600b60003373ffffffffffffffffffffffffffffffffffffffff1673ffffffffffffffffffffffffffffffffffffffff168152602001908152602001600020600201548152602001908152602001600020600e018190555080600a6000600b60003373ffffffffffffffffffffffffffffffffffffffff1673ffffffffffffffffffffffffffffffffffffffff168152602001908152602001600020600201548152602001908152602001600020600f019060046123a9929190612ea4565b5050565b600080600a6000600b60003373ffffffffffffffffffffffffffffffffffffffff1673ffffffffffffffffffffffffffffffffffffffff168152602001908152602001600020600201548152602001908152602001600020600d0160009054906101000a900473ffffffffffffffffffffffffffffffffffffffff16600a6000858152602001908152602001600020600d0160009054906101000a900473ffffffffffffffffffffffffffffffffffffffff1691509150915091565b6000600b60003373ffffffffffffffffffffffffffffffffffffffff1673ffffffffffffffffffffffffffffffffffffffff16815260200190815260200160002060020154036124ee576040517f08c379a00000000000000000000000000000000000000000000000000000000081526004016124e590613b2e565b60405180910390fd5b600a6000600b60003373ffffffffffffffffffffffffffffffffffffffff1673ffffffffffffffffffffffffffffffffffffffff168152602001908152602001600020600201548152602001908152602001600020600c0154600a6000600b60003373ffffffffffffffffffffffffffffffffffffffff1673ffffffffffffffffffffffffffffffffffffffff168152602001908152602001600020600201548152602001908152602001600020600201600b60003373ffffffffffffffffffffffffffffffffffffffff1673ffffffffffffffffffffffffffffffffffffffff16815260200190815260200160002060000154600a81106125f3576125f2614111565b5b015410612635576040517f08c379a000000000000000000000000000000000000000000000000000000000815260040161262c90614aeb565b60405180910390fd5b6000600a6000600b60003373ffffffffffffffffffffffffffffffffffffffff1673ffffffffffffffffffffffffffffffffffffffff168152602001908152602001600020600201548152602001908152602001600020600201600b60003373ffffffffffffffffffffffffffffffffffffffff1673ffffffffffffffffffffffffffffffffffffffff16815260200190815260200160002060000154600a81106126e3576126e2614111565b5b0154600a6000600b60003373ffffffffffffffffffffffffffffffffffffffff1673ffffffffffffffffffffffffffffffffffffffff168152602001908152602001600020600201548152602001908152602001600020600c015461274891906140dd565b905060006001548261275a91906139e8565b90503373ffffffffffffffffffffffffffffffffffffffff166108fc829081150290604051600060405180830381858888f193505050501580156127a2573d6000803e3d6000fd5b5081600a6000600b60003373ffffffffffffffffffffffffffffffffffffffff1673ffffffffffffffffffffffffffffffffffffffff168152602001908152602001600020600201548152602001908152602001600020600201600b60003373ffffffffffffffffffffffffffffffffffffffff1673ffffffffffffffffffffffffffffffffffffffff16815260200190815260200160002060000154600a81106128505761284f614111565b5b01600082825461286091906144cc565b925050819055505050565b60606000600860008473ffffffffffffffffffffffffffffffffffffffff1673ffffffffffffffffffffffffffffffffffffffff168152602001908152602001600020600101600860008573ffffffffffffffffffffffffffffffffffffffff1673ffffffffffffffffffffffffffffffffffffffff16815260200190815260200160002060000160009054906101000a900473ffffffffffffffffffffffffffffffffffffffff1681805461292090613bf4565b80601f016020809104026020016040519081016040528092919081815260200182805461294c90613bf4565b80156129995780601f1061296e57610100808354040283529160200191612999565b820191906000526020600020905b81548152906001019060200180831161297c57829003601f168201915b5050505050915091509150915091565b600360008154809291906129bc90614095565b91905055506129c9612ee4565b6003548160000181815250506001816020018181525050600081606001818152505081816080019073ffffffffffffffffffffffffffffffffffffffff16908173ffffffffffffffffffffffffffffffffffffffff168152505080600a60006003548152602001908152602001600020600082015181600001556020820151816001015560408201518160020190600a612a64929190612e1d565b50606082015181600c0155608082015181600d0160006101000a81548173ffffffffffffffffffffffffffffffffffffffff021916908373ffffffffffffffffffffffffffffffffffffffff16021790555060a082015181600e015560c082015181600f01906004612ad7929190612f43565b509050507f3d7234633c69b8b87e519c47164c3d80fb215fb9c6f203e796476d468ff7a125816000015183604051612b10929190614b0b565b60405180910390a15050565b60008060405180610180016040528086600060028110612b3f57612b3e614111565b5b6020020151815260200186600160028110612b5d57612b5c614111565b5b602002015181526020017f198e9393920d483a7260bfb731fb5d25f1aa493335a9e71297e485b7aef312c281526020017f1800deef121f1e76426a00665e5c4479674322d4f75edadd46debd5cd992f6ed81526020017f275dc4a288d1afb3cbb1ac09187524c7db36395df7be3b99e673b13a075a65ec81526020017f1d9befcd05a5323e6da4d435f3b617cdb3af83285c2df711ef39c01571827f9d815260200184600060028110612c1357612c12614111565b5b6020020151815260200184600160028110612c3157612c30614111565b5b6020020151815260200185600160048110612c4f57612c4e614111565b5b6020020151815260200185600060048110612c6d57612c6c614111565b5b6020020151815260200185600360048110612c8b57612c8a614111565b5b6020020151815260200185600260048110612ca957612ca8614111565b5b60200201518152509050612cbb612f83565b60006020826101808560086107d05a03fa90508060008103612cd957fe5b5080612d1a576040517f08c379a0000000000000000000000000000000000000000000000000000000008152600401612d1190614b5a565b60405180910390fd5b600082600060018110612d3057612d2f614111565b5b6020020151141593505050509392505050565b60405180606001604052806000815260200160008152602001600081525090565b508054612d7090613bf4565b6000825580601f10612d825750612da1565b601f016020900490600052602060002090810190612da09190612fa5565b5b50565b6040518060600160405280612db7612fc2565b8152602001612dc4612fea565b8152602001600081525090565b82600a8101928215612e0c579160200282015b82811115612e0b578251829081612dfb9190614904565b5091602001919060010190612de4565b5b509050612e19919061300d565b5090565b82600a8101928215612e4c579160200282015b82811115612e4b578251825591602001919060010190612e30565b5b509050612e599190612fa5565b5090565b6040518060a00160405280600073ffffffffffffffffffffffffffffffffffffffff1681526020016060815260200160008152602001600015158152602001606081525090565b8260048101928215612ed3579160200282015b82811115612ed2578235825591602001919060010190612eb7565b5b509050612ee09190612fa5565b5090565b6040518060e001604052806000815260200160008152602001612f05612fea565b815260200160008152602001600073ffffffffffffffffffffffffffffffffffffffff16815260200160008152602001612f3d613031565b81525090565b8260048101928215612f72579160200282015b82811115612f71578251825591602001919060010190612f56565b5b509050612f7f9190612fa5565b5090565b6040518060200160405280600190602082028036833780820191505090505090565b5b80821115612fbe576000816000905550600101612fa6565b5090565b604051806101400160405280600a905b6060815260200190600190039081612fd25790505090565b604051806101400160405280600a90602082028036833780820191505090505090565b5b8082111561302d57600081816130249190612d64565b5060010161300e565b5090565b6040518060800160405280600490602082028036833780820191505090505090565b6000604051905090565b600080fd5b600080fd5b600080fd5b600080fd5b600080fd5b60008083601f84011261308c5761308b613067565b5b8235905067ffffffffffffffff8111156130a9576130a861306c565b5b6020830191508360018202830111156130c5576130c4613071565b5b9250929050565b600080602083850312156130e3576130e261305d565b5b600083013567ffffffffffffffff81111561310157613100613062565b5b61310d85828601613076565b92509250509250929050565b600073ffffffffffffffffffffffffffffffffffffffff82169050919050565b600061314482613119565b9050919050565b61315481613139565b811461315f57600080fd5b50565b6000813590506131718161314b565b92915050565b600060ff82169050919050565b61318d81613177565b811461319857600080fd5b50565b6000813590506131aa81613184565b92915050565b600080600080606085870312156131ca576131c961305d565b5b60006131d887828801613162565b945050602085013567ffffffffffffffff8111156131f9576131f8613062565b5b61320587828801613076565b935093505060406132188782880161319b565b91505092959194509250565b6000819050919050565b61323781613224565b811461324257600080fd5b50565b6000813590506132548161322e565b92915050565b60008190508260206002028201111561327657613275613071565b5b92915050565b60008060008060c085870312156132965761329561305d565b5b60006132a487828801613162565b94505060206132b587828801613245565b93505060406132c68782880161325a565b92505060806132d78782880161325a565b91505092959194509250565b600080604083850312156132fa576132f961305d565b5b600061330885828601613245565b925050602061331985828601613162565b9150509250929050565b61332c81613224565b82525050565b60006020820190506133476000830184613323565b92915050565b6000601f19601f8301169050919050565b7f4e487b7100000000000000000000000000000000000000000000000000000000600052604160045260246000fd5b6133968261334d565b810181811067ffffffffffffffff821117156133b5576133b461335e565b5b80604052505050565b60006133c8613053565b90506133d4828261338d565b919050565b600067ffffffffffffffff8211156133f4576133f361335e565b5b602082029050919050565b600061341261340d846133d9565b6133be565b9050806020840283018581111561342c5761342b613071565b5b835b8181101561345557806134418882613245565b84526020840193505060208101905061342e565b5050509392505050565b600082601f83011261347457613473613067565b5b60026134818482856133ff565b91505092915050565b60008060008060008060e087890312156134a7576134a661305d565b5b60006134b589828a01613162565b965050602087013567ffffffffffffffff8111156134d6576134d5613062565b5b6134e289828a01613076565b955095505060406134f589828a01613245565b935050606061350689828a0161345f565b92505060a061351789828a0161345f565b9150509295509295509295565b600080600080600080600080610120898b0312156135455761354461305d565b5b60006135538b828c01613162565b98505060206135648b828c01613162565b97505060406135758b828c01613245565b96505060606135868b828c01613245565b955050608089013567ffffffffffffffff8111156135a7576135a6613062565b5b6135b38b828c01613076565b945094505060a06135c68b828c0161325a565b92505060e06135d78b828c0161325a565b9150509295985092959890939650565b600080fd5b600067ffffffffffffffff8211156136075761360661335e565b5b6136108261334d565b9050602081019050919050565b82818337600083830152505050565b600061363f61363a846135ec565b6133be565b90508281526020810184848401111561365b5761365a6135e7565b5b61366684828561361d565b509392505050565b600082601f83011261368357613682613067565b5b813561369384826020860161362c565b91505092915050565b600080604083850312156136b3576136b261305d565b5b600083013567ffffffffffffffff8111156136d1576136d0613062565b5b6136dd8582860161366e565b925050602083013567ffffffffffffffff8111156136fe576136fd613062565b5b61370a8582860161366e565b9150509250929050565b60008115159050919050565b61372981613714565b82525050565b60006020820190506137446000830184613720565b92915050565b6000806000606084860312156137635761376261305d565b5b600084013567ffffffffffffffff81111561378157613780613062565b5b61378d8682870161366e565b935050602084013567ffffffffffffffff8111156137ae576137ad613062565b5b6137ba8682870161366e565b925050604084013567ffffffffffffffff8111156137db576137da613062565b5b6137e78682870161366e565b9150509250925092565b600061ffff82169050919050565b613808816137f1565b82525050565b600060208201905061382360008301846137ff565b92915050565b60008190508260206004028201111561384557613844613071565b5b92915050565b6000608082840312156138615761386061305d565b5b600061386f84828501613829565b91505092915050565b60006020828403121561388e5761388d61305d565b5b600061389c84828501613245565b91505092915050565b6138ae81613139565b82525050565b60006040820190506138c960008301856138a5565b6138d660208301846138a5565b9392505050565b6000602082840312156138f3576138f261305d565b5b600061390184828501613162565b91505092915050565b600081519050919050565b600082825260208201905092915050565b60005b83811015613944578082015181840152602081019050613929565b60008484015250505050565b600061395b8261390a565b6139658185613915565b9350613975818560208601613926565b61397e8161334d565b840191505092915050565b600060408201905081810360008301526139a38185613950565b90506139b260208301846138a5565b9392505050565b7f4e487b7100000000000000000000000000000000000000000000000000000000600052601160045260246000fd5b60006139f382613224565b91506139fe83613224565b9250828202613a0c81613224565b91508282048414831517613a2357613a226139b9565b5b5092915050565b7f526567697374726174696f6e2064656e6965642c20696e76616c69642073746160008201527f6b6520616d6f756e742100000000000000000000000000000000000000000000602082015250565b6000613a86602a83613915565b9150613a9182613a2a565b604082019050919050565b60006020820190508181036000830152613ab581613a79565b9050919050565b7f4f7065726174696f6e2064656e6965642c2073686f756c64206265206120726560008201527f6769737465726564206f7261636c652100000000000000000000000000000000602082015250565b6000613b18603083613915565b9150613b2382613abc565b604082019050919050565b60006020820190508181036000830152613b4781613b0b565b9050919050565b7f4d61696e7461696e657220616c72656164792065786973747321000000000000600082015250565b6000613b84601a83613915565b9150613b8f82613b4e565b602082019050919050565b60006020820190508181036000830152613bb381613b77565b9050919050565b600082905092915050565b7f4e487b7100000000000000000000000000000000000000000000000000000000600052602260045260246000fd5b60006002820490506001821680613c0c57607f821691505b602082108103613c1f57613c1e613bc5565b5b50919050565b60008190508160005260206000209050919050565b60006020601f8301049050919050565b600082821b905092915050565b600060088302613c877fffffffffffffffffffffffffffffffffffffffffffffffffffffffffffffffff82613c4a565b613c918683613c4a565b95508019841693508086168417925050509392505050565b6000819050919050565b6000613cce613cc9613cc484613224565b613ca9565b613224565b9050919050565b6000819050919050565b613ce883613cb3565b613cfc613cf482613cd5565b848454613c57565b825550505050565b600090565b613d11613d04565b613d1c818484613cdf565b505050565b5b81811015613d4057613d35600082613d09565b600181019050613d22565b5050565b601f821115613d8557613d5681613c25565b613d5f84613c3a565b81016020851015613d6e578190505b613d82613d7a85613c3a565b830182613d21565b50505b505050565b600082821c905092915050565b6000613da860001984600802613d8a565b1980831691505092915050565b6000613dc18383613d97565b9150826002028217905092915050565b613ddb8383613bba565b67ffffffffffffffff811115613df457613df361335e565b5b613dfe8254613bf4565b613e09828285613d44565b6000601f831160018114613e385760008415613e26578287013590505b613e308582613db5565b865550613e98565b601f198416613e4686613c25565b60005b82811015613e6e57848901358255600182019150602085019450602081019050613e49565b86831015613e8b5784890135613e87601f891682613d97565b8355505b6001600288020188555050505b50505050505050565b7f5368617265207065657249442077697468206f7261636c657321000000000000600082015250565b6000613ed7601a83613915565b9150613ee282613ea1565b602082019050919050565b60006020820190508181036000830152613f0681613eca565b9050919050565b7f496e76616c696420726571756573742100000000000000000000000000000000600082015250565b6000613f43601083613915565b9150613f4e82613f0d565b602082019050919050565b60006020820190508181036000830152613f7281613f36565b9050919050565b6000613f858385613915565b9350613f9283858461361d565b613f9b8361334d565b840190509392505050565b613faf81613177565b82525050565b6000608082019050613fca60008301886138a5565b613fd76020830187613323565b8181036040830152613fea818587613f79565b9050613ff96060830184613fa6565b9695505050505050565b7f526567697374726174696f6e2064656e6965642c2063616e206f6e6c7920726560008201527f676973746572206f6e6365210000000000000000000000000000000000000000602082015250565b600061405f602c83613915565b915061406a82614003565b604082019050919050565b6000602082019050818103600083015261408e81614052565b9050919050565b60006140a082613224565b91507fffffffffffffffffffffffffffffffffffffffffffffffffffffffffffffffff82036140d2576140d16139b9565b5b600182019050919050565b60006140e882613224565b91506140f383613224565b925082820390508181111561410b5761410a6139b9565b5b92915050565b7f4e487b7100000000000000000000000000000000000000000000000000000000600052603260045260246000fd5b7f54686520737065636966696564204845492063616e206e6f742062652061757460008201527f68656e7469636174656421000000000000000000000000000000000000000000602082015250565b600061419c602b83613915565b91506141a782614140565b604082019050919050565b600060208201905081810360008301526141cb8161418f565b9050919050565b7f4861766520746f207265667265736820746865207075626c6963206b6579206260008201527f65666f72652070726f63656564696e6721000000000000000000000000000000602082015250565b600061422e603183613915565b9150614239826141d2565b604082019050919050565b6000602082019050818103600083015261425d81614221565b9050919050565b7f5468652070726f7669646564207369676e61747572652064657461696c73206160008201527f726520696e76616c696400000000000000000000000000000000000000000000602082015250565b60006142c0602a83613915565b91506142cb82614264565b604082019050919050565b600060208201905081810360008301526142ef816142b3565b9050919050565b7f5468652048454920697320726567697374657265642100000000000000000000600082015250565b600061432c601683613915565b9150614337826142f6565b602082019050919050565b6000602082019050818103600083015261435b8161431f565b9050919050565b7f54686520484549206973206e6f74207265676973746572656421000000000000600082015250565b6000614398601a83613915565b91506143a382614362565b602082019050919050565b600060208201905081810360008301526143c78161438b565b9050919050565b7f436c757374657220697320696e76616c69642100000000000000000000000000600082015250565b6000614404601383613915565b915061440f826143ce565b602082019050919050565b60006020820190508181036000830152614433816143f7565b9050919050565b7f496e76616c69642073757276657920726571756573742c20726576697365207260008201527f6571756573742100000000000000000000000000000000000000000000000000602082015250565b6000614496602783613915565b91506144a18261443a565b604082019050919050565b600060208201905081810360008301526144c581614489565b9050919050565b60006144d782613224565b91506144e283613224565b92508282019050808211156144fa576144f96139b9565b5b92915050565b6000815461450d81613bf4565b6145178186613915565b9450600182166000811461453257600181146145485761457b565b60ff19831686528115156020028601935061457b565b61455185613c25565b60005b8381101561457357815481890152600182019150602081019050614554565b808801955050505b50505092915050565b60006040820190506145996000830185613323565b81810360208301526145ab8184614500565b90509392505050565b7f496e76616c6964207468726573686f6c64207369676e61747572652100000000600082015250565b60006145ea601c83613915565b91506145f5826145b4565b602082019050919050565b60006020820190508181036000830152614619816145dd565b9050919050565b7f496e76616c6964204845492073656c6563746564210000000000000000000000600082015250565b6000614656601583613915565b915061466182614620565b602082019050919050565b6000602082019050818103600083015261468581614649565b9050919050565b60006040820190506146a160008301856138a5565b6146ae6020830184613323565b9392505050565b7f484549206973206e6f74206265696e672072616e6b6564210000000000000000600082015250565b60006146eb601883613915565b91506146f6826146b5565b602082019050919050565b6000602082019050818103600083015261471a816146de565b9050919050565b7f4e6f20737563682064617461206c696e6b656420746f20676976656e20636c7560008201527f7374657221000000000000000000000000000000000000000000000000000000602082015250565b600061477d602583613915565b915061478882614721565b604082019050919050565b600060208201905081810360008301526147ac81614770565b9050919050565b7f496e76616c6964207369676e6174757265210000000000000000000000000000600082015250565b60006147e9601283613915565b91506147f4826147b3565b602082019050919050565b60006020820190508181036000830152614818816147dc565b9050919050565b600081905092915050565b60006148358261390a565b61483f818561481f565b935061484f818560208601613926565b80840191505092915050565b6000614867828461482a565b915081905092915050565b7f526567697374726174696f6e2063616e206f6e6c7920626520646f6e65206f6e60008201527f636520617420612074696d652100000000000000000000000000000000000000602082015250565b60006148ce602d83613915565b91506148d982614872565b604082019050919050565b600060208201905081810360008301526148fd816148c1565b9050919050565b61490d8261390a565b67ffffffffffffffff8111156149265761492561335e565b5b6149308254613bf4565b61493b828285613d44565b600060209050601f83116001811461496e576000841561495c578287015190505b6149668582613db5565b8655506149ce565b601f19841661497c86613c25565b60005b828110156149a45784890151825560018201915060208501945060208101905061497f565b868310156149c157848901516149bd601f891682613d97565b8355505b6001600288020188555050505b505050505050565b600060408201905081810360008301526149f08185613950565b90508181036020830152614a048184613950565b90509392505050565b7f4f6e6c79206f7261636c6520686561642063616e207375626d6974207075626c60008201527f6963206b65792100000000000000000000000000000000000000000000000000602082015250565b6000614a69602783613915565b9150614a7482614a0d565b604082019050919050565b60006020820190508181036000830152614a9881614a5c565b9050919050565b7f496e76616c696420436c75737465722100000000000000000000000000000000600082015250565b6000614ad5601083613915565b9150614ae082614a9f565b602082019050919050565b60006020820190508181036000830152614b0481614ac8565b9050919050565b6000604082019050614b206000830185613323565b614b2d60208301846138a5565b9392505050565b50565b6000614b44600083613915565b9150614b4f82614b34565b600082019050919050565b60006020820190508181036000830152614b7381614b37565b905091905056fea2646970667358221220d1f6f13c589fe40b8c07ddb8bf1a9dd296c93f44607d551b25ce28675c8848b964736f6c63430008130033",
  "linkReferences": {},
  "deployedLinkReferences": {}
}